{
	"FCC2.sol": {
		"Staking": {
			"abi": [
				{
					"inputs": [
						{
							"internalType": "address",
							"name": "_token",
							"type": "address"
						},
						{
							"internalType": "address",
							"name": "_stakingWallet",
							"type": "address"
						}
					],
					"stateMutability": "nonpayable",
					"type": "constructor"
				},
				{
					"anonymous": false,
					"inputs": [
						{
							"indexed": true,
							"internalType": "address",
							"name": "user",
							"type": "address"
						},
						{
							"indexed": false,
							"internalType": "uint256",
							"name": "stakedAmount",
							"type": "uint256"
						},
						{
							"indexed": false,
							"internalType": "uint256",
							"name": "reward",
							"type": "uint256"
						}
					],
					"name": "Unstake",
					"type": "event"
				},
				{
					"inputs": [],
					"name": "APR",
					"outputs": [
						{
							"internalType": "uint256",
							"name": "",
							"type": "uint256"
						}
					],
					"stateMutability": "view",
					"type": "function"
				},
				{
					"inputs": [
						{
							"internalType": "uint256",
							"name": "amount",
							"type": "uint256"
						}
					],
					"name": "stake",
					"outputs": [],
					"stateMutability": "nonpayable",
					"type": "function"
				},
				{
					"inputs": [
						{
							"internalType": "address",
							"name": "",
							"type": "address"
						}
					],
					"name": "stakedBalances",
					"outputs": [
						{
							"internalType": "uint256",
							"name": "",
							"type": "uint256"
						}
					],
					"stateMutability": "view",
					"type": "function"
				},
				{
					"inputs": [],
					"name": "stakingPoolBalance",
					"outputs": [
						{
							"internalType": "uint256",
							"name": "",
							"type": "uint256"
						}
					],
					"stateMutability": "view",
					"type": "function"
				},
				{
					"inputs": [
						{
							"internalType": "address",
							"name": "",
							"type": "address"
						}
					],
					"name": "stakingTimestamps",
					"outputs": [
						{
							"internalType": "uint256",
							"name": "",
							"type": "uint256"
						}
					],
					"stateMutability": "view",
					"type": "function"
				},
				{
					"inputs": [],
					"name": "stakingWallet",
					"outputs": [
						{
							"internalType": "address",
							"name": "",
							"type": "address"
						}
					],
					"stateMutability": "view",
					"type": "function"
				},
				{
					"inputs": [],
					"name": "token",
					"outputs": [
						{
							"internalType": "contract IERC20",
							"name": "",
							"type": "address"
						}
					],
					"stateMutability": "view",
					"type": "function"
				},
				{
					"inputs": [],
					"name": "unstake",
					"outputs": [],
					"stateMutability": "nonpayable",
					"type": "function"
				}
			],
			"devdoc": {
				"kind": "dev",
				"methods": {},
				"version": 1
			},
			"evm": {
				"assembly": "    /* \"FCC2.sol\":120:2764  contract Staking {... */\n  mstore(0x40, 0x80)\n    /* \"FCC2.sol\":686:820  constructor(address _token, address _stakingWallet) {... */\n  callvalue\n  dup1\n  iszero\n  tag_1\n  jumpi\n  0x00\n  dup1\n  revert\ntag_1:\n  pop\n  mload(0x40)\n  sub(codesize, bytecodeSize)\n  dup1\n  bytecodeSize\n  dup4\n  codecopy\n  dup2\n  add\n  0x40\n  dup2\n  swap1\n  mstore\n  tag_2\n  swap2\n  tag_3\n  jump\t// in\ntag_2:\n    /* \"FCC2.sol\":749:754  token */\n  0x00\n    /* \"FCC2.sol\":749:771  token = IERC20(_token) */\n  dup1\n  sload\n  sub(shl(0xa0, 0x01), 0x01)\n  swap4\n  dup5\n  and\n  not(sub(shl(0xa0, 0x01), 0x01))\n  swap2\n  dup3\n  and\n  or\n  swap1\n  swap2\n  sstore\n    /* \"FCC2.sol\":782:795  stakingWallet */\n  0x02\n    /* \"FCC2.sol\":782:812  stakingWallet = _stakingWallet */\n  dup1\n  sload\n  swap3\n  swap1\n  swap4\n  and\n  swap2\n  and\n  or\n  swap1\n  sstore\n    /* \"FCC2.sol\":120:2764  contract Staking {... */\n  jump(tag_8)\n    /* \"#utility.yul\":14:191   */\ntag_7:\n    /* \"#utility.yul\":93:106   */\n  dup1\n  mload\n  sub(shl(0xa0, 0x01), 0x01)\n    /* \"#utility.yul\":135:166   */\n  dup2\n  and\n    /* \"#utility.yul\":125:167   */\n  dup2\n  eq\n    /* \"#utility.yul\":115:185   */\n  tag_10\n  jumpi\n    /* \"#utility.yul\":181:182   */\n  0x00\n    /* \"#utility.yul\":178:179   */\n  dup1\n    /* \"#utility.yul\":171:183   */\n  revert\n    /* \"#utility.yul\":115:185   */\ntag_10:\n    /* \"#utility.yul\":14:191   */\n  swap2\n  swap1\n  pop\n  jump\t// out\n    /* \"#utility.yul\":196:489   */\ntag_3:\n    /* \"#utility.yul\":275:281   */\n  0x00\n    /* \"#utility.yul\":283:289   */\n  dup1\n    /* \"#utility.yul\":336:338   */\n  0x40\n    /* \"#utility.yul\":324:333   */\n  dup4\n    /* \"#utility.yul\":315:322   */\n  dup6\n    /* \"#utility.yul\":311:334   */\n  sub\n    /* \"#utility.yul\":307:339   */\n  slt\n    /* \"#utility.yul\":304:356   */\n  iszero\n  tag_12\n  jumpi\n    /* \"#utility.yul\":352:353   */\n  0x00\n    /* \"#utility.yul\":349:350   */\n  dup1\n    /* \"#utility.yul\":342:354   */\n  revert\n    /* \"#utility.yul\":304:356   */\ntag_12:\n    /* \"#utility.yul\":375:415   */\n  tag_13\n    /* \"#utility.yul\":405:414   */\n  dup4\n    /* \"#utility.yul\":375:415   */\n  tag_7\n  jump\t// in\ntag_13:\n    /* \"#utility.yul\":365:415   */\n  swap2\n  pop\n    /* \"#utility.yul\":434:483   */\n  tag_14\n    /* \"#utility.yul\":479:481   */\n  0x20\n    /* \"#utility.yul\":468:477   */\n  dup5\n    /* \"#utility.yul\":464:482   */\n  add\n    /* \"#utility.yul\":434:483   */\n  tag_7\n  jump\t// in\ntag_14:\n    /* \"#utility.yul\":424:483   */\n  swap1\n  pop\n    /* \"#utility.yul\":196:489   */\n  swap3\n  pop\n  swap3\n  swap1\n  pop\n  jump\t// out\ntag_8:\n    /* \"FCC2.sol\":120:2764  contract Staking {... */\n  dataSize(sub_0)\n  dup1\n  dataOffset(sub_0)\n  0x00\n  codecopy\n  0x00\n  return\nstop\n\nsub_0: assembly {\n        /* \"FCC2.sol\":120:2764  contract Staking {... */\n      mstore(0x40, 0x80)\n      callvalue\n      dup1\n      iszero\n      tag_1\n      jumpi\n      0x00\n      dup1\n      revert\n    tag_1:\n      pop\n      jumpi(tag_2, lt(calldatasize, 0x04))\n      shr(0xe0, calldataload(0x00))\n      dup1\n      0xa694fc3a\n      gt\n      tag_11\n      jumpi\n      dup1\n      0xa694fc3a\n      eq\n      tag_7\n      jumpi\n      dup1\n      0xbd30558e\n      eq\n      tag_8\n      jumpi\n      dup1\n      0xfc0c546a\n      eq\n      tag_9\n      jumpi\n      dup1\n      0xfc1c0850\n      eq\n      tag_10\n      jumpi\n      0x00\n      dup1\n      revert\n    tag_11:\n      dup1\n      0x06ee6ad8\n      eq\n      tag_3\n      jumpi\n      dup1\n      0x1460fa87\n      eq\n      tag_4\n      jumpi\n      dup1\n      0x2def6620\n      eq\n      tag_5\n      jumpi\n      dup1\n      0x937b983b\n      eq\n      tag_6\n      jumpi\n    tag_2:\n      0x00\n      dup1\n      revert\n        /* \"FCC2.sol\":268:296  address public stakingWallet */\n    tag_3:\n      sload(0x02)\n      tag_12\n      swap1\n      sub(shl(0xa0, 0x01), 0x01)\n      and\n      dup2\n      jump\n    tag_12:\n      mload(0x40)\n      sub(shl(0xa0, 0x01), 0x01)\n        /* \"#utility.yul\":178:210   */\n      swap1\n      swap2\n      and\n        /* \"#utility.yul\":160:211   */\n      dup2\n      mstore\n        /* \"#utility.yul\":148:150   */\n      0x20\n        /* \"#utility.yul\":133:151   */\n      add\n        /* \"FCC2.sol\":268:296  address public stakingWallet */\n    tag_14:\n      mload(0x40)\n      dup1\n      swap2\n      sub\n      swap1\n      return\n        /* \"FCC2.sol\":347:396  mapping(address => uint256) public stakedBalances */\n    tag_4:\n      tag_16\n      tag_17\n      calldatasize\n      0x04\n      tag_18\n      jump\t// in\n    tag_17:\n      mstore(0x20, 0x03)\n      0x00\n      swap1\n      dup2\n      mstore\n      0x40\n      swap1\n      keccak256\n      sload\n      dup2\n      jump\n    tag_16:\n      mload(0x40)\n        /* \"#utility.yul\":659:684   */\n      swap1\n      dup2\n      mstore\n        /* \"#utility.yul\":647:649   */\n      0x20\n        /* \"#utility.yul\":632:650   */\n      add\n        /* \"FCC2.sol\":347:396  mapping(address => uint256) public stakedBalances */\n      tag_14\n        /* \"#utility.yul\":513:690   */\n      jump\n        /* \"FCC2.sol\":892:1831  function unstake() external {... */\n    tag_5:\n      tag_22\n      tag_23\n      jump\t// in\n    tag_22:\n      stop\n        /* \"FCC2.sol\":427:479  mapping(address => uint256) public stakingTimestamps */\n    tag_6:\n      tag_16\n      tag_25\n      calldatasize\n      0x04\n      tag_18\n      jump\t// in\n    tag_25:\n      mstore(0x20, 0x04)\n      0x00\n      swap1\n      dup2\n      mstore\n      0x40\n      swap1\n      keccak256\n      sload\n      dup2\n      jump\n        /* \"FCC2.sol\":2230:2761  function stake(uint256 amount) external {... */\n    tag_7:\n      tag_22\n      tag_29\n      calldatasize\n      0x04\n      tag_30\n      jump\t// in\n    tag_29:\n      tag_31\n      jump\t// in\n        /* \"FCC2.sol\":518:550  uint256 public constant APR = 30 */\n    tag_8:\n      tag_16\n        /* \"FCC2.sol\":548:550  30 */\n      0x1e\n        /* \"FCC2.sol\":518:550  uint256 public constant APR = 30 */\n      dup2\n      jump\n        /* \"FCC2.sol\":146:165  IERC20 public token */\n    tag_9:\n      sload(0x00)\n      tag_12\n      swap1\n      sub(shl(0xa0, 0x01), 0x01)\n      and\n      dup2\n      jump\n        /* \"FCC2.sol\":199:232  uint256 public stakingPoolBalance */\n    tag_10:\n      tag_16\n      sload(0x01)\n      dup2\n      jump\n        /* \"FCC2.sol\":892:1831  function unstake() external {... */\n    tag_23:\n        /* \"FCC2.sol\":969:979  msg.sender */\n      caller\n        /* \"FCC2.sol\":931:951  uint256 stakedAmount */\n      0x00\n        /* \"FCC2.sol\":954:980  stakedBalances[msg.sender] */\n      swap1\n      dup2\n      mstore\n        /* \"FCC2.sol\":954:968  stakedBalances */\n      0x03\n        /* \"FCC2.sol\":954:980  stakedBalances[msg.sender] */\n      0x20\n      mstore\n      0x40\n      swap1\n      keccak256\n      sload\n        /* \"FCC2.sol\":999:1015  stakedAmount > 0 */\n      dup1\n        /* \"FCC2.sol\":991:1036  require(stakedAmount > 0, \"No tokens staked\") */\n      tag_43\n      jumpi\n      mload(0x40)\n      shl(0xe5, 0x461bcd)\n      dup2\n      mstore\n        /* \"#utility.yul\":1303:1305   */\n      0x20\n        /* \"FCC2.sol\":991:1036  require(stakedAmount > 0, \"No tokens staked\") */\n      0x04\n      dup3\n      add\n        /* \"#utility.yul\":1285:1306   */\n      mstore\n        /* \"#utility.yul\":1342:1344   */\n      0x10\n        /* \"#utility.yul\":1322:1340   */\n      0x24\n      dup3\n      add\n        /* \"#utility.yul\":1315:1345   */\n      mstore\n      shl(0x82, 0x139bc81d1bdad95b9cc81cdd185ad959)\n        /* \"#utility.yul\":1361:1379   */\n      0x44\n      dup3\n      add\n        /* \"#utility.yul\":1354:1400   */\n      mstore\n        /* \"#utility.yul\":1417:1435   */\n      0x64\n      add\n        /* \"FCC2.sol\":991:1036  require(stakedAmount > 0, \"No tokens staked\") */\n    tag_44:\n      mload(0x40)\n      dup1\n      swap2\n      sub\n      swap1\n      revert\n    tag_43:\n        /* \"FCC2.sol\":1111:1121  msg.sender */\n      caller\n        /* \"FCC2.sol\":1049:1072  uint256 stakingDuration */\n      0x00\n        /* \"FCC2.sol\":1093:1122  stakingTimestamps[msg.sender] */\n      swap1\n      dup2\n      mstore\n        /* \"FCC2.sol\":1093:1110  stakingTimestamps */\n      0x04\n        /* \"FCC2.sol\":1093:1122  stakingTimestamps[msg.sender] */\n      0x20\n      mstore\n      0x40\n      dup2\n      keccak256\n      sload\n        /* \"FCC2.sol\":1075:1122  block.timestamp - stakingTimestamps[msg.sender] */\n      tag_46\n      swap1\n        /* \"FCC2.sol\":1075:1090  block.timestamp */\n      timestamp\n        /* \"FCC2.sol\":1075:1122  block.timestamp - stakingTimestamps[msg.sender] */\n      tag_47\n      jump\t// in\n    tag_46:\n        /* \"FCC2.sol\":1049:1122  uint256 stakingDuration = block.timestamp - stakingTimestamps[msg.sender] */\n      swap1\n      pop\n        /* \"FCC2.sol\":1133:1147  uint256 reward */\n      0x00\n        /* \"FCC2.sol\":1150:1197  calculateRewards(stakedAmount, stakingDuration) */\n      tag_48\n        /* \"FCC2.sol\":1167:1179  stakedAmount */\n      dup4\n        /* \"FCC2.sol\":1181:1196  stakingDuration */\n      dup4\n        /* \"FCC2.sol\":1150:1166  calculateRewards */\n      tag_49\n        /* \"FCC2.sol\":1150:1197  calculateRewards(stakedAmount, stakingDuration) */\n      jump\t// in\n    tag_48:\n        /* \"FCC2.sol\":1133:1197  uint256 reward = calculateRewards(stakedAmount, stakingDuration) */\n      swap1\n      pop\n        /* \"FCC2.sol\":1310:1316  reward */\n      dup1\n        /* \"FCC2.sol\":1288:1306  stakingPoolBalance */\n      sload(0x01)\n        /* \"FCC2.sol\":1288:1316  stakingPoolBalance >= reward */\n      lt\n      iszero\n        /* \"FCC2.sol\":1280:1354  require(stakingPoolBalance >= reward, \"Insufficient staking pool balance\") */\n      tag_50\n      jumpi\n      mload(0x40)\n      shl(0xe5, 0x461bcd)\n      dup2\n      mstore\n        /* \"#utility.yul\":1913:1915   */\n      0x20\n        /* \"FCC2.sol\":1280:1354  require(stakingPoolBalance >= reward, \"Insufficient staking pool balance\") */\n      0x04\n      dup3\n      add\n        /* \"#utility.yul\":1895:1916   */\n      mstore\n        /* \"#utility.yul\":1952:1954   */\n      0x21\n        /* \"#utility.yul\":1932:1950   */\n      0x24\n      dup3\n      add\n        /* \"#utility.yul\":1925:1955   */\n      mstore\n        /* \"#utility.yul\":1991:2025   */\n      0x496e73756666696369656e74207374616b696e6720706f6f6c2062616c616e63\n        /* \"#utility.yul\":1971:1989   */\n      0x44\n      dup3\n      add\n        /* \"#utility.yul\":1964:2026   */\n      mstore\n      shl(0xf8, 0x65)\n        /* \"#utility.yul\":2042:2060   */\n      0x64\n      dup3\n      add\n        /* \"#utility.yul\":2035:2066   */\n      mstore\n        /* \"#utility.yul\":2083:2102   */\n      0x84\n      add\n        /* \"FCC2.sol\":1280:1354  require(stakingPoolBalance >= reward, \"Insufficient staking pool balance\") */\n      tag_44\n        /* \"#utility.yul\":1711:2108   */\n      jump\n        /* \"FCC2.sol\":1280:1354  require(stakingPoolBalance >= reward, \"Insufficient staking pool balance\") */\n    tag_50:\n        /* \"FCC2.sol\":1429:1435  reward */\n      dup1\n        /* \"FCC2.sol\":1407:1425  stakingPoolBalance */\n      0x01\n      0x00\n        /* \"FCC2.sol\":1407:1435  stakingPoolBalance -= reward */\n      dup3\n      dup3\n      sload\n      tag_53\n      swap2\n      swap1\n      tag_47\n      jump\t// in\n    tag_53:\n      swap1\n      swap2\n      sstore\n      pop\n      pop\n        /* \"FCC2.sol\":1499:1509  msg.sender */\n      caller\n        /* \"FCC2.sol\":1513:1514  0 */\n      0x00\n        /* \"FCC2.sol\":1484:1510  stakedBalances[msg.sender] */\n      dup2\n      dup2\n      mstore\n        /* \"FCC2.sol\":1484:1498  stakedBalances */\n      0x03\n        /* \"FCC2.sol\":1484:1510  stakedBalances[msg.sender] */\n      0x20\n      swap1\n      dup2\n      mstore\n      0x40\n      dup1\n      dup4\n      keccak256\n        /* \"FCC2.sol\":1484:1514  stakedBalances[msg.sender] = 0 */\n      dup4\n      swap1\n      sstore\n        /* \"FCC2.sol\":1525:1542  stakingTimestamps */\n      0x04\n        /* \"FCC2.sol\":1525:1554  stakingTimestamps[msg.sender] */\n      swap2\n      dup3\n      swap1\n      mstore\n      dup1\n      dup4\n      keccak256\n        /* \"FCC2.sol\":1525:1558  stakingTimestamps[msg.sender] = 0 */\n      dup4\n      swap1\n      sstore\n        /* \"FCC2.sol\":1645:1650  token */\n      swap2\n      sload\n        /* \"FCC2.sol\":1645:1685  token.transfer(msg.sender, stakedAmount) */\n      swap2\n      mload\n      shl(0xe0, 0xa9059cbb)\n      dup2\n      mstore\n      swap1\n      dup2\n      add\n        /* \"#utility.yul\":2287:2338   */\n      swap3\n      swap1\n      swap3\n      mstore\n        /* \"#utility.yul\":2354:2372   */\n      0x24\n      dup3\n      add\n        /* \"#utility.yul\":2347:2381   */\n      dup6\n      swap1\n      mstore\n      sub(shl(0xa0, 0x01), 0x01)\n        /* \"FCC2.sol\":1645:1650  token */\n      and\n      swap1\n        /* \"FCC2.sol\":1645:1659  token.transfer */\n      0xa9059cbb\n      swap1\n        /* \"#utility.yul\":2260:2278   */\n      0x44\n      add\n        /* \"FCC2.sol\":1645:1685  token.transfer(msg.sender, stakedAmount) */\n      0x20\n      mload(0x40)\n      dup1\n      dup4\n      sub\n      dup2\n      0x00\n      dup8\n      gas\n      call\n      iszero\n      dup1\n      iszero\n      tag_57\n      jumpi\n      returndatasize\n      0x00\n      dup1\n      returndatacopy\n      revert(0x00, returndatasize)\n    tag_57:\n      pop\n      pop\n      pop\n      pop\n      mload(0x40)\n      returndatasize\n      not(0x1f)\n      0x1f\n      dup3\n      add\n      and\n      dup3\n      add\n      dup1\n      0x40\n      mstore\n      pop\n      dup2\n      add\n      swap1\n      tag_58\n      swap2\n      swap1\n      tag_59\n      jump\t// in\n    tag_58:\n      pop\n        /* \"FCC2.sol\":1696:1701  token */\n      sload(0x00)\n        /* \"FCC2.sol\":1711:1724  stakingWallet */\n      sload(0x02)\n        /* \"FCC2.sol\":1696:1733  token.transfer(stakingWallet, reward) */\n      mload(0x40)\n      shl(0xe0, 0xa9059cbb)\n      dup2\n      mstore\n      sub(shl(0xa0, 0x01), 0x01)\n        /* \"FCC2.sol\":1711:1724  stakingWallet */\n      swap2\n      dup3\n      and\n        /* \"FCC2.sol\":1696:1733  token.transfer(stakingWallet, reward) */\n      0x04\n      dup3\n      add\n        /* \"#utility.yul\":2287:2338   */\n      mstore\n        /* \"#utility.yul\":2354:2372   */\n      0x24\n      dup2\n      add\n        /* \"#utility.yul\":2347:2381   */\n      dup5\n      swap1\n      mstore\n        /* \"FCC2.sol\":1696:1701  token */\n      swap2\n      and\n      swap1\n        /* \"FCC2.sol\":1696:1710  token.transfer */\n      0xa9059cbb\n      swap1\n        /* \"#utility.yul\":2260:2278   */\n      0x44\n      add\n        /* \"FCC2.sol\":1696:1733  token.transfer(stakingWallet, reward) */\n      0x20\n      mload(0x40)\n      dup1\n      dup4\n      sub\n      dup2\n      0x00\n      dup8\n      gas\n      call\n      iszero\n      dup1\n      iszero\n      tag_62\n      jumpi\n      returndatasize\n      0x00\n      dup1\n      returndatacopy\n      revert(0x00, returndatasize)\n    tag_62:\n      pop\n      pop\n      pop\n      pop\n      mload(0x40)\n      returndatasize\n      not(0x1f)\n      0x1f\n      dup3\n      add\n      and\n      dup3\n      add\n      dup1\n      0x40\n      mstore\n      pop\n      dup2\n      add\n      swap1\n      tag_63\n      swap2\n      swap1\n      tag_59\n      jump\t// in\n    tag_63:\n      pop\n        /* \"FCC2.sol\":1782:1823  Unstake(msg.sender, stakedAmount, reward) */\n      0x40\n      dup1\n      mload\n        /* \"#utility.yul\":2848:2873   */\n      dup5\n      dup2\n      mstore\n        /* \"#utility.yul\":2904:2906   */\n      0x20\n        /* \"#utility.yul\":2889:2907   */\n      dup2\n      add\n        /* \"#utility.yul\":2882:2916   */\n      dup4\n      swap1\n      mstore\n        /* \"FCC2.sol\":1790:1800  msg.sender */\n      caller\n      swap2\n        /* \"FCC2.sol\":1782:1823  Unstake(msg.sender, stakedAmount, reward) */\n      0xf960dbf9e5d0682f7a298ed974e33a28b4464914b7a2bfac12ae419a9afeb280\n      swap2\n        /* \"#utility.yul\":2821:2839   */\n      add\n        /* \"FCC2.sol\":1782:1823  Unstake(msg.sender, stakedAmount, reward) */\n      mload(0x40)\n      dup1\n      swap2\n      sub\n      swap1\n      log2\n        /* \"FCC2.sol\":920:1831  {... */\n      pop\n      pop\n      pop\n        /* \"FCC2.sol\":892:1831  function unstake() external {... */\n      jump\t// out\n        /* \"FCC2.sol\":2230:2761  function stake(uint256 amount) external {... */\n    tag_31:\n        /* \"FCC2.sol\":2298:2299  0 */\n      0x00\n        /* \"FCC2.sol\":2289:2295  amount */\n      dup2\n        /* \"FCC2.sol\":2289:2299  amount > 0 */\n      gt\n        /* \"FCC2.sol\":2281:2336  require(amount > 0, \"Amount must be greater than zero\") */\n      tag_67\n      jumpi\n      mload(0x40)\n      shl(0xe5, 0x461bcd)\n      dup2\n      mstore\n        /* \"#utility.yul\":3129:3131   */\n      0x20\n        /* \"FCC2.sol\":2281:2336  require(amount > 0, \"Amount must be greater than zero\") */\n      0x04\n      dup3\n      add\n        /* \"#utility.yul\":3111:3132   */\n      dup2\n      swap1\n      mstore\n        /* \"#utility.yul\":3148:3166   */\n      0x24\n      dup3\n      add\n        /* \"#utility.yul\":3141:3171   */\n      mstore\n        /* \"#utility.yul\":3207:3241   */\n      0x416d6f756e74206d7573742062652067726561746572207468616e207a65726f\n        /* \"#utility.yul\":3187:3205   */\n      0x44\n      dup3\n      add\n        /* \"#utility.yul\":3180:3242   */\n      mstore\n        /* \"#utility.yul\":3259:3277   */\n      0x64\n      add\n        /* \"FCC2.sol\":2281:2336  require(amount > 0, \"Amount must be greater than zero\") */\n      tag_44\n        /* \"#utility.yul\":2927:3283   */\n      jump\n        /* \"FCC2.sol\":2281:2336  require(amount > 0, \"Amount must be greater than zero\") */\n    tag_67:\n        /* \"FCC2.sol\":2393:2398  token */\n      sload(0x00)\n        /* \"FCC2.sol\":2393:2446  token.transferFrom(msg.sender, address(this), amount) */\n      mload(0x40)\n      shl(0xe0, 0x23b872dd)\n      dup2\n      mstore\n        /* \"FCC2.sol\":2412:2422  msg.sender */\n      caller\n        /* \"FCC2.sol\":2393:2446  token.transferFrom(msg.sender, address(this), amount) */\n      0x04\n      dup3\n      add\n        /* \"#utility.yul\":3490:3541   */\n      mstore\n        /* \"FCC2.sol\":2432:2436  this */\n      address\n        /* \"#utility.yul\":3557:3575   */\n      0x24\n      dup3\n      add\n        /* \"#utility.yul\":3550:3610   */\n      mstore\n        /* \"#utility.yul\":3626:3644   */\n      0x44\n      dup2\n      add\n        /* \"#utility.yul\":3619:3653   */\n      dup4\n      swap1\n      mstore\n      sub(shl(0xa0, 0x01), 0x01)\n        /* \"FCC2.sol\":2393:2398  token */\n      swap1\n      swap2\n      and\n      swap1\n        /* \"FCC2.sol\":2393:2411  token.transferFrom */\n      0x23b872dd\n      swap1\n        /* \"#utility.yul\":3463:3481   */\n      0x64\n      add\n        /* \"FCC2.sol\":2393:2446  token.transferFrom(msg.sender, address(this), amount) */\n      0x20\n      mload(0x40)\n      dup1\n      dup4\n      sub\n      dup2\n      0x00\n      dup8\n      gas\n      call\n      iszero\n      dup1\n      iszero\n      tag_73\n      jumpi\n      returndatasize\n      0x00\n      dup1\n      returndatacopy\n      revert(0x00, returndatasize)\n    tag_73:\n      pop\n      pop\n      pop\n      pop\n      mload(0x40)\n      returndatasize\n      not(0x1f)\n      0x1f\n      dup3\n      add\n      and\n      dup3\n      add\n      dup1\n      0x40\n      mstore\n      pop\n      dup2\n      add\n      swap1\n      tag_74\n      swap2\n      swap1\n      tag_59\n      jump\t// in\n    tag_74:\n      pop\n        /* \"FCC2.sol\":2523:2533  msg.sender */\n      caller\n        /* \"FCC2.sol\":2508:2534  stakedBalances[msg.sender] */\n      0x00\n      swap1\n      dup2\n      mstore\n        /* \"FCC2.sol\":2508:2522  stakedBalances */\n      0x03\n        /* \"FCC2.sol\":2508:2534  stakedBalances[msg.sender] */\n      0x20\n      mstore\n      0x40\n      dup2\n      keccak256\n        /* \"FCC2.sol\":2508:2544  stakedBalances[msg.sender] += amount */\n      dup1\n      sload\n        /* \"FCC2.sol\":2538:2544  amount */\n      dup4\n      swap3\n        /* \"FCC2.sol\":2508:2534  stakedBalances[msg.sender] */\n      swap1\n        /* \"FCC2.sol\":2508:2544  stakedBalances[msg.sender] += amount */\n      tag_75\n      swap1\n        /* \"FCC2.sol\":2538:2544  amount */\n      dup5\n      swap1\n        /* \"FCC2.sol\":2508:2544  stakedBalances[msg.sender] += amount */\n      tag_76\n      jump\t// in\n    tag_75:\n      swap1\n      swap2\n      sstore\n      pop\n      pop\n        /* \"FCC2.sol\":2573:2583  msg.sender */\n      caller\n        /* \"FCC2.sol\":2555:2584  stakingTimestamps[msg.sender] */\n      0x00\n      swap1\n      dup2\n      mstore\n        /* \"FCC2.sol\":2555:2572  stakingTimestamps */\n      0x04\n        /* \"FCC2.sol\":2555:2584  stakingTimestamps[msg.sender] */\n      0x20\n      mstore\n      0x40\n      dup2\n      keccak256\n        /* \"FCC2.sol\":2587:2602  block.timestamp */\n      timestamp\n        /* \"FCC2.sol\":2555:2602  stakingTimestamps[msg.sender] = block.timestamp */\n      swap1\n      sstore\n        /* \"FCC2.sol\":2683:2710  calculateRewards(amount, 0) */\n      tag_77\n      swap1\n        /* \"FCC2.sol\":2700:2706  amount */\n      dup3\n      swap1\n        /* \"FCC2.sol\":2683:2699  calculateRewards */\n      tag_49\n        /* \"FCC2.sol\":2683:2710  calculateRewards(amount, 0) */\n      jump\t// in\n    tag_77:\n        /* \"FCC2.sol\":2661:2679  stakingPoolBalance */\n      0x01\n      0x00\n        /* \"FCC2.sol\":2661:2710  stakingPoolBalance += calculateRewards(amount, 0) */\n      dup3\n      dup3\n      sload\n      tag_78\n      swap2\n      swap1\n      tag_76\n      jump\t// in\n    tag_78:\n      swap1\n      swap2\n      sstore\n      pop\n      pop\n      pop\n        /* \"FCC2.sol\":2230:2761  function stake(uint256 amount) external {... */\n      jump\t// out\n        /* \"FCC2.sol\":1903:2155  function calculateRewards(uint256 stakedAmount, uint256 duration) internal pure returns (uint256) {... */\n    tag_49:\n        /* \"FCC2.sol\":1992:1999  uint256 */\n      0x00\n      dup1\n        /* \"FCC2.sol\":2058:2061  100 */\n      0x64\n        /* \"FCC2.sol\":2036:2054  stakedAmount * APR */\n      tag_80\n        /* \"FCC2.sol\":548:550  30 */\n      0x1e\n        /* \"FCC2.sol\":2036:2048  stakedAmount */\n      dup7\n        /* \"FCC2.sol\":2036:2054  stakedAmount * APR */\n      tag_81\n      jump\t// in\n    tag_80:\n        /* \"FCC2.sol\":2035:2061  (stakedAmount * APR) / 100 */\n      tag_82\n      swap2\n      swap1\n      tag_83\n      jump\t// in\n    tag_82:\n        /* \"FCC2.sol\":2012:2061  uint256 yearlyReward = (stakedAmount * APR) / 100 */\n      swap1\n      pop\n        /* \"FCC2.sol\":2108:2116  365 days */\n      0x01e13380\n        /* \"FCC2.sol\":2080:2103  yearlyReward * duration */\n      tag_84\n        /* \"FCC2.sol\":2095:2103  duration */\n      dup5\n        /* \"FCC2.sol\":2012:2061  uint256 yearlyReward = (stakedAmount * APR) / 100 */\n      dup4\n        /* \"FCC2.sol\":2080:2103  yearlyReward * duration */\n      tag_81\n      jump\t// in\n    tag_84:\n        /* \"FCC2.sol\":2079:2117  (yearlyReward * duration) / (365 days) */\n      tag_85\n      swap2\n      swap1\n      tag_83\n      jump\t// in\n    tag_85:\n        /* \"FCC2.sol\":2072:2117  return (yearlyReward * duration) / (365 days) */\n      swap2\n      pop\n      pop\n        /* \"FCC2.sol\":1903:2155  function calculateRewards(uint256 stakedAmount, uint256 duration) internal pure returns (uint256) {... */\n    tag_79:\n      swap3\n      swap2\n      pop\n      pop\n      jump\t// out\n        /* \"#utility.yul\":222:508   */\n    tag_18:\n        /* \"#utility.yul\":281:287   */\n      0x00\n        /* \"#utility.yul\":334:336   */\n      0x20\n        /* \"#utility.yul\":322:331   */\n      dup3\n        /* \"#utility.yul\":313:320   */\n      dup5\n        /* \"#utility.yul\":309:332   */\n      sub\n        /* \"#utility.yul\":305:337   */\n      slt\n        /* \"#utility.yul\":302:354   */\n      iszero\n      tag_90\n      jumpi\n        /* \"#utility.yul\":350:351   */\n      0x00\n        /* \"#utility.yul\":347:348   */\n      dup1\n        /* \"#utility.yul\":340:352   */\n      revert\n        /* \"#utility.yul\":302:354   */\n    tag_90:\n        /* \"#utility.yul\":376:399   */\n      dup2\n      calldataload\n      sub(shl(0xa0, 0x01), 0x01)\n        /* \"#utility.yul\":428:459   */\n      dup2\n      and\n        /* \"#utility.yul\":418:460   */\n      dup2\n      eq\n        /* \"#utility.yul\":408:478   */\n      tag_91\n      jumpi\n        /* \"#utility.yul\":474:475   */\n      0x00\n        /* \"#utility.yul\":471:472   */\n      dup1\n        /* \"#utility.yul\":464:476   */\n      revert\n        /* \"#utility.yul\":408:478   */\n    tag_91:\n        /* \"#utility.yul\":497:502   */\n      swap4\n        /* \"#utility.yul\":222:508   */\n      swap3\n      pop\n      pop\n      pop\n      jump\t// out\n        /* \"#utility.yul\":695:875   */\n    tag_30:\n        /* \"#utility.yul\":754:760   */\n      0x00\n        /* \"#utility.yul\":807:809   */\n      0x20\n        /* \"#utility.yul\":795:804   */\n      dup3\n        /* \"#utility.yul\":786:793   */\n      dup5\n        /* \"#utility.yul\":782:805   */\n      sub\n        /* \"#utility.yul\":778:810   */\n      slt\n        /* \"#utility.yul\":775:827   */\n      iszero\n      tag_94\n      jumpi\n        /* \"#utility.yul\":823:824   */\n      0x00\n        /* \"#utility.yul\":820:821   */\n      dup1\n        /* \"#utility.yul\":813:825   */\n      revert\n        /* \"#utility.yul\":775:827   */\n    tag_94:\n      pop\n        /* \"#utility.yul\":846:869   */\n      calldataload\n      swap2\n        /* \"#utility.yul\":695:875   */\n      swap1\n      pop\n      jump\t// out\n        /* \"#utility.yul\":1446:1573   */\n    tag_86:\n        /* \"#utility.yul\":1507:1517   */\n      0x4e487b71\n        /* \"#utility.yul\":1502:1505   */\n      0xe0\n        /* \"#utility.yul\":1498:1518   */\n      shl\n        /* \"#utility.yul\":1495:1496   */\n      0x00\n        /* \"#utility.yul\":1488:1519   */\n      mstore\n        /* \"#utility.yul\":1538:1542   */\n      0x11\n        /* \"#utility.yul\":1535:1536   */\n      0x04\n        /* \"#utility.yul\":1528:1543   */\n      mstore\n        /* \"#utility.yul\":1562:1566   */\n      0x24\n        /* \"#utility.yul\":1559:1560   */\n      0x00\n        /* \"#utility.yul\":1552:1567   */\n      revert\n        /* \"#utility.yul\":1578:1706   */\n    tag_47:\n        /* \"#utility.yul\":1645:1654   */\n      dup2\n      dup2\n      sub\n        /* \"#utility.yul\":1666:1677   */\n      dup2\n      dup2\n      gt\n        /* \"#utility.yul\":1663:1700   */\n      iszero\n      tag_79\n      jumpi\n        /* \"#utility.yul\":1680:1698   */\n      tag_79\n      tag_86\n      jump\t// in\n        /* \"#utility.yul\":2392:2669   */\n    tag_59:\n        /* \"#utility.yul\":2459:2465   */\n      0x00\n        /* \"#utility.yul\":2512:2514   */\n      0x20\n        /* \"#utility.yul\":2500:2509   */\n      dup3\n        /* \"#utility.yul\":2491:2498   */\n      dup5\n        /* \"#utility.yul\":2487:2510   */\n      sub\n        /* \"#utility.yul\":2483:2515   */\n      slt\n        /* \"#utility.yul\":2480:2532   */\n      iszero\n      tag_104\n      jumpi\n        /* \"#utility.yul\":2528:2529   */\n      0x00\n        /* \"#utility.yul\":2525:2526   */\n      dup1\n        /* \"#utility.yul\":2518:2530   */\n      revert\n        /* \"#utility.yul\":2480:2532   */\n    tag_104:\n        /* \"#utility.yul\":2560:2569   */\n      dup2\n        /* \"#utility.yul\":2554:2570   */\n      mload\n        /* \"#utility.yul\":2613:2618   */\n      dup1\n        /* \"#utility.yul\":2606:2619   */\n      iszero\n        /* \"#utility.yul\":2599:2620   */\n      iszero\n        /* \"#utility.yul\":2592:2597   */\n      dup2\n        /* \"#utility.yul\":2589:2621   */\n      eq\n        /* \"#utility.yul\":2579:2639   */\n      tag_91\n      jumpi\n        /* \"#utility.yul\":2635:2636   */\n      0x00\n        /* \"#utility.yul\":2632:2633   */\n      dup1\n        /* \"#utility.yul\":2625:2637   */\n      revert\n        /* \"#utility.yul\":3664:3789   */\n    tag_76:\n        /* \"#utility.yul\":3729:3738   */\n      dup1\n      dup3\n      add\n        /* \"#utility.yul\":3750:3760   */\n      dup1\n      dup3\n      gt\n        /* \"#utility.yul\":3747:3783   */\n      iszero\n      tag_79\n      jumpi\n        /* \"#utility.yul\":3763:3781   */\n      tag_79\n      tag_86\n      jump\t// in\n        /* \"#utility.yul\":3794:3962   */\n    tag_81:\n        /* \"#utility.yul\":3867:3876   */\n      dup1\n      dup3\n      mul\n        /* \"#utility.yul\":3898:3907   */\n      dup2\n      iszero\n        /* \"#utility.yul\":3915:3930   */\n      dup3\n      dup3\n      div\n        /* \"#utility.yul\":3909:3931   */\n      dup5\n      eq\n        /* \"#utility.yul\":3895:3932   */\n      or\n        /* \"#utility.yul\":3885:3956   */\n      tag_79\n      jumpi\n        /* \"#utility.yul\":3936:3954   */\n      tag_79\n      tag_86\n      jump\t// in\n        /* \"#utility.yul\":3967:4184   */\n    tag_83:\n        /* \"#utility.yul\":4007:4008   */\n      0x00\n        /* \"#utility.yul\":4033:4034   */\n      dup3\n        /* \"#utility.yul\":4023:4155   */\n      tag_116\n      jumpi\n        /* \"#utility.yul\":4077:4087   */\n      0x4e487b71\n        /* \"#utility.yul\":4072:4075   */\n      0xe0\n        /* \"#utility.yul\":4068:4088   */\n      shl\n        /* \"#utility.yul\":4065:4066   */\n      0x00\n        /* \"#utility.yul\":4058:4089   */\n      mstore\n        /* \"#utility.yul\":4112:4116   */\n      0x12\n        /* \"#utility.yul\":4109:4110   */\n      0x04\n        /* \"#utility.yul\":4102:4117   */\n      mstore\n        /* \"#utility.yul\":4140:4144   */\n      0x24\n        /* \"#utility.yul\":4137:4138   */\n      0x00\n        /* \"#utility.yul\":4130:4145   */\n      revert\n        /* \"#utility.yul\":4023:4155   */\n    tag_116:\n      pop\n        /* \"#utility.yul\":4169:4178   */\n      div\n      swap1\n        /* \"#utility.yul\":3967:4184   */\n      jump\t// out\n\n    auxdata: 0xa264697066735822122079a5e564a06818d17e7884e104f5fd27e79389a9b34d6a2b317807829c1b2c4064736f6c634300081a0033\n}\n",
				"bytecode": {
					"linkReferences": {},
					"object": "6080604052348015600e575f80fd5b5060405161068b38038061068b833981016040819052602b916074565b5f80546001600160a01b039384166001600160a01b0319918216179091556002805492909316911617905560a0565b80516001600160a01b0381168114606f575f80fd5b919050565b5f80604083850312156084575f80fd5b608b83605a565b9150609760208401605a565b90509250929050565b6105de806100ad5f395ff3fe608060405234801561000f575f80fd5b5060043610610085575f3560e01c8063a694fc3a11610058578063a694fc3a1461010f578063bd30558e14610122578063fc0c546a1461012a578063fc1c08501461013c575f80fd5b806306ee6ad8146100895780631460fa87146100b95780632def6620146100e6578063937b983b146100f0575b5f80fd5b60025461009c906001600160a01b031681565b6040516001600160a01b0390911681526020015b60405180910390f35b6100d86100c73660046104d5565b60036020525f908152604090205481565b6040519081526020016100b0565b6100ee610145565b005b6100d86100fe3660046104d5565b60046020525f908152604090205481565b6100ee61011d366004610502565b610379565b6100d8601e81565b5f5461009c906001600160a01b031681565b6100d860015481565b335f90815260036020526040902054806101995760405162461bcd60e51b815260206004820152601060248201526f139bc81d1bdad95b9cc81cdd185ad95960821b60448201526064015b60405180910390fd5b335f908152600460205260408120546101b2904261052d565b90505f6101bf8383610497565b905080600154101561021d5760405162461bcd60e51b815260206004820152602160248201527f496e73756666696369656e74207374616b696e6720706f6f6c2062616c616e636044820152606560f81b6064820152608401610190565b8060015f82825461022e919061052d565b9091555050335f8181526003602090815260408083208390556004918290528083208390559154915163a9059cbb60e01b815290810192909252602482018590526001600160a01b03169063a9059cbb906044016020604051808303815f875af115801561029e573d5f803e3d5ffd5b505050506040513d601f19601f820116820180604052508101906102c29190610540565b505f5460025460405163a9059cbb60e01b81526001600160a01b0391821660048201526024810184905291169063a9059cbb906044016020604051808303815f875af1158015610314573d5f803e3d5ffd5b505050506040513d601f19601f820116820180604052508101906103389190610540565b50604080518481526020810183905233917ff960dbf9e5d0682f7a298ed974e33a28b4464914b7a2bfac12ae419a9afeb280910160405180910390a2505050565b5f81116103c85760405162461bcd60e51b815260206004820181905260248201527f416d6f756e74206d7573742062652067726561746572207468616e207a65726f6044820152606401610190565b5f546040516323b872dd60e01b8152336004820152306024820152604481018390526001600160a01b03909116906323b872dd906064016020604051808303815f875af115801561041b573d5f803e3d5ffd5b505050506040513d601f19601f8201168201806040525081019061043f9190610540565b50335f908152600360205260408120805483929061045e90849061055f565b9091555050335f90815260046020526040812042905561047f908290610497565b60015f82825461048f919061055f565b909155505050565b5f8060646104a6601e86610572565b6104b09190610589565b90506301e133806104c18483610572565b6104cb9190610589565b9150505b92915050565b5f602082840312156104e5575f80fd5b81356001600160a01b03811681146104fb575f80fd5b9392505050565b5f60208284031215610512575f80fd5b5035919050565b634e487b7160e01b5f52601160045260245ffd5b818103818111156104cf576104cf610519565b5f60208284031215610550575f80fd5b815180151581146104fb575f80fd5b808201808211156104cf576104cf610519565b80820281158282048414176104cf576104cf610519565b5f826105a357634e487b7160e01b5f52601260045260245ffd5b50049056fea264697066735822122079a5e564a06818d17e7884e104f5fd27e79389a9b34d6a2b317807829c1b2c4064736f6c634300081a0033",
					"opcodes": "PUSH1 0x80 PUSH1 0x40 MSTORE CALLVALUE DUP1 ISZERO PUSH1 0xE JUMPI PUSH0 DUP1 REVERT JUMPDEST POP PUSH1 0x40 MLOAD PUSH2 0x68B CODESIZE SUB DUP1 PUSH2 0x68B DUP4 CODECOPY DUP2 ADD PUSH1 0x40 DUP2 SWAP1 MSTORE PUSH1 0x2B SWAP2 PUSH1 0x74 JUMP JUMPDEST PUSH0 DUP1 SLOAD PUSH1 0x1 PUSH1 0x1 PUSH1 0xA0 SHL SUB SWAP4 DUP5 AND PUSH1 0x1 PUSH1 0x1 PUSH1 0xA0 SHL SUB NOT SWAP2 DUP3 AND OR SWAP1 SWAP2 SSTORE PUSH1 0x2 DUP1 SLOAD SWAP3 SWAP1 SWAP4 AND SWAP2 AND OR SWAP1 SSTORE PUSH1 0xA0 JUMP JUMPDEST DUP1 MLOAD PUSH1 0x1 PUSH1 0x1 PUSH1 0xA0 SHL SUB DUP2 AND DUP2 EQ PUSH1 0x6F JUMPI PUSH0 DUP1 REVERT JUMPDEST SWAP2 SWAP1 POP JUMP JUMPDEST PUSH0 DUP1 PUSH1 0x40 DUP4 DUP6 SUB SLT ISZERO PUSH1 0x84 JUMPI PUSH0 DUP1 REVERT JUMPDEST PUSH1 0x8B DUP4 PUSH1 0x5A JUMP JUMPDEST SWAP2 POP PUSH1 0x97 PUSH1 0x20 DUP5 ADD PUSH1 0x5A JUMP JUMPDEST SWAP1 POP SWAP3 POP SWAP3 SWAP1 POP JUMP JUMPDEST PUSH2 0x5DE DUP1 PUSH2 0xAD PUSH0 CODECOPY PUSH0 RETURN INVALID PUSH1 0x80 PUSH1 0x40 MSTORE CALLVALUE DUP1 ISZERO PUSH2 0xF JUMPI PUSH0 DUP1 REVERT JUMPDEST POP PUSH1 0x4 CALLDATASIZE LT PUSH2 0x85 JUMPI PUSH0 CALLDATALOAD PUSH1 0xE0 SHR DUP1 PUSH4 0xA694FC3A GT PUSH2 0x58 JUMPI DUP1 PUSH4 0xA694FC3A EQ PUSH2 0x10F JUMPI DUP1 PUSH4 0xBD30558E EQ PUSH2 0x122 JUMPI DUP1 PUSH4 0xFC0C546A EQ PUSH2 0x12A JUMPI DUP1 PUSH4 0xFC1C0850 EQ PUSH2 0x13C JUMPI PUSH0 DUP1 REVERT JUMPDEST DUP1 PUSH4 0x6EE6AD8 EQ PUSH2 0x89 JUMPI DUP1 PUSH4 0x1460FA87 EQ PUSH2 0xB9 JUMPI DUP1 PUSH4 0x2DEF6620 EQ PUSH2 0xE6 JUMPI DUP1 PUSH4 0x937B983B EQ PUSH2 0xF0 JUMPI JUMPDEST PUSH0 DUP1 REVERT JUMPDEST PUSH1 0x2 SLOAD PUSH2 0x9C SWAP1 PUSH1 0x1 PUSH1 0x1 PUSH1 0xA0 SHL SUB AND DUP2 JUMP JUMPDEST PUSH1 0x40 MLOAD PUSH1 0x1 PUSH1 0x1 PUSH1 0xA0 SHL SUB SWAP1 SWAP2 AND DUP2 MSTORE PUSH1 0x20 ADD JUMPDEST PUSH1 0x40 MLOAD DUP1 SWAP2 SUB SWAP1 RETURN JUMPDEST PUSH2 0xD8 PUSH2 0xC7 CALLDATASIZE PUSH1 0x4 PUSH2 0x4D5 JUMP JUMPDEST PUSH1 0x3 PUSH1 0x20 MSTORE PUSH0 SWAP1 DUP2 MSTORE PUSH1 0x40 SWAP1 KECCAK256 SLOAD DUP2 JUMP JUMPDEST PUSH1 0x40 MLOAD SWAP1 DUP2 MSTORE PUSH1 0x20 ADD PUSH2 0xB0 JUMP JUMPDEST PUSH2 0xEE PUSH2 0x145 JUMP JUMPDEST STOP JUMPDEST PUSH2 0xD8 PUSH2 0xFE CALLDATASIZE PUSH1 0x4 PUSH2 0x4D5 JUMP JUMPDEST PUSH1 0x4 PUSH1 0x20 MSTORE PUSH0 SWAP1 DUP2 MSTORE PUSH1 0x40 SWAP1 KECCAK256 SLOAD DUP2 JUMP JUMPDEST PUSH2 0xEE PUSH2 0x11D CALLDATASIZE PUSH1 0x4 PUSH2 0x502 JUMP JUMPDEST PUSH2 0x379 JUMP JUMPDEST PUSH2 0xD8 PUSH1 0x1E DUP2 JUMP JUMPDEST PUSH0 SLOAD PUSH2 0x9C SWAP1 PUSH1 0x1 PUSH1 0x1 PUSH1 0xA0 SHL SUB AND DUP2 JUMP JUMPDEST PUSH2 0xD8 PUSH1 0x1 SLOAD DUP2 JUMP JUMPDEST CALLER PUSH0 SWAP1 DUP2 MSTORE PUSH1 0x3 PUSH1 0x20 MSTORE PUSH1 0x40 SWAP1 KECCAK256 SLOAD DUP1 PUSH2 0x199 JUMPI PUSH1 0x40 MLOAD PUSH3 0x461BCD PUSH1 0xE5 SHL DUP2 MSTORE PUSH1 0x20 PUSH1 0x4 DUP3 ADD MSTORE PUSH1 0x10 PUSH1 0x24 DUP3 ADD MSTORE PUSH16 0x139BC81D1BDAD95B9CC81CDD185AD959 PUSH1 0x82 SHL PUSH1 0x44 DUP3 ADD MSTORE PUSH1 0x64 ADD JUMPDEST PUSH1 0x40 MLOAD DUP1 SWAP2 SUB SWAP1 REVERT JUMPDEST CALLER PUSH0 SWAP1 DUP2 MSTORE PUSH1 0x4 PUSH1 0x20 MSTORE PUSH1 0x40 DUP2 KECCAK256 SLOAD PUSH2 0x1B2 SWAP1 TIMESTAMP PUSH2 0x52D JUMP JUMPDEST SWAP1 POP PUSH0 PUSH2 0x1BF DUP4 DUP4 PUSH2 0x497 JUMP JUMPDEST SWAP1 POP DUP1 PUSH1 0x1 SLOAD LT ISZERO PUSH2 0x21D JUMPI PUSH1 0x40 MLOAD PUSH3 0x461BCD PUSH1 0xE5 SHL DUP2 MSTORE PUSH1 0x20 PUSH1 0x4 DUP3 ADD MSTORE PUSH1 0x21 PUSH1 0x24 DUP3 ADD MSTORE PUSH32 0x496E73756666696369656E74207374616B696E6720706F6F6C2062616C616E63 PUSH1 0x44 DUP3 ADD MSTORE PUSH1 0x65 PUSH1 0xF8 SHL PUSH1 0x64 DUP3 ADD MSTORE PUSH1 0x84 ADD PUSH2 0x190 JUMP JUMPDEST DUP1 PUSH1 0x1 PUSH0 DUP3 DUP3 SLOAD PUSH2 0x22E SWAP2 SWAP1 PUSH2 0x52D JUMP JUMPDEST SWAP1 SWAP2 SSTORE POP POP CALLER PUSH0 DUP2 DUP2 MSTORE PUSH1 0x3 PUSH1 0x20 SWAP1 DUP2 MSTORE PUSH1 0x40 DUP1 DUP4 KECCAK256 DUP4 SWAP1 SSTORE PUSH1 0x4 SWAP2 DUP3 SWAP1 MSTORE DUP1 DUP4 KECCAK256 DUP4 SWAP1 SSTORE SWAP2 SLOAD SWAP2 MLOAD PUSH4 0xA9059CBB PUSH1 0xE0 SHL DUP2 MSTORE SWAP1 DUP2 ADD SWAP3 SWAP1 SWAP3 MSTORE PUSH1 0x24 DUP3 ADD DUP6 SWAP1 MSTORE PUSH1 0x1 PUSH1 0x1 PUSH1 0xA0 SHL SUB AND SWAP1 PUSH4 0xA9059CBB SWAP1 PUSH1 0x44 ADD PUSH1 0x20 PUSH1 0x40 MLOAD DUP1 DUP4 SUB DUP2 PUSH0 DUP8 GAS CALL ISZERO DUP1 ISZERO PUSH2 0x29E JUMPI RETURNDATASIZE PUSH0 DUP1 RETURNDATACOPY RETURNDATASIZE PUSH0 REVERT JUMPDEST POP POP POP POP PUSH1 0x40 MLOAD RETURNDATASIZE PUSH1 0x1F NOT PUSH1 0x1F DUP3 ADD AND DUP3 ADD DUP1 PUSH1 0x40 MSTORE POP DUP2 ADD SWAP1 PUSH2 0x2C2 SWAP2 SWAP1 PUSH2 0x540 JUMP JUMPDEST POP PUSH0 SLOAD PUSH1 0x2 SLOAD PUSH1 0x40 MLOAD PUSH4 0xA9059CBB PUSH1 0xE0 SHL DUP2 MSTORE PUSH1 0x1 PUSH1 0x1 PUSH1 0xA0 SHL SUB SWAP2 DUP3 AND PUSH1 0x4 DUP3 ADD MSTORE PUSH1 0x24 DUP2 ADD DUP5 SWAP1 MSTORE SWAP2 AND SWAP1 PUSH4 0xA9059CBB SWAP1 PUSH1 0x44 ADD PUSH1 0x20 PUSH1 0x40 MLOAD DUP1 DUP4 SUB DUP2 PUSH0 DUP8 GAS CALL ISZERO DUP1 ISZERO PUSH2 0x314 JUMPI RETURNDATASIZE PUSH0 DUP1 RETURNDATACOPY RETURNDATASIZE PUSH0 REVERT JUMPDEST POP POP POP POP PUSH1 0x40 MLOAD RETURNDATASIZE PUSH1 0x1F NOT PUSH1 0x1F DUP3 ADD AND DUP3 ADD DUP1 PUSH1 0x40 MSTORE POP DUP2 ADD SWAP1 PUSH2 0x338 SWAP2 SWAP1 PUSH2 0x540 JUMP JUMPDEST POP PUSH1 0x40 DUP1 MLOAD DUP5 DUP2 MSTORE PUSH1 0x20 DUP2 ADD DUP4 SWAP1 MSTORE CALLER SWAP2 PUSH32 0xF960DBF9E5D0682F7A298ED974E33A28B4464914B7A2BFAC12AE419A9AFEB280 SWAP2 ADD PUSH1 0x40 MLOAD DUP1 SWAP2 SUB SWAP1 LOG2 POP POP POP JUMP JUMPDEST PUSH0 DUP2 GT PUSH2 0x3C8 JUMPI PUSH1 0x40 MLOAD PUSH3 0x461BCD PUSH1 0xE5 SHL DUP2 MSTORE PUSH1 0x20 PUSH1 0x4 DUP3 ADD DUP2 SWAP1 MSTORE PUSH1 0x24 DUP3 ADD MSTORE PUSH32 0x416D6F756E74206D7573742062652067726561746572207468616E207A65726F PUSH1 0x44 DUP3 ADD MSTORE PUSH1 0x64 ADD PUSH2 0x190 JUMP JUMPDEST PUSH0 SLOAD PUSH1 0x40 MLOAD PUSH4 0x23B872DD PUSH1 0xE0 SHL DUP2 MSTORE CALLER PUSH1 0x4 DUP3 ADD MSTORE ADDRESS PUSH1 0x24 DUP3 ADD MSTORE PUSH1 0x44 DUP2 ADD DUP4 SWAP1 MSTORE PUSH1 0x1 PUSH1 0x1 PUSH1 0xA0 SHL SUB SWAP1 SWAP2 AND SWAP1 PUSH4 0x23B872DD SWAP1 PUSH1 0x64 ADD PUSH1 0x20 PUSH1 0x40 MLOAD DUP1 DUP4 SUB DUP2 PUSH0 DUP8 GAS CALL ISZERO DUP1 ISZERO PUSH2 0x41B JUMPI RETURNDATASIZE PUSH0 DUP1 RETURNDATACOPY RETURNDATASIZE PUSH0 REVERT JUMPDEST POP POP POP POP PUSH1 0x40 MLOAD RETURNDATASIZE PUSH1 0x1F NOT PUSH1 0x1F DUP3 ADD AND DUP3 ADD DUP1 PUSH1 0x40 MSTORE POP DUP2 ADD SWAP1 PUSH2 0x43F SWAP2 SWAP1 PUSH2 0x540 JUMP JUMPDEST POP CALLER PUSH0 SWAP1 DUP2 MSTORE PUSH1 0x3 PUSH1 0x20 MSTORE PUSH1 0x40 DUP2 KECCAK256 DUP1 SLOAD DUP4 SWAP3 SWAP1 PUSH2 0x45E SWAP1 DUP5 SWAP1 PUSH2 0x55F JUMP JUMPDEST SWAP1 SWAP2 SSTORE POP POP CALLER PUSH0 SWAP1 DUP2 MSTORE PUSH1 0x4 PUSH1 0x20 MSTORE PUSH1 0x40 DUP2 KECCAK256 TIMESTAMP SWAP1 SSTORE PUSH2 0x47F SWAP1 DUP3 SWAP1 PUSH2 0x497 JUMP JUMPDEST PUSH1 0x1 PUSH0 DUP3 DUP3 SLOAD PUSH2 0x48F SWAP2 SWAP1 PUSH2 0x55F JUMP JUMPDEST SWAP1 SWAP2 SSTORE POP POP POP JUMP JUMPDEST PUSH0 DUP1 PUSH1 0x64 PUSH2 0x4A6 PUSH1 0x1E DUP7 PUSH2 0x572 JUMP JUMPDEST PUSH2 0x4B0 SWAP2 SWAP1 PUSH2 0x589 JUMP JUMPDEST SWAP1 POP PUSH4 0x1E13380 PUSH2 0x4C1 DUP5 DUP4 PUSH2 0x572 JUMP JUMPDEST PUSH2 0x4CB SWAP2 SWAP1 PUSH2 0x589 JUMP JUMPDEST SWAP2 POP POP JUMPDEST SWAP3 SWAP2 POP POP JUMP JUMPDEST PUSH0 PUSH1 0x20 DUP3 DUP5 SUB SLT ISZERO PUSH2 0x4E5 JUMPI PUSH0 DUP1 REVERT JUMPDEST DUP2 CALLDATALOAD PUSH1 0x1 PUSH1 0x1 PUSH1 0xA0 SHL SUB DUP2 AND DUP2 EQ PUSH2 0x4FB JUMPI PUSH0 DUP1 REVERT JUMPDEST SWAP4 SWAP3 POP POP POP JUMP JUMPDEST PUSH0 PUSH1 0x20 DUP3 DUP5 SUB SLT ISZERO PUSH2 0x512 JUMPI PUSH0 DUP1 REVERT JUMPDEST POP CALLDATALOAD SWAP2 SWAP1 POP JUMP JUMPDEST PUSH4 0x4E487B71 PUSH1 0xE0 SHL PUSH0 MSTORE PUSH1 0x11 PUSH1 0x4 MSTORE PUSH1 0x24 PUSH0 REVERT JUMPDEST DUP2 DUP2 SUB DUP2 DUP2 GT ISZERO PUSH2 0x4CF JUMPI PUSH2 0x4CF PUSH2 0x519 JUMP JUMPDEST PUSH0 PUSH1 0x20 DUP3 DUP5 SUB SLT ISZERO PUSH2 0x550 JUMPI PUSH0 DUP1 REVERT JUMPDEST DUP2 MLOAD DUP1 ISZERO ISZERO DUP2 EQ PUSH2 0x4FB JUMPI PUSH0 DUP1 REVERT JUMPDEST DUP1 DUP3 ADD DUP1 DUP3 GT ISZERO PUSH2 0x4CF JUMPI PUSH2 0x4CF PUSH2 0x519 JUMP JUMPDEST DUP1 DUP3 MUL DUP2 ISZERO DUP3 DUP3 DIV DUP5 EQ OR PUSH2 0x4CF JUMPI PUSH2 0x4CF PUSH2 0x519 JUMP JUMPDEST PUSH0 DUP3 PUSH2 0x5A3 JUMPI PUSH4 0x4E487B71 PUSH1 0xE0 SHL PUSH0 MSTORE PUSH1 0x12 PUSH1 0x4 MSTORE PUSH1 0x24 PUSH0 REVERT JUMPDEST POP DIV SWAP1 JUMP INVALID LOG2 PUSH5 0x6970667358 0x22 SLT KECCAK256 PUSH26 0xA5E564A06818D17E7884E104F5FD27E79389A9B34D6A2B317807 DUP3 SWAP13 SHL 0x2C BLOCKHASH PUSH5 0x736F6C6343 STOP ADDMOD BYTE STOP CALLER "
				},
				"gasEstimates": {
					"creation": {
						"codeDepositCost": "300400",
						"executionCost": "infinite",
						"totalCost": "infinite"
					},
					"external": {
						"APR()": "216",
						"stake(uint256)": "infinite",
						"stakedBalances(address)": "2504",
						"stakingPoolBalance()": "2360",
						"stakingTimestamps(address)": "2548",
						"stakingWallet()": "2326",
						"token()": "2368",
						"unstake()": "infinite"
					},
					"internal": {
						"calculateRewards(uint256,uint256)": "infinite"
					}
				},
				"methodIdentifiers": {
					"APR()": "bd30558e",
					"stake(uint256)": "a694fc3a",
					"stakedBalances(address)": "1460fa87",
					"stakingPoolBalance()": "fc1c0850",
					"stakingTimestamps(address)": "937b983b",
					"stakingWallet()": "06ee6ad8",
					"token()": "fc0c546a",
					"unstake()": "2def6620"
				}
			},
			"storageLayout": {
				"storage": [
					{
						"astId": 83,
						"contract": "FCC2.sol:Staking",
						"label": "token",
						"offset": 0,
						"slot": "0",
						"type": "t_contract(IERC20)77"
					},
					{
						"astId": 85,
						"contract": "FCC2.sol:Staking",
						"label": "stakingPoolBalance",
						"offset": 0,
						"slot": "1",
						"type": "t_uint256"
					},
					{
						"astId": 87,
						"contract": "FCC2.sol:Staking",
						"label": "stakingWallet",
						"offset": 0,
						"slot": "2",
						"type": "t_address"
					},
					{
						"astId": 91,
						"contract": "FCC2.sol:Staking",
						"label": "stakedBalances",
						"offset": 0,
						"slot": "3",
						"type": "t_mapping(t_address,t_uint256)"
					},
					{
						"astId": 95,
						"contract": "FCC2.sol:Staking",
						"label": "stakingTimestamps",
						"offset": 0,
						"slot": "4",
						"type": "t_mapping(t_address,t_uint256)"
					}
				],
				"types": {
					"t_address": {
						"encoding": "inplace",
						"label": "address",
						"numberOfBytes": "20"
					},
					"t_contract(IERC20)77": {
						"encoding": "inplace",
						"label": "contract IERC20",
						"numberOfBytes": "20"
					},
					"t_mapping(t_address,t_uint256)": {
						"encoding": "mapping",
						"key": "t_address",
						"label": "mapping(address => uint256)",
						"numberOfBytes": "32",
						"value": "t_uint256"
					},
					"t_uint256": {
						"encoding": "inplace",
						"label": "uint256",
						"numberOfBytes": "32"
					}
				}
			},
			"userdoc": {
				"kind": "user",
				"methods": {},
				"version": 1
			}
		}
	}
}