{
	"data": {
		"bytecode": {
			"linkReferences": {},
			"object": "6101606040526028600d55620d2f00600f55601180546001600160a01b0319163017905534801561002e575f80fd5b5060405161254838038061254883398101604081905261004d9161053e565b6040518060400160405280600a8152602001692330ba21b0ba21b7b4b760b11b81525080604051806040016040528060018152602001603160f81b8152506040518060400160405280600a8152602001692330ba21b0ba21b7b4b760b11b8152506040518060400160405280600381526020016211905560ea1b81525081600390816100d99190610602565b5060046100e68282610602565b506100f69150839050600561025f565b6101205261010581600661025f565b61014052815160208084019190912060e052815190820120610100524660a05261019160e05161010051604080517f8b73c3c69bb8fe3d512ecc4cf759cc79239f7b179b0ffacaa9a75d522b39400f60208201529081019290925260608201524660808201523060a08201525f9060c00160405160208183030381529060405280519060200120905090565b60805250503060c052506011546b033b2e3c9fd0803ce8000000906001600160a01b03166101bf3383610291565b6101c95f846102ce565b505f6101d6600a846106d0565b600981905590506101ea4262ed4e006106ef565b600a556101f8338383610379565b5f606461020685601e610702565b61021091906106d0565b600b8190559050610222338483610379565b6040518281527f82f8e7ad3c5527c0898be6dddfaf6cdd5326b44155fd5b344041c7e8062580e09060200160405180910390a15050505050610771565b5f60208351101561027a57610273836103db565b905061028b565b816102858482610602565b5060ff90505b92915050565b6001600160a01b0382166102bf5760405163ec442f0560e01b81525f60048201526024015b60405180910390fd5b6102ca5f8383610418565b5050565b5f8281526008602090815260408083206001600160a01b038516845290915281205460ff16610372575f8381526008602090815260408083206001600160a01b03861684529091529020805460ff1916600117905561032a3390565b6001600160a01b0316826001600160a01b0316847f2f8788117e7eff1d82e926ec794901d17c78024a50270940304540a733656f0d60405160405180910390a450600161028b565b505f61028b565b6001600160a01b0383166103a257604051634b637e8f60e11b81525f60048201526024016102b6565b6001600160a01b0382166103cb5760405163ec442f0560e01b81525f60048201526024016102b6565b6103d6838383610418565b505050565b5f80829050601f81511115610405578260405163305a27a960e01b81526004016102b69190610719565b80516104108261074e565b179392505050565b6001600160a01b038316610442578060025f82825461043791906106ef565b909155506104b29050565b6001600160a01b0383165f90815260208190526040902054818110156104945760405163391434e360e21b81526001600160a01b038516600482015260248101829052604481018390526064016102b6565b6001600160a01b0384165f9081526020819052604090209082900390555b6001600160a01b0382166104ce576002805482900390556104ec565b6001600160a01b0382165f9081526020819052604090208054820190555b816001600160a01b0316836001600160a01b03167fddf252ad1be2c89b69c2b068fc378daa952ba7f163c4a11628f55a4df523b3ef8360405161053191815260200190565b60405180910390a3505050565b5f6020828403121561054e575f80fd5b81516001600160a01b0381168114610564575f80fd5b9392505050565b634e487b7160e01b5f52604160045260245ffd5b600181811c9082168061059357607f821691505b6020821081036105b157634e487b7160e01b5f52602260045260245ffd5b50919050565b601f8211156103d657805f5260205f20601f840160051c810160208510156105dc5750805b601f840160051c820191505b818110156105fb575f81556001016105e8565b5050505050565b81516001600160401b0381111561061b5761061b61056b565b61062f81610629845461057f565b846105b7565b6020601f821160018114610661575f831561064a5750848201515b5f19600385901b1c1916600184901b1784556105fb565b5f84815260208120601f198516915b828110156106905787850151825560209485019460019092019101610670565b50848210156106ad57868401515f19600387901b60f8161c191681555b50505050600190811b01905550565b634e487b7160e01b5f52601160045260245ffd5b5f826106ea57634e487b7160e01b5f52601260045260245ffd5b500490565b8082018082111561028b5761028b6106bc565b808202811582820484141761028b5761028b6106bc565b602081525f82518060208401528060208501604085015e5f604082850101526040601f19601f83011684010191505092915050565b805160208083015191908110156105b1575f1960209190910360031b1b16919050565b60805160a05160c05160e051610100516101205161014051611d866107c25f395f61138801525f61135b01525f6111f001525f6111c801525f61112301525f61114d01525f6111770152611d865ff3fe608060405234801561000f575f80fd5b506004361061021e575f3560e01c806369d8d6d21161012a578063a327a281116100b4578063d547741f11610079578063d547741f1461043f578063dd62ed3e14610452578063eb7203fe1461048a578063eca5113914610493578063ffba376c146104ce575f80fd5b8063a327a281146103f4578063a548485b146103fe578063a694fc3a14610406578063a9059cbb14610419578063d505accf1461042c575f80fd5b8063817b1cd2116100fa578063817b1cd2146103ae57806384b0196e146103b757806391d14854146103d257806395d89b41146103e5578063a217fddf146103ed575f80fd5b806369d8d6d21461036c57806370a082311461037557806379cc6790146103885780637ecebe001461039b575f80fd5b80632e17de78116101ab57806336568abe1161017b57806336568abe1461032157806342966c6814610334578063508d962b1461034757806351500c3a1461035057806364ab867514610359575f80fd5b80632e17de78146102e45780632f2ff15d146102f7578063313ce5671461030a5780633644e51514610319575f80fd5b8063095ea7b3116101f1578063095ea7b31461028b5780630c56ae3b1461029e57806318160ddd146102a757806323b872dd146102af578063248a9ca3146102c2575f80fd5b806301ffc9a71461022257806304646a491461024a57806306fdde031461026157806308726ed014610276575b5f80fd5b61023561023036600461193d565b6104d6565b60405190151581526020015b60405180910390f35b610253600f5481565b604051908152602001610241565b61026961050c565b6040516102419190611999565b6102896102843660046119ab565b61059c565b005b6102356102993660046119dd565b6106bd565b610253600b5481565b600254610253565b6102356102bd366004611a05565b6106d4565b6102536102d03660046119ab565b5f9081526008602052604090206001015490565b6102896102f23660046119ab565b6107c3565b610289610305366004611a3f565b61097f565b60405160128152602001610241565b6102536109a9565b61028961032f366004611a3f565b6109b7565b6102896103423660046119ab565b6109ef565b61025360095481565b610253600a5481565b610253610367366004611a69565b6109fc565b610253600e5481565b610253610383366004611a69565b610aad565b6102896103963660046119dd565b610ac7565b6102536103a9366004611a69565b610ae0565b610253600c5481565b6103bf610afd565b6040516102419796959493929190611a82565b6102356103e0366004611a3f565b610b3f565b610269610b69565b6102535f81565b600a544211610235565b610269610b78565b6102896104143660046119ab565b610b98565b6102356104273660046119dd565b610d11565b61028961043a366004611b18565b610ddd565b61028961044d366004611a3f565b610f13565b610253610460366004611b85565b6001600160a01b039182165f90815260016020908152604080832093909416825291909152205490565b610253600d5481565b6104b96104a1366004611a69565b60106020525f90815260409020805460019091015482565b60408051928352602083019190915201610241565b610289610f37565b5f6001600160e01b03198216637965db0b60e01b148061050657506301ffc9a760e01b6001600160e01b03198316145b92915050565b60606003805461051b90611bad565b80601f016020809104026020016040519081016040528092919081815260200182805461054790611bad565b80156105925780601f1061056957610100808354040283529160200191610592565b820191905f5260205f20905b81548152906001019060200180831161057557829003601f168201915b5050505050905090565b5f6105a681610fb8565b815f036105fa5760405162461bcd60e51b815260206004820181905260248201527f416d6f756e74206d7573742062652067726561746572207468616e207a65726f60448201526064015b60405180910390fd5b610605600183611bf9565b61060e33610aad565b1161065b5760405162461bcd60e51b815260206004820152601a60248201527f496e73756666696369656e742061646d696e2062616c616e636500000000000060448201526064016105f1565b6011546106739033906001600160a01b031684610fc2565b81600b546106819190611c0c565b600b5560405182815233907f3bfab45ce500f42e3385b9500df1f818b68b94af0df7de166ffc15c11d14458c9060200160405180910390a25050565b5f336106ca81858561101f565b5060019392505050565b5f806106df33610aad565b11806106f85750335f9081526010602052604090205415155b6107145760405162461bcd60e51b81526004016105f190611c1f565b6011546009546001600160a01b039091169061072f82610aad565b106107a357600a5442116107555760405162461bcd60e51b81526004016105f190611c75565b836001600160a01b0316856001600160a01b03167f1a57a13050525e0c7fdd78ac2e358035f7f59a49327a06c897f10ae5eeb6544b8560405161079a91815260200190565b60405180910390a35b6107b86001600160a01b03821686868661102c565b506001949350505050565b5f6107cd33610aad565b11806107e65750335f9081526010602052604090205415155b6108025760405162461bcd60e51b81526004016105f190611c1f565b335f9081526010602052604090208054600180830154906108239085611bf9565b82116108715760405162461bcd60e51b815260206004820152601b60248201527f496e73756666696369656e74207374616b65642062616c616e6365000000000060448201526064016105f1565b600f5461087e9082611c0c565b42116108cc5760405162461bcd60e51b815260206004820152601a60248201527f436f6f6c646f776e20706572696f64206e6f742070617373656400000000000060448201526064016105f1565b5f6108d6336109fc565b90506108e28584611bf9565b8455600c546108f2908690611bf9565b600c55600b54610903908290611bf9565b600b55600e54610914908290611c0c565b600e55601154610937906001600160a01b0316336109328489611c0c565b610fc2565b5f6001850155604080518681526020810183905233917f6f2d3e000c89d37446b7c0374c0125068ff316d1e3ee302336478a8cd03c2336910160405180910390a25050505050565b5f8281526008602052604090206001015461099981610fb8565b6109a38383611086565b50505050565b5f6109b2611117565b905090565b6001600160a01b03811633146109e05760405163334bd91960e11b815260040160405180910390fd5b6109ea8282611240565b505050565b6109f933826112ab565b50565b5f80610a0733610aad565b1180610a205750335f9081526010602052604090205415155b610a3c5760405162461bcd60e51b81526004016105f190611c1f565b6001600160a01b0382165f90815260106020526040812080546001820154600d54929391929091610a6d8342611bf9565b90505f6064610a7c8487611cac565b610a869190611cc3565b90506301e13380610a978383611cac565b610aa19190611cc3565b98975050505050505050565b6001600160a01b03165f9081526020819052604090205490565b610ad28233836112df565b610adc82826112ab565b5050565b6001600160a01b0381165f90815260076020526040812054610506565b5f6060805f805f6060610b0e611354565b610b16611381565b604080515f80825260208201909252600f60f81b9b939a50919850469750309650945092509050565b5f9182526008602090815260408084206001600160a01b0393909316845291905290205460ff1690565b60606004805461051b90611bad565b60606040518060800160405280605a8152602001611cf7605a9139905090565b5f610ba233610aad565b1180610bbb5750335f9081526010602052604090205415155b610bd75760405162461bcd60e51b81526004016105f190611c1f565b335f90815260106020526040812060115490916001600160a01b0390911690839003610c455760405162461bcd60e51b815260206004820152601d60248201527f416d6f756e74206d7573742062652067726561746572207468616e203000000060448201526064016105f1565b610c50600184611bf9565b610c5933610aad565b11610ca65760405162461bcd60e51b815260206004820152601d60248201527f496e73756666696369656e742062616c616e636520746f207374616b6500000060448201526064016105f1565b610cb1338285610fc2565b8154610cbe908490611c0c565b8255600c54610cce908490611c0c565b600c5542600183015560405183815233907fb539ca1e5c8d398ddf1c41c30166f33404941683be4683319b57669a93dad4ef9060200160405180910390a2505050565b5f80610d1c33610aad565b1180610d355750335f9081526010602052604090205415155b610d515760405162461bcd60e51b81526004016105f190611c1f565b6011546009546001600160a01b0390911690610d6c82610aad565b10610dd357600a544211610d925760405162461bcd60e51b81526004016105f190611c75565b6040518381526001600160a01b0385169033907f1a57a13050525e0c7fdd78ac2e358035f7f59a49327a06c897f10ae5eeb6544b9060200160405180910390a35b6107b884846113ae565b83421115610e015760405163313c898160e11b8152600481018590526024016105f1565b5f7f6e71edae12b1b97f4d1f60370fef10105fa2faae0126114a169c64845d6126c9888888610e4c8c6001600160a01b03165f90815260076020526040902080546001810190915590565b6040805160208101969096526001600160a01b0394851690860152929091166060840152608083015260a082015260c0810186905260e0016040516020818303038152906040528051906020012090505f610ea6826113bb565b90505f610eb5828787876113e7565b9050896001600160a01b0316816001600160a01b031614610efc576040516325c0072360e11b81526001600160a01b0380831660048301528b1660248201526044016105f1565b610f078a8a8a61101f565b50505050505050505050565b5f82815260086020526040902060010154610f2d81610fb8565b6109a38383611240565b5f610f4181610fb8565b600a544211610f625760405162461bcd60e51b81526004016105f190611c75565b600980545f909155601154610f81906001600160a01b03163383610fc2565b6040518181527f8a52261cd2b8c249f858fef8ae15294602e2ea0352c71421a5a29e6c0da355429060200160405180910390a15050565b6109f98133611413565b6001600160a01b038316610feb57604051634b637e8f60e11b81525f60048201526024016105f1565b6001600160a01b0382166110145760405163ec442f0560e01b81525f60048201526024016105f1565b6109ea83838361144c565b6109ea8383836001611572565b604080516001600160a01b0385811660248301528416604482015260648082018490528251808303909101815260849091019091526020810180516001600160e01b03166323b872dd60e01b1790526109a3908590611644565b5f6110918383610b3f565b611110575f8381526008602090815260408083206001600160a01b03861684529091529020805460ff191660011790556110c83390565b6001600160a01b0316826001600160a01b0316847f2f8788117e7eff1d82e926ec794901d17c78024a50270940304540a733656f0d60405160405180910390a4506001610506565b505f610506565b5f306001600160a01b037f00000000000000000000000000000000000000000000000000000000000000001614801561116f57507f000000000000000000000000000000000000000000000000000000000000000046145b1561119957507f000000000000000000000000000000000000000000000000000000000000000090565b6109b2604080517f8b73c3c69bb8fe3d512ecc4cf759cc79239f7b179b0ffacaa9a75d522b39400f60208201527f0000000000000000000000000000000000000000000000000000000000000000918101919091527f000000000000000000000000000000000000000000000000000000000000000060608201524660808201523060a08201525f9060c00160405160208183030381529060405280519060200120905090565b5f61124b8383610b3f565b15611110575f8381526008602090815260408083206001600160a01b0386168085529252808320805460ff1916905551339286917ff6391f5c32d9c69d2a47ea670b442974b53935d1edc7fd64eb21e047a839171b9190a4506001610506565b6001600160a01b0382166112d457604051634b637e8f60e11b81525f60048201526024016105f1565b610adc825f8361144c565b6001600160a01b038381165f908152600160209081526040808320938616835292905220545f1981146109a3578181101561134657604051637dc7a0d960e11b81526001600160a01b038416600482015260248101829052604481018390526064016105f1565b6109a384848484035f611572565b60606109b27f000000000000000000000000000000000000000000000000000000000000000060056116b0565b60606109b27f000000000000000000000000000000000000000000000000000000000000000060066116b0565b5f336106ca818585610fc2565b5f6105066113c7611117565b8360405161190160f01b8152600281019290925260228201526042902090565b5f805f806113f788888888611759565b9250925092506114078282611821565b50909695505050505050565b61141d8282610b3f565b610adc5760405163e2517d3f60e01b81526001600160a01b0382166004820152602481018390526044016105f1565b6001600160a01b038316611476578060025f82825461146b9190611c0c565b909155506114e69050565b6001600160a01b0383165f90815260208190526040902054818110156114c85760405163391434e360e21b81526001600160a01b038516600482015260248101829052604481018390526064016105f1565b6001600160a01b0384165f9081526020819052604090209082900390555b6001600160a01b03821661150257600280548290039055611520565b6001600160a01b0382165f9081526020819052604090208054820190555b816001600160a01b0316836001600160a01b03167fddf252ad1be2c89b69c2b068fc378daa952ba7f163c4a11628f55a4df523b3ef8360405161156591815260200190565b60405180910390a3505050565b6001600160a01b03841661159b5760405163e602df0560e01b81525f60048201526024016105f1565b6001600160a01b0383166115c457604051634a1406b160e11b81525f60048201526024016105f1565b6001600160a01b038085165f90815260016020908152604080832093871683529290522082905580156109a357826001600160a01b0316846001600160a01b03167f8c5be1e5ebec7d5bd14f71427d1e84f3dd0314c0f7b2291e5b200ac8c7c3b9258460405161163691815260200190565b60405180910390a350505050565b5f8060205f8451602086015f885af180611663576040513d5f823e3d81fd5b50505f513d9150811561167a578060011415611687565b6001600160a01b0384163b155b156109a357604051635274afe760e01b81526001600160a01b03851660048201526024016105f1565b606060ff83146116ca576116c3836118d9565b9050610506565b8180546116d690611bad565b80601f016020809104026020016040519081016040528092919081815260200182805461170290611bad565b801561174d5780601f106117245761010080835404028352916020019161174d565b820191905f5260205f20905b81548152906001019060200180831161173057829003601f168201915b50505050509050610506565b5f80807f7fffffffffffffffffffffffffffffff5d576e7357a4501ddfe92f46681b20a084111561179257505f91506003905082611817565b604080515f808252602082018084528a905260ff891692820192909252606081018790526080810186905260019060a0016020604051602081039080840390855afa1580156117e3573d5f803e3d5ffd5b5050604051601f1901519150506001600160a01b03811661180e57505f925060019150829050611817565b92505f91508190505b9450945094915050565b5f82600381111561183457611834611ce2565b0361183d575050565b600182600381111561185157611851611ce2565b0361186f5760405163f645eedf60e01b815260040160405180910390fd5b600282600381111561188357611883611ce2565b036118a45760405163fce698f760e01b8152600481018290526024016105f1565b60038260038111156118b8576118b8611ce2565b03610adc576040516335e2f38360e21b8152600481018290526024016105f1565b60605f6118e583611916565b6040805160208082528183019092529192505f91906020820181803683375050509182525060208101929092525090565b5f60ff8216601f81111561050657604051632cd44ac360e21b815260040160405180910390fd5b5f6020828403121561194d575f80fd5b81356001600160e01b031981168114611964575f80fd5b9392505050565b5f81518084528060208401602086015e5f602082860101526020601f19601f83011685010191505092915050565b602081525f611964602083018461196b565b5f602082840312156119bb575f80fd5b5035919050565b80356001600160a01b03811681146119d8575f80fd5b919050565b5f80604083850312156119ee575f80fd5b6119f7836119c2565b946020939093013593505050565b5f805f60608486031215611a17575f80fd5b611a20846119c2565b9250611a2e602085016119c2565b929592945050506040919091013590565b5f8060408385031215611a50575f80fd5b82359150611a60602084016119c2565b90509250929050565b5f60208284031215611a79575f80fd5b611964826119c2565b60ff60f81b8816815260e060208201525f611aa060e083018961196b565b8281036040840152611ab2818961196b565b606084018890526001600160a01b038716608085015260a0840186905283810360c0850152845180825260208087019350909101905f5b81811015611b07578351835260209384019390920191600101611ae9565b50909b9a5050505050505050505050565b5f805f805f805f60e0888a031215611b2e575f80fd5b611b37886119c2565b9650611b45602089016119c2565b95506040880135945060608801359350608088013560ff81168114611b68575f80fd5b9699959850939692959460a0840135945060c09093013592915050565b5f8060408385031215611b96575f80fd5b611b9f836119c2565b9150611a60602084016119c2565b600181811c90821680611bc157607f821691505b602082108103611bdf57634e487b7160e01b5f52602260045260245ffd5b50919050565b634e487b7160e01b5f52601160045260245ffd5b8181038181111561050657610506611be5565b8082018082111561050657610506611be5565b60208082526036908201527f43616c6c6572206973206e6f7420616e20696e766573746f7220286e6f20746f6040820152756b656e73206f72207374616b656420746f6b656e732960501b606082015260800190565b60208082526017908201527f546f6b656e7320617265207374696c6c2066726f7a656e000000000000000000604082015260600190565b808202811582820484141761050657610506611be5565b5f82611cdd57634e487b7160e01b5f52601260045260245ffd5b500490565b634e487b7160e01b5f52602160045260245ffdfe202020202020202f5c5f2f5c20200a20202020202028206f2e6f2029200a202020202020203e205e203c20200a2020205468652046617420436174206973207761746368696e6720796f753a20666174636174636f696e2e696fa2646970667358221220160fb4af927c4f504784c6269f9248c1ce69dd47c9b2d6bb1bbeaf6d5326e69d64736f6c634300081a0033",
			"opcodes": "PUSH2 0x160 PUSH1 0x40 MSTORE PUSH1 0x28 PUSH1 0xD SSTORE PUSH3 0xD2F00 PUSH1 0xF SSTORE PUSH1 0x11 DUP1 SLOAD PUSH1 0x1 PUSH1 0x1 PUSH1 0xA0 SHL SUB NOT AND ADDRESS OR SWAP1 SSTORE CALLVALUE DUP1 ISZERO PUSH2 0x2E JUMPI PUSH0 DUP1 REVERT JUMPDEST POP PUSH1 0x40 MLOAD PUSH2 0x2548 CODESIZE SUB DUP1 PUSH2 0x2548 DUP4 CODECOPY DUP2 ADD PUSH1 0x40 DUP2 SWAP1 MSTORE PUSH2 0x4D SWAP2 PUSH2 0x53E JUMP JUMPDEST PUSH1 0x40 MLOAD DUP1 PUSH1 0x40 ADD PUSH1 0x40 MSTORE DUP1 PUSH1 0xA DUP2 MSTORE PUSH1 0x20 ADD PUSH10 0x2330BA21B0BA21B7B4B7 PUSH1 0xB1 SHL DUP2 MSTORE POP DUP1 PUSH1 0x40 MLOAD DUP1 PUSH1 0x40 ADD PUSH1 0x40 MSTORE DUP1 PUSH1 0x1 DUP2 MSTORE PUSH1 0x20 ADD PUSH1 0x31 PUSH1 0xF8 SHL DUP2 MSTORE POP PUSH1 0x40 MLOAD DUP1 PUSH1 0x40 ADD PUSH1 0x40 MSTORE DUP1 PUSH1 0xA DUP2 MSTORE PUSH1 0x20 ADD PUSH10 0x2330BA21B0BA21B7B4B7 PUSH1 0xB1 SHL DUP2 MSTORE POP PUSH1 0x40 MLOAD DUP1 PUSH1 0x40 ADD PUSH1 0x40 MSTORE DUP1 PUSH1 0x3 DUP2 MSTORE PUSH1 0x20 ADD PUSH3 0x119055 PUSH1 0xEA SHL DUP2 MSTORE POP DUP2 PUSH1 0x3 SWAP1 DUP2 PUSH2 0xD9 SWAP2 SWAP1 PUSH2 0x602 JUMP JUMPDEST POP PUSH1 0x4 PUSH2 0xE6 DUP3 DUP3 PUSH2 0x602 JUMP JUMPDEST POP PUSH2 0xF6 SWAP2 POP DUP4 SWAP1 POP PUSH1 0x5 PUSH2 0x25F JUMP JUMPDEST PUSH2 0x120 MSTORE PUSH2 0x105 DUP2 PUSH1 0x6 PUSH2 0x25F JUMP JUMPDEST PUSH2 0x140 MSTORE DUP2 MLOAD PUSH1 0x20 DUP1 DUP5 ADD SWAP2 SWAP1 SWAP2 KECCAK256 PUSH1 0xE0 MSTORE DUP2 MLOAD SWAP1 DUP3 ADD KECCAK256 PUSH2 0x100 MSTORE CHAINID PUSH1 0xA0 MSTORE PUSH2 0x191 PUSH1 0xE0 MLOAD PUSH2 0x100 MLOAD PUSH1 0x40 DUP1 MLOAD PUSH32 0x8B73C3C69BB8FE3D512ECC4CF759CC79239F7B179B0FFACAA9A75D522B39400F PUSH1 0x20 DUP3 ADD MSTORE SWAP1 DUP2 ADD SWAP3 SWAP1 SWAP3 MSTORE PUSH1 0x60 DUP3 ADD MSTORE CHAINID PUSH1 0x80 DUP3 ADD MSTORE ADDRESS PUSH1 0xA0 DUP3 ADD MSTORE PUSH0 SWAP1 PUSH1 0xC0 ADD PUSH1 0x40 MLOAD PUSH1 0x20 DUP2 DUP4 SUB SUB DUP2 MSTORE SWAP1 PUSH1 0x40 MSTORE DUP1 MLOAD SWAP1 PUSH1 0x20 ADD KECCAK256 SWAP1 POP SWAP1 JUMP JUMPDEST PUSH1 0x80 MSTORE POP POP ADDRESS PUSH1 0xC0 MSTORE POP PUSH1 0x11 SLOAD PUSH12 0x33B2E3C9FD0803CE8000000 SWAP1 PUSH1 0x1 PUSH1 0x1 PUSH1 0xA0 SHL SUB AND PUSH2 0x1BF CALLER DUP4 PUSH2 0x291 JUMP JUMPDEST PUSH2 0x1C9 PUSH0 DUP5 PUSH2 0x2CE JUMP JUMPDEST POP PUSH0 PUSH2 0x1D6 PUSH1 0xA DUP5 PUSH2 0x6D0 JUMP JUMPDEST PUSH1 0x9 DUP2 SWAP1 SSTORE SWAP1 POP PUSH2 0x1EA TIMESTAMP PUSH3 0xED4E00 PUSH2 0x6EF JUMP JUMPDEST PUSH1 0xA SSTORE PUSH2 0x1F8 CALLER DUP4 DUP4 PUSH2 0x379 JUMP JUMPDEST PUSH0 PUSH1 0x64 PUSH2 0x206 DUP6 PUSH1 0x1E PUSH2 0x702 JUMP JUMPDEST PUSH2 0x210 SWAP2 SWAP1 PUSH2 0x6D0 JUMP JUMPDEST PUSH1 0xB DUP2 SWAP1 SSTORE SWAP1 POP PUSH2 0x222 CALLER DUP5 DUP4 PUSH2 0x379 JUMP JUMPDEST PUSH1 0x40 MLOAD DUP3 DUP2 MSTORE PUSH32 0x82F8E7AD3C5527C0898BE6DDDFAF6CDD5326B44155FD5B344041C7E8062580E0 SWAP1 PUSH1 0x20 ADD PUSH1 0x40 MLOAD DUP1 SWAP2 SUB SWAP1 LOG1 POP POP POP POP POP PUSH2 0x771 JUMP JUMPDEST PUSH0 PUSH1 0x20 DUP4 MLOAD LT ISZERO PUSH2 0x27A JUMPI PUSH2 0x273 DUP4 PUSH2 0x3DB JUMP JUMPDEST SWAP1 POP PUSH2 0x28B JUMP JUMPDEST DUP2 PUSH2 0x285 DUP5 DUP3 PUSH2 0x602 JUMP JUMPDEST POP PUSH1 0xFF SWAP1 POP JUMPDEST SWAP3 SWAP2 POP POP JUMP JUMPDEST PUSH1 0x1 PUSH1 0x1 PUSH1 0xA0 SHL SUB DUP3 AND PUSH2 0x2BF JUMPI PUSH1 0x40 MLOAD PUSH4 0xEC442F05 PUSH1 0xE0 SHL DUP2 MSTORE PUSH0 PUSH1 0x4 DUP3 ADD MSTORE PUSH1 0x24 ADD JUMPDEST PUSH1 0x40 MLOAD DUP1 SWAP2 SUB SWAP1 REVERT JUMPDEST PUSH2 0x2CA PUSH0 DUP4 DUP4 PUSH2 0x418 JUMP JUMPDEST POP POP JUMP JUMPDEST PUSH0 DUP3 DUP2 MSTORE PUSH1 0x8 PUSH1 0x20 SWAP1 DUP2 MSTORE PUSH1 0x40 DUP1 DUP4 KECCAK256 PUSH1 0x1 PUSH1 0x1 PUSH1 0xA0 SHL SUB DUP6 AND DUP5 MSTORE SWAP1 SWAP2 MSTORE DUP2 KECCAK256 SLOAD PUSH1 0xFF AND PUSH2 0x372 JUMPI PUSH0 DUP4 DUP2 MSTORE PUSH1 0x8 PUSH1 0x20 SWAP1 DUP2 MSTORE PUSH1 0x40 DUP1 DUP4 KECCAK256 PUSH1 0x1 PUSH1 0x1 PUSH1 0xA0 SHL SUB DUP7 AND DUP5 MSTORE SWAP1 SWAP2 MSTORE SWAP1 KECCAK256 DUP1 SLOAD PUSH1 0xFF NOT AND PUSH1 0x1 OR SWAP1 SSTORE PUSH2 0x32A CALLER SWAP1 JUMP JUMPDEST PUSH1 0x1 PUSH1 0x1 PUSH1 0xA0 SHL SUB AND DUP3 PUSH1 0x1 PUSH1 0x1 PUSH1 0xA0 SHL SUB AND DUP5 PUSH32 0x2F8788117E7EFF1D82E926EC794901D17C78024A50270940304540A733656F0D PUSH1 0x40 MLOAD PUSH1 0x40 MLOAD DUP1 SWAP2 SUB SWAP1 LOG4 POP PUSH1 0x1 PUSH2 0x28B JUMP JUMPDEST POP PUSH0 PUSH2 0x28B JUMP JUMPDEST PUSH1 0x1 PUSH1 0x1 PUSH1 0xA0 SHL SUB DUP4 AND PUSH2 0x3A2 JUMPI PUSH1 0x40 MLOAD PUSH4 0x4B637E8F PUSH1 0xE1 SHL DUP2 MSTORE PUSH0 PUSH1 0x4 DUP3 ADD MSTORE PUSH1 0x24 ADD PUSH2 0x2B6 JUMP JUMPDEST PUSH1 0x1 PUSH1 0x1 PUSH1 0xA0 SHL SUB DUP3 AND PUSH2 0x3CB JUMPI PUSH1 0x40 MLOAD PUSH4 0xEC442F05 PUSH1 0xE0 SHL DUP2 MSTORE PUSH0 PUSH1 0x4 DUP3 ADD MSTORE PUSH1 0x24 ADD PUSH2 0x2B6 JUMP JUMPDEST PUSH2 0x3D6 DUP4 DUP4 DUP4 PUSH2 0x418 JUMP JUMPDEST POP POP POP JUMP JUMPDEST PUSH0 DUP1 DUP3 SWAP1 POP PUSH1 0x1F DUP2 MLOAD GT ISZERO PUSH2 0x405 JUMPI DUP3 PUSH1 0x40 MLOAD PUSH4 0x305A27A9 PUSH1 0xE0 SHL DUP2 MSTORE PUSH1 0x4 ADD PUSH2 0x2B6 SWAP2 SWAP1 PUSH2 0x719 JUMP JUMPDEST DUP1 MLOAD PUSH2 0x410 DUP3 PUSH2 0x74E JUMP JUMPDEST OR SWAP4 SWAP3 POP POP POP JUMP JUMPDEST PUSH1 0x1 PUSH1 0x1 PUSH1 0xA0 SHL SUB DUP4 AND PUSH2 0x442 JUMPI DUP1 PUSH1 0x2 PUSH0 DUP3 DUP3 SLOAD PUSH2 0x437 SWAP2 SWAP1 PUSH2 0x6EF JUMP JUMPDEST SWAP1 SWAP2 SSTORE POP PUSH2 0x4B2 SWAP1 POP JUMP JUMPDEST PUSH1 0x1 PUSH1 0x1 PUSH1 0xA0 SHL SUB DUP4 AND PUSH0 SWAP1 DUP2 MSTORE PUSH1 0x20 DUP2 SWAP1 MSTORE PUSH1 0x40 SWAP1 KECCAK256 SLOAD DUP2 DUP2 LT ISZERO PUSH2 0x494 JUMPI PUSH1 0x40 MLOAD PUSH4 0x391434E3 PUSH1 0xE2 SHL DUP2 MSTORE PUSH1 0x1 PUSH1 0x1 PUSH1 0xA0 SHL SUB DUP6 AND PUSH1 0x4 DUP3 ADD MSTORE PUSH1 0x24 DUP2 ADD DUP3 SWAP1 MSTORE PUSH1 0x44 DUP2 ADD DUP4 SWAP1 MSTORE PUSH1 0x64 ADD PUSH2 0x2B6 JUMP JUMPDEST PUSH1 0x1 PUSH1 0x1 PUSH1 0xA0 SHL SUB DUP5 AND PUSH0 SWAP1 DUP2 MSTORE PUSH1 0x20 DUP2 SWAP1 MSTORE PUSH1 0x40 SWAP1 KECCAK256 SWAP1 DUP3 SWAP1 SUB SWAP1 SSTORE JUMPDEST PUSH1 0x1 PUSH1 0x1 PUSH1 0xA0 SHL SUB DUP3 AND PUSH2 0x4CE JUMPI PUSH1 0x2 DUP1 SLOAD DUP3 SWAP1 SUB SWAP1 SSTORE PUSH2 0x4EC JUMP JUMPDEST PUSH1 0x1 PUSH1 0x1 PUSH1 0xA0 SHL SUB DUP3 AND PUSH0 SWAP1 DUP2 MSTORE PUSH1 0x20 DUP2 SWAP1 MSTORE PUSH1 0x40 SWAP1 KECCAK256 DUP1 SLOAD DUP3 ADD SWAP1 SSTORE JUMPDEST DUP2 PUSH1 0x1 PUSH1 0x1 PUSH1 0xA0 SHL SUB AND DUP4 PUSH1 0x1 PUSH1 0x1 PUSH1 0xA0 SHL SUB AND PUSH32 0xDDF252AD1BE2C89B69C2B068FC378DAA952BA7F163C4A11628F55A4DF523B3EF DUP4 PUSH1 0x40 MLOAD PUSH2 0x531 SWAP2 DUP2 MSTORE PUSH1 0x20 ADD SWAP1 JUMP JUMPDEST PUSH1 0x40 MLOAD DUP1 SWAP2 SUB SWAP1 LOG3 POP POP POP JUMP JUMPDEST PUSH0 PUSH1 0x20 DUP3 DUP5 SUB SLT ISZERO PUSH2 0x54E JUMPI PUSH0 DUP1 REVERT JUMPDEST DUP2 MLOAD PUSH1 0x1 PUSH1 0x1 PUSH1 0xA0 SHL SUB DUP2 AND DUP2 EQ PUSH2 0x564 JUMPI PUSH0 DUP1 REVERT JUMPDEST SWAP4 SWAP3 POP POP POP JUMP JUMPDEST PUSH4 0x4E487B71 PUSH1 0xE0 SHL PUSH0 MSTORE PUSH1 0x41 PUSH1 0x4 MSTORE PUSH1 0x24 PUSH0 REVERT JUMPDEST PUSH1 0x1 DUP2 DUP2 SHR SWAP1 DUP3 AND DUP1 PUSH2 0x593 JUMPI PUSH1 0x7F DUP3 AND SWAP2 POP JUMPDEST PUSH1 0x20 DUP3 LT DUP2 SUB PUSH2 0x5B1 JUMPI PUSH4 0x4E487B71 PUSH1 0xE0 SHL PUSH0 MSTORE PUSH1 0x22 PUSH1 0x4 MSTORE PUSH1 0x24 PUSH0 REVERT JUMPDEST POP SWAP2 SWAP1 POP JUMP JUMPDEST PUSH1 0x1F DUP3 GT ISZERO PUSH2 0x3D6 JUMPI DUP1 PUSH0 MSTORE PUSH1 0x20 PUSH0 KECCAK256 PUSH1 0x1F DUP5 ADD PUSH1 0x5 SHR DUP2 ADD PUSH1 0x20 DUP6 LT ISZERO PUSH2 0x5DC JUMPI POP DUP1 JUMPDEST PUSH1 0x1F DUP5 ADD PUSH1 0x5 SHR DUP3 ADD SWAP2 POP JUMPDEST DUP2 DUP2 LT ISZERO PUSH2 0x5FB JUMPI PUSH0 DUP2 SSTORE PUSH1 0x1 ADD PUSH2 0x5E8 JUMP JUMPDEST POP POP POP POP POP JUMP JUMPDEST DUP2 MLOAD PUSH1 0x1 PUSH1 0x1 PUSH1 0x40 SHL SUB DUP2 GT ISZERO PUSH2 0x61B JUMPI PUSH2 0x61B PUSH2 0x56B JUMP JUMPDEST PUSH2 0x62F DUP2 PUSH2 0x629 DUP5 SLOAD PUSH2 0x57F JUMP JUMPDEST DUP5 PUSH2 0x5B7 JUMP JUMPDEST PUSH1 0x20 PUSH1 0x1F DUP3 GT PUSH1 0x1 DUP2 EQ PUSH2 0x661 JUMPI PUSH0 DUP4 ISZERO PUSH2 0x64A JUMPI POP DUP5 DUP3 ADD MLOAD JUMPDEST PUSH0 NOT PUSH1 0x3 DUP6 SWAP1 SHL SHR NOT AND PUSH1 0x1 DUP5 SWAP1 SHL OR DUP5 SSTORE PUSH2 0x5FB JUMP JUMPDEST PUSH0 DUP5 DUP2 MSTORE PUSH1 0x20 DUP2 KECCAK256 PUSH1 0x1F NOT DUP6 AND SWAP2 JUMPDEST DUP3 DUP2 LT ISZERO PUSH2 0x690 JUMPI DUP8 DUP6 ADD MLOAD DUP3 SSTORE PUSH1 0x20 SWAP5 DUP6 ADD SWAP5 PUSH1 0x1 SWAP1 SWAP3 ADD SWAP2 ADD PUSH2 0x670 JUMP JUMPDEST POP DUP5 DUP3 LT ISZERO PUSH2 0x6AD JUMPI DUP7 DUP5 ADD MLOAD PUSH0 NOT PUSH1 0x3 DUP8 SWAP1 SHL PUSH1 0xF8 AND SHR NOT AND DUP2 SSTORE JUMPDEST POP POP POP POP PUSH1 0x1 SWAP1 DUP2 SHL ADD SWAP1 SSTORE POP JUMP JUMPDEST PUSH4 0x4E487B71 PUSH1 0xE0 SHL PUSH0 MSTORE PUSH1 0x11 PUSH1 0x4 MSTORE PUSH1 0x24 PUSH0 REVERT JUMPDEST PUSH0 DUP3 PUSH2 0x6EA JUMPI PUSH4 0x4E487B71 PUSH1 0xE0 SHL PUSH0 MSTORE PUSH1 0x12 PUSH1 0x4 MSTORE PUSH1 0x24 PUSH0 REVERT JUMPDEST POP DIV SWAP1 JUMP JUMPDEST DUP1 DUP3 ADD DUP1 DUP3 GT ISZERO PUSH2 0x28B JUMPI PUSH2 0x28B PUSH2 0x6BC JUMP JUMPDEST DUP1 DUP3 MUL DUP2 ISZERO DUP3 DUP3 DIV DUP5 EQ OR PUSH2 0x28B JUMPI PUSH2 0x28B PUSH2 0x6BC JUMP JUMPDEST PUSH1 0x20 DUP2 MSTORE PUSH0 DUP3 MLOAD DUP1 PUSH1 0x20 DUP5 ADD MSTORE DUP1 PUSH1 0x20 DUP6 ADD PUSH1 0x40 DUP6 ADD MCOPY PUSH0 PUSH1 0x40 DUP3 DUP6 ADD ADD MSTORE PUSH1 0x40 PUSH1 0x1F NOT PUSH1 0x1F DUP4 ADD AND DUP5 ADD ADD SWAP2 POP POP SWAP3 SWAP2 POP POP JUMP JUMPDEST DUP1 MLOAD PUSH1 0x20 DUP1 DUP4 ADD MLOAD SWAP2 SWAP1 DUP2 LT ISZERO PUSH2 0x5B1 JUMPI PUSH0 NOT PUSH1 0x20 SWAP2 SWAP1 SWAP2 SUB PUSH1 0x3 SHL SHL AND SWAP2 SWAP1 POP JUMP JUMPDEST PUSH1 0x80 MLOAD PUSH1 0xA0 MLOAD PUSH1 0xC0 MLOAD PUSH1 0xE0 MLOAD PUSH2 0x100 MLOAD PUSH2 0x120 MLOAD PUSH2 0x140 MLOAD PUSH2 0x1D86 PUSH2 0x7C2 PUSH0 CODECOPY PUSH0 PUSH2 0x1388 ADD MSTORE PUSH0 PUSH2 0x135B ADD MSTORE PUSH0 PUSH2 0x11F0 ADD MSTORE PUSH0 PUSH2 0x11C8 ADD MSTORE PUSH0 PUSH2 0x1123 ADD MSTORE PUSH0 PUSH2 0x114D ADD MSTORE PUSH0 PUSH2 0x1177 ADD MSTORE PUSH2 0x1D86 PUSH0 RETURN INVALID PUSH1 0x80 PUSH1 0x40 MSTORE CALLVALUE DUP1 ISZERO PUSH2 0xF JUMPI PUSH0 DUP1 REVERT JUMPDEST POP PUSH1 0x4 CALLDATASIZE LT PUSH2 0x21E JUMPI PUSH0 CALLDATALOAD PUSH1 0xE0 SHR DUP1 PUSH4 0x69D8D6D2 GT PUSH2 0x12A JUMPI DUP1 PUSH4 0xA327A281 GT PUSH2 0xB4 JUMPI DUP1 PUSH4 0xD547741F GT PUSH2 0x79 JUMPI DUP1 PUSH4 0xD547741F EQ PUSH2 0x43F JUMPI DUP1 PUSH4 0xDD62ED3E EQ PUSH2 0x452 JUMPI DUP1 PUSH4 0xEB7203FE EQ PUSH2 0x48A JUMPI DUP1 PUSH4 0xECA51139 EQ PUSH2 0x493 JUMPI DUP1 PUSH4 0xFFBA376C EQ PUSH2 0x4CE JUMPI PUSH0 DUP1 REVERT JUMPDEST DUP1 PUSH4 0xA327A281 EQ PUSH2 0x3F4 JUMPI DUP1 PUSH4 0xA548485B EQ PUSH2 0x3FE JUMPI DUP1 PUSH4 0xA694FC3A EQ PUSH2 0x406 JUMPI DUP1 PUSH4 0xA9059CBB EQ PUSH2 0x419 JUMPI DUP1 PUSH4 0xD505ACCF EQ PUSH2 0x42C JUMPI PUSH0 DUP1 REVERT JUMPDEST DUP1 PUSH4 0x817B1CD2 GT PUSH2 0xFA JUMPI DUP1 PUSH4 0x817B1CD2 EQ PUSH2 0x3AE JUMPI DUP1 PUSH4 0x84B0196E EQ PUSH2 0x3B7 JUMPI DUP1 PUSH4 0x91D14854 EQ PUSH2 0x3D2 JUMPI DUP1 PUSH4 0x95D89B41 EQ PUSH2 0x3E5 JUMPI DUP1 PUSH4 0xA217FDDF EQ PUSH2 0x3ED JUMPI PUSH0 DUP1 REVERT JUMPDEST DUP1 PUSH4 0x69D8D6D2 EQ PUSH2 0x36C JUMPI DUP1 PUSH4 0x70A08231 EQ PUSH2 0x375 JUMPI DUP1 PUSH4 0x79CC6790 EQ PUSH2 0x388 JUMPI DUP1 PUSH4 0x7ECEBE00 EQ PUSH2 0x39B JUMPI PUSH0 DUP1 REVERT JUMPDEST DUP1 PUSH4 0x2E17DE78 GT PUSH2 0x1AB JUMPI DUP1 PUSH4 0x36568ABE GT PUSH2 0x17B JUMPI DUP1 PUSH4 0x36568ABE EQ PUSH2 0x321 JUMPI DUP1 PUSH4 0x42966C68 EQ PUSH2 0x334 JUMPI DUP1 PUSH4 0x508D962B EQ PUSH2 0x347 JUMPI DUP1 PUSH4 0x51500C3A EQ PUSH2 0x350 JUMPI DUP1 PUSH4 0x64AB8675 EQ PUSH2 0x359 JUMPI PUSH0 DUP1 REVERT JUMPDEST DUP1 PUSH4 0x2E17DE78 EQ PUSH2 0x2E4 JUMPI DUP1 PUSH4 0x2F2FF15D EQ PUSH2 0x2F7 JUMPI DUP1 PUSH4 0x313CE567 EQ PUSH2 0x30A JUMPI DUP1 PUSH4 0x3644E515 EQ PUSH2 0x319 JUMPI PUSH0 DUP1 REVERT JUMPDEST DUP1 PUSH4 0x95EA7B3 GT PUSH2 0x1F1 JUMPI DUP1 PUSH4 0x95EA7B3 EQ PUSH2 0x28B JUMPI DUP1 PUSH4 0xC56AE3B EQ PUSH2 0x29E JUMPI DUP1 PUSH4 0x18160DDD EQ PUSH2 0x2A7 JUMPI DUP1 PUSH4 0x23B872DD EQ PUSH2 0x2AF JUMPI DUP1 PUSH4 0x248A9CA3 EQ PUSH2 0x2C2 JUMPI PUSH0 DUP1 REVERT JUMPDEST DUP1 PUSH4 0x1FFC9A7 EQ PUSH2 0x222 JUMPI DUP1 PUSH4 0x4646A49 EQ PUSH2 0x24A JUMPI DUP1 PUSH4 0x6FDDE03 EQ PUSH2 0x261 JUMPI DUP1 PUSH4 0x8726ED0 EQ PUSH2 0x276 JUMPI JUMPDEST PUSH0 DUP1 REVERT JUMPDEST PUSH2 0x235 PUSH2 0x230 CALLDATASIZE PUSH1 0x4 PUSH2 0x193D JUMP JUMPDEST PUSH2 0x4D6 JUMP JUMPDEST PUSH1 0x40 MLOAD SWAP1 ISZERO ISZERO DUP2 MSTORE PUSH1 0x20 ADD JUMPDEST PUSH1 0x40 MLOAD DUP1 SWAP2 SUB SWAP1 RETURN JUMPDEST PUSH2 0x253 PUSH1 0xF SLOAD DUP2 JUMP JUMPDEST PUSH1 0x40 MLOAD SWAP1 DUP2 MSTORE PUSH1 0x20 ADD PUSH2 0x241 JUMP JUMPDEST PUSH2 0x269 PUSH2 0x50C JUMP JUMPDEST PUSH1 0x40 MLOAD PUSH2 0x241 SWAP2 SWAP1 PUSH2 0x1999 JUMP JUMPDEST PUSH2 0x289 PUSH2 0x284 CALLDATASIZE PUSH1 0x4 PUSH2 0x19AB JUMP JUMPDEST PUSH2 0x59C JUMP JUMPDEST STOP JUMPDEST PUSH2 0x235 PUSH2 0x299 CALLDATASIZE PUSH1 0x4 PUSH2 0x19DD JUMP JUMPDEST PUSH2 0x6BD JUMP JUMPDEST PUSH2 0x253 PUSH1 0xB SLOAD DUP2 JUMP JUMPDEST PUSH1 0x2 SLOAD PUSH2 0x253 JUMP JUMPDEST PUSH2 0x235 PUSH2 0x2BD CALLDATASIZE PUSH1 0x4 PUSH2 0x1A05 JUMP JUMPDEST PUSH2 0x6D4 JUMP JUMPDEST PUSH2 0x253 PUSH2 0x2D0 CALLDATASIZE PUSH1 0x4 PUSH2 0x19AB JUMP JUMPDEST PUSH0 SWAP1 DUP2 MSTORE PUSH1 0x8 PUSH1 0x20 MSTORE PUSH1 0x40 SWAP1 KECCAK256 PUSH1 0x1 ADD SLOAD SWAP1 JUMP JUMPDEST PUSH2 0x289 PUSH2 0x2F2 CALLDATASIZE PUSH1 0x4 PUSH2 0x19AB JUMP JUMPDEST PUSH2 0x7C3 JUMP JUMPDEST PUSH2 0x289 PUSH2 0x305 CALLDATASIZE PUSH1 0x4 PUSH2 0x1A3F JUMP JUMPDEST PUSH2 0x97F JUMP JUMPDEST PUSH1 0x40 MLOAD PUSH1 0x12 DUP2 MSTORE PUSH1 0x20 ADD PUSH2 0x241 JUMP JUMPDEST PUSH2 0x253 PUSH2 0x9A9 JUMP JUMPDEST PUSH2 0x289 PUSH2 0x32F CALLDATASIZE PUSH1 0x4 PUSH2 0x1A3F JUMP JUMPDEST PUSH2 0x9B7 JUMP JUMPDEST PUSH2 0x289 PUSH2 0x342 CALLDATASIZE PUSH1 0x4 PUSH2 0x19AB JUMP JUMPDEST PUSH2 0x9EF JUMP JUMPDEST PUSH2 0x253 PUSH1 0x9 SLOAD DUP2 JUMP JUMPDEST PUSH2 0x253 PUSH1 0xA SLOAD DUP2 JUMP JUMPDEST PUSH2 0x253 PUSH2 0x367 CALLDATASIZE PUSH1 0x4 PUSH2 0x1A69 JUMP JUMPDEST PUSH2 0x9FC JUMP JUMPDEST PUSH2 0x253 PUSH1 0xE SLOAD DUP2 JUMP JUMPDEST PUSH2 0x253 PUSH2 0x383 CALLDATASIZE PUSH1 0x4 PUSH2 0x1A69 JUMP JUMPDEST PUSH2 0xAAD JUMP JUMPDEST PUSH2 0x289 PUSH2 0x396 CALLDATASIZE PUSH1 0x4 PUSH2 0x19DD JUMP JUMPDEST PUSH2 0xAC7 JUMP JUMPDEST PUSH2 0x253 PUSH2 0x3A9 CALLDATASIZE PUSH1 0x4 PUSH2 0x1A69 JUMP JUMPDEST PUSH2 0xAE0 JUMP JUMPDEST PUSH2 0x253 PUSH1 0xC SLOAD DUP2 JUMP JUMPDEST PUSH2 0x3BF PUSH2 0xAFD JUMP JUMPDEST PUSH1 0x40 MLOAD PUSH2 0x241 SWAP8 SWAP7 SWAP6 SWAP5 SWAP4 SWAP3 SWAP2 SWAP1 PUSH2 0x1A82 JUMP JUMPDEST PUSH2 0x235 PUSH2 0x3E0 CALLDATASIZE PUSH1 0x4 PUSH2 0x1A3F JUMP JUMPDEST PUSH2 0xB3F JUMP JUMPDEST PUSH2 0x269 PUSH2 0xB69 JUMP JUMPDEST PUSH2 0x253 PUSH0 DUP2 JUMP JUMPDEST PUSH1 0xA SLOAD TIMESTAMP GT PUSH2 0x235 JUMP JUMPDEST PUSH2 0x269 PUSH2 0xB78 JUMP JUMPDEST PUSH2 0x289 PUSH2 0x414 CALLDATASIZE PUSH1 0x4 PUSH2 0x19AB JUMP JUMPDEST PUSH2 0xB98 JUMP JUMPDEST PUSH2 0x235 PUSH2 0x427 CALLDATASIZE PUSH1 0x4 PUSH2 0x19DD JUMP JUMPDEST PUSH2 0xD11 JUMP JUMPDEST PUSH2 0x289 PUSH2 0x43A CALLDATASIZE PUSH1 0x4 PUSH2 0x1B18 JUMP JUMPDEST PUSH2 0xDDD JUMP JUMPDEST PUSH2 0x289 PUSH2 0x44D CALLDATASIZE PUSH1 0x4 PUSH2 0x1A3F JUMP JUMPDEST PUSH2 0xF13 JUMP JUMPDEST PUSH2 0x253 PUSH2 0x460 CALLDATASIZE PUSH1 0x4 PUSH2 0x1B85 JUMP JUMPDEST PUSH1 0x1 PUSH1 0x1 PUSH1 0xA0 SHL SUB SWAP2 DUP3 AND PUSH0 SWAP1 DUP2 MSTORE PUSH1 0x1 PUSH1 0x20 SWAP1 DUP2 MSTORE PUSH1 0x40 DUP1 DUP4 KECCAK256 SWAP4 SWAP1 SWAP5 AND DUP3 MSTORE SWAP2 SWAP1 SWAP2 MSTORE KECCAK256 SLOAD SWAP1 JUMP JUMPDEST PUSH2 0x253 PUSH1 0xD SLOAD DUP2 JUMP JUMPDEST PUSH2 0x4B9 PUSH2 0x4A1 CALLDATASIZE PUSH1 0x4 PUSH2 0x1A69 JUMP JUMPDEST PUSH1 0x10 PUSH1 0x20 MSTORE PUSH0 SWAP1 DUP2 MSTORE PUSH1 0x40 SWAP1 KECCAK256 DUP1 SLOAD PUSH1 0x1 SWAP1 SWAP2 ADD SLOAD DUP3 JUMP JUMPDEST PUSH1 0x40 DUP1 MLOAD SWAP3 DUP4 MSTORE PUSH1 0x20 DUP4 ADD SWAP2 SWAP1 SWAP2 MSTORE ADD PUSH2 0x241 JUMP JUMPDEST PUSH2 0x289 PUSH2 0xF37 JUMP JUMPDEST PUSH0 PUSH1 0x1 PUSH1 0x1 PUSH1 0xE0 SHL SUB NOT DUP3 AND PUSH4 0x7965DB0B PUSH1 0xE0 SHL EQ DUP1 PUSH2 0x506 JUMPI POP PUSH4 0x1FFC9A7 PUSH1 0xE0 SHL PUSH1 0x1 PUSH1 0x1 PUSH1 0xE0 SHL SUB NOT DUP4 AND EQ JUMPDEST SWAP3 SWAP2 POP POP JUMP JUMPDEST PUSH1 0x60 PUSH1 0x3 DUP1 SLOAD PUSH2 0x51B SWAP1 PUSH2 0x1BAD JUMP JUMPDEST DUP1 PUSH1 0x1F ADD PUSH1 0x20 DUP1 SWAP2 DIV MUL PUSH1 0x20 ADD PUSH1 0x40 MLOAD SWAP1 DUP2 ADD PUSH1 0x40 MSTORE DUP1 SWAP3 SWAP2 SWAP1 DUP2 DUP2 MSTORE PUSH1 0x20 ADD DUP3 DUP1 SLOAD PUSH2 0x547 SWAP1 PUSH2 0x1BAD JUMP JUMPDEST DUP1 ISZERO PUSH2 0x592 JUMPI DUP1 PUSH1 0x1F LT PUSH2 0x569 JUMPI PUSH2 0x100 DUP1 DUP4 SLOAD DIV MUL DUP4 MSTORE SWAP2 PUSH1 0x20 ADD SWAP2 PUSH2 0x592 JUMP JUMPDEST DUP3 ADD SWAP2 SWAP1 PUSH0 MSTORE PUSH1 0x20 PUSH0 KECCAK256 SWAP1 JUMPDEST DUP2 SLOAD DUP2 MSTORE SWAP1 PUSH1 0x1 ADD SWAP1 PUSH1 0x20 ADD DUP1 DUP4 GT PUSH2 0x575 JUMPI DUP3 SWAP1 SUB PUSH1 0x1F AND DUP3 ADD SWAP2 JUMPDEST POP POP POP POP POP SWAP1 POP SWAP1 JUMP JUMPDEST PUSH0 PUSH2 0x5A6 DUP2 PUSH2 0xFB8 JUMP JUMPDEST DUP2 PUSH0 SUB PUSH2 0x5FA JUMPI PUSH1 0x40 MLOAD PUSH3 0x461BCD PUSH1 0xE5 SHL DUP2 MSTORE PUSH1 0x20 PUSH1 0x4 DUP3 ADD DUP2 SWAP1 MSTORE PUSH1 0x24 DUP3 ADD MSTORE PUSH32 0x416D6F756E74206D7573742062652067726561746572207468616E207A65726F PUSH1 0x44 DUP3 ADD MSTORE PUSH1 0x64 ADD JUMPDEST PUSH1 0x40 MLOAD DUP1 SWAP2 SUB SWAP1 REVERT JUMPDEST PUSH2 0x605 PUSH1 0x1 DUP4 PUSH2 0x1BF9 JUMP JUMPDEST PUSH2 0x60E CALLER PUSH2 0xAAD JUMP JUMPDEST GT PUSH2 0x65B JUMPI PUSH1 0x40 MLOAD PUSH3 0x461BCD PUSH1 0xE5 SHL DUP2 MSTORE PUSH1 0x20 PUSH1 0x4 DUP3 ADD MSTORE PUSH1 0x1A PUSH1 0x24 DUP3 ADD MSTORE PUSH32 0x496E73756666696369656E742061646D696E2062616C616E6365000000000000 PUSH1 0x44 DUP3 ADD MSTORE PUSH1 0x64 ADD PUSH2 0x5F1 JUMP JUMPDEST PUSH1 0x11 SLOAD PUSH2 0x673 SWAP1 CALLER SWAP1 PUSH1 0x1 PUSH1 0x1 PUSH1 0xA0 SHL SUB AND DUP5 PUSH2 0xFC2 JUMP JUMPDEST DUP2 PUSH1 0xB SLOAD PUSH2 0x681 SWAP2 SWAP1 PUSH2 0x1C0C JUMP JUMPDEST PUSH1 0xB SSTORE PUSH1 0x40 MLOAD DUP3 DUP2 MSTORE CALLER SWAP1 PUSH32 0x3BFAB45CE500F42E3385B9500DF1F818B68B94AF0DF7DE166FFC15C11D14458C SWAP1 PUSH1 0x20 ADD PUSH1 0x40 MLOAD DUP1 SWAP2 SUB SWAP1 LOG2 POP POP JUMP JUMPDEST PUSH0 CALLER PUSH2 0x6CA DUP2 DUP6 DUP6 PUSH2 0x101F JUMP JUMPDEST POP PUSH1 0x1 SWAP4 SWAP3 POP POP POP JUMP JUMPDEST PUSH0 DUP1 PUSH2 0x6DF CALLER PUSH2 0xAAD JUMP JUMPDEST GT DUP1 PUSH2 0x6F8 JUMPI POP CALLER PUSH0 SWAP1 DUP2 MSTORE PUSH1 0x10 PUSH1 0x20 MSTORE PUSH1 0x40 SWAP1 KECCAK256 SLOAD ISZERO ISZERO JUMPDEST PUSH2 0x714 JUMPI PUSH1 0x40 MLOAD PUSH3 0x461BCD PUSH1 0xE5 SHL DUP2 MSTORE PUSH1 0x4 ADD PUSH2 0x5F1 SWAP1 PUSH2 0x1C1F JUMP JUMPDEST PUSH1 0x11 SLOAD PUSH1 0x9 SLOAD PUSH1 0x1 PUSH1 0x1 PUSH1 0xA0 SHL SUB SWAP1 SWAP2 AND SWAP1 PUSH2 0x72F DUP3 PUSH2 0xAAD JUMP JUMPDEST LT PUSH2 0x7A3 JUMPI PUSH1 0xA SLOAD TIMESTAMP GT PUSH2 0x755 JUMPI PUSH1 0x40 MLOAD PUSH3 0x461BCD PUSH1 0xE5 SHL DUP2 MSTORE PUSH1 0x4 ADD PUSH2 0x5F1 SWAP1 PUSH2 0x1C75 JUMP JUMPDEST DUP4 PUSH1 0x1 PUSH1 0x1 PUSH1 0xA0 SHL SUB AND DUP6 PUSH1 0x1 PUSH1 0x1 PUSH1 0xA0 SHL SUB AND PUSH32 0x1A57A13050525E0C7FDD78AC2E358035F7F59A49327A06C897F10AE5EEB6544B DUP6 PUSH1 0x40 MLOAD PUSH2 0x79A SWAP2 DUP2 MSTORE PUSH1 0x20 ADD SWAP1 JUMP JUMPDEST PUSH1 0x40 MLOAD DUP1 SWAP2 SUB SWAP1 LOG3 JUMPDEST PUSH2 0x7B8 PUSH1 0x1 PUSH1 0x1 PUSH1 0xA0 SHL SUB DUP3 AND DUP7 DUP7 DUP7 PUSH2 0x102C JUMP JUMPDEST POP PUSH1 0x1 SWAP5 SWAP4 POP POP POP POP JUMP JUMPDEST PUSH0 PUSH2 0x7CD CALLER PUSH2 0xAAD JUMP JUMPDEST GT DUP1 PUSH2 0x7E6 JUMPI POP CALLER PUSH0 SWAP1 DUP2 MSTORE PUSH1 0x10 PUSH1 0x20 MSTORE PUSH1 0x40 SWAP1 KECCAK256 SLOAD ISZERO ISZERO JUMPDEST PUSH2 0x802 JUMPI PUSH1 0x40 MLOAD PUSH3 0x461BCD PUSH1 0xE5 SHL DUP2 MSTORE PUSH1 0x4 ADD PUSH2 0x5F1 SWAP1 PUSH2 0x1C1F JUMP JUMPDEST CALLER PUSH0 SWAP1 DUP2 MSTORE PUSH1 0x10 PUSH1 0x20 MSTORE PUSH1 0x40 SWAP1 KECCAK256 DUP1 SLOAD PUSH1 0x1 DUP1 DUP4 ADD SLOAD SWAP1 PUSH2 0x823 SWAP1 DUP6 PUSH2 0x1BF9 JUMP JUMPDEST DUP3 GT PUSH2 0x871 JUMPI PUSH1 0x40 MLOAD PUSH3 0x461BCD PUSH1 0xE5 SHL DUP2 MSTORE PUSH1 0x20 PUSH1 0x4 DUP3 ADD MSTORE PUSH1 0x1B PUSH1 0x24 DUP3 ADD MSTORE PUSH32 0x496E73756666696369656E74207374616B65642062616C616E63650000000000 PUSH1 0x44 DUP3 ADD MSTORE PUSH1 0x64 ADD PUSH2 0x5F1 JUMP JUMPDEST PUSH1 0xF SLOAD PUSH2 0x87E SWAP1 DUP3 PUSH2 0x1C0C JUMP JUMPDEST TIMESTAMP GT PUSH2 0x8CC JUMPI PUSH1 0x40 MLOAD PUSH3 0x461BCD PUSH1 0xE5 SHL DUP2 MSTORE PUSH1 0x20 PUSH1 0x4 DUP3 ADD MSTORE PUSH1 0x1A PUSH1 0x24 DUP3 ADD MSTORE PUSH32 0x436F6F6C646F776E20706572696F64206E6F7420706173736564000000000000 PUSH1 0x44 DUP3 ADD MSTORE PUSH1 0x64 ADD PUSH2 0x5F1 JUMP JUMPDEST PUSH0 PUSH2 0x8D6 CALLER PUSH2 0x9FC JUMP JUMPDEST SWAP1 POP PUSH2 0x8E2 DUP6 DUP5 PUSH2 0x1BF9 JUMP JUMPDEST DUP5 SSTORE PUSH1 0xC SLOAD PUSH2 0x8F2 SWAP1 DUP7 SWAP1 PUSH2 0x1BF9 JUMP JUMPDEST PUSH1 0xC SSTORE PUSH1 0xB SLOAD PUSH2 0x903 SWAP1 DUP3 SWAP1 PUSH2 0x1BF9 JUMP JUMPDEST PUSH1 0xB SSTORE PUSH1 0xE SLOAD PUSH2 0x914 SWAP1 DUP3 SWAP1 PUSH2 0x1C0C JUMP JUMPDEST PUSH1 0xE SSTORE PUSH1 0x11 SLOAD PUSH2 0x937 SWAP1 PUSH1 0x1 PUSH1 0x1 PUSH1 0xA0 SHL SUB AND CALLER PUSH2 0x932 DUP5 DUP10 PUSH2 0x1C0C JUMP JUMPDEST PUSH2 0xFC2 JUMP JUMPDEST PUSH0 PUSH1 0x1 DUP6 ADD SSTORE PUSH1 0x40 DUP1 MLOAD DUP7 DUP2 MSTORE PUSH1 0x20 DUP2 ADD DUP4 SWAP1 MSTORE CALLER SWAP2 PUSH32 0x6F2D3E000C89D37446B7C0374C0125068FF316D1E3EE302336478A8CD03C2336 SWAP2 ADD PUSH1 0x40 MLOAD DUP1 SWAP2 SUB SWAP1 LOG2 POP POP POP POP POP JUMP JUMPDEST PUSH0 DUP3 DUP2 MSTORE PUSH1 0x8 PUSH1 0x20 MSTORE PUSH1 0x40 SWAP1 KECCAK256 PUSH1 0x1 ADD SLOAD PUSH2 0x999 DUP2 PUSH2 0xFB8 JUMP JUMPDEST PUSH2 0x9A3 DUP4 DUP4 PUSH2 0x1086 JUMP JUMPDEST POP POP POP POP JUMP JUMPDEST PUSH0 PUSH2 0x9B2 PUSH2 0x1117 JUMP JUMPDEST SWAP1 POP SWAP1 JUMP JUMPDEST PUSH1 0x1 PUSH1 0x1 PUSH1 0xA0 SHL SUB DUP2 AND CALLER EQ PUSH2 0x9E0 JUMPI PUSH1 0x40 MLOAD PUSH4 0x334BD919 PUSH1 0xE1 SHL DUP2 MSTORE PUSH1 0x4 ADD PUSH1 0x40 MLOAD DUP1 SWAP2 SUB SWAP1 REVERT JUMPDEST PUSH2 0x9EA DUP3 DUP3 PUSH2 0x1240 JUMP JUMPDEST POP POP POP JUMP JUMPDEST PUSH2 0x9F9 CALLER DUP3 PUSH2 0x12AB JUMP JUMPDEST POP JUMP JUMPDEST PUSH0 DUP1 PUSH2 0xA07 CALLER PUSH2 0xAAD JUMP JUMPDEST GT DUP1 PUSH2 0xA20 JUMPI POP CALLER PUSH0 SWAP1 DUP2 MSTORE PUSH1 0x10 PUSH1 0x20 MSTORE PUSH1 0x40 SWAP1 KECCAK256 SLOAD ISZERO ISZERO JUMPDEST PUSH2 0xA3C JUMPI PUSH1 0x40 MLOAD PUSH3 0x461BCD PUSH1 0xE5 SHL DUP2 MSTORE PUSH1 0x4 ADD PUSH2 0x5F1 SWAP1 PUSH2 0x1C1F JUMP JUMPDEST PUSH1 0x1 PUSH1 0x1 PUSH1 0xA0 SHL SUB DUP3 AND PUSH0 SWAP1 DUP2 MSTORE PUSH1 0x10 PUSH1 0x20 MSTORE PUSH1 0x40 DUP2 KECCAK256 DUP1 SLOAD PUSH1 0x1 DUP3 ADD SLOAD PUSH1 0xD SLOAD SWAP3 SWAP4 SWAP2 SWAP3 SWAP1 SWAP2 PUSH2 0xA6D DUP4 TIMESTAMP PUSH2 0x1BF9 JUMP JUMPDEST SWAP1 POP PUSH0 PUSH1 0x64 PUSH2 0xA7C DUP5 DUP8 PUSH2 0x1CAC JUMP JUMPDEST PUSH2 0xA86 SWAP2 SWAP1 PUSH2 0x1CC3 JUMP JUMPDEST SWAP1 POP PUSH4 0x1E13380 PUSH2 0xA97 DUP4 DUP4 PUSH2 0x1CAC JUMP JUMPDEST PUSH2 0xAA1 SWAP2 SWAP1 PUSH2 0x1CC3 JUMP JUMPDEST SWAP9 SWAP8 POP POP POP POP POP POP POP POP JUMP JUMPDEST PUSH1 0x1 PUSH1 0x1 PUSH1 0xA0 SHL SUB AND PUSH0 SWAP1 DUP2 MSTORE PUSH1 0x20 DUP2 SWAP1 MSTORE PUSH1 0x40 SWAP1 KECCAK256 SLOAD SWAP1 JUMP JUMPDEST PUSH2 0xAD2 DUP3 CALLER DUP4 PUSH2 0x12DF JUMP JUMPDEST PUSH2 0xADC DUP3 DUP3 PUSH2 0x12AB JUMP JUMPDEST POP POP JUMP JUMPDEST PUSH1 0x1 PUSH1 0x1 PUSH1 0xA0 SHL SUB DUP2 AND PUSH0 SWAP1 DUP2 MSTORE PUSH1 0x7 PUSH1 0x20 MSTORE PUSH1 0x40 DUP2 KECCAK256 SLOAD PUSH2 0x506 JUMP JUMPDEST PUSH0 PUSH1 0x60 DUP1 PUSH0 DUP1 PUSH0 PUSH1 0x60 PUSH2 0xB0E PUSH2 0x1354 JUMP JUMPDEST PUSH2 0xB16 PUSH2 0x1381 JUMP JUMPDEST PUSH1 0x40 DUP1 MLOAD PUSH0 DUP1 DUP3 MSTORE PUSH1 0x20 DUP3 ADD SWAP1 SWAP3 MSTORE PUSH1 0xF PUSH1 0xF8 SHL SWAP12 SWAP4 SWAP11 POP SWAP2 SWAP9 POP CHAINID SWAP8 POP ADDRESS SWAP7 POP SWAP5 POP SWAP3 POP SWAP1 POP JUMP JUMPDEST PUSH0 SWAP2 DUP3 MSTORE PUSH1 0x8 PUSH1 0x20 SWAP1 DUP2 MSTORE PUSH1 0x40 DUP1 DUP5 KECCAK256 PUSH1 0x1 PUSH1 0x1 PUSH1 0xA0 SHL SUB SWAP4 SWAP1 SWAP4 AND DUP5 MSTORE SWAP2 SWAP1 MSTORE SWAP1 KECCAK256 SLOAD PUSH1 0xFF AND SWAP1 JUMP JUMPDEST PUSH1 0x60 PUSH1 0x4 DUP1 SLOAD PUSH2 0x51B SWAP1 PUSH2 0x1BAD JUMP JUMPDEST PUSH1 0x60 PUSH1 0x40 MLOAD DUP1 PUSH1 0x80 ADD PUSH1 0x40 MSTORE DUP1 PUSH1 0x5A DUP2 MSTORE PUSH1 0x20 ADD PUSH2 0x1CF7 PUSH1 0x5A SWAP2 CODECOPY SWAP1 POP SWAP1 JUMP JUMPDEST PUSH0 PUSH2 0xBA2 CALLER PUSH2 0xAAD JUMP JUMPDEST GT DUP1 PUSH2 0xBBB JUMPI POP CALLER PUSH0 SWAP1 DUP2 MSTORE PUSH1 0x10 PUSH1 0x20 MSTORE PUSH1 0x40 SWAP1 KECCAK256 SLOAD ISZERO ISZERO JUMPDEST PUSH2 0xBD7 JUMPI PUSH1 0x40 MLOAD PUSH3 0x461BCD PUSH1 0xE5 SHL DUP2 MSTORE PUSH1 0x4 ADD PUSH2 0x5F1 SWAP1 PUSH2 0x1C1F JUMP JUMPDEST CALLER PUSH0 SWAP1 DUP2 MSTORE PUSH1 0x10 PUSH1 0x20 MSTORE PUSH1 0x40 DUP2 KECCAK256 PUSH1 0x11 SLOAD SWAP1 SWAP2 PUSH1 0x1 PUSH1 0x1 PUSH1 0xA0 SHL SUB SWAP1 SWAP2 AND SWAP1 DUP4 SWAP1 SUB PUSH2 0xC45 JUMPI PUSH1 0x40 MLOAD PUSH3 0x461BCD PUSH1 0xE5 SHL DUP2 MSTORE PUSH1 0x20 PUSH1 0x4 DUP3 ADD MSTORE PUSH1 0x1D PUSH1 0x24 DUP3 ADD MSTORE PUSH32 0x416D6F756E74206D7573742062652067726561746572207468616E2030000000 PUSH1 0x44 DUP3 ADD MSTORE PUSH1 0x64 ADD PUSH2 0x5F1 JUMP JUMPDEST PUSH2 0xC50 PUSH1 0x1 DUP5 PUSH2 0x1BF9 JUMP JUMPDEST PUSH2 0xC59 CALLER PUSH2 0xAAD JUMP JUMPDEST GT PUSH2 0xCA6 JUMPI PUSH1 0x40 MLOAD PUSH3 0x461BCD PUSH1 0xE5 SHL DUP2 MSTORE PUSH1 0x20 PUSH1 0x4 DUP3 ADD MSTORE PUSH1 0x1D PUSH1 0x24 DUP3 ADD MSTORE PUSH32 0x496E73756666696369656E742062616C616E636520746F207374616B65000000 PUSH1 0x44 DUP3 ADD MSTORE PUSH1 0x64 ADD PUSH2 0x5F1 JUMP JUMPDEST PUSH2 0xCB1 CALLER DUP3 DUP6 PUSH2 0xFC2 JUMP JUMPDEST DUP2 SLOAD PUSH2 0xCBE SWAP1 DUP5 SWAP1 PUSH2 0x1C0C JUMP JUMPDEST DUP3 SSTORE PUSH1 0xC SLOAD PUSH2 0xCCE SWAP1 DUP5 SWAP1 PUSH2 0x1C0C JUMP JUMPDEST PUSH1 0xC SSTORE TIMESTAMP PUSH1 0x1 DUP4 ADD SSTORE PUSH1 0x40 MLOAD DUP4 DUP2 MSTORE CALLER SWAP1 PUSH32 0xB539CA1E5C8D398DDF1C41C30166F33404941683BE4683319B57669A93DAD4EF SWAP1 PUSH1 0x20 ADD PUSH1 0x40 MLOAD DUP1 SWAP2 SUB SWAP1 LOG2 POP POP POP JUMP JUMPDEST PUSH0 DUP1 PUSH2 0xD1C CALLER PUSH2 0xAAD JUMP JUMPDEST GT DUP1 PUSH2 0xD35 JUMPI POP CALLER PUSH0 SWAP1 DUP2 MSTORE PUSH1 0x10 PUSH1 0x20 MSTORE PUSH1 0x40 SWAP1 KECCAK256 SLOAD ISZERO ISZERO JUMPDEST PUSH2 0xD51 JUMPI PUSH1 0x40 MLOAD PUSH3 0x461BCD PUSH1 0xE5 SHL DUP2 MSTORE PUSH1 0x4 ADD PUSH2 0x5F1 SWAP1 PUSH2 0x1C1F JUMP JUMPDEST PUSH1 0x11 SLOAD PUSH1 0x9 SLOAD PUSH1 0x1 PUSH1 0x1 PUSH1 0xA0 SHL SUB SWAP1 SWAP2 AND SWAP1 PUSH2 0xD6C DUP3 PUSH2 0xAAD JUMP JUMPDEST LT PUSH2 0xDD3 JUMPI PUSH1 0xA SLOAD TIMESTAMP GT PUSH2 0xD92 JUMPI PUSH1 0x40 MLOAD PUSH3 0x461BCD PUSH1 0xE5 SHL DUP2 MSTORE PUSH1 0x4 ADD PUSH2 0x5F1 SWAP1 PUSH2 0x1C75 JUMP JUMPDEST PUSH1 0x40 MLOAD DUP4 DUP2 MSTORE PUSH1 0x1 PUSH1 0x1 PUSH1 0xA0 SHL SUB DUP6 AND SWAP1 CALLER SWAP1 PUSH32 0x1A57A13050525E0C7FDD78AC2E358035F7F59A49327A06C897F10AE5EEB6544B SWAP1 PUSH1 0x20 ADD PUSH1 0x40 MLOAD DUP1 SWAP2 SUB SWAP1 LOG3 JUMPDEST PUSH2 0x7B8 DUP5 DUP5 PUSH2 0x13AE JUMP JUMPDEST DUP4 TIMESTAMP GT ISZERO PUSH2 0xE01 JUMPI PUSH1 0x40 MLOAD PUSH4 0x313C8981 PUSH1 0xE1 SHL DUP2 MSTORE PUSH1 0x4 DUP2 ADD DUP6 SWAP1 MSTORE PUSH1 0x24 ADD PUSH2 0x5F1 JUMP JUMPDEST PUSH0 PUSH32 0x6E71EDAE12B1B97F4D1F60370FEF10105FA2FAAE0126114A169C64845D6126C9 DUP9 DUP9 DUP9 PUSH2 0xE4C DUP13 PUSH1 0x1 PUSH1 0x1 PUSH1 0xA0 SHL SUB AND PUSH0 SWAP1 DUP2 MSTORE PUSH1 0x7 PUSH1 0x20 MSTORE PUSH1 0x40 SWAP1 KECCAK256 DUP1 SLOAD PUSH1 0x1 DUP2 ADD SWAP1 SWAP2 SSTORE SWAP1 JUMP JUMPDEST PUSH1 0x40 DUP1 MLOAD PUSH1 0x20 DUP2 ADD SWAP7 SWAP1 SWAP7 MSTORE PUSH1 0x1 PUSH1 0x1 PUSH1 0xA0 SHL SUB SWAP5 DUP6 AND SWAP1 DUP7 ADD MSTORE SWAP3 SWAP1 SWAP2 AND PUSH1 0x60 DUP5 ADD MSTORE PUSH1 0x80 DUP4 ADD MSTORE PUSH1 0xA0 DUP3 ADD MSTORE PUSH1 0xC0 DUP2 ADD DUP7 SWAP1 MSTORE PUSH1 0xE0 ADD PUSH1 0x40 MLOAD PUSH1 0x20 DUP2 DUP4 SUB SUB DUP2 MSTORE SWAP1 PUSH1 0x40 MSTORE DUP1 MLOAD SWAP1 PUSH1 0x20 ADD KECCAK256 SWAP1 POP PUSH0 PUSH2 0xEA6 DUP3 PUSH2 0x13BB JUMP JUMPDEST SWAP1 POP PUSH0 PUSH2 0xEB5 DUP3 DUP8 DUP8 DUP8 PUSH2 0x13E7 JUMP JUMPDEST SWAP1 POP DUP10 PUSH1 0x1 PUSH1 0x1 PUSH1 0xA0 SHL SUB AND DUP2 PUSH1 0x1 PUSH1 0x1 PUSH1 0xA0 SHL SUB AND EQ PUSH2 0xEFC JUMPI PUSH1 0x40 MLOAD PUSH4 0x25C00723 PUSH1 0xE1 SHL DUP2 MSTORE PUSH1 0x1 PUSH1 0x1 PUSH1 0xA0 SHL SUB DUP1 DUP4 AND PUSH1 0x4 DUP4 ADD MSTORE DUP12 AND PUSH1 0x24 DUP3 ADD MSTORE PUSH1 0x44 ADD PUSH2 0x5F1 JUMP JUMPDEST PUSH2 0xF07 DUP11 DUP11 DUP11 PUSH2 0x101F JUMP JUMPDEST POP POP POP POP POP POP POP POP POP POP JUMP JUMPDEST PUSH0 DUP3 DUP2 MSTORE PUSH1 0x8 PUSH1 0x20 MSTORE PUSH1 0x40 SWAP1 KECCAK256 PUSH1 0x1 ADD SLOAD PUSH2 0xF2D DUP2 PUSH2 0xFB8 JUMP JUMPDEST PUSH2 0x9A3 DUP4 DUP4 PUSH2 0x1240 JUMP JUMPDEST PUSH0 PUSH2 0xF41 DUP2 PUSH2 0xFB8 JUMP JUMPDEST PUSH1 0xA SLOAD TIMESTAMP GT PUSH2 0xF62 JUMPI PUSH1 0x40 MLOAD PUSH3 0x461BCD PUSH1 0xE5 SHL DUP2 MSTORE PUSH1 0x4 ADD PUSH2 0x5F1 SWAP1 PUSH2 0x1C75 JUMP JUMPDEST PUSH1 0x9 DUP1 SLOAD PUSH0 SWAP1 SWAP2 SSTORE PUSH1 0x11 SLOAD PUSH2 0xF81 SWAP1 PUSH1 0x1 PUSH1 0x1 PUSH1 0xA0 SHL SUB AND CALLER DUP4 PUSH2 0xFC2 JUMP JUMPDEST PUSH1 0x40 MLOAD DUP2 DUP2 MSTORE PUSH32 0x8A52261CD2B8C249F858FEF8AE15294602E2EA0352C71421A5A29E6C0DA35542 SWAP1 PUSH1 0x20 ADD PUSH1 0x40 MLOAD DUP1 SWAP2 SUB SWAP1 LOG1 POP POP JUMP JUMPDEST PUSH2 0x9F9 DUP2 CALLER PUSH2 0x1413 JUMP JUMPDEST PUSH1 0x1 PUSH1 0x1 PUSH1 0xA0 SHL SUB DUP4 AND PUSH2 0xFEB JUMPI PUSH1 0x40 MLOAD PUSH4 0x4B637E8F PUSH1 0xE1 SHL DUP2 MSTORE PUSH0 PUSH1 0x4 DUP3 ADD MSTORE PUSH1 0x24 ADD PUSH2 0x5F1 JUMP JUMPDEST PUSH1 0x1 PUSH1 0x1 PUSH1 0xA0 SHL SUB DUP3 AND PUSH2 0x1014 JUMPI PUSH1 0x40 MLOAD PUSH4 0xEC442F05 PUSH1 0xE0 SHL DUP2 MSTORE PUSH0 PUSH1 0x4 DUP3 ADD MSTORE PUSH1 0x24 ADD PUSH2 0x5F1 JUMP JUMPDEST PUSH2 0x9EA DUP4 DUP4 DUP4 PUSH2 0x144C JUMP JUMPDEST PUSH2 0x9EA DUP4 DUP4 DUP4 PUSH1 0x1 PUSH2 0x1572 JUMP JUMPDEST PUSH1 0x40 DUP1 MLOAD PUSH1 0x1 PUSH1 0x1 PUSH1 0xA0 SHL SUB DUP6 DUP2 AND PUSH1 0x24 DUP4 ADD MSTORE DUP5 AND PUSH1 0x44 DUP3 ADD MSTORE PUSH1 0x64 DUP1 DUP3 ADD DUP5 SWAP1 MSTORE DUP3 MLOAD DUP1 DUP4 SUB SWAP1 SWAP2 ADD DUP2 MSTORE PUSH1 0x84 SWAP1 SWAP2 ADD SWAP1 SWAP2 MSTORE PUSH1 0x20 DUP2 ADD DUP1 MLOAD PUSH1 0x1 PUSH1 0x1 PUSH1 0xE0 SHL SUB AND PUSH4 0x23B872DD PUSH1 0xE0 SHL OR SWAP1 MSTORE PUSH2 0x9A3 SWAP1 DUP6 SWAP1 PUSH2 0x1644 JUMP JUMPDEST PUSH0 PUSH2 0x1091 DUP4 DUP4 PUSH2 0xB3F JUMP JUMPDEST PUSH2 0x1110 JUMPI PUSH0 DUP4 DUP2 MSTORE PUSH1 0x8 PUSH1 0x20 SWAP1 DUP2 MSTORE PUSH1 0x40 DUP1 DUP4 KECCAK256 PUSH1 0x1 PUSH1 0x1 PUSH1 0xA0 SHL SUB DUP7 AND DUP5 MSTORE SWAP1 SWAP2 MSTORE SWAP1 KECCAK256 DUP1 SLOAD PUSH1 0xFF NOT AND PUSH1 0x1 OR SWAP1 SSTORE PUSH2 0x10C8 CALLER SWAP1 JUMP JUMPDEST PUSH1 0x1 PUSH1 0x1 PUSH1 0xA0 SHL SUB AND DUP3 PUSH1 0x1 PUSH1 0x1 PUSH1 0xA0 SHL SUB AND DUP5 PUSH32 0x2F8788117E7EFF1D82E926EC794901D17C78024A50270940304540A733656F0D PUSH1 0x40 MLOAD PUSH1 0x40 MLOAD DUP1 SWAP2 SUB SWAP1 LOG4 POP PUSH1 0x1 PUSH2 0x506 JUMP JUMPDEST POP PUSH0 PUSH2 0x506 JUMP JUMPDEST PUSH0 ADDRESS PUSH1 0x1 PUSH1 0x1 PUSH1 0xA0 SHL SUB PUSH32 0x0 AND EQ DUP1 ISZERO PUSH2 0x116F JUMPI POP PUSH32 0x0 CHAINID EQ JUMPDEST ISZERO PUSH2 0x1199 JUMPI POP PUSH32 0x0 SWAP1 JUMP JUMPDEST PUSH2 0x9B2 PUSH1 0x40 DUP1 MLOAD PUSH32 0x8B73C3C69BB8FE3D512ECC4CF759CC79239F7B179B0FFACAA9A75D522B39400F PUSH1 0x20 DUP3 ADD MSTORE PUSH32 0x0 SWAP2 DUP2 ADD SWAP2 SWAP1 SWAP2 MSTORE PUSH32 0x0 PUSH1 0x60 DUP3 ADD MSTORE CHAINID PUSH1 0x80 DUP3 ADD MSTORE ADDRESS PUSH1 0xA0 DUP3 ADD MSTORE PUSH0 SWAP1 PUSH1 0xC0 ADD PUSH1 0x40 MLOAD PUSH1 0x20 DUP2 DUP4 SUB SUB DUP2 MSTORE SWAP1 PUSH1 0x40 MSTORE DUP1 MLOAD SWAP1 PUSH1 0x20 ADD KECCAK256 SWAP1 POP SWAP1 JUMP JUMPDEST PUSH0 PUSH2 0x124B DUP4 DUP4 PUSH2 0xB3F JUMP JUMPDEST ISZERO PUSH2 0x1110 JUMPI PUSH0 DUP4 DUP2 MSTORE PUSH1 0x8 PUSH1 0x20 SWAP1 DUP2 MSTORE PUSH1 0x40 DUP1 DUP4 KECCAK256 PUSH1 0x1 PUSH1 0x1 PUSH1 0xA0 SHL SUB DUP7 AND DUP1 DUP6 MSTORE SWAP3 MSTORE DUP1 DUP4 KECCAK256 DUP1 SLOAD PUSH1 0xFF NOT AND SWAP1 SSTORE MLOAD CALLER SWAP3 DUP7 SWAP2 PUSH32 0xF6391F5C32D9C69D2A47EA670B442974B53935D1EDC7FD64EB21E047A839171B SWAP2 SWAP1 LOG4 POP PUSH1 0x1 PUSH2 0x506 JUMP JUMPDEST PUSH1 0x1 PUSH1 0x1 PUSH1 0xA0 SHL SUB DUP3 AND PUSH2 0x12D4 JUMPI PUSH1 0x40 MLOAD PUSH4 0x4B637E8F PUSH1 0xE1 SHL DUP2 MSTORE PUSH0 PUSH1 0x4 DUP3 ADD MSTORE PUSH1 0x24 ADD PUSH2 0x5F1 JUMP JUMPDEST PUSH2 0xADC DUP3 PUSH0 DUP4 PUSH2 0x144C JUMP JUMPDEST PUSH1 0x1 PUSH1 0x1 PUSH1 0xA0 SHL SUB DUP4 DUP2 AND PUSH0 SWAP1 DUP2 MSTORE PUSH1 0x1 PUSH1 0x20 SWAP1 DUP2 MSTORE PUSH1 0x40 DUP1 DUP4 KECCAK256 SWAP4 DUP7 AND DUP4 MSTORE SWAP3 SWAP1 MSTORE KECCAK256 SLOAD PUSH0 NOT DUP2 EQ PUSH2 0x9A3 JUMPI DUP2 DUP2 LT ISZERO PUSH2 0x1346 JUMPI PUSH1 0x40 MLOAD PUSH4 0x7DC7A0D9 PUSH1 0xE1 SHL DUP2 MSTORE PUSH1 0x1 PUSH1 0x1 PUSH1 0xA0 SHL SUB DUP5 AND PUSH1 0x4 DUP3 ADD MSTORE PUSH1 0x24 DUP2 ADD DUP3 SWAP1 MSTORE PUSH1 0x44 DUP2 ADD DUP4 SWAP1 MSTORE PUSH1 0x64 ADD PUSH2 0x5F1 JUMP JUMPDEST PUSH2 0x9A3 DUP5 DUP5 DUP5 DUP5 SUB PUSH0 PUSH2 0x1572 JUMP JUMPDEST PUSH1 0x60 PUSH2 0x9B2 PUSH32 0x0 PUSH1 0x5 PUSH2 0x16B0 JUMP JUMPDEST PUSH1 0x60 PUSH2 0x9B2 PUSH32 0x0 PUSH1 0x6 PUSH2 0x16B0 JUMP JUMPDEST PUSH0 CALLER PUSH2 0x6CA DUP2 DUP6 DUP6 PUSH2 0xFC2 JUMP JUMPDEST PUSH0 PUSH2 0x506 PUSH2 0x13C7 PUSH2 0x1117 JUMP JUMPDEST DUP4 PUSH1 0x40 MLOAD PUSH2 0x1901 PUSH1 0xF0 SHL DUP2 MSTORE PUSH1 0x2 DUP2 ADD SWAP3 SWAP1 SWAP3 MSTORE PUSH1 0x22 DUP3 ADD MSTORE PUSH1 0x42 SWAP1 KECCAK256 SWAP1 JUMP JUMPDEST PUSH0 DUP1 PUSH0 DUP1 PUSH2 0x13F7 DUP9 DUP9 DUP9 DUP9 PUSH2 0x1759 JUMP JUMPDEST SWAP3 POP SWAP3 POP SWAP3 POP PUSH2 0x1407 DUP3 DUP3 PUSH2 0x1821 JUMP JUMPDEST POP SWAP1 SWAP7 SWAP6 POP POP POP POP POP POP JUMP JUMPDEST PUSH2 0x141D DUP3 DUP3 PUSH2 0xB3F JUMP JUMPDEST PUSH2 0xADC JUMPI PUSH1 0x40 MLOAD PUSH4 0xE2517D3F PUSH1 0xE0 SHL DUP2 MSTORE PUSH1 0x1 PUSH1 0x1 PUSH1 0xA0 SHL SUB DUP3 AND PUSH1 0x4 DUP3 ADD MSTORE PUSH1 0x24 DUP2 ADD DUP4 SWAP1 MSTORE PUSH1 0x44 ADD PUSH2 0x5F1 JUMP JUMPDEST PUSH1 0x1 PUSH1 0x1 PUSH1 0xA0 SHL SUB DUP4 AND PUSH2 0x1476 JUMPI DUP1 PUSH1 0x2 PUSH0 DUP3 DUP3 SLOAD PUSH2 0x146B SWAP2 SWAP1 PUSH2 0x1C0C JUMP JUMPDEST SWAP1 SWAP2 SSTORE POP PUSH2 0x14E6 SWAP1 POP JUMP JUMPDEST PUSH1 0x1 PUSH1 0x1 PUSH1 0xA0 SHL SUB DUP4 AND PUSH0 SWAP1 DUP2 MSTORE PUSH1 0x20 DUP2 SWAP1 MSTORE PUSH1 0x40 SWAP1 KECCAK256 SLOAD DUP2 DUP2 LT ISZERO PUSH2 0x14C8 JUMPI PUSH1 0x40 MLOAD PUSH4 0x391434E3 PUSH1 0xE2 SHL DUP2 MSTORE PUSH1 0x1 PUSH1 0x1 PUSH1 0xA0 SHL SUB DUP6 AND PUSH1 0x4 DUP3 ADD MSTORE PUSH1 0x24 DUP2 ADD DUP3 SWAP1 MSTORE PUSH1 0x44 DUP2 ADD DUP4 SWAP1 MSTORE PUSH1 0x64 ADD PUSH2 0x5F1 JUMP JUMPDEST PUSH1 0x1 PUSH1 0x1 PUSH1 0xA0 SHL SUB DUP5 AND PUSH0 SWAP1 DUP2 MSTORE PUSH1 0x20 DUP2 SWAP1 MSTORE PUSH1 0x40 SWAP1 KECCAK256 SWAP1 DUP3 SWAP1 SUB SWAP1 SSTORE JUMPDEST PUSH1 0x1 PUSH1 0x1 PUSH1 0xA0 SHL SUB DUP3 AND PUSH2 0x1502 JUMPI PUSH1 0x2 DUP1 SLOAD DUP3 SWAP1 SUB SWAP1 SSTORE PUSH2 0x1520 JUMP JUMPDEST PUSH1 0x1 PUSH1 0x1 PUSH1 0xA0 SHL SUB DUP3 AND PUSH0 SWAP1 DUP2 MSTORE PUSH1 0x20 DUP2 SWAP1 MSTORE PUSH1 0x40 SWAP1 KECCAK256 DUP1 SLOAD DUP3 ADD SWAP1 SSTORE JUMPDEST DUP2 PUSH1 0x1 PUSH1 0x1 PUSH1 0xA0 SHL SUB AND DUP4 PUSH1 0x1 PUSH1 0x1 PUSH1 0xA0 SHL SUB AND PUSH32 0xDDF252AD1BE2C89B69C2B068FC378DAA952BA7F163C4A11628F55A4DF523B3EF DUP4 PUSH1 0x40 MLOAD PUSH2 0x1565 SWAP2 DUP2 MSTORE PUSH1 0x20 ADD SWAP1 JUMP JUMPDEST PUSH1 0x40 MLOAD DUP1 SWAP2 SUB SWAP1 LOG3 POP POP POP JUMP JUMPDEST PUSH1 0x1 PUSH1 0x1 PUSH1 0xA0 SHL SUB DUP5 AND PUSH2 0x159B JUMPI PUSH1 0x40 MLOAD PUSH4 0xE602DF05 PUSH1 0xE0 SHL DUP2 MSTORE PUSH0 PUSH1 0x4 DUP3 ADD MSTORE PUSH1 0x24 ADD PUSH2 0x5F1 JUMP JUMPDEST PUSH1 0x1 PUSH1 0x1 PUSH1 0xA0 SHL SUB DUP4 AND PUSH2 0x15C4 JUMPI PUSH1 0x40 MLOAD PUSH4 0x4A1406B1 PUSH1 0xE1 SHL DUP2 MSTORE PUSH0 PUSH1 0x4 DUP3 ADD MSTORE PUSH1 0x24 ADD PUSH2 0x5F1 JUMP JUMPDEST PUSH1 0x1 PUSH1 0x1 PUSH1 0xA0 SHL SUB DUP1 DUP6 AND PUSH0 SWAP1 DUP2 MSTORE PUSH1 0x1 PUSH1 0x20 SWAP1 DUP2 MSTORE PUSH1 0x40 DUP1 DUP4 KECCAK256 SWAP4 DUP8 AND DUP4 MSTORE SWAP3 SWAP1 MSTORE KECCAK256 DUP3 SWAP1 SSTORE DUP1 ISZERO PUSH2 0x9A3 JUMPI DUP3 PUSH1 0x1 PUSH1 0x1 PUSH1 0xA0 SHL SUB AND DUP5 PUSH1 0x1 PUSH1 0x1 PUSH1 0xA0 SHL SUB AND PUSH32 0x8C5BE1E5EBEC7D5BD14F71427D1E84F3DD0314C0F7B2291E5B200AC8C7C3B925 DUP5 PUSH1 0x40 MLOAD PUSH2 0x1636 SWAP2 DUP2 MSTORE PUSH1 0x20 ADD SWAP1 JUMP JUMPDEST PUSH1 0x40 MLOAD DUP1 SWAP2 SUB SWAP1 LOG3 POP POP POP POP JUMP JUMPDEST PUSH0 DUP1 PUSH1 0x20 PUSH0 DUP5 MLOAD PUSH1 0x20 DUP7 ADD PUSH0 DUP9 GAS CALL DUP1 PUSH2 0x1663 JUMPI PUSH1 0x40 MLOAD RETURNDATASIZE PUSH0 DUP3 RETURNDATACOPY RETURNDATASIZE DUP2 REVERT JUMPDEST POP POP PUSH0 MLOAD RETURNDATASIZE SWAP2 POP DUP2 ISZERO PUSH2 0x167A JUMPI DUP1 PUSH1 0x1 EQ ISZERO PUSH2 0x1687 JUMP JUMPDEST PUSH1 0x1 PUSH1 0x1 PUSH1 0xA0 SHL SUB DUP5 AND EXTCODESIZE ISZERO JUMPDEST ISZERO PUSH2 0x9A3 JUMPI PUSH1 0x40 MLOAD PUSH4 0x5274AFE7 PUSH1 0xE0 SHL DUP2 MSTORE PUSH1 0x1 PUSH1 0x1 PUSH1 0xA0 SHL SUB DUP6 AND PUSH1 0x4 DUP3 ADD MSTORE PUSH1 0x24 ADD PUSH2 0x5F1 JUMP JUMPDEST PUSH1 0x60 PUSH1 0xFF DUP4 EQ PUSH2 0x16CA JUMPI PUSH2 0x16C3 DUP4 PUSH2 0x18D9 JUMP JUMPDEST SWAP1 POP PUSH2 0x506 JUMP JUMPDEST DUP2 DUP1 SLOAD PUSH2 0x16D6 SWAP1 PUSH2 0x1BAD JUMP JUMPDEST DUP1 PUSH1 0x1F ADD PUSH1 0x20 DUP1 SWAP2 DIV MUL PUSH1 0x20 ADD PUSH1 0x40 MLOAD SWAP1 DUP2 ADD PUSH1 0x40 MSTORE DUP1 SWAP3 SWAP2 SWAP1 DUP2 DUP2 MSTORE PUSH1 0x20 ADD DUP3 DUP1 SLOAD PUSH2 0x1702 SWAP1 PUSH2 0x1BAD JUMP JUMPDEST DUP1 ISZERO PUSH2 0x174D JUMPI DUP1 PUSH1 0x1F LT PUSH2 0x1724 JUMPI PUSH2 0x100 DUP1 DUP4 SLOAD DIV MUL DUP4 MSTORE SWAP2 PUSH1 0x20 ADD SWAP2 PUSH2 0x174D JUMP JUMPDEST DUP3 ADD SWAP2 SWAP1 PUSH0 MSTORE PUSH1 0x20 PUSH0 KECCAK256 SWAP1 JUMPDEST DUP2 SLOAD DUP2 MSTORE SWAP1 PUSH1 0x1 ADD SWAP1 PUSH1 0x20 ADD DUP1 DUP4 GT PUSH2 0x1730 JUMPI DUP3 SWAP1 SUB PUSH1 0x1F AND DUP3 ADD SWAP2 JUMPDEST POP POP POP POP POP SWAP1 POP PUSH2 0x506 JUMP JUMPDEST PUSH0 DUP1 DUP1 PUSH32 0x7FFFFFFFFFFFFFFFFFFFFFFFFFFFFFFF5D576E7357A4501DDFE92F46681B20A0 DUP5 GT ISZERO PUSH2 0x1792 JUMPI POP PUSH0 SWAP2 POP PUSH1 0x3 SWAP1 POP DUP3 PUSH2 0x1817 JUMP JUMPDEST PUSH1 0x40 DUP1 MLOAD PUSH0 DUP1 DUP3 MSTORE PUSH1 0x20 DUP3 ADD DUP1 DUP5 MSTORE DUP11 SWAP1 MSTORE PUSH1 0xFF DUP10 AND SWAP3 DUP3 ADD SWAP3 SWAP1 SWAP3 MSTORE PUSH1 0x60 DUP2 ADD DUP8 SWAP1 MSTORE PUSH1 0x80 DUP2 ADD DUP7 SWAP1 MSTORE PUSH1 0x1 SWAP1 PUSH1 0xA0 ADD PUSH1 0x20 PUSH1 0x40 MLOAD PUSH1 0x20 DUP2 SUB SWAP1 DUP1 DUP5 SUB SWAP1 DUP6 GAS STATICCALL ISZERO DUP1 ISZERO PUSH2 0x17E3 JUMPI RETURNDATASIZE PUSH0 DUP1 RETURNDATACOPY RETURNDATASIZE PUSH0 REVERT JUMPDEST POP POP PUSH1 0x40 MLOAD PUSH1 0x1F NOT ADD MLOAD SWAP2 POP POP PUSH1 0x1 PUSH1 0x1 PUSH1 0xA0 SHL SUB DUP2 AND PUSH2 0x180E JUMPI POP PUSH0 SWAP3 POP PUSH1 0x1 SWAP2 POP DUP3 SWAP1 POP PUSH2 0x1817 JUMP JUMPDEST SWAP3 POP PUSH0 SWAP2 POP DUP2 SWAP1 POP JUMPDEST SWAP5 POP SWAP5 POP SWAP5 SWAP2 POP POP JUMP JUMPDEST PUSH0 DUP3 PUSH1 0x3 DUP2 GT ISZERO PUSH2 0x1834 JUMPI PUSH2 0x1834 PUSH2 0x1CE2 JUMP JUMPDEST SUB PUSH2 0x183D JUMPI POP POP JUMP JUMPDEST PUSH1 0x1 DUP3 PUSH1 0x3 DUP2 GT ISZERO PUSH2 0x1851 JUMPI PUSH2 0x1851 PUSH2 0x1CE2 JUMP JUMPDEST SUB PUSH2 0x186F JUMPI PUSH1 0x40 MLOAD PUSH4 0xF645EEDF PUSH1 0xE0 SHL DUP2 MSTORE PUSH1 0x4 ADD PUSH1 0x40 MLOAD DUP1 SWAP2 SUB SWAP1 REVERT JUMPDEST PUSH1 0x2 DUP3 PUSH1 0x3 DUP2 GT ISZERO PUSH2 0x1883 JUMPI PUSH2 0x1883 PUSH2 0x1CE2 JUMP JUMPDEST SUB PUSH2 0x18A4 JUMPI PUSH1 0x40 MLOAD PUSH4 0xFCE698F7 PUSH1 0xE0 SHL DUP2 MSTORE PUSH1 0x4 DUP2 ADD DUP3 SWAP1 MSTORE PUSH1 0x24 ADD PUSH2 0x5F1 JUMP JUMPDEST PUSH1 0x3 DUP3 PUSH1 0x3 DUP2 GT ISZERO PUSH2 0x18B8 JUMPI PUSH2 0x18B8 PUSH2 0x1CE2 JUMP JUMPDEST SUB PUSH2 0xADC JUMPI PUSH1 0x40 MLOAD PUSH4 0x35E2F383 PUSH1 0xE2 SHL DUP2 MSTORE PUSH1 0x4 DUP2 ADD DUP3 SWAP1 MSTORE PUSH1 0x24 ADD PUSH2 0x5F1 JUMP JUMPDEST PUSH1 0x60 PUSH0 PUSH2 0x18E5 DUP4 PUSH2 0x1916 JUMP JUMPDEST PUSH1 0x40 DUP1 MLOAD PUSH1 0x20 DUP1 DUP3 MSTORE DUP2 DUP4 ADD SWAP1 SWAP3 MSTORE SWAP2 SWAP3 POP PUSH0 SWAP2 SWAP1 PUSH1 0x20 DUP3 ADD DUP2 DUP1 CALLDATASIZE DUP4 CALLDATACOPY POP POP POP SWAP2 DUP3 MSTORE POP PUSH1 0x20 DUP2 ADD SWAP3 SWAP1 SWAP3 MSTORE POP SWAP1 JUMP JUMPDEST PUSH0 PUSH1 0xFF DUP3 AND PUSH1 0x1F DUP2 GT ISZERO PUSH2 0x506 JUMPI PUSH1 0x40 MLOAD PUSH4 0x2CD44AC3 PUSH1 0xE2 SHL DUP2 MSTORE PUSH1 0x4 ADD PUSH1 0x40 MLOAD DUP1 SWAP2 SUB SWAP1 REVERT JUMPDEST PUSH0 PUSH1 0x20 DUP3 DUP5 SUB SLT ISZERO PUSH2 0x194D JUMPI PUSH0 DUP1 REVERT JUMPDEST DUP2 CALLDATALOAD PUSH1 0x1 PUSH1 0x1 PUSH1 0xE0 SHL SUB NOT DUP2 AND DUP2 EQ PUSH2 0x1964 JUMPI PUSH0 DUP1 REVERT JUMPDEST SWAP4 SWAP3 POP POP POP JUMP JUMPDEST PUSH0 DUP2 MLOAD DUP1 DUP5 MSTORE DUP1 PUSH1 0x20 DUP5 ADD PUSH1 0x20 DUP7 ADD MCOPY PUSH0 PUSH1 0x20 DUP3 DUP7 ADD ADD MSTORE PUSH1 0x20 PUSH1 0x1F NOT PUSH1 0x1F DUP4 ADD AND DUP6 ADD ADD SWAP2 POP POP SWAP3 SWAP2 POP POP JUMP JUMPDEST PUSH1 0x20 DUP2 MSTORE PUSH0 PUSH2 0x1964 PUSH1 0x20 DUP4 ADD DUP5 PUSH2 0x196B JUMP JUMPDEST PUSH0 PUSH1 0x20 DUP3 DUP5 SUB SLT ISZERO PUSH2 0x19BB JUMPI PUSH0 DUP1 REVERT JUMPDEST POP CALLDATALOAD SWAP2 SWAP1 POP JUMP JUMPDEST DUP1 CALLDATALOAD PUSH1 0x1 PUSH1 0x1 PUSH1 0xA0 SHL SUB DUP2 AND DUP2 EQ PUSH2 0x19D8 JUMPI PUSH0 DUP1 REVERT JUMPDEST SWAP2 SWAP1 POP JUMP JUMPDEST PUSH0 DUP1 PUSH1 0x40 DUP4 DUP6 SUB SLT ISZERO PUSH2 0x19EE JUMPI PUSH0 DUP1 REVERT JUMPDEST PUSH2 0x19F7 DUP4 PUSH2 0x19C2 JUMP JUMPDEST SWAP5 PUSH1 0x20 SWAP4 SWAP1 SWAP4 ADD CALLDATALOAD SWAP4 POP POP POP JUMP JUMPDEST PUSH0 DUP1 PUSH0 PUSH1 0x60 DUP5 DUP7 SUB SLT ISZERO PUSH2 0x1A17 JUMPI PUSH0 DUP1 REVERT JUMPDEST PUSH2 0x1A20 DUP5 PUSH2 0x19C2 JUMP JUMPDEST SWAP3 POP PUSH2 0x1A2E PUSH1 0x20 DUP6 ADD PUSH2 0x19C2 JUMP JUMPDEST SWAP3 SWAP6 SWAP3 SWAP5 POP POP POP PUSH1 0x40 SWAP2 SWAP1 SWAP2 ADD CALLDATALOAD SWAP1 JUMP JUMPDEST PUSH0 DUP1 PUSH1 0x40 DUP4 DUP6 SUB SLT ISZERO PUSH2 0x1A50 JUMPI PUSH0 DUP1 REVERT JUMPDEST DUP3 CALLDATALOAD SWAP2 POP PUSH2 0x1A60 PUSH1 0x20 DUP5 ADD PUSH2 0x19C2 JUMP JUMPDEST SWAP1 POP SWAP3 POP SWAP3 SWAP1 POP JUMP JUMPDEST PUSH0 PUSH1 0x20 DUP3 DUP5 SUB SLT ISZERO PUSH2 0x1A79 JUMPI PUSH0 DUP1 REVERT JUMPDEST PUSH2 0x1964 DUP3 PUSH2 0x19C2 JUMP JUMPDEST PUSH1 0xFF PUSH1 0xF8 SHL DUP9 AND DUP2 MSTORE PUSH1 0xE0 PUSH1 0x20 DUP3 ADD MSTORE PUSH0 PUSH2 0x1AA0 PUSH1 0xE0 DUP4 ADD DUP10 PUSH2 0x196B JUMP JUMPDEST DUP3 DUP2 SUB PUSH1 0x40 DUP5 ADD MSTORE PUSH2 0x1AB2 DUP2 DUP10 PUSH2 0x196B JUMP JUMPDEST PUSH1 0x60 DUP5 ADD DUP9 SWAP1 MSTORE PUSH1 0x1 PUSH1 0x1 PUSH1 0xA0 SHL SUB DUP8 AND PUSH1 0x80 DUP6 ADD MSTORE PUSH1 0xA0 DUP5 ADD DUP7 SWAP1 MSTORE DUP4 DUP2 SUB PUSH1 0xC0 DUP6 ADD MSTORE DUP5 MLOAD DUP1 DUP3 MSTORE PUSH1 0x20 DUP1 DUP8 ADD SWAP4 POP SWAP1 SWAP2 ADD SWAP1 PUSH0 JUMPDEST DUP2 DUP2 LT ISZERO PUSH2 0x1B07 JUMPI DUP4 MLOAD DUP4 MSTORE PUSH1 0x20 SWAP4 DUP5 ADD SWAP4 SWAP1 SWAP3 ADD SWAP2 PUSH1 0x1 ADD PUSH2 0x1AE9 JUMP JUMPDEST POP SWAP1 SWAP12 SWAP11 POP POP POP POP POP POP POP POP POP POP POP JUMP JUMPDEST PUSH0 DUP1 PUSH0 DUP1 PUSH0 DUP1 PUSH0 PUSH1 0xE0 DUP9 DUP11 SUB SLT ISZERO PUSH2 0x1B2E JUMPI PUSH0 DUP1 REVERT JUMPDEST PUSH2 0x1B37 DUP9 PUSH2 0x19C2 JUMP JUMPDEST SWAP7 POP PUSH2 0x1B45 PUSH1 0x20 DUP10 ADD PUSH2 0x19C2 JUMP JUMPDEST SWAP6 POP PUSH1 0x40 DUP9 ADD CALLDATALOAD SWAP5 POP PUSH1 0x60 DUP9 ADD CALLDATALOAD SWAP4 POP PUSH1 0x80 DUP9 ADD CALLDATALOAD PUSH1 0xFF DUP2 AND DUP2 EQ PUSH2 0x1B68 JUMPI PUSH0 DUP1 REVERT JUMPDEST SWAP7 SWAP10 SWAP6 SWAP9 POP SWAP4 SWAP7 SWAP3 SWAP6 SWAP5 PUSH1 0xA0 DUP5 ADD CALLDATALOAD SWAP5 POP PUSH1 0xC0 SWAP1 SWAP4 ADD CALLDATALOAD SWAP3 SWAP2 POP POP JUMP JUMPDEST PUSH0 DUP1 PUSH1 0x40 DUP4 DUP6 SUB SLT ISZERO PUSH2 0x1B96 JUMPI PUSH0 DUP1 REVERT JUMPDEST PUSH2 0x1B9F DUP4 PUSH2 0x19C2 JUMP JUMPDEST SWAP2 POP PUSH2 0x1A60 PUSH1 0x20 DUP5 ADD PUSH2 0x19C2 JUMP JUMPDEST PUSH1 0x1 DUP2 DUP2 SHR SWAP1 DUP3 AND DUP1 PUSH2 0x1BC1 JUMPI PUSH1 0x7F DUP3 AND SWAP2 POP JUMPDEST PUSH1 0x20 DUP3 LT DUP2 SUB PUSH2 0x1BDF JUMPI PUSH4 0x4E487B71 PUSH1 0xE0 SHL PUSH0 MSTORE PUSH1 0x22 PUSH1 0x4 MSTORE PUSH1 0x24 PUSH0 REVERT JUMPDEST POP SWAP2 SWAP1 POP JUMP JUMPDEST PUSH4 0x4E487B71 PUSH1 0xE0 SHL PUSH0 MSTORE PUSH1 0x11 PUSH1 0x4 MSTORE PUSH1 0x24 PUSH0 REVERT JUMPDEST DUP2 DUP2 SUB DUP2 DUP2 GT ISZERO PUSH2 0x506 JUMPI PUSH2 0x506 PUSH2 0x1BE5 JUMP JUMPDEST DUP1 DUP3 ADD DUP1 DUP3 GT ISZERO PUSH2 0x506 JUMPI PUSH2 0x506 PUSH2 0x1BE5 JUMP JUMPDEST PUSH1 0x20 DUP1 DUP3 MSTORE PUSH1 0x36 SWAP1 DUP3 ADD MSTORE PUSH32 0x43616C6C6572206973206E6F7420616E20696E766573746F7220286E6F20746F PUSH1 0x40 DUP3 ADD MSTORE PUSH22 0x6B656E73206F72207374616B656420746F6B656E7329 PUSH1 0x50 SHL PUSH1 0x60 DUP3 ADD MSTORE PUSH1 0x80 ADD SWAP1 JUMP JUMPDEST PUSH1 0x20 DUP1 DUP3 MSTORE PUSH1 0x17 SWAP1 DUP3 ADD MSTORE PUSH32 0x546F6B656E7320617265207374696C6C2066726F7A656E000000000000000000 PUSH1 0x40 DUP3 ADD MSTORE PUSH1 0x60 ADD SWAP1 JUMP JUMPDEST DUP1 DUP3 MUL DUP2 ISZERO DUP3 DUP3 DIV DUP5 EQ OR PUSH2 0x506 JUMPI PUSH2 0x506 PUSH2 0x1BE5 JUMP JUMPDEST PUSH0 DUP3 PUSH2 0x1CDD JUMPI PUSH4 0x4E487B71 PUSH1 0xE0 SHL PUSH0 MSTORE PUSH1 0x12 PUSH1 0x4 MSTORE PUSH1 0x24 PUSH0 REVERT JUMPDEST POP DIV SWAP1 JUMP JUMPDEST PUSH4 0x4E487B71 PUSH1 0xE0 SHL PUSH0 MSTORE PUSH1 0x21 PUSH1 0x4 MSTORE PUSH1 0x24 PUSH0 REVERT INVALID KECCAK256 KECCAK256 KECCAK256 KECCAK256 KECCAK256 KECCAK256 KECCAK256 0x2F TLOAD PUSH0 0x2F TLOAD KECCAK256 KECCAK256 EXP KECCAK256 KECCAK256 KECCAK256 KECCAK256 KECCAK256 KECCAK256 0x28 KECCAK256 PUSH16 0x2E6F2029200A202020202020203E205E KECCAK256 EXTCODECOPY KECCAK256 KECCAK256 EXP KECCAK256 KECCAK256 KECCAK256 SLOAD PUSH9 0x652046617420436174 KECCAK256 PUSH10 0x73207761746368696E67 KECCAK256 PUSH26 0x6F753A20666174636174636F696E2E696FA26469706673582212 KECCAK256 AND 0xF 0xB4 0xAF SWAP3 PUSH29 0x4F504784C6269F9248C1CE69DD47C9B2D6BB1BBEAF6D5326E69D64736F PUSH13 0x634300081A0033000000000000 "
		},
		"gasEstimates": {
			"creation": {
				"codeDepositCost": "1511600",
				"executionCost": "infinite",
				"totalCost": "infinite"
			},
			"external": {
				"DEFAULT_ADMIN_ROLE()": "326",
				"DOMAIN_SEPARATOR()": "infinite",
				"addToStakingPool(uint256)": "infinite",
				"allowance(address,address)": "infinite",
				"approve(address,uint256)": "24743",
				"balanceOf(address)": "2617",
				"burn(uint256)": "50983",
				"burnFrom(address,uint256)": "infinite",
				"calculateRewards(address)": "infinite",
				"cooldownPeriod()": "2363",
				"decimals()": "266",
				"eip712Domain()": "infinite",
				"freezeReleaseTime()": "2405",
				"frozenTokens()": "2383",
				"getRoleAdmin(bytes32)": "2575",
				"grantRole(bytes32,address)": "infinite",
				"hasRole(bytes32,address)": "2740",
				"isFreezePeriodOver()": "2336",
				"name()": "infinite",
				"nonces(address)": "2680",
				"permit(address,address,uint256,uint256,uint8,bytes32,bytes32)": "infinite",
				"renounceRole(bytes32,address)": "29069",
				"revokeRole(bytes32,address)": "infinite",
				"rewardsPaid()": "2340",
				"stake(uint256)": "infinite",
				"stakingAPR()": "2382",
				"stakingData(address)": "4765",
				"stakingPool()": "2362",
				"strokeFatCatCat()": "infinite",
				"supportsInterface(bytes4)": "470",
				"symbol()": "infinite",
				"totalStaked()": "2339",
				"totalSupply()": "2381",
				"transfer(address,uint256)": "infinite",
				"transferFrom(address,address,uint256)": "infinite",
				"unfreezeTokens()": "65880",
				"unstake(uint256)": "infinite"
			}
		},
		"methodIdentifiers": {
			"DEFAULT_ADMIN_ROLE()": "a217fddf",
			"DOMAIN_SEPARATOR()": "3644e515",
			"addToStakingPool(uint256)": "08726ed0",
			"allowance(address,address)": "dd62ed3e",
			"approve(address,uint256)": "095ea7b3",
			"balanceOf(address)": "70a08231",
			"burn(uint256)": "42966c68",
			"burnFrom(address,uint256)": "79cc6790",
			"calculateRewards(address)": "64ab8675",
			"cooldownPeriod()": "04646a49",
			"decimals()": "313ce567",
			"eip712Domain()": "84b0196e",
			"freezeReleaseTime()": "51500c3a",
			"frozenTokens()": "508d962b",
			"getRoleAdmin(bytes32)": "248a9ca3",
			"grantRole(bytes32,address)": "2f2ff15d",
			"hasRole(bytes32,address)": "91d14854",
			"isFreezePeriodOver()": "a327a281",
			"name()": "06fdde03",
			"nonces(address)": "7ecebe00",
			"permit(address,address,uint256,uint256,uint8,bytes32,bytes32)": "d505accf",
			"renounceRole(bytes32,address)": "36568abe",
			"revokeRole(bytes32,address)": "d547741f",
			"rewardsPaid()": "69d8d6d2",
			"stake(uint256)": "a694fc3a",
			"stakingAPR()": "eb7203fe",
			"stakingData(address)": "eca51139",
			"stakingPool()": "0c56ae3b",
			"strokeFatCatCat()": "a548485b",
			"supportsInterface(bytes4)": "01ffc9a7",
			"symbol()": "95d89b41",
			"totalStaked()": "817b1cd2",
			"totalSupply()": "18160ddd",
			"transfer(address,uint256)": "a9059cbb",
			"transferFrom(address,address,uint256)": "23b872dd",
			"unfreezeTokens()": "ffba376c",
			"unstake(uint256)": "2e17de78"
		}
	},
	"abi": [
		{
			"inputs": [
				{
					"internalType": "address",
					"name": "defaultAdmin",
					"type": "address"
				}
			],
			"stateMutability": "nonpayable",
			"type": "constructor"
		},
		{
			"inputs": [],
			"name": "AccessControlBadConfirmation",
			"type": "error"
		},
		{
			"inputs": [
				{
					"internalType": "address",
					"name": "account",
					"type": "address"
				},
				{
					"internalType": "bytes32",
					"name": "neededRole",
					"type": "bytes32"
				}
			],
			"name": "AccessControlUnauthorizedAccount",
			"type": "error"
		},
		{
			"inputs": [],
			"name": "ECDSAInvalidSignature",
			"type": "error"
		},
		{
			"inputs": [
				{
					"internalType": "uint256",
					"name": "length",
					"type": "uint256"
				}
			],
			"name": "ECDSAInvalidSignatureLength",
			"type": "error"
		},
		{
			"inputs": [
				{
					"internalType": "bytes32",
					"name": "s",
					"type": "bytes32"
				}
			],
			"name": "ECDSAInvalidSignatureS",
			"type": "error"
		},
		{
			"inputs": [
				{
					"internalType": "address",
					"name": "spender",
					"type": "address"
				},
				{
					"internalType": "uint256",
					"name": "allowance",
					"type": "uint256"
				},
				{
					"internalType": "uint256",
					"name": "needed",
					"type": "uint256"
				}
			],
			"name": "ERC20InsufficientAllowance",
			"type": "error"
		},
		{
			"inputs": [
				{
					"internalType": "address",
					"name": "sender",
					"type": "address"
				},
				{
					"internalType": "uint256",
					"name": "balance",
					"type": "uint256"
				},
				{
					"internalType": "uint256",
					"name": "needed",
					"type": "uint256"
				}
			],
			"name": "ERC20InsufficientBalance",
			"type": "error"
		},
		{
			"inputs": [
				{
					"internalType": "address",
					"name": "approver",
					"type": "address"
				}
			],
			"name": "ERC20InvalidApprover",
			"type": "error"
		},
		{
			"inputs": [
				{
					"internalType": "address",
					"name": "receiver",
					"type": "address"
				}
			],
			"name": "ERC20InvalidReceiver",
			"type": "error"
		},
		{
			"inputs": [
				{
					"internalType": "address",
					"name": "sender",
					"type": "address"
				}
			],
			"name": "ERC20InvalidSender",
			"type": "error"
		},
		{
			"inputs": [
				{
					"internalType": "address",
					"name": "spender",
					"type": "address"
				}
			],
			"name": "ERC20InvalidSpender",
			"type": "error"
		},
		{
			"inputs": [
				{
					"internalType": "uint256",
					"name": "deadline",
					"type": "uint256"
				}
			],
			"name": "ERC2612ExpiredSignature",
			"type": "error"
		},
		{
			"inputs": [
				{
					"internalType": "address",
					"name": "signer",
					"type": "address"
				},
				{
					"internalType": "address",
					"name": "owner",
					"type": "address"
				}
			],
			"name": "ERC2612InvalidSigner",
			"type": "error"
		},
		{
			"inputs": [
				{
					"internalType": "address",
					"name": "account",
					"type": "address"
				},
				{
					"internalType": "uint256",
					"name": "currentNonce",
					"type": "uint256"
				}
			],
			"name": "InvalidAccountNonce",
			"type": "error"
		},
		{
			"inputs": [],
			"name": "InvalidShortString",
			"type": "error"
		},
		{
			"inputs": [
				{
					"internalType": "address",
					"name": "token",
					"type": "address"
				}
			],
			"name": "SafeERC20FailedOperation",
			"type": "error"
		},
		{
			"inputs": [
				{
					"internalType": "string",
					"name": "str",
					"type": "string"
				}
			],
			"name": "StringTooLong",
			"type": "error"
		},
		{
			"anonymous": false,
			"inputs": [
				{
					"indexed": true,
					"internalType": "address",
					"name": "owner",
					"type": "address"
				},
				{
					"indexed": true,
					"internalType": "address",
					"name": "spender",
					"type": "address"
				},
				{
					"indexed": false,
					"internalType": "uint256",
					"name": "value",
					"type": "uint256"
				}
			],
			"name": "Approval",
			"type": "event"
		},
		{
			"anonymous": false,
			"inputs": [],
			"name": "EIP712DomainChanged",
			"type": "event"
		},
		{
			"anonymous": false,
			"inputs": [
				{
					"indexed": true,
					"internalType": "bytes32",
					"name": "role",
					"type": "bytes32"
				},
				{
					"indexed": true,
					"internalType": "bytes32",
					"name": "previousAdminRole",
					"type": "bytes32"
				},
				{
					"indexed": true,
					"internalType": "bytes32",
					"name": "newAdminRole",
					"type": "bytes32"
				}
			],
			"name": "RoleAdminChanged",
			"type": "event"
		},
		{
			"anonymous": false,
			"inputs": [
				{
					"indexed": true,
					"internalType": "bytes32",
					"name": "role",
					"type": "bytes32"
				},
				{
					"indexed": true,
					"internalType": "address",
					"name": "account",
					"type": "address"
				},
				{
					"indexed": true,
					"internalType": "address",
					"name": "sender",
					"type": "address"
				}
			],
			"name": "RoleGranted",
			"type": "event"
		},
		{
			"anonymous": false,
			"inputs": [
				{
					"indexed": true,
					"internalType": "bytes32",
					"name": "role",
					"type": "bytes32"
				},
				{
					"indexed": true,
					"internalType": "address",
					"name": "account",
					"type": "address"
				},
				{
					"indexed": true,
					"internalType": "address",
					"name": "sender",
					"type": "address"
				}
			],
			"name": "RoleRevoked",
			"type": "event"
		},
		{
			"anonymous": false,
			"inputs": [
				{
					"indexed": true,
					"internalType": "address",
					"name": "admin",
					"type": "address"
				},
				{
					"indexed": false,
					"internalType": "uint256",
					"name": "amount",
					"type": "uint256"
				}
			],
			"name": "StakingPoolFilluped",
			"type": "event"
		},
		{
			"anonymous": false,
			"inputs": [
				{
					"indexed": false,
					"internalType": "uint256",
					"name": "amount",
					"type": "uint256"
				}
			],
			"name": "TokensFrozen",
			"type": "event"
		},
		{
			"anonymous": false,
			"inputs": [
				{
					"indexed": true,
					"internalType": "address",
					"name": "user",
					"type": "address"
				},
				{
					"indexed": false,
					"internalType": "uint256",
					"name": "amount",
					"type": "uint256"
				}
			],
			"name": "TokensStaked",
			"type": "event"
		},
		{
			"anonymous": false,
			"inputs": [
				{
					"indexed": false,
					"internalType": "uint256",
					"name": "amount",
					"type": "uint256"
				}
			],
			"name": "TokensUnfrozen",
			"type": "event"
		},
		{
			"anonymous": false,
			"inputs": [
				{
					"indexed": true,
					"internalType": "address",
					"name": "user",
					"type": "address"
				},
				{
					"indexed": false,
					"internalType": "uint256",
					"name": "amount",
					"type": "uint256"
				},
				{
					"indexed": false,
					"internalType": "uint256",
					"name": "rewards",
					"type": "uint256"
				}
			],
			"name": "TokensUnstaked",
			"type": "event"
		},
		{
			"anonymous": false,
			"inputs": [
				{
					"indexed": true,
					"internalType": "address",
					"name": "from",
					"type": "address"
				},
				{
					"indexed": true,
					"internalType": "address",
					"name": "to",
					"type": "address"
				},
				{
					"indexed": false,
					"internalType": "uint256",
					"name": "value",
					"type": "uint256"
				}
			],
			"name": "Transfer",
			"type": "event"
		},
		{
			"anonymous": false,
			"inputs": [
				{
					"indexed": true,
					"internalType": "address",
					"name": "from",
					"type": "address"
				},
				{
					"indexed": true,
					"internalType": "address",
					"name": "to",
					"type": "address"
				},
				{
					"indexed": false,
					"internalType": "uint256",
					"name": "amount",
					"type": "uint256"
				}
			],
			"name": "TransferBlocked",
			"type": "event"
		},
		{
			"inputs": [],
			"name": "DEFAULT_ADMIN_ROLE",
			"outputs": [
				{
					"internalType": "bytes32",
					"name": "",
					"type": "bytes32"
				}
			],
			"stateMutability": "view",
			"type": "function"
		},
		{
			"inputs": [],
			"name": "DOMAIN_SEPARATOR",
			"outputs": [
				{
					"internalType": "bytes32",
					"name": "",
					"type": "bytes32"
				}
			],
			"stateMutability": "view",
			"type": "function"
		},
		{
			"inputs": [
				{
					"internalType": "uint256",
					"name": "amount",
					"type": "uint256"
				}
			],
			"name": "addToStakingPool",
			"outputs": [],
			"stateMutability": "nonpayable",
			"type": "function"
		},
		{
			"inputs": [
				{
					"internalType": "address",
					"name": "owner",
					"type": "address"
				},
				{
					"internalType": "address",
					"name": "spender",
					"type": "address"
				}
			],
			"name": "allowance",
			"outputs": [
				{
					"internalType": "uint256",
					"name": "",
					"type": "uint256"
				}
			],
			"stateMutability": "view",
			"type": "function"
		},
		{
			"inputs": [
				{
					"internalType": "address",
					"name": "spender",
					"type": "address"
				},
				{
					"internalType": "uint256",
					"name": "value",
					"type": "uint256"
				}
			],
			"name": "approve",
			"outputs": [
				{
					"internalType": "bool",
					"name": "",
					"type": "bool"
				}
			],
			"stateMutability": "nonpayable",
			"type": "function"
		},
		{
			"inputs": [
				{
					"internalType": "address",
					"name": "account",
					"type": "address"
				}
			],
			"name": "balanceOf",
			"outputs": [
				{
					"internalType": "uint256",
					"name": "",
					"type": "uint256"
				}
			],
			"stateMutability": "view",
			"type": "function"
		},
		{
			"inputs": [
				{
					"internalType": "uint256",
					"name": "value",
					"type": "uint256"
				}
			],
			"name": "burn",
			"outputs": [],
			"stateMutability": "nonpayable",
			"type": "function"
		},
		{
			"inputs": [
				{
					"internalType": "address",
					"name": "account",
					"type": "address"
				},
				{
					"internalType": "uint256",
					"name": "value",
					"type": "uint256"
				}
			],
			"name": "burnFrom",
			"outputs": [],
			"stateMutability": "nonpayable",
			"type": "function"
		},
		{
			"inputs": [
				{
					"internalType": "address",
					"name": "user",
					"type": "address"
				}
			],
			"name": "calculateRewards",
			"outputs": [
				{
					"internalType": "uint256",
					"name": "rewards",
					"type": "uint256"
				}
			],
			"stateMutability": "view",
			"type": "function"
		},
		{
			"inputs": [],
			"name": "cooldownPeriod",
			"outputs": [
				{
					"internalType": "uint256",
					"name": "",
					"type": "uint256"
				}
			],
			"stateMutability": "view",
			"type": "function"
		},
		{
			"inputs": [],
			"name": "decimals",
			"outputs": [
				{
					"internalType": "uint8",
					"name": "",
					"type": "uint8"
				}
			],
			"stateMutability": "view",
			"type": "function"
		},
		{
			"inputs": [],
			"name": "eip712Domain",
			"outputs": [
				{
					"internalType": "bytes1",
					"name": "fields",
					"type": "bytes1"
				},
				{
					"internalType": "string",
					"name": "name",
					"type": "string"
				},
				{
					"internalType": "string",
					"name": "version",
					"type": "string"
				},
				{
					"internalType": "uint256",
					"name": "chainId",
					"type": "uint256"
				},
				{
					"internalType": "address",
					"name": "verifyingContract",
					"type": "address"
				},
				{
					"internalType": "bytes32",
					"name": "salt",
					"type": "bytes32"
				},
				{
					"internalType": "uint256[]",
					"name": "extensions",
					"type": "uint256[]"
				}
			],
			"stateMutability": "view",
			"type": "function"
		},
		{
			"inputs": [],
			"name": "freezeReleaseTime",
			"outputs": [
				{
					"internalType": "uint256",
					"name": "",
					"type": "uint256"
				}
			],
			"stateMutability": "view",
			"type": "function"
		},
		{
			"inputs": [],
			"name": "frozenTokens",
			"outputs": [
				{
					"internalType": "uint256",
					"name": "",
					"type": "uint256"
				}
			],
			"stateMutability": "view",
			"type": "function"
		},
		{
			"inputs": [
				{
					"internalType": "bytes32",
					"name": "role",
					"type": "bytes32"
				}
			],
			"name": "getRoleAdmin",
			"outputs": [
				{
					"internalType": "bytes32",
					"name": "",
					"type": "bytes32"
				}
			],
			"stateMutability": "view",
			"type": "function"
		},
		{
			"inputs": [
				{
					"internalType": "bytes32",
					"name": "role",
					"type": "bytes32"
				},
				{
					"internalType": "address",
					"name": "account",
					"type": "address"
				}
			],
			"name": "grantRole",
			"outputs": [],
			"stateMutability": "nonpayable",
			"type": "function"
		},
		{
			"inputs": [
				{
					"internalType": "bytes32",
					"name": "role",
					"type": "bytes32"
				},
				{
					"internalType": "address",
					"name": "account",
					"type": "address"
				}
			],
			"name": "hasRole",
			"outputs": [
				{
					"internalType": "bool",
					"name": "",
					"type": "bool"
				}
			],
			"stateMutability": "view",
			"type": "function"
		},
		{
			"inputs": [],
			"name": "isFreezePeriodOver",
			"outputs": [
				{
					"internalType": "bool",
					"name": "",
					"type": "bool"
				}
			],
			"stateMutability": "view",
			"type": "function"
		},
		{
			"inputs": [],
			"name": "name",
			"outputs": [
				{
					"internalType": "string",
					"name": "",
					"type": "string"
				}
			],
			"stateMutability": "view",
			"type": "function"
		},
		{
			"inputs": [
				{
					"internalType": "address",
					"name": "owner",
					"type": "address"
				}
			],
			"name": "nonces",
			"outputs": [
				{
					"internalType": "uint256",
					"name": "",
					"type": "uint256"
				}
			],
			"stateMutability": "view",
			"type": "function"
		},
		{
			"inputs": [
				{
					"internalType": "address",
					"name": "owner",
					"type": "address"
				},
				{
					"internalType": "address",
					"name": "spender",
					"type": "address"
				},
				{
					"internalType": "uint256",
					"name": "value",
					"type": "uint256"
				},
				{
					"internalType": "uint256",
					"name": "deadline",
					"type": "uint256"
				},
				{
					"internalType": "uint8",
					"name": "v",
					"type": "uint8"
				},
				{
					"internalType": "bytes32",
					"name": "r",
					"type": "bytes32"
				},
				{
					"internalType": "bytes32",
					"name": "s",
					"type": "bytes32"
				}
			],
			"name": "permit",
			"outputs": [],
			"stateMutability": "nonpayable",
			"type": "function"
		},
		{
			"inputs": [
				{
					"internalType": "bytes32",
					"name": "role",
					"type": "bytes32"
				},
				{
					"internalType": "address",
					"name": "callerConfirmation",
					"type": "address"
				}
			],
			"name": "renounceRole",
			"outputs": [],
			"stateMutability": "nonpayable",
			"type": "function"
		},
		{
			"inputs": [
				{
					"internalType": "bytes32",
					"name": "role",
					"type": "bytes32"
				},
				{
					"internalType": "address",
					"name": "account",
					"type": "address"
				}
			],
			"name": "revokeRole",
			"outputs": [],
			"stateMutability": "nonpayable",
			"type": "function"
		},
		{
			"inputs": [],
			"name": "rewardsPaid",
			"outputs": [
				{
					"internalType": "uint256",
					"name": "",
					"type": "uint256"
				}
			],
			"stateMutability": "view",
			"type": "function"
		},
		{
			"inputs": [
				{
					"internalType": "uint256",
					"name": "amount",
					"type": "uint256"
				}
			],
			"name": "stake",
			"outputs": [],
			"stateMutability": "nonpayable",
			"type": "function"
		},
		{
			"inputs": [],
			"name": "stakingAPR",
			"outputs": [
				{
					"internalType": "uint256",
					"name": "",
					"type": "uint256"
				}
			],
			"stateMutability": "view",
			"type": "function"
		},
		{
			"inputs": [
				{
					"internalType": "address",
					"name": "user",
					"type": "address"
				}
			],
			"name": "stakingData",
			"outputs": [
				{
					"internalType": "uint256",
					"name": "balance",
					"type": "uint256"
				},
				{
					"internalType": "uint256",
					"name": "lastStakingTime",
					"type": "uint256"
				}
			],
			"stateMutability": "view",
			"type": "function"
		},
		{
			"inputs": [],
			"name": "stakingPool",
			"outputs": [
				{
					"internalType": "uint256",
					"name": "",
					"type": "uint256"
				}
			],
			"stateMutability": "view",
			"type": "function"
		},
		{
			"inputs": [],
			"name": "strokeFatCatCat",
			"outputs": [
				{
					"internalType": "string",
					"name": "",
					"type": "string"
				}
			],
			"stateMutability": "pure",
			"type": "function"
		},
		{
			"inputs": [
				{
					"internalType": "bytes4",
					"name": "interfaceId",
					"type": "bytes4"
				}
			],
			"name": "supportsInterface",
			"outputs": [
				{
					"internalType": "bool",
					"name": "",
					"type": "bool"
				}
			],
			"stateMutability": "view",
			"type": "function"
		},
		{
			"inputs": [],
			"name": "symbol",
			"outputs": [
				{
					"internalType": "string",
					"name": "",
					"type": "string"
				}
			],
			"stateMutability": "view",
			"type": "function"
		},
		{
			"inputs": [],
			"name": "totalStaked",
			"outputs": [
				{
					"internalType": "uint256",
					"name": "",
					"type": "uint256"
				}
			],
			"stateMutability": "view",
			"type": "function"
		},
		{
			"inputs": [],
			"name": "totalSupply",
			"outputs": [
				{
					"internalType": "uint256",
					"name": "",
					"type": "uint256"
				}
			],
			"stateMutability": "view",
			"type": "function"
		},
		{
			"inputs": [
				{
					"internalType": "address",
					"name": "recipient",
					"type": "address"
				},
				{
					"internalType": "uint256",
					"name": "amount",
					"type": "uint256"
				}
			],
			"name": "transfer",
			"outputs": [
				{
					"internalType": "bool",
					"name": "",
					"type": "bool"
				}
			],
			"stateMutability": "nonpayable",
			"type": "function"
		},
		{
			"inputs": [
				{
					"internalType": "address",
					"name": "sender",
					"type": "address"
				},
				{
					"internalType": "address",
					"name": "recipient",
					"type": "address"
				},
				{
					"internalType": "uint256",
					"name": "amount",
					"type": "uint256"
				}
			],
			"name": "transferFrom",
			"outputs": [
				{
					"internalType": "bool",
					"name": "",
					"type": "bool"
				}
			],
			"stateMutability": "nonpayable",
			"type": "function"
		},
		{
			"inputs": [],
			"name": "unfreezeTokens",
			"outputs": [],
			"stateMutability": "nonpayable",
			"type": "function"
		},
		{
			"inputs": [
				{
					"internalType": "uint256",
					"name": "amount",
					"type": "uint256"
				}
			],
			"name": "unstake",
			"outputs": [],
			"stateMutability": "nonpayable",
			"type": "function"
		}
	]
}