{
	"data": {
		"bytecode": {
			"linkReferences": {},
			"object": "610160604052601e600d55603c600f55601180546001600160a01b0319163017905534801561002c575f80fd5b506040516123d83803806123d883398101604081905261004b91610560565b6040518060400160405280600a8152602001692330ba21b0ba21b7b4b760b11b81525080604051806040016040528060018152602001603160f81b8152506040518060400160405280600a8152602001692330ba21b0ba21b7b4b760b11b8152506040518060400160405280600381526020016211905560ea1b81525081600390816100d79190610624565b5060046100e48282610624565b506100f491508390506005610281565b61012052610103816006610281565b61014052815160208084019190912060e052815190820120610100524660a05261018f60e05161010051604080517f8b73c3c69bb8fe3d512ecc4cf759cc79239f7b179b0ffacaa9a75d522b39400f60208201529081019290925260608201524660808201523060a08201525f9060c00160405160208183030381529060405280519060200120905090565b60805250503060c052506b033b2e3c9fd0803ce80000006101b033826102b3565b6101ba5f836102f0565b505f6101c7600a836106f2565b600981905590506101d942603c610711565b600a556011546101f49033906001600160a01b03168361039b565b5f606461020284601e610724565b61020c91906106f2565b600b81905560115490915061022c9033906001600160a01b03168361039b565b601280546001600160a01b031916331790556040517f82f8e7ad3c5527c0898be6dddfaf6cdd5326b44155fd5b344041c7e8062580e0906102709084815260200190565b60405180910390a150505050610793565b5f60208351101561029c57610295836103fd565b90506102ad565b816102a78482610624565b5060ff90505b92915050565b6001600160a01b0382166102e15760405163ec442f0560e01b81525f60048201526024015b60405180910390fd5b6102ec5f838361043a565b5050565b5f8281526008602090815260408083206001600160a01b038516845290915281205460ff16610394575f8381526008602090815260408083206001600160a01b03861684529091529020805460ff1916600117905561034c3390565b6001600160a01b0316826001600160a01b0316847f2f8788117e7eff1d82e926ec794901d17c78024a50270940304540a733656f0d60405160405180910390a45060016102ad565b505f6102ad565b6001600160a01b0383166103c457604051634b637e8f60e11b81525f60048201526024016102d8565b6001600160a01b0382166103ed5760405163ec442f0560e01b81525f60048201526024016102d8565b6103f883838361043a565b505050565b5f80829050601f81511115610427578260405163305a27a960e01b81526004016102d8919061073b565b805161043282610770565b179392505050565b6001600160a01b038316610464578060025f8282546104599190610711565b909155506104d49050565b6001600160a01b0383165f90815260208190526040902054818110156104b65760405163391434e360e21b81526001600160a01b038516600482015260248101829052604481018390526064016102d8565b6001600160a01b0384165f9081526020819052604090209082900390555b6001600160a01b0382166104f05760028054829003905561050e565b6001600160a01b0382165f9081526020819052604090208054820190555b816001600160a01b0316836001600160a01b03167fddf252ad1be2c89b69c2b068fc378daa952ba7f163c4a11628f55a4df523b3ef8360405161055391815260200190565b60405180910390a3505050565b5f60208284031215610570575f80fd5b81516001600160a01b0381168114610586575f80fd5b9392505050565b634e487b7160e01b5f52604160045260245ffd5b600181811c908216806105b557607f821691505b6020821081036105d357634e487b7160e01b5f52602260045260245ffd5b50919050565b601f8211156103f857805f5260205f20601f840160051c810160208510156105fe5750805b601f840160051c820191505b8181101561061d575f815560010161060a565b5050505050565b81516001600160401b0381111561063d5761063d61058d565b6106518161064b84546105a1565b846105d9565b6020601f821160018114610683575f831561066c5750848201515b5f19600385901b1c1916600184901b17845561061d565b5f84815260208120601f198516915b828110156106b25787850151825560209485019460019092019101610692565b50848210156106cf57868401515f19600387901b60f8161c191681555b50505050600190811b01905550565b634e487b7160e01b5f52601160045260245ffd5b5f8261070c57634e487b7160e01b5f52601260045260245ffd5b500490565b808201808211156102ad576102ad6106de565b80820281158282048414176102ad576102ad6106de565b602081525f82518060208401528060208501604085015e5f604082850101526040601f19601f83011684010191505092915050565b805160208083015191908110156105d3575f1960209190910360031b1b16919050565b60805160a05160c05160e051610100516101205161014051611bf46107e45f395f61125001525f61122301525f6110b801525f61109001525f610feb01525f61101501525f61103f0152611bf45ff3fe608060405234801561000f575f80fd5b5060043610610213575f3560e01c806370a082311161011f578063a327a281116100a9578063d547741f11610079578063d547741f14610444578063dd62ed3e14610457578063eb7203fe1461048f578063eca5113914610498578063ffba376c146104d3575f80fd5b8063a327a28114610401578063a694fc3a1461040b578063a9059cbb1461041e578063d505accf14610431575f80fd5b806384b0196e116100ef57806384b0196e146103995780638da5cb5b146103b457806391d14854146103df57806395d89b41146103f2578063a217fddf146103fa575f80fd5b806370a082311461035757806379cc67901461036a5780637ecebe001461037d578063817b1cd214610390575f80fd5b80632f2ff15d116101a057806342966c681161017057806342966c6814610316578063508d962b1461032957806351500c3a1461033257806364ab86751461033b57806369d8d6d21461034e575f80fd5b80632f2ff15d146102d9578063313ce567146102ec5780633644e515146102fb57806336568abe14610303575f80fd5b80630c56ae3b116101e65780630c56ae3b1461027e57806318160ddd1461028757806323b872dd1461028f578063248a9ca3146102a25780632e17de78146102c4575f80fd5b806301ffc9a71461021757806304646a491461023f57806306fdde0314610256578063095ea7b31461026b575b5f80fd5b61022a610225366004611805565b6104db565b60405190151581526020015b60405180910390f35b610248600f5481565b604051908152602001610236565b61025e610511565b6040516102369190611861565b61022a61027936600461188e565b6105a1565b610248600b5481565b600254610248565b61022a61029d3660046118b6565b6105b8565b6102486102b03660046118f0565b5f9081526008602052604090206001015490565b6102d76102d23660046118f0565b61067a565b005b6102d76102e7366004611907565b610850565b60405160128152602001610236565b61024861087a565b6102d7610311366004611907565b610888565b6102d76103243660046118f0565b6108c0565b61024860095481565b610248600a5481565b610248610349366004611931565b6108cd565b610248600e5481565b610248610365366004611931565b61097e565b6102d761037836600461188e565b610998565b61024861038b366004611931565b6109b1565b610248600c5481565b6103a16109ce565b604051610236979695949392919061194a565b6012546103c7906001600160a01b031681565b6040516001600160a01b039091168152602001610236565b61022a6103ed366004611907565b610a10565b61025e610a3a565b6102485f81565b600a54421161022a565b6102d76104193660046118f0565b610a49565b61022a61042c36600461188e565b610bdc565b6102d761043f3660046119e0565b610ca5565b6102d7610452366004611907565b610ddb565b610248610465366004611a4d565b6001600160a01b039182165f90815260016020908152604080832093909416825291909152205490565b610248600d5481565b6104be6104a6366004611931565b60106020525f90815260409020805460019091015482565b60408051928352602083019190915201610236565b6102d7610dff565b5f6001600160e01b03198216637965db0b60e01b148061050b57506301ffc9a760e01b6001600160e01b03198316145b92915050565b60606003805461052090611a75565b80601f016020809104026020016040519081016040528092919081815260200182805461054c90611a75565b80156105975780601f1061056e57610100808354040283529160200191610597565b820191905f5260205f20905b81548152906001019060200180831161057a57829003601f168201915b5050505050905090565b5f336105ae818585610e80565b5060019392505050565b6011545f9081906105d1906001600160a01b031661097e565b60095490915080821061065657600a5442116106085760405162461bcd60e51b81526004016105ff90611aad565b60405180910390fd5b846001600160a01b0316866001600160a01b03167f1a57a13050525e0c7fdd78ac2e358035f7f59a49327a06c897f10ae5eeb6544b8660405161064d91815260200190565b60405180910390a35b60115461066e906001600160a01b0316878787610e8d565b50600195945050505050565b5f6106843361097e565b118061069d5750335f9081526010602052604090205415155b6106b95760405162461bcd60e51b81526004016105ff90611ae4565b335f908152601060205260409020805460019182015490916106db9084611b4e565b82116107295760405162461bcd60e51b815260206004820152601b60248201527f496e73756666696369656e74207374616b65642062616c616e6365000000000060448201526064016105ff565b600f546107369082611b61565b42116107845760405162461bcd60e51b815260206004820152601a60248201527f436f6f6c646f776e20706572696f64206e6f742070617373656400000000000060448201526064016105ff565b5f61078e336108cd565b905061079a8484611b4e565b335f90815260106020526040902055600c546107b7908590611b4e565b600c55600b546107c8908290611b4e565b600b55600e546107d9908290611b61565b600e556011546107fc906001600160a01b0316336107f78488611b61565b610ee7565b335f8181526010602090815260408083206001019290925581518781529081018490527f6f2d3e000c89d37446b7c0374c0125068ff316d1e3ee302336478a8cd03c2336910160405180910390a250505050565b5f8281526008602052604090206001015461086a81610f44565b6108748383610f4e565b50505050565b5f610883610fdf565b905090565b6001600160a01b03811633146108b15760405163334bd91960e11b815260040160405180910390fd5b6108bb8282611108565b505050565b6108ca3382611173565b50565b5f806108d83361097e565b11806108f15750335f9081526010602052604090205415155b61090d5760405162461bcd60e51b81526004016105ff90611ae4565b335f90815260106020526040808220546001600160a01b03851683529082206001015490919061093d9042611b4e565b90505f6064600d54846109509190611b74565b61095a9190611b8b565b90506301e1338061096b8383611b74565b6109759190611b8b565b95945050505050565b6001600160a01b03165f9081526020819052604090205490565b6109a38233836111a7565b6109ad8282611173565b5050565b6001600160a01b0381165f9081526007602052604081205461050b565b5f6060805f805f60606109df61121c565b6109e7611249565b604080515f80825260208201909252600f60f81b9b939a50919850469750309650945092509050565b5f9182526008602090815260408084206001600160a01b0393909316845291905290205460ff1690565b60606004805461052090611a75565b5f610a533361097e565b1180610a6c5750335f9081526010602052604090205415155b610a885760405162461bcd60e51b81526004016105ff90611ae4565b805f03610ad75760405162461bcd60e51b815260206004820152601d60248201527f416d6f756e74206d7573742062652067726561746572207468616e203000000060448201526064016105ff565b610ae2600182611b4e565b610aeb3361097e565b11610b385760405162461bcd60e51b815260206004820152601d60248201527f496e73756666696369656e742062616c616e636520746f207374616b6500000060448201526064016105ff565b601154610b509033906001600160a01b031683610ee7565b335f90815260106020526040902054610b6a908290611b61565b335f90815260106020526040902055600c54610b87908290611b61565b600c55335f818152601060205260409081902042600190910155517fb539ca1e5c8d398ddf1c41c30166f33404941683be4683319b57669a93dad4ef90610bd19084815260200190565b60405180910390a250565b5f80610be73361097e565b1180610c005750335f9081526010602052604090205415155b610c1c5760405162461bcd60e51b81526004016105ff90611ae4565b600954601154610c34906001600160a01b031661097e565b10610c9b57600a544211610c5a5760405162461bcd60e51b81526004016105ff90611aad565b6040518281526001600160a01b0384169033907f1a57a13050525e0c7fdd78ac2e358035f7f59a49327a06c897f10ae5eeb6544b9060200160405180910390a35b6105ae8383611276565b83421115610cc95760405163313c898160e11b8152600481018590526024016105ff565b5f7f6e71edae12b1b97f4d1f60370fef10105fa2faae0126114a169c64845d6126c9888888610d148c6001600160a01b03165f90815260076020526040902080546001810190915590565b6040805160208101969096526001600160a01b0394851690860152929091166060840152608083015260a082015260c0810186905260e0016040516020818303038152906040528051906020012090505f610d6e82611283565b90505f610d7d828787876112af565b9050896001600160a01b0316816001600160a01b031614610dc4576040516325c0072360e11b81526001600160a01b0380831660048301528b1660248201526044016105ff565b610dcf8a8a8a610e80565b50505050505050505050565b5f82815260086020526040902060010154610df581610f44565b6108748383611108565b5f610e0981610f44565b600a544211610e2a5760405162461bcd60e51b81526004016105ff90611aad565b600980545f909155601154610e49906001600160a01b03163383610ee7565b6040518181527f8a52261cd2b8c249f858fef8ae15294602e2ea0352c71421a5a29e6c0da355429060200160405180910390a15050565b6108bb83838360016112db565b604080516001600160a01b0385811660248301528416604482015260648082018490528251808303909101815260849091019091526020810180516001600160e01b03166323b872dd60e01b1790526108749085906113ad565b6001600160a01b038316610f1057604051634b637e8f60e11b81525f60048201526024016105ff565b6001600160a01b038216610f395760405163ec442f0560e01b81525f60048201526024016105ff565b6108bb838383611419565b6108ca813361153f565b5f610f598383610a10565b610fd8575f8381526008602090815260408083206001600160a01b03861684529091529020805460ff19166001179055610f903390565b6001600160a01b0316826001600160a01b0316847f2f8788117e7eff1d82e926ec794901d17c78024a50270940304540a733656f0d60405160405180910390a450600161050b565b505f61050b565b5f306001600160a01b037f00000000000000000000000000000000000000000000000000000000000000001614801561103757507f000000000000000000000000000000000000000000000000000000000000000046145b1561106157507f000000000000000000000000000000000000000000000000000000000000000090565b610883604080517f8b73c3c69bb8fe3d512ecc4cf759cc79239f7b179b0ffacaa9a75d522b39400f60208201527f0000000000000000000000000000000000000000000000000000000000000000918101919091527f000000000000000000000000000000000000000000000000000000000000000060608201524660808201523060a08201525f9060c00160405160208183030381529060405280519060200120905090565b5f6111138383610a10565b15610fd8575f8381526008602090815260408083206001600160a01b0386168085529252808320805460ff1916905551339286917ff6391f5c32d9c69d2a47ea670b442974b53935d1edc7fd64eb21e047a839171b9190a450600161050b565b6001600160a01b03821661119c57604051634b637e8f60e11b81525f60048201526024016105ff565b6109ad825f83611419565b6001600160a01b038381165f908152600160209081526040808320938616835292905220545f198114610874578181101561120e57604051637dc7a0d960e11b81526001600160a01b038416600482015260248101829052604481018390526064016105ff565b61087484848484035f6112db565b60606108837f00000000000000000000000000000000000000000000000000000000000000006005611578565b60606108837f00000000000000000000000000000000000000000000000000000000000000006006611578565b5f336105ae818585610ee7565b5f61050b61128f610fdf565b8360405161190160f01b8152600281019290925260228201526042902090565b5f805f806112bf88888888611621565b9250925092506112cf82826116e9565b50909695505050505050565b6001600160a01b0384166113045760405163e602df0560e01b81525f60048201526024016105ff565b6001600160a01b03831661132d57604051634a1406b160e11b81525f60048201526024016105ff565b6001600160a01b038085165f908152600160209081526040808320938716835292905220829055801561087457826001600160a01b0316846001600160a01b03167f8c5be1e5ebec7d5bd14f71427d1e84f3dd0314c0f7b2291e5b200ac8c7c3b9258460405161139f91815260200190565b60405180910390a350505050565b5f8060205f8451602086015f885af1806113cc576040513d5f823e3d81fd5b50505f513d915081156113e35780600114156113f0565b6001600160a01b0384163b155b1561087457604051635274afe760e01b81526001600160a01b03851660048201526024016105ff565b6001600160a01b038316611443578060025f8282546114389190611b61565b909155506114b39050565b6001600160a01b0383165f90815260208190526040902054818110156114955760405163391434e360e21b81526001600160a01b038516600482015260248101829052604481018390526064016105ff565b6001600160a01b0384165f9081526020819052604090209082900390555b6001600160a01b0382166114cf576002805482900390556114ed565b6001600160a01b0382165f9081526020819052604090208054820190555b816001600160a01b0316836001600160a01b03167fddf252ad1be2c89b69c2b068fc378daa952ba7f163c4a11628f55a4df523b3ef8360405161153291815260200190565b60405180910390a3505050565b6115498282610a10565b6109ad5760405163e2517d3f60e01b81526001600160a01b0382166004820152602481018390526044016105ff565b606060ff83146115925761158b836117a1565b905061050b565b81805461159e90611a75565b80601f01602080910402602001604051908101604052809291908181526020018280546115ca90611a75565b80156116155780601f106115ec57610100808354040283529160200191611615565b820191905f5260205f20905b8154815290600101906020018083116115f857829003601f168201915b5050505050905061050b565b5f80807f7fffffffffffffffffffffffffffffff5d576e7357a4501ddfe92f46681b20a084111561165a57505f915060039050826116df565b604080515f808252602082018084528a905260ff891692820192909252606081018790526080810186905260019060a0016020604051602081039080840390855afa1580156116ab573d5f803e3d5ffd5b5050604051601f1901519150506001600160a01b0381166116d657505f9250600191508290506116df565b92505f91508190505b9450945094915050565b5f8260038111156116fc576116fc611baa565b03611705575050565b600182600381111561171957611719611baa565b036117375760405163f645eedf60e01b815260040160405180910390fd5b600282600381111561174b5761174b611baa565b0361176c5760405163fce698f760e01b8152600481018290526024016105ff565b600382600381111561178057611780611baa565b036109ad576040516335e2f38360e21b8152600481018290526024016105ff565b60605f6117ad836117de565b6040805160208082528183019092529192505f91906020820181803683375050509182525060208101929092525090565b5f60ff8216601f81111561050b57604051632cd44ac360e21b815260040160405180910390fd5b5f60208284031215611815575f80fd5b81356001600160e01b03198116811461182c575f80fd5b9392505050565b5f81518084528060208401602086015e5f602082860101526020601f19601f83011685010191505092915050565b602081525f61182c6020830184611833565b80356001600160a01b0381168114611889575f80fd5b919050565b5f806040838503121561189f575f80fd5b6118a883611873565b946020939093013593505050565b5f805f606084860312156118c8575f80fd5b6118d184611873565b92506118df60208501611873565b929592945050506040919091013590565b5f60208284031215611900575f80fd5b5035919050565b5f8060408385031215611918575f80fd5b8235915061192860208401611873565b90509250929050565b5f60208284031215611941575f80fd5b61182c82611873565b60ff60f81b8816815260e060208201525f61196860e0830189611833565b828103604084015261197a8189611833565b606084018890526001600160a01b038716608085015260a0840186905283810360c0850152845180825260208087019350909101905f5b818110156119cf5783518352602093840193909201916001016119b1565b50909b9a5050505050505050505050565b5f805f805f805f60e0888a0312156119f6575f80fd5b6119ff88611873565b9650611a0d60208901611873565b95506040880135945060608801359350608088013560ff81168114611a30575f80fd5b9699959850939692959460a0840135945060c09093013592915050565b5f8060408385031215611a5e575f80fd5b611a6783611873565b915061192860208401611873565b600181811c90821680611a8957607f821691505b602082108103611aa757634e487b7160e01b5f52602260045260245ffd5b50919050565b60208082526017908201527f546f6b656e7320617265207374696c6c2066726f7a656e000000000000000000604082015260600190565b60208082526036908201527f43616c6c6572206973206e6f7420616e20696e766573746f7220286e6f20746f6040820152756b656e73206f72207374616b656420746f6b656e732960501b606082015260800190565b634e487b7160e01b5f52601160045260245ffd5b8181038181111561050b5761050b611b3a565b8082018082111561050b5761050b611b3a565b808202811582820484141761050b5761050b611b3a565b5f82611ba557634e487b7160e01b5f52601260045260245ffd5b500490565b634e487b7160e01b5f52602160045260245ffdfea2646970667358221220e3178d31a324e71ea0066d34bc35731fac1837abb03a9e4f01c795a0f69d0b1164736f6c634300081a0033",
			"opcodes": "PUSH2 0x160 PUSH1 0x40 MSTORE PUSH1 0x1E PUSH1 0xD SSTORE PUSH1 0x3C PUSH1 0xF SSTORE PUSH1 0x11 DUP1 SLOAD PUSH1 0x1 PUSH1 0x1 PUSH1 0xA0 SHL SUB NOT AND ADDRESS OR SWAP1 SSTORE CALLVALUE DUP1 ISZERO PUSH2 0x2C JUMPI PUSH0 DUP1 REVERT JUMPDEST POP PUSH1 0x40 MLOAD PUSH2 0x23D8 CODESIZE SUB DUP1 PUSH2 0x23D8 DUP4 CODECOPY DUP2 ADD PUSH1 0x40 DUP2 SWAP1 MSTORE PUSH2 0x4B SWAP2 PUSH2 0x560 JUMP JUMPDEST PUSH1 0x40 MLOAD DUP1 PUSH1 0x40 ADD PUSH1 0x40 MSTORE DUP1 PUSH1 0xA DUP2 MSTORE PUSH1 0x20 ADD PUSH10 0x2330BA21B0BA21B7B4B7 PUSH1 0xB1 SHL DUP2 MSTORE POP DUP1 PUSH1 0x40 MLOAD DUP1 PUSH1 0x40 ADD PUSH1 0x40 MSTORE DUP1 PUSH1 0x1 DUP2 MSTORE PUSH1 0x20 ADD PUSH1 0x31 PUSH1 0xF8 SHL DUP2 MSTORE POP PUSH1 0x40 MLOAD DUP1 PUSH1 0x40 ADD PUSH1 0x40 MSTORE DUP1 PUSH1 0xA DUP2 MSTORE PUSH1 0x20 ADD PUSH10 0x2330BA21B0BA21B7B4B7 PUSH1 0xB1 SHL DUP2 MSTORE POP PUSH1 0x40 MLOAD DUP1 PUSH1 0x40 ADD PUSH1 0x40 MSTORE DUP1 PUSH1 0x3 DUP2 MSTORE PUSH1 0x20 ADD PUSH3 0x119055 PUSH1 0xEA SHL DUP2 MSTORE POP DUP2 PUSH1 0x3 SWAP1 DUP2 PUSH2 0xD7 SWAP2 SWAP1 PUSH2 0x624 JUMP JUMPDEST POP PUSH1 0x4 PUSH2 0xE4 DUP3 DUP3 PUSH2 0x624 JUMP JUMPDEST POP PUSH2 0xF4 SWAP2 POP DUP4 SWAP1 POP PUSH1 0x5 PUSH2 0x281 JUMP JUMPDEST PUSH2 0x120 MSTORE PUSH2 0x103 DUP2 PUSH1 0x6 PUSH2 0x281 JUMP JUMPDEST PUSH2 0x140 MSTORE DUP2 MLOAD PUSH1 0x20 DUP1 DUP5 ADD SWAP2 SWAP1 SWAP2 KECCAK256 PUSH1 0xE0 MSTORE DUP2 MLOAD SWAP1 DUP3 ADD KECCAK256 PUSH2 0x100 MSTORE CHAINID PUSH1 0xA0 MSTORE PUSH2 0x18F PUSH1 0xE0 MLOAD PUSH2 0x100 MLOAD PUSH1 0x40 DUP1 MLOAD PUSH32 0x8B73C3C69BB8FE3D512ECC4CF759CC79239F7B179B0FFACAA9A75D522B39400F PUSH1 0x20 DUP3 ADD MSTORE SWAP1 DUP2 ADD SWAP3 SWAP1 SWAP3 MSTORE PUSH1 0x60 DUP3 ADD MSTORE CHAINID PUSH1 0x80 DUP3 ADD MSTORE ADDRESS PUSH1 0xA0 DUP3 ADD MSTORE PUSH0 SWAP1 PUSH1 0xC0 ADD PUSH1 0x40 MLOAD PUSH1 0x20 DUP2 DUP4 SUB SUB DUP2 MSTORE SWAP1 PUSH1 0x40 MSTORE DUP1 MLOAD SWAP1 PUSH1 0x20 ADD KECCAK256 SWAP1 POP SWAP1 JUMP JUMPDEST PUSH1 0x80 MSTORE POP POP ADDRESS PUSH1 0xC0 MSTORE POP PUSH12 0x33B2E3C9FD0803CE8000000 PUSH2 0x1B0 CALLER DUP3 PUSH2 0x2B3 JUMP JUMPDEST PUSH2 0x1BA PUSH0 DUP4 PUSH2 0x2F0 JUMP JUMPDEST POP PUSH0 PUSH2 0x1C7 PUSH1 0xA DUP4 PUSH2 0x6F2 JUMP JUMPDEST PUSH1 0x9 DUP2 SWAP1 SSTORE SWAP1 POP PUSH2 0x1D9 TIMESTAMP PUSH1 0x3C PUSH2 0x711 JUMP JUMPDEST PUSH1 0xA SSTORE PUSH1 0x11 SLOAD PUSH2 0x1F4 SWAP1 CALLER SWAP1 PUSH1 0x1 PUSH1 0x1 PUSH1 0xA0 SHL SUB AND DUP4 PUSH2 0x39B JUMP JUMPDEST PUSH0 PUSH1 0x64 PUSH2 0x202 DUP5 PUSH1 0x1E PUSH2 0x724 JUMP JUMPDEST PUSH2 0x20C SWAP2 SWAP1 PUSH2 0x6F2 JUMP JUMPDEST PUSH1 0xB DUP2 SWAP1 SSTORE PUSH1 0x11 SLOAD SWAP1 SWAP2 POP PUSH2 0x22C SWAP1 CALLER SWAP1 PUSH1 0x1 PUSH1 0x1 PUSH1 0xA0 SHL SUB AND DUP4 PUSH2 0x39B JUMP JUMPDEST PUSH1 0x12 DUP1 SLOAD PUSH1 0x1 PUSH1 0x1 PUSH1 0xA0 SHL SUB NOT AND CALLER OR SWAP1 SSTORE PUSH1 0x40 MLOAD PUSH32 0x82F8E7AD3C5527C0898BE6DDDFAF6CDD5326B44155FD5B344041C7E8062580E0 SWAP1 PUSH2 0x270 SWAP1 DUP5 DUP2 MSTORE PUSH1 0x20 ADD SWAP1 JUMP JUMPDEST PUSH1 0x40 MLOAD DUP1 SWAP2 SUB SWAP1 LOG1 POP POP POP POP PUSH2 0x793 JUMP JUMPDEST PUSH0 PUSH1 0x20 DUP4 MLOAD LT ISZERO PUSH2 0x29C JUMPI PUSH2 0x295 DUP4 PUSH2 0x3FD JUMP JUMPDEST SWAP1 POP PUSH2 0x2AD JUMP JUMPDEST DUP2 PUSH2 0x2A7 DUP5 DUP3 PUSH2 0x624 JUMP JUMPDEST POP PUSH1 0xFF SWAP1 POP JUMPDEST SWAP3 SWAP2 POP POP JUMP JUMPDEST PUSH1 0x1 PUSH1 0x1 PUSH1 0xA0 SHL SUB DUP3 AND PUSH2 0x2E1 JUMPI PUSH1 0x40 MLOAD PUSH4 0xEC442F05 PUSH1 0xE0 SHL DUP2 MSTORE PUSH0 PUSH1 0x4 DUP3 ADD MSTORE PUSH1 0x24 ADD JUMPDEST PUSH1 0x40 MLOAD DUP1 SWAP2 SUB SWAP1 REVERT JUMPDEST PUSH2 0x2EC PUSH0 DUP4 DUP4 PUSH2 0x43A JUMP JUMPDEST POP POP JUMP JUMPDEST PUSH0 DUP3 DUP2 MSTORE PUSH1 0x8 PUSH1 0x20 SWAP1 DUP2 MSTORE PUSH1 0x40 DUP1 DUP4 KECCAK256 PUSH1 0x1 PUSH1 0x1 PUSH1 0xA0 SHL SUB DUP6 AND DUP5 MSTORE SWAP1 SWAP2 MSTORE DUP2 KECCAK256 SLOAD PUSH1 0xFF AND PUSH2 0x394 JUMPI PUSH0 DUP4 DUP2 MSTORE PUSH1 0x8 PUSH1 0x20 SWAP1 DUP2 MSTORE PUSH1 0x40 DUP1 DUP4 KECCAK256 PUSH1 0x1 PUSH1 0x1 PUSH1 0xA0 SHL SUB DUP7 AND DUP5 MSTORE SWAP1 SWAP2 MSTORE SWAP1 KECCAK256 DUP1 SLOAD PUSH1 0xFF NOT AND PUSH1 0x1 OR SWAP1 SSTORE PUSH2 0x34C CALLER SWAP1 JUMP JUMPDEST PUSH1 0x1 PUSH1 0x1 PUSH1 0xA0 SHL SUB AND DUP3 PUSH1 0x1 PUSH1 0x1 PUSH1 0xA0 SHL SUB AND DUP5 PUSH32 0x2F8788117E7EFF1D82E926EC794901D17C78024A50270940304540A733656F0D PUSH1 0x40 MLOAD PUSH1 0x40 MLOAD DUP1 SWAP2 SUB SWAP1 LOG4 POP PUSH1 0x1 PUSH2 0x2AD JUMP JUMPDEST POP PUSH0 PUSH2 0x2AD JUMP JUMPDEST PUSH1 0x1 PUSH1 0x1 PUSH1 0xA0 SHL SUB DUP4 AND PUSH2 0x3C4 JUMPI PUSH1 0x40 MLOAD PUSH4 0x4B637E8F PUSH1 0xE1 SHL DUP2 MSTORE PUSH0 PUSH1 0x4 DUP3 ADD MSTORE PUSH1 0x24 ADD PUSH2 0x2D8 JUMP JUMPDEST PUSH1 0x1 PUSH1 0x1 PUSH1 0xA0 SHL SUB DUP3 AND PUSH2 0x3ED JUMPI PUSH1 0x40 MLOAD PUSH4 0xEC442F05 PUSH1 0xE0 SHL DUP2 MSTORE PUSH0 PUSH1 0x4 DUP3 ADD MSTORE PUSH1 0x24 ADD PUSH2 0x2D8 JUMP JUMPDEST PUSH2 0x3F8 DUP4 DUP4 DUP4 PUSH2 0x43A JUMP JUMPDEST POP POP POP JUMP JUMPDEST PUSH0 DUP1 DUP3 SWAP1 POP PUSH1 0x1F DUP2 MLOAD GT ISZERO PUSH2 0x427 JUMPI DUP3 PUSH1 0x40 MLOAD PUSH4 0x305A27A9 PUSH1 0xE0 SHL DUP2 MSTORE PUSH1 0x4 ADD PUSH2 0x2D8 SWAP2 SWAP1 PUSH2 0x73B JUMP JUMPDEST DUP1 MLOAD PUSH2 0x432 DUP3 PUSH2 0x770 JUMP JUMPDEST OR SWAP4 SWAP3 POP POP POP JUMP JUMPDEST PUSH1 0x1 PUSH1 0x1 PUSH1 0xA0 SHL SUB DUP4 AND PUSH2 0x464 JUMPI DUP1 PUSH1 0x2 PUSH0 DUP3 DUP3 SLOAD PUSH2 0x459 SWAP2 SWAP1 PUSH2 0x711 JUMP JUMPDEST SWAP1 SWAP2 SSTORE POP PUSH2 0x4D4 SWAP1 POP JUMP JUMPDEST PUSH1 0x1 PUSH1 0x1 PUSH1 0xA0 SHL SUB DUP4 AND PUSH0 SWAP1 DUP2 MSTORE PUSH1 0x20 DUP2 SWAP1 MSTORE PUSH1 0x40 SWAP1 KECCAK256 SLOAD DUP2 DUP2 LT ISZERO PUSH2 0x4B6 JUMPI PUSH1 0x40 MLOAD PUSH4 0x391434E3 PUSH1 0xE2 SHL DUP2 MSTORE PUSH1 0x1 PUSH1 0x1 PUSH1 0xA0 SHL SUB DUP6 AND PUSH1 0x4 DUP3 ADD MSTORE PUSH1 0x24 DUP2 ADD DUP3 SWAP1 MSTORE PUSH1 0x44 DUP2 ADD DUP4 SWAP1 MSTORE PUSH1 0x64 ADD PUSH2 0x2D8 JUMP JUMPDEST PUSH1 0x1 PUSH1 0x1 PUSH1 0xA0 SHL SUB DUP5 AND PUSH0 SWAP1 DUP2 MSTORE PUSH1 0x20 DUP2 SWAP1 MSTORE PUSH1 0x40 SWAP1 KECCAK256 SWAP1 DUP3 SWAP1 SUB SWAP1 SSTORE JUMPDEST PUSH1 0x1 PUSH1 0x1 PUSH1 0xA0 SHL SUB DUP3 AND PUSH2 0x4F0 JUMPI PUSH1 0x2 DUP1 SLOAD DUP3 SWAP1 SUB SWAP1 SSTORE PUSH2 0x50E JUMP JUMPDEST PUSH1 0x1 PUSH1 0x1 PUSH1 0xA0 SHL SUB DUP3 AND PUSH0 SWAP1 DUP2 MSTORE PUSH1 0x20 DUP2 SWAP1 MSTORE PUSH1 0x40 SWAP1 KECCAK256 DUP1 SLOAD DUP3 ADD SWAP1 SSTORE JUMPDEST DUP2 PUSH1 0x1 PUSH1 0x1 PUSH1 0xA0 SHL SUB AND DUP4 PUSH1 0x1 PUSH1 0x1 PUSH1 0xA0 SHL SUB AND PUSH32 0xDDF252AD1BE2C89B69C2B068FC378DAA952BA7F163C4A11628F55A4DF523B3EF DUP4 PUSH1 0x40 MLOAD PUSH2 0x553 SWAP2 DUP2 MSTORE PUSH1 0x20 ADD SWAP1 JUMP JUMPDEST PUSH1 0x40 MLOAD DUP1 SWAP2 SUB SWAP1 LOG3 POP POP POP JUMP JUMPDEST PUSH0 PUSH1 0x20 DUP3 DUP5 SUB SLT ISZERO PUSH2 0x570 JUMPI PUSH0 DUP1 REVERT JUMPDEST DUP2 MLOAD PUSH1 0x1 PUSH1 0x1 PUSH1 0xA0 SHL SUB DUP2 AND DUP2 EQ PUSH2 0x586 JUMPI PUSH0 DUP1 REVERT JUMPDEST SWAP4 SWAP3 POP POP POP JUMP JUMPDEST PUSH4 0x4E487B71 PUSH1 0xE0 SHL PUSH0 MSTORE PUSH1 0x41 PUSH1 0x4 MSTORE PUSH1 0x24 PUSH0 REVERT JUMPDEST PUSH1 0x1 DUP2 DUP2 SHR SWAP1 DUP3 AND DUP1 PUSH2 0x5B5 JUMPI PUSH1 0x7F DUP3 AND SWAP2 POP JUMPDEST PUSH1 0x20 DUP3 LT DUP2 SUB PUSH2 0x5D3 JUMPI PUSH4 0x4E487B71 PUSH1 0xE0 SHL PUSH0 MSTORE PUSH1 0x22 PUSH1 0x4 MSTORE PUSH1 0x24 PUSH0 REVERT JUMPDEST POP SWAP2 SWAP1 POP JUMP JUMPDEST PUSH1 0x1F DUP3 GT ISZERO PUSH2 0x3F8 JUMPI DUP1 PUSH0 MSTORE PUSH1 0x20 PUSH0 KECCAK256 PUSH1 0x1F DUP5 ADD PUSH1 0x5 SHR DUP2 ADD PUSH1 0x20 DUP6 LT ISZERO PUSH2 0x5FE JUMPI POP DUP1 JUMPDEST PUSH1 0x1F DUP5 ADD PUSH1 0x5 SHR DUP3 ADD SWAP2 POP JUMPDEST DUP2 DUP2 LT ISZERO PUSH2 0x61D JUMPI PUSH0 DUP2 SSTORE PUSH1 0x1 ADD PUSH2 0x60A JUMP JUMPDEST POP POP POP POP POP JUMP JUMPDEST DUP2 MLOAD PUSH1 0x1 PUSH1 0x1 PUSH1 0x40 SHL SUB DUP2 GT ISZERO PUSH2 0x63D JUMPI PUSH2 0x63D PUSH2 0x58D JUMP JUMPDEST PUSH2 0x651 DUP2 PUSH2 0x64B DUP5 SLOAD PUSH2 0x5A1 JUMP JUMPDEST DUP5 PUSH2 0x5D9 JUMP JUMPDEST PUSH1 0x20 PUSH1 0x1F DUP3 GT PUSH1 0x1 DUP2 EQ PUSH2 0x683 JUMPI PUSH0 DUP4 ISZERO PUSH2 0x66C JUMPI POP DUP5 DUP3 ADD MLOAD JUMPDEST PUSH0 NOT PUSH1 0x3 DUP6 SWAP1 SHL SHR NOT AND PUSH1 0x1 DUP5 SWAP1 SHL OR DUP5 SSTORE PUSH2 0x61D JUMP JUMPDEST PUSH0 DUP5 DUP2 MSTORE PUSH1 0x20 DUP2 KECCAK256 PUSH1 0x1F NOT DUP6 AND SWAP2 JUMPDEST DUP3 DUP2 LT ISZERO PUSH2 0x6B2 JUMPI DUP8 DUP6 ADD MLOAD DUP3 SSTORE PUSH1 0x20 SWAP5 DUP6 ADD SWAP5 PUSH1 0x1 SWAP1 SWAP3 ADD SWAP2 ADD PUSH2 0x692 JUMP JUMPDEST POP DUP5 DUP3 LT ISZERO PUSH2 0x6CF JUMPI DUP7 DUP5 ADD MLOAD PUSH0 NOT PUSH1 0x3 DUP8 SWAP1 SHL PUSH1 0xF8 AND SHR NOT AND DUP2 SSTORE JUMPDEST POP POP POP POP PUSH1 0x1 SWAP1 DUP2 SHL ADD SWAP1 SSTORE POP JUMP JUMPDEST PUSH4 0x4E487B71 PUSH1 0xE0 SHL PUSH0 MSTORE PUSH1 0x11 PUSH1 0x4 MSTORE PUSH1 0x24 PUSH0 REVERT JUMPDEST PUSH0 DUP3 PUSH2 0x70C JUMPI PUSH4 0x4E487B71 PUSH1 0xE0 SHL PUSH0 MSTORE PUSH1 0x12 PUSH1 0x4 MSTORE PUSH1 0x24 PUSH0 REVERT JUMPDEST POP DIV SWAP1 JUMP JUMPDEST DUP1 DUP3 ADD DUP1 DUP3 GT ISZERO PUSH2 0x2AD JUMPI PUSH2 0x2AD PUSH2 0x6DE JUMP JUMPDEST DUP1 DUP3 MUL DUP2 ISZERO DUP3 DUP3 DIV DUP5 EQ OR PUSH2 0x2AD JUMPI PUSH2 0x2AD PUSH2 0x6DE JUMP JUMPDEST PUSH1 0x20 DUP2 MSTORE PUSH0 DUP3 MLOAD DUP1 PUSH1 0x20 DUP5 ADD MSTORE DUP1 PUSH1 0x20 DUP6 ADD PUSH1 0x40 DUP6 ADD MCOPY PUSH0 PUSH1 0x40 DUP3 DUP6 ADD ADD MSTORE PUSH1 0x40 PUSH1 0x1F NOT PUSH1 0x1F DUP4 ADD AND DUP5 ADD ADD SWAP2 POP POP SWAP3 SWAP2 POP POP JUMP JUMPDEST DUP1 MLOAD PUSH1 0x20 DUP1 DUP4 ADD MLOAD SWAP2 SWAP1 DUP2 LT ISZERO PUSH2 0x5D3 JUMPI PUSH0 NOT PUSH1 0x20 SWAP2 SWAP1 SWAP2 SUB PUSH1 0x3 SHL SHL AND SWAP2 SWAP1 POP JUMP JUMPDEST PUSH1 0x80 MLOAD PUSH1 0xA0 MLOAD PUSH1 0xC0 MLOAD PUSH1 0xE0 MLOAD PUSH2 0x100 MLOAD PUSH2 0x120 MLOAD PUSH2 0x140 MLOAD PUSH2 0x1BF4 PUSH2 0x7E4 PUSH0 CODECOPY PUSH0 PUSH2 0x1250 ADD MSTORE PUSH0 PUSH2 0x1223 ADD MSTORE PUSH0 PUSH2 0x10B8 ADD MSTORE PUSH0 PUSH2 0x1090 ADD MSTORE PUSH0 PUSH2 0xFEB ADD MSTORE PUSH0 PUSH2 0x1015 ADD MSTORE PUSH0 PUSH2 0x103F ADD MSTORE PUSH2 0x1BF4 PUSH0 RETURN INVALID PUSH1 0x80 PUSH1 0x40 MSTORE CALLVALUE DUP1 ISZERO PUSH2 0xF JUMPI PUSH0 DUP1 REVERT JUMPDEST POP PUSH1 0x4 CALLDATASIZE LT PUSH2 0x213 JUMPI PUSH0 CALLDATALOAD PUSH1 0xE0 SHR DUP1 PUSH4 0x70A08231 GT PUSH2 0x11F JUMPI DUP1 PUSH4 0xA327A281 GT PUSH2 0xA9 JUMPI DUP1 PUSH4 0xD547741F GT PUSH2 0x79 JUMPI DUP1 PUSH4 0xD547741F EQ PUSH2 0x444 JUMPI DUP1 PUSH4 0xDD62ED3E EQ PUSH2 0x457 JUMPI DUP1 PUSH4 0xEB7203FE EQ PUSH2 0x48F JUMPI DUP1 PUSH4 0xECA51139 EQ PUSH2 0x498 JUMPI DUP1 PUSH4 0xFFBA376C EQ PUSH2 0x4D3 JUMPI PUSH0 DUP1 REVERT JUMPDEST DUP1 PUSH4 0xA327A281 EQ PUSH2 0x401 JUMPI DUP1 PUSH4 0xA694FC3A EQ PUSH2 0x40B JUMPI DUP1 PUSH4 0xA9059CBB EQ PUSH2 0x41E JUMPI DUP1 PUSH4 0xD505ACCF EQ PUSH2 0x431 JUMPI PUSH0 DUP1 REVERT JUMPDEST DUP1 PUSH4 0x84B0196E GT PUSH2 0xEF JUMPI DUP1 PUSH4 0x84B0196E EQ PUSH2 0x399 JUMPI DUP1 PUSH4 0x8DA5CB5B EQ PUSH2 0x3B4 JUMPI DUP1 PUSH4 0x91D14854 EQ PUSH2 0x3DF JUMPI DUP1 PUSH4 0x95D89B41 EQ PUSH2 0x3F2 JUMPI DUP1 PUSH4 0xA217FDDF EQ PUSH2 0x3FA JUMPI PUSH0 DUP1 REVERT JUMPDEST DUP1 PUSH4 0x70A08231 EQ PUSH2 0x357 JUMPI DUP1 PUSH4 0x79CC6790 EQ PUSH2 0x36A JUMPI DUP1 PUSH4 0x7ECEBE00 EQ PUSH2 0x37D JUMPI DUP1 PUSH4 0x817B1CD2 EQ PUSH2 0x390 JUMPI PUSH0 DUP1 REVERT JUMPDEST DUP1 PUSH4 0x2F2FF15D GT PUSH2 0x1A0 JUMPI DUP1 PUSH4 0x42966C68 GT PUSH2 0x170 JUMPI DUP1 PUSH4 0x42966C68 EQ PUSH2 0x316 JUMPI DUP1 PUSH4 0x508D962B EQ PUSH2 0x329 JUMPI DUP1 PUSH4 0x51500C3A EQ PUSH2 0x332 JUMPI DUP1 PUSH4 0x64AB8675 EQ PUSH2 0x33B JUMPI DUP1 PUSH4 0x69D8D6D2 EQ PUSH2 0x34E JUMPI PUSH0 DUP1 REVERT JUMPDEST DUP1 PUSH4 0x2F2FF15D EQ PUSH2 0x2D9 JUMPI DUP1 PUSH4 0x313CE567 EQ PUSH2 0x2EC JUMPI DUP1 PUSH4 0x3644E515 EQ PUSH2 0x2FB JUMPI DUP1 PUSH4 0x36568ABE EQ PUSH2 0x303 JUMPI PUSH0 DUP1 REVERT JUMPDEST DUP1 PUSH4 0xC56AE3B GT PUSH2 0x1E6 JUMPI DUP1 PUSH4 0xC56AE3B EQ PUSH2 0x27E JUMPI DUP1 PUSH4 0x18160DDD EQ PUSH2 0x287 JUMPI DUP1 PUSH4 0x23B872DD EQ PUSH2 0x28F JUMPI DUP1 PUSH4 0x248A9CA3 EQ PUSH2 0x2A2 JUMPI DUP1 PUSH4 0x2E17DE78 EQ PUSH2 0x2C4 JUMPI PUSH0 DUP1 REVERT JUMPDEST DUP1 PUSH4 0x1FFC9A7 EQ PUSH2 0x217 JUMPI DUP1 PUSH4 0x4646A49 EQ PUSH2 0x23F JUMPI DUP1 PUSH4 0x6FDDE03 EQ PUSH2 0x256 JUMPI DUP1 PUSH4 0x95EA7B3 EQ PUSH2 0x26B JUMPI JUMPDEST PUSH0 DUP1 REVERT JUMPDEST PUSH2 0x22A PUSH2 0x225 CALLDATASIZE PUSH1 0x4 PUSH2 0x1805 JUMP JUMPDEST PUSH2 0x4DB JUMP JUMPDEST PUSH1 0x40 MLOAD SWAP1 ISZERO ISZERO DUP2 MSTORE PUSH1 0x20 ADD JUMPDEST PUSH1 0x40 MLOAD DUP1 SWAP2 SUB SWAP1 RETURN JUMPDEST PUSH2 0x248 PUSH1 0xF SLOAD DUP2 JUMP JUMPDEST PUSH1 0x40 MLOAD SWAP1 DUP2 MSTORE PUSH1 0x20 ADD PUSH2 0x236 JUMP JUMPDEST PUSH2 0x25E PUSH2 0x511 JUMP JUMPDEST PUSH1 0x40 MLOAD PUSH2 0x236 SWAP2 SWAP1 PUSH2 0x1861 JUMP JUMPDEST PUSH2 0x22A PUSH2 0x279 CALLDATASIZE PUSH1 0x4 PUSH2 0x188E JUMP JUMPDEST PUSH2 0x5A1 JUMP JUMPDEST PUSH2 0x248 PUSH1 0xB SLOAD DUP2 JUMP JUMPDEST PUSH1 0x2 SLOAD PUSH2 0x248 JUMP JUMPDEST PUSH2 0x22A PUSH2 0x29D CALLDATASIZE PUSH1 0x4 PUSH2 0x18B6 JUMP JUMPDEST PUSH2 0x5B8 JUMP JUMPDEST PUSH2 0x248 PUSH2 0x2B0 CALLDATASIZE PUSH1 0x4 PUSH2 0x18F0 JUMP JUMPDEST PUSH0 SWAP1 DUP2 MSTORE PUSH1 0x8 PUSH1 0x20 MSTORE PUSH1 0x40 SWAP1 KECCAK256 PUSH1 0x1 ADD SLOAD SWAP1 JUMP JUMPDEST PUSH2 0x2D7 PUSH2 0x2D2 CALLDATASIZE PUSH1 0x4 PUSH2 0x18F0 JUMP JUMPDEST PUSH2 0x67A JUMP JUMPDEST STOP JUMPDEST PUSH2 0x2D7 PUSH2 0x2E7 CALLDATASIZE PUSH1 0x4 PUSH2 0x1907 JUMP JUMPDEST PUSH2 0x850 JUMP JUMPDEST PUSH1 0x40 MLOAD PUSH1 0x12 DUP2 MSTORE PUSH1 0x20 ADD PUSH2 0x236 JUMP JUMPDEST PUSH2 0x248 PUSH2 0x87A JUMP JUMPDEST PUSH2 0x2D7 PUSH2 0x311 CALLDATASIZE PUSH1 0x4 PUSH2 0x1907 JUMP JUMPDEST PUSH2 0x888 JUMP JUMPDEST PUSH2 0x2D7 PUSH2 0x324 CALLDATASIZE PUSH1 0x4 PUSH2 0x18F0 JUMP JUMPDEST PUSH2 0x8C0 JUMP JUMPDEST PUSH2 0x248 PUSH1 0x9 SLOAD DUP2 JUMP JUMPDEST PUSH2 0x248 PUSH1 0xA SLOAD DUP2 JUMP JUMPDEST PUSH2 0x248 PUSH2 0x349 CALLDATASIZE PUSH1 0x4 PUSH2 0x1931 JUMP JUMPDEST PUSH2 0x8CD JUMP JUMPDEST PUSH2 0x248 PUSH1 0xE SLOAD DUP2 JUMP JUMPDEST PUSH2 0x248 PUSH2 0x365 CALLDATASIZE PUSH1 0x4 PUSH2 0x1931 JUMP JUMPDEST PUSH2 0x97E JUMP JUMPDEST PUSH2 0x2D7 PUSH2 0x378 CALLDATASIZE PUSH1 0x4 PUSH2 0x188E JUMP JUMPDEST PUSH2 0x998 JUMP JUMPDEST PUSH2 0x248 PUSH2 0x38B CALLDATASIZE PUSH1 0x4 PUSH2 0x1931 JUMP JUMPDEST PUSH2 0x9B1 JUMP JUMPDEST PUSH2 0x248 PUSH1 0xC SLOAD DUP2 JUMP JUMPDEST PUSH2 0x3A1 PUSH2 0x9CE JUMP JUMPDEST PUSH1 0x40 MLOAD PUSH2 0x236 SWAP8 SWAP7 SWAP6 SWAP5 SWAP4 SWAP3 SWAP2 SWAP1 PUSH2 0x194A JUMP JUMPDEST PUSH1 0x12 SLOAD PUSH2 0x3C7 SWAP1 PUSH1 0x1 PUSH1 0x1 PUSH1 0xA0 SHL SUB AND DUP2 JUMP JUMPDEST PUSH1 0x40 MLOAD PUSH1 0x1 PUSH1 0x1 PUSH1 0xA0 SHL SUB SWAP1 SWAP2 AND DUP2 MSTORE PUSH1 0x20 ADD PUSH2 0x236 JUMP JUMPDEST PUSH2 0x22A PUSH2 0x3ED CALLDATASIZE PUSH1 0x4 PUSH2 0x1907 JUMP JUMPDEST PUSH2 0xA10 JUMP JUMPDEST PUSH2 0x25E PUSH2 0xA3A JUMP JUMPDEST PUSH2 0x248 PUSH0 DUP2 JUMP JUMPDEST PUSH1 0xA SLOAD TIMESTAMP GT PUSH2 0x22A JUMP JUMPDEST PUSH2 0x2D7 PUSH2 0x419 CALLDATASIZE PUSH1 0x4 PUSH2 0x18F0 JUMP JUMPDEST PUSH2 0xA49 JUMP JUMPDEST PUSH2 0x22A PUSH2 0x42C CALLDATASIZE PUSH1 0x4 PUSH2 0x188E JUMP JUMPDEST PUSH2 0xBDC JUMP JUMPDEST PUSH2 0x2D7 PUSH2 0x43F CALLDATASIZE PUSH1 0x4 PUSH2 0x19E0 JUMP JUMPDEST PUSH2 0xCA5 JUMP JUMPDEST PUSH2 0x2D7 PUSH2 0x452 CALLDATASIZE PUSH1 0x4 PUSH2 0x1907 JUMP JUMPDEST PUSH2 0xDDB JUMP JUMPDEST PUSH2 0x248 PUSH2 0x465 CALLDATASIZE PUSH1 0x4 PUSH2 0x1A4D JUMP JUMPDEST PUSH1 0x1 PUSH1 0x1 PUSH1 0xA0 SHL SUB SWAP2 DUP3 AND PUSH0 SWAP1 DUP2 MSTORE PUSH1 0x1 PUSH1 0x20 SWAP1 DUP2 MSTORE PUSH1 0x40 DUP1 DUP4 KECCAK256 SWAP4 SWAP1 SWAP5 AND DUP3 MSTORE SWAP2 SWAP1 SWAP2 MSTORE KECCAK256 SLOAD SWAP1 JUMP JUMPDEST PUSH2 0x248 PUSH1 0xD SLOAD DUP2 JUMP JUMPDEST PUSH2 0x4BE PUSH2 0x4A6 CALLDATASIZE PUSH1 0x4 PUSH2 0x1931 JUMP JUMPDEST PUSH1 0x10 PUSH1 0x20 MSTORE PUSH0 SWAP1 DUP2 MSTORE PUSH1 0x40 SWAP1 KECCAK256 DUP1 SLOAD PUSH1 0x1 SWAP1 SWAP2 ADD SLOAD DUP3 JUMP JUMPDEST PUSH1 0x40 DUP1 MLOAD SWAP3 DUP4 MSTORE PUSH1 0x20 DUP4 ADD SWAP2 SWAP1 SWAP2 MSTORE ADD PUSH2 0x236 JUMP JUMPDEST PUSH2 0x2D7 PUSH2 0xDFF JUMP JUMPDEST PUSH0 PUSH1 0x1 PUSH1 0x1 PUSH1 0xE0 SHL SUB NOT DUP3 AND PUSH4 0x7965DB0B PUSH1 0xE0 SHL EQ DUP1 PUSH2 0x50B JUMPI POP PUSH4 0x1FFC9A7 PUSH1 0xE0 SHL PUSH1 0x1 PUSH1 0x1 PUSH1 0xE0 SHL SUB NOT DUP4 AND EQ JUMPDEST SWAP3 SWAP2 POP POP JUMP JUMPDEST PUSH1 0x60 PUSH1 0x3 DUP1 SLOAD PUSH2 0x520 SWAP1 PUSH2 0x1A75 JUMP JUMPDEST DUP1 PUSH1 0x1F ADD PUSH1 0x20 DUP1 SWAP2 DIV MUL PUSH1 0x20 ADD PUSH1 0x40 MLOAD SWAP1 DUP2 ADD PUSH1 0x40 MSTORE DUP1 SWAP3 SWAP2 SWAP1 DUP2 DUP2 MSTORE PUSH1 0x20 ADD DUP3 DUP1 SLOAD PUSH2 0x54C SWAP1 PUSH2 0x1A75 JUMP JUMPDEST DUP1 ISZERO PUSH2 0x597 JUMPI DUP1 PUSH1 0x1F LT PUSH2 0x56E JUMPI PUSH2 0x100 DUP1 DUP4 SLOAD DIV MUL DUP4 MSTORE SWAP2 PUSH1 0x20 ADD SWAP2 PUSH2 0x597 JUMP JUMPDEST DUP3 ADD SWAP2 SWAP1 PUSH0 MSTORE PUSH1 0x20 PUSH0 KECCAK256 SWAP1 JUMPDEST DUP2 SLOAD DUP2 MSTORE SWAP1 PUSH1 0x1 ADD SWAP1 PUSH1 0x20 ADD DUP1 DUP4 GT PUSH2 0x57A JUMPI DUP3 SWAP1 SUB PUSH1 0x1F AND DUP3 ADD SWAP2 JUMPDEST POP POP POP POP POP SWAP1 POP SWAP1 JUMP JUMPDEST PUSH0 CALLER PUSH2 0x5AE DUP2 DUP6 DUP6 PUSH2 0xE80 JUMP JUMPDEST POP PUSH1 0x1 SWAP4 SWAP3 POP POP POP JUMP JUMPDEST PUSH1 0x11 SLOAD PUSH0 SWAP1 DUP2 SWAP1 PUSH2 0x5D1 SWAP1 PUSH1 0x1 PUSH1 0x1 PUSH1 0xA0 SHL SUB AND PUSH2 0x97E JUMP JUMPDEST PUSH1 0x9 SLOAD SWAP1 SWAP2 POP DUP1 DUP3 LT PUSH2 0x656 JUMPI PUSH1 0xA SLOAD TIMESTAMP GT PUSH2 0x608 JUMPI PUSH1 0x40 MLOAD PUSH3 0x461BCD PUSH1 0xE5 SHL DUP2 MSTORE PUSH1 0x4 ADD PUSH2 0x5FF SWAP1 PUSH2 0x1AAD JUMP JUMPDEST PUSH1 0x40 MLOAD DUP1 SWAP2 SUB SWAP1 REVERT JUMPDEST DUP5 PUSH1 0x1 PUSH1 0x1 PUSH1 0xA0 SHL SUB AND DUP7 PUSH1 0x1 PUSH1 0x1 PUSH1 0xA0 SHL SUB AND PUSH32 0x1A57A13050525E0C7FDD78AC2E358035F7F59A49327A06C897F10AE5EEB6544B DUP7 PUSH1 0x40 MLOAD PUSH2 0x64D SWAP2 DUP2 MSTORE PUSH1 0x20 ADD SWAP1 JUMP JUMPDEST PUSH1 0x40 MLOAD DUP1 SWAP2 SUB SWAP1 LOG3 JUMPDEST PUSH1 0x11 SLOAD PUSH2 0x66E SWAP1 PUSH1 0x1 PUSH1 0x1 PUSH1 0xA0 SHL SUB AND DUP8 DUP8 DUP8 PUSH2 0xE8D JUMP JUMPDEST POP PUSH1 0x1 SWAP6 SWAP5 POP POP POP POP POP JUMP JUMPDEST PUSH0 PUSH2 0x684 CALLER PUSH2 0x97E JUMP JUMPDEST GT DUP1 PUSH2 0x69D JUMPI POP CALLER PUSH0 SWAP1 DUP2 MSTORE PUSH1 0x10 PUSH1 0x20 MSTORE PUSH1 0x40 SWAP1 KECCAK256 SLOAD ISZERO ISZERO JUMPDEST PUSH2 0x6B9 JUMPI PUSH1 0x40 MLOAD PUSH3 0x461BCD PUSH1 0xE5 SHL DUP2 MSTORE PUSH1 0x4 ADD PUSH2 0x5FF SWAP1 PUSH2 0x1AE4 JUMP JUMPDEST CALLER PUSH0 SWAP1 DUP2 MSTORE PUSH1 0x10 PUSH1 0x20 MSTORE PUSH1 0x40 SWAP1 KECCAK256 DUP1 SLOAD PUSH1 0x1 SWAP2 DUP3 ADD SLOAD SWAP1 SWAP2 PUSH2 0x6DB SWAP1 DUP5 PUSH2 0x1B4E JUMP JUMPDEST DUP3 GT PUSH2 0x729 JUMPI PUSH1 0x40 MLOAD PUSH3 0x461BCD PUSH1 0xE5 SHL DUP2 MSTORE PUSH1 0x20 PUSH1 0x4 DUP3 ADD MSTORE PUSH1 0x1B PUSH1 0x24 DUP3 ADD MSTORE PUSH32 0x496E73756666696369656E74207374616B65642062616C616E63650000000000 PUSH1 0x44 DUP3 ADD MSTORE PUSH1 0x64 ADD PUSH2 0x5FF JUMP JUMPDEST PUSH1 0xF SLOAD PUSH2 0x736 SWAP1 DUP3 PUSH2 0x1B61 JUMP JUMPDEST TIMESTAMP GT PUSH2 0x784 JUMPI PUSH1 0x40 MLOAD PUSH3 0x461BCD PUSH1 0xE5 SHL DUP2 MSTORE PUSH1 0x20 PUSH1 0x4 DUP3 ADD MSTORE PUSH1 0x1A PUSH1 0x24 DUP3 ADD MSTORE PUSH32 0x436F6F6C646F776E20706572696F64206E6F7420706173736564000000000000 PUSH1 0x44 DUP3 ADD MSTORE PUSH1 0x64 ADD PUSH2 0x5FF JUMP JUMPDEST PUSH0 PUSH2 0x78E CALLER PUSH2 0x8CD JUMP JUMPDEST SWAP1 POP PUSH2 0x79A DUP5 DUP5 PUSH2 0x1B4E JUMP JUMPDEST CALLER PUSH0 SWAP1 DUP2 MSTORE PUSH1 0x10 PUSH1 0x20 MSTORE PUSH1 0x40 SWAP1 KECCAK256 SSTORE PUSH1 0xC SLOAD PUSH2 0x7B7 SWAP1 DUP6 SWAP1 PUSH2 0x1B4E JUMP JUMPDEST PUSH1 0xC SSTORE PUSH1 0xB SLOAD PUSH2 0x7C8 SWAP1 DUP3 SWAP1 PUSH2 0x1B4E JUMP JUMPDEST PUSH1 0xB SSTORE PUSH1 0xE SLOAD PUSH2 0x7D9 SWAP1 DUP3 SWAP1 PUSH2 0x1B61 JUMP JUMPDEST PUSH1 0xE SSTORE PUSH1 0x11 SLOAD PUSH2 0x7FC SWAP1 PUSH1 0x1 PUSH1 0x1 PUSH1 0xA0 SHL SUB AND CALLER PUSH2 0x7F7 DUP5 DUP9 PUSH2 0x1B61 JUMP JUMPDEST PUSH2 0xEE7 JUMP JUMPDEST CALLER PUSH0 DUP2 DUP2 MSTORE PUSH1 0x10 PUSH1 0x20 SWAP1 DUP2 MSTORE PUSH1 0x40 DUP1 DUP4 KECCAK256 PUSH1 0x1 ADD SWAP3 SWAP1 SWAP3 SSTORE DUP2 MLOAD DUP8 DUP2 MSTORE SWAP1 DUP2 ADD DUP5 SWAP1 MSTORE PUSH32 0x6F2D3E000C89D37446B7C0374C0125068FF316D1E3EE302336478A8CD03C2336 SWAP2 ADD PUSH1 0x40 MLOAD DUP1 SWAP2 SUB SWAP1 LOG2 POP POP POP POP JUMP JUMPDEST PUSH0 DUP3 DUP2 MSTORE PUSH1 0x8 PUSH1 0x20 MSTORE PUSH1 0x40 SWAP1 KECCAK256 PUSH1 0x1 ADD SLOAD PUSH2 0x86A DUP2 PUSH2 0xF44 JUMP JUMPDEST PUSH2 0x874 DUP4 DUP4 PUSH2 0xF4E JUMP JUMPDEST POP POP POP POP JUMP JUMPDEST PUSH0 PUSH2 0x883 PUSH2 0xFDF JUMP JUMPDEST SWAP1 POP SWAP1 JUMP JUMPDEST PUSH1 0x1 PUSH1 0x1 PUSH1 0xA0 SHL SUB DUP2 AND CALLER EQ PUSH2 0x8B1 JUMPI PUSH1 0x40 MLOAD PUSH4 0x334BD919 PUSH1 0xE1 SHL DUP2 MSTORE PUSH1 0x4 ADD PUSH1 0x40 MLOAD DUP1 SWAP2 SUB SWAP1 REVERT JUMPDEST PUSH2 0x8BB DUP3 DUP3 PUSH2 0x1108 JUMP JUMPDEST POP POP POP JUMP JUMPDEST PUSH2 0x8CA CALLER DUP3 PUSH2 0x1173 JUMP JUMPDEST POP JUMP JUMPDEST PUSH0 DUP1 PUSH2 0x8D8 CALLER PUSH2 0x97E JUMP JUMPDEST GT DUP1 PUSH2 0x8F1 JUMPI POP CALLER PUSH0 SWAP1 DUP2 MSTORE PUSH1 0x10 PUSH1 0x20 MSTORE PUSH1 0x40 SWAP1 KECCAK256 SLOAD ISZERO ISZERO JUMPDEST PUSH2 0x90D JUMPI PUSH1 0x40 MLOAD PUSH3 0x461BCD PUSH1 0xE5 SHL DUP2 MSTORE PUSH1 0x4 ADD PUSH2 0x5FF SWAP1 PUSH2 0x1AE4 JUMP JUMPDEST CALLER PUSH0 SWAP1 DUP2 MSTORE PUSH1 0x10 PUSH1 0x20 MSTORE PUSH1 0x40 DUP1 DUP3 KECCAK256 SLOAD PUSH1 0x1 PUSH1 0x1 PUSH1 0xA0 SHL SUB DUP6 AND DUP4 MSTORE SWAP1 DUP3 KECCAK256 PUSH1 0x1 ADD SLOAD SWAP1 SWAP2 SWAP1 PUSH2 0x93D SWAP1 TIMESTAMP PUSH2 0x1B4E JUMP JUMPDEST SWAP1 POP PUSH0 PUSH1 0x64 PUSH1 0xD SLOAD DUP5 PUSH2 0x950 SWAP2 SWAP1 PUSH2 0x1B74 JUMP JUMPDEST PUSH2 0x95A SWAP2 SWAP1 PUSH2 0x1B8B JUMP JUMPDEST SWAP1 POP PUSH4 0x1E13380 PUSH2 0x96B DUP4 DUP4 PUSH2 0x1B74 JUMP JUMPDEST PUSH2 0x975 SWAP2 SWAP1 PUSH2 0x1B8B JUMP JUMPDEST SWAP6 SWAP5 POP POP POP POP POP JUMP JUMPDEST PUSH1 0x1 PUSH1 0x1 PUSH1 0xA0 SHL SUB AND PUSH0 SWAP1 DUP2 MSTORE PUSH1 0x20 DUP2 SWAP1 MSTORE PUSH1 0x40 SWAP1 KECCAK256 SLOAD SWAP1 JUMP JUMPDEST PUSH2 0x9A3 DUP3 CALLER DUP4 PUSH2 0x11A7 JUMP JUMPDEST PUSH2 0x9AD DUP3 DUP3 PUSH2 0x1173 JUMP JUMPDEST POP POP JUMP JUMPDEST PUSH1 0x1 PUSH1 0x1 PUSH1 0xA0 SHL SUB DUP2 AND PUSH0 SWAP1 DUP2 MSTORE PUSH1 0x7 PUSH1 0x20 MSTORE PUSH1 0x40 DUP2 KECCAK256 SLOAD PUSH2 0x50B JUMP JUMPDEST PUSH0 PUSH1 0x60 DUP1 PUSH0 DUP1 PUSH0 PUSH1 0x60 PUSH2 0x9DF PUSH2 0x121C JUMP JUMPDEST PUSH2 0x9E7 PUSH2 0x1249 JUMP JUMPDEST PUSH1 0x40 DUP1 MLOAD PUSH0 DUP1 DUP3 MSTORE PUSH1 0x20 DUP3 ADD SWAP1 SWAP3 MSTORE PUSH1 0xF PUSH1 0xF8 SHL SWAP12 SWAP4 SWAP11 POP SWAP2 SWAP9 POP CHAINID SWAP8 POP ADDRESS SWAP7 POP SWAP5 POP SWAP3 POP SWAP1 POP JUMP JUMPDEST PUSH0 SWAP2 DUP3 MSTORE PUSH1 0x8 PUSH1 0x20 SWAP1 DUP2 MSTORE PUSH1 0x40 DUP1 DUP5 KECCAK256 PUSH1 0x1 PUSH1 0x1 PUSH1 0xA0 SHL SUB SWAP4 SWAP1 SWAP4 AND DUP5 MSTORE SWAP2 SWAP1 MSTORE SWAP1 KECCAK256 SLOAD PUSH1 0xFF AND SWAP1 JUMP JUMPDEST PUSH1 0x60 PUSH1 0x4 DUP1 SLOAD PUSH2 0x520 SWAP1 PUSH2 0x1A75 JUMP JUMPDEST PUSH0 PUSH2 0xA53 CALLER PUSH2 0x97E JUMP JUMPDEST GT DUP1 PUSH2 0xA6C JUMPI POP CALLER PUSH0 SWAP1 DUP2 MSTORE PUSH1 0x10 PUSH1 0x20 MSTORE PUSH1 0x40 SWAP1 KECCAK256 SLOAD ISZERO ISZERO JUMPDEST PUSH2 0xA88 JUMPI PUSH1 0x40 MLOAD PUSH3 0x461BCD PUSH1 0xE5 SHL DUP2 MSTORE PUSH1 0x4 ADD PUSH2 0x5FF SWAP1 PUSH2 0x1AE4 JUMP JUMPDEST DUP1 PUSH0 SUB PUSH2 0xAD7 JUMPI PUSH1 0x40 MLOAD PUSH3 0x461BCD PUSH1 0xE5 SHL DUP2 MSTORE PUSH1 0x20 PUSH1 0x4 DUP3 ADD MSTORE PUSH1 0x1D PUSH1 0x24 DUP3 ADD MSTORE PUSH32 0x416D6F756E74206D7573742062652067726561746572207468616E2030000000 PUSH1 0x44 DUP3 ADD MSTORE PUSH1 0x64 ADD PUSH2 0x5FF JUMP JUMPDEST PUSH2 0xAE2 PUSH1 0x1 DUP3 PUSH2 0x1B4E JUMP JUMPDEST PUSH2 0xAEB CALLER PUSH2 0x97E JUMP JUMPDEST GT PUSH2 0xB38 JUMPI PUSH1 0x40 MLOAD PUSH3 0x461BCD PUSH1 0xE5 SHL DUP2 MSTORE PUSH1 0x20 PUSH1 0x4 DUP3 ADD MSTORE PUSH1 0x1D PUSH1 0x24 DUP3 ADD MSTORE PUSH32 0x496E73756666696369656E742062616C616E636520746F207374616B65000000 PUSH1 0x44 DUP3 ADD MSTORE PUSH1 0x64 ADD PUSH2 0x5FF JUMP JUMPDEST PUSH1 0x11 SLOAD PUSH2 0xB50 SWAP1 CALLER SWAP1 PUSH1 0x1 PUSH1 0x1 PUSH1 0xA0 SHL SUB AND DUP4 PUSH2 0xEE7 JUMP JUMPDEST CALLER PUSH0 SWAP1 DUP2 MSTORE PUSH1 0x10 PUSH1 0x20 MSTORE PUSH1 0x40 SWAP1 KECCAK256 SLOAD PUSH2 0xB6A SWAP1 DUP3 SWAP1 PUSH2 0x1B61 JUMP JUMPDEST CALLER PUSH0 SWAP1 DUP2 MSTORE PUSH1 0x10 PUSH1 0x20 MSTORE PUSH1 0x40 SWAP1 KECCAK256 SSTORE PUSH1 0xC SLOAD PUSH2 0xB87 SWAP1 DUP3 SWAP1 PUSH2 0x1B61 JUMP JUMPDEST PUSH1 0xC SSTORE CALLER PUSH0 DUP2 DUP2 MSTORE PUSH1 0x10 PUSH1 0x20 MSTORE PUSH1 0x40 SWAP1 DUP2 SWAP1 KECCAK256 TIMESTAMP PUSH1 0x1 SWAP1 SWAP2 ADD SSTORE MLOAD PUSH32 0xB539CA1E5C8D398DDF1C41C30166F33404941683BE4683319B57669A93DAD4EF SWAP1 PUSH2 0xBD1 SWAP1 DUP5 DUP2 MSTORE PUSH1 0x20 ADD SWAP1 JUMP JUMPDEST PUSH1 0x40 MLOAD DUP1 SWAP2 SUB SWAP1 LOG2 POP JUMP JUMPDEST PUSH0 DUP1 PUSH2 0xBE7 CALLER PUSH2 0x97E JUMP JUMPDEST GT DUP1 PUSH2 0xC00 JUMPI POP CALLER PUSH0 SWAP1 DUP2 MSTORE PUSH1 0x10 PUSH1 0x20 MSTORE PUSH1 0x40 SWAP1 KECCAK256 SLOAD ISZERO ISZERO JUMPDEST PUSH2 0xC1C JUMPI PUSH1 0x40 MLOAD PUSH3 0x461BCD PUSH1 0xE5 SHL DUP2 MSTORE PUSH1 0x4 ADD PUSH2 0x5FF SWAP1 PUSH2 0x1AE4 JUMP JUMPDEST PUSH1 0x9 SLOAD PUSH1 0x11 SLOAD PUSH2 0xC34 SWAP1 PUSH1 0x1 PUSH1 0x1 PUSH1 0xA0 SHL SUB AND PUSH2 0x97E JUMP JUMPDEST LT PUSH2 0xC9B JUMPI PUSH1 0xA SLOAD TIMESTAMP GT PUSH2 0xC5A JUMPI PUSH1 0x40 MLOAD PUSH3 0x461BCD PUSH1 0xE5 SHL DUP2 MSTORE PUSH1 0x4 ADD PUSH2 0x5FF SWAP1 PUSH2 0x1AAD JUMP JUMPDEST PUSH1 0x40 MLOAD DUP3 DUP2 MSTORE PUSH1 0x1 PUSH1 0x1 PUSH1 0xA0 SHL SUB DUP5 AND SWAP1 CALLER SWAP1 PUSH32 0x1A57A13050525E0C7FDD78AC2E358035F7F59A49327A06C897F10AE5EEB6544B SWAP1 PUSH1 0x20 ADD PUSH1 0x40 MLOAD DUP1 SWAP2 SUB SWAP1 LOG3 JUMPDEST PUSH2 0x5AE DUP4 DUP4 PUSH2 0x1276 JUMP JUMPDEST DUP4 TIMESTAMP GT ISZERO PUSH2 0xCC9 JUMPI PUSH1 0x40 MLOAD PUSH4 0x313C8981 PUSH1 0xE1 SHL DUP2 MSTORE PUSH1 0x4 DUP2 ADD DUP6 SWAP1 MSTORE PUSH1 0x24 ADD PUSH2 0x5FF JUMP JUMPDEST PUSH0 PUSH32 0x6E71EDAE12B1B97F4D1F60370FEF10105FA2FAAE0126114A169C64845D6126C9 DUP9 DUP9 DUP9 PUSH2 0xD14 DUP13 PUSH1 0x1 PUSH1 0x1 PUSH1 0xA0 SHL SUB AND PUSH0 SWAP1 DUP2 MSTORE PUSH1 0x7 PUSH1 0x20 MSTORE PUSH1 0x40 SWAP1 KECCAK256 DUP1 SLOAD PUSH1 0x1 DUP2 ADD SWAP1 SWAP2 SSTORE SWAP1 JUMP JUMPDEST PUSH1 0x40 DUP1 MLOAD PUSH1 0x20 DUP2 ADD SWAP7 SWAP1 SWAP7 MSTORE PUSH1 0x1 PUSH1 0x1 PUSH1 0xA0 SHL SUB SWAP5 DUP6 AND SWAP1 DUP7 ADD MSTORE SWAP3 SWAP1 SWAP2 AND PUSH1 0x60 DUP5 ADD MSTORE PUSH1 0x80 DUP4 ADD MSTORE PUSH1 0xA0 DUP3 ADD MSTORE PUSH1 0xC0 DUP2 ADD DUP7 SWAP1 MSTORE PUSH1 0xE0 ADD PUSH1 0x40 MLOAD PUSH1 0x20 DUP2 DUP4 SUB SUB DUP2 MSTORE SWAP1 PUSH1 0x40 MSTORE DUP1 MLOAD SWAP1 PUSH1 0x20 ADD KECCAK256 SWAP1 POP PUSH0 PUSH2 0xD6E DUP3 PUSH2 0x1283 JUMP JUMPDEST SWAP1 POP PUSH0 PUSH2 0xD7D DUP3 DUP8 DUP8 DUP8 PUSH2 0x12AF JUMP JUMPDEST SWAP1 POP DUP10 PUSH1 0x1 PUSH1 0x1 PUSH1 0xA0 SHL SUB AND DUP2 PUSH1 0x1 PUSH1 0x1 PUSH1 0xA0 SHL SUB AND EQ PUSH2 0xDC4 JUMPI PUSH1 0x40 MLOAD PUSH4 0x25C00723 PUSH1 0xE1 SHL DUP2 MSTORE PUSH1 0x1 PUSH1 0x1 PUSH1 0xA0 SHL SUB DUP1 DUP4 AND PUSH1 0x4 DUP4 ADD MSTORE DUP12 AND PUSH1 0x24 DUP3 ADD MSTORE PUSH1 0x44 ADD PUSH2 0x5FF JUMP JUMPDEST PUSH2 0xDCF DUP11 DUP11 DUP11 PUSH2 0xE80 JUMP JUMPDEST POP POP POP POP POP POP POP POP POP POP JUMP JUMPDEST PUSH0 DUP3 DUP2 MSTORE PUSH1 0x8 PUSH1 0x20 MSTORE PUSH1 0x40 SWAP1 KECCAK256 PUSH1 0x1 ADD SLOAD PUSH2 0xDF5 DUP2 PUSH2 0xF44 JUMP JUMPDEST PUSH2 0x874 DUP4 DUP4 PUSH2 0x1108 JUMP JUMPDEST PUSH0 PUSH2 0xE09 DUP2 PUSH2 0xF44 JUMP JUMPDEST PUSH1 0xA SLOAD TIMESTAMP GT PUSH2 0xE2A JUMPI PUSH1 0x40 MLOAD PUSH3 0x461BCD PUSH1 0xE5 SHL DUP2 MSTORE PUSH1 0x4 ADD PUSH2 0x5FF SWAP1 PUSH2 0x1AAD JUMP JUMPDEST PUSH1 0x9 DUP1 SLOAD PUSH0 SWAP1 SWAP2 SSTORE PUSH1 0x11 SLOAD PUSH2 0xE49 SWAP1 PUSH1 0x1 PUSH1 0x1 PUSH1 0xA0 SHL SUB AND CALLER DUP4 PUSH2 0xEE7 JUMP JUMPDEST PUSH1 0x40 MLOAD DUP2 DUP2 MSTORE PUSH32 0x8A52261CD2B8C249F858FEF8AE15294602E2EA0352C71421A5A29E6C0DA35542 SWAP1 PUSH1 0x20 ADD PUSH1 0x40 MLOAD DUP1 SWAP2 SUB SWAP1 LOG1 POP POP JUMP JUMPDEST PUSH2 0x8BB DUP4 DUP4 DUP4 PUSH1 0x1 PUSH2 0x12DB JUMP JUMPDEST PUSH1 0x40 DUP1 MLOAD PUSH1 0x1 PUSH1 0x1 PUSH1 0xA0 SHL SUB DUP6 DUP2 AND PUSH1 0x24 DUP4 ADD MSTORE DUP5 AND PUSH1 0x44 DUP3 ADD MSTORE PUSH1 0x64 DUP1 DUP3 ADD DUP5 SWAP1 MSTORE DUP3 MLOAD DUP1 DUP4 SUB SWAP1 SWAP2 ADD DUP2 MSTORE PUSH1 0x84 SWAP1 SWAP2 ADD SWAP1 SWAP2 MSTORE PUSH1 0x20 DUP2 ADD DUP1 MLOAD PUSH1 0x1 PUSH1 0x1 PUSH1 0xE0 SHL SUB AND PUSH4 0x23B872DD PUSH1 0xE0 SHL OR SWAP1 MSTORE PUSH2 0x874 SWAP1 DUP6 SWAP1 PUSH2 0x13AD JUMP JUMPDEST PUSH1 0x1 PUSH1 0x1 PUSH1 0xA0 SHL SUB DUP4 AND PUSH2 0xF10 JUMPI PUSH1 0x40 MLOAD PUSH4 0x4B637E8F PUSH1 0xE1 SHL DUP2 MSTORE PUSH0 PUSH1 0x4 DUP3 ADD MSTORE PUSH1 0x24 ADD PUSH2 0x5FF JUMP JUMPDEST PUSH1 0x1 PUSH1 0x1 PUSH1 0xA0 SHL SUB DUP3 AND PUSH2 0xF39 JUMPI PUSH1 0x40 MLOAD PUSH4 0xEC442F05 PUSH1 0xE0 SHL DUP2 MSTORE PUSH0 PUSH1 0x4 DUP3 ADD MSTORE PUSH1 0x24 ADD PUSH2 0x5FF JUMP JUMPDEST PUSH2 0x8BB DUP4 DUP4 DUP4 PUSH2 0x1419 JUMP JUMPDEST PUSH2 0x8CA DUP2 CALLER PUSH2 0x153F JUMP JUMPDEST PUSH0 PUSH2 0xF59 DUP4 DUP4 PUSH2 0xA10 JUMP JUMPDEST PUSH2 0xFD8 JUMPI PUSH0 DUP4 DUP2 MSTORE PUSH1 0x8 PUSH1 0x20 SWAP1 DUP2 MSTORE PUSH1 0x40 DUP1 DUP4 KECCAK256 PUSH1 0x1 PUSH1 0x1 PUSH1 0xA0 SHL SUB DUP7 AND DUP5 MSTORE SWAP1 SWAP2 MSTORE SWAP1 KECCAK256 DUP1 SLOAD PUSH1 0xFF NOT AND PUSH1 0x1 OR SWAP1 SSTORE PUSH2 0xF90 CALLER SWAP1 JUMP JUMPDEST PUSH1 0x1 PUSH1 0x1 PUSH1 0xA0 SHL SUB AND DUP3 PUSH1 0x1 PUSH1 0x1 PUSH1 0xA0 SHL SUB AND DUP5 PUSH32 0x2F8788117E7EFF1D82E926EC794901D17C78024A50270940304540A733656F0D PUSH1 0x40 MLOAD PUSH1 0x40 MLOAD DUP1 SWAP2 SUB SWAP1 LOG4 POP PUSH1 0x1 PUSH2 0x50B JUMP JUMPDEST POP PUSH0 PUSH2 0x50B JUMP JUMPDEST PUSH0 ADDRESS PUSH1 0x1 PUSH1 0x1 PUSH1 0xA0 SHL SUB PUSH32 0x0 AND EQ DUP1 ISZERO PUSH2 0x1037 JUMPI POP PUSH32 0x0 CHAINID EQ JUMPDEST ISZERO PUSH2 0x1061 JUMPI POP PUSH32 0x0 SWAP1 JUMP JUMPDEST PUSH2 0x883 PUSH1 0x40 DUP1 MLOAD PUSH32 0x8B73C3C69BB8FE3D512ECC4CF759CC79239F7B179B0FFACAA9A75D522B39400F PUSH1 0x20 DUP3 ADD MSTORE PUSH32 0x0 SWAP2 DUP2 ADD SWAP2 SWAP1 SWAP2 MSTORE PUSH32 0x0 PUSH1 0x60 DUP3 ADD MSTORE CHAINID PUSH1 0x80 DUP3 ADD MSTORE ADDRESS PUSH1 0xA0 DUP3 ADD MSTORE PUSH0 SWAP1 PUSH1 0xC0 ADD PUSH1 0x40 MLOAD PUSH1 0x20 DUP2 DUP4 SUB SUB DUP2 MSTORE SWAP1 PUSH1 0x40 MSTORE DUP1 MLOAD SWAP1 PUSH1 0x20 ADD KECCAK256 SWAP1 POP SWAP1 JUMP JUMPDEST PUSH0 PUSH2 0x1113 DUP4 DUP4 PUSH2 0xA10 JUMP JUMPDEST ISZERO PUSH2 0xFD8 JUMPI PUSH0 DUP4 DUP2 MSTORE PUSH1 0x8 PUSH1 0x20 SWAP1 DUP2 MSTORE PUSH1 0x40 DUP1 DUP4 KECCAK256 PUSH1 0x1 PUSH1 0x1 PUSH1 0xA0 SHL SUB DUP7 AND DUP1 DUP6 MSTORE SWAP3 MSTORE DUP1 DUP4 KECCAK256 DUP1 SLOAD PUSH1 0xFF NOT AND SWAP1 SSTORE MLOAD CALLER SWAP3 DUP7 SWAP2 PUSH32 0xF6391F5C32D9C69D2A47EA670B442974B53935D1EDC7FD64EB21E047A839171B SWAP2 SWAP1 LOG4 POP PUSH1 0x1 PUSH2 0x50B JUMP JUMPDEST PUSH1 0x1 PUSH1 0x1 PUSH1 0xA0 SHL SUB DUP3 AND PUSH2 0x119C JUMPI PUSH1 0x40 MLOAD PUSH4 0x4B637E8F PUSH1 0xE1 SHL DUP2 MSTORE PUSH0 PUSH1 0x4 DUP3 ADD MSTORE PUSH1 0x24 ADD PUSH2 0x5FF JUMP JUMPDEST PUSH2 0x9AD DUP3 PUSH0 DUP4 PUSH2 0x1419 JUMP JUMPDEST PUSH1 0x1 PUSH1 0x1 PUSH1 0xA0 SHL SUB DUP4 DUP2 AND PUSH0 SWAP1 DUP2 MSTORE PUSH1 0x1 PUSH1 0x20 SWAP1 DUP2 MSTORE PUSH1 0x40 DUP1 DUP4 KECCAK256 SWAP4 DUP7 AND DUP4 MSTORE SWAP3 SWAP1 MSTORE KECCAK256 SLOAD PUSH0 NOT DUP2 EQ PUSH2 0x874 JUMPI DUP2 DUP2 LT ISZERO PUSH2 0x120E JUMPI PUSH1 0x40 MLOAD PUSH4 0x7DC7A0D9 PUSH1 0xE1 SHL DUP2 MSTORE PUSH1 0x1 PUSH1 0x1 PUSH1 0xA0 SHL SUB DUP5 AND PUSH1 0x4 DUP3 ADD MSTORE PUSH1 0x24 DUP2 ADD DUP3 SWAP1 MSTORE PUSH1 0x44 DUP2 ADD DUP4 SWAP1 MSTORE PUSH1 0x64 ADD PUSH2 0x5FF JUMP JUMPDEST PUSH2 0x874 DUP5 DUP5 DUP5 DUP5 SUB PUSH0 PUSH2 0x12DB JUMP JUMPDEST PUSH1 0x60 PUSH2 0x883 PUSH32 0x0 PUSH1 0x5 PUSH2 0x1578 JUMP JUMPDEST PUSH1 0x60 PUSH2 0x883 PUSH32 0x0 PUSH1 0x6 PUSH2 0x1578 JUMP JUMPDEST PUSH0 CALLER PUSH2 0x5AE DUP2 DUP6 DUP6 PUSH2 0xEE7 JUMP JUMPDEST PUSH0 PUSH2 0x50B PUSH2 0x128F PUSH2 0xFDF JUMP JUMPDEST DUP4 PUSH1 0x40 MLOAD PUSH2 0x1901 PUSH1 0xF0 SHL DUP2 MSTORE PUSH1 0x2 DUP2 ADD SWAP3 SWAP1 SWAP3 MSTORE PUSH1 0x22 DUP3 ADD MSTORE PUSH1 0x42 SWAP1 KECCAK256 SWAP1 JUMP JUMPDEST PUSH0 DUP1 PUSH0 DUP1 PUSH2 0x12BF DUP9 DUP9 DUP9 DUP9 PUSH2 0x1621 JUMP JUMPDEST SWAP3 POP SWAP3 POP SWAP3 POP PUSH2 0x12CF DUP3 DUP3 PUSH2 0x16E9 JUMP JUMPDEST POP SWAP1 SWAP7 SWAP6 POP POP POP POP POP POP JUMP JUMPDEST PUSH1 0x1 PUSH1 0x1 PUSH1 0xA0 SHL SUB DUP5 AND PUSH2 0x1304 JUMPI PUSH1 0x40 MLOAD PUSH4 0xE602DF05 PUSH1 0xE0 SHL DUP2 MSTORE PUSH0 PUSH1 0x4 DUP3 ADD MSTORE PUSH1 0x24 ADD PUSH2 0x5FF JUMP JUMPDEST PUSH1 0x1 PUSH1 0x1 PUSH1 0xA0 SHL SUB DUP4 AND PUSH2 0x132D JUMPI PUSH1 0x40 MLOAD PUSH4 0x4A1406B1 PUSH1 0xE1 SHL DUP2 MSTORE PUSH0 PUSH1 0x4 DUP3 ADD MSTORE PUSH1 0x24 ADD PUSH2 0x5FF JUMP JUMPDEST PUSH1 0x1 PUSH1 0x1 PUSH1 0xA0 SHL SUB DUP1 DUP6 AND PUSH0 SWAP1 DUP2 MSTORE PUSH1 0x1 PUSH1 0x20 SWAP1 DUP2 MSTORE PUSH1 0x40 DUP1 DUP4 KECCAK256 SWAP4 DUP8 AND DUP4 MSTORE SWAP3 SWAP1 MSTORE KECCAK256 DUP3 SWAP1 SSTORE DUP1 ISZERO PUSH2 0x874 JUMPI DUP3 PUSH1 0x1 PUSH1 0x1 PUSH1 0xA0 SHL SUB AND DUP5 PUSH1 0x1 PUSH1 0x1 PUSH1 0xA0 SHL SUB AND PUSH32 0x8C5BE1E5EBEC7D5BD14F71427D1E84F3DD0314C0F7B2291E5B200AC8C7C3B925 DUP5 PUSH1 0x40 MLOAD PUSH2 0x139F SWAP2 DUP2 MSTORE PUSH1 0x20 ADD SWAP1 JUMP JUMPDEST PUSH1 0x40 MLOAD DUP1 SWAP2 SUB SWAP1 LOG3 POP POP POP POP JUMP JUMPDEST PUSH0 DUP1 PUSH1 0x20 PUSH0 DUP5 MLOAD PUSH1 0x20 DUP7 ADD PUSH0 DUP9 GAS CALL DUP1 PUSH2 0x13CC JUMPI PUSH1 0x40 MLOAD RETURNDATASIZE PUSH0 DUP3 RETURNDATACOPY RETURNDATASIZE DUP2 REVERT JUMPDEST POP POP PUSH0 MLOAD RETURNDATASIZE SWAP2 POP DUP2 ISZERO PUSH2 0x13E3 JUMPI DUP1 PUSH1 0x1 EQ ISZERO PUSH2 0x13F0 JUMP JUMPDEST PUSH1 0x1 PUSH1 0x1 PUSH1 0xA0 SHL SUB DUP5 AND EXTCODESIZE ISZERO JUMPDEST ISZERO PUSH2 0x874 JUMPI PUSH1 0x40 MLOAD PUSH4 0x5274AFE7 PUSH1 0xE0 SHL DUP2 MSTORE PUSH1 0x1 PUSH1 0x1 PUSH1 0xA0 SHL SUB DUP6 AND PUSH1 0x4 DUP3 ADD MSTORE PUSH1 0x24 ADD PUSH2 0x5FF JUMP JUMPDEST PUSH1 0x1 PUSH1 0x1 PUSH1 0xA0 SHL SUB DUP4 AND PUSH2 0x1443 JUMPI DUP1 PUSH1 0x2 PUSH0 DUP3 DUP3 SLOAD PUSH2 0x1438 SWAP2 SWAP1 PUSH2 0x1B61 JUMP JUMPDEST SWAP1 SWAP2 SSTORE POP PUSH2 0x14B3 SWAP1 POP JUMP JUMPDEST PUSH1 0x1 PUSH1 0x1 PUSH1 0xA0 SHL SUB DUP4 AND PUSH0 SWAP1 DUP2 MSTORE PUSH1 0x20 DUP2 SWAP1 MSTORE PUSH1 0x40 SWAP1 KECCAK256 SLOAD DUP2 DUP2 LT ISZERO PUSH2 0x1495 JUMPI PUSH1 0x40 MLOAD PUSH4 0x391434E3 PUSH1 0xE2 SHL DUP2 MSTORE PUSH1 0x1 PUSH1 0x1 PUSH1 0xA0 SHL SUB DUP6 AND PUSH1 0x4 DUP3 ADD MSTORE PUSH1 0x24 DUP2 ADD DUP3 SWAP1 MSTORE PUSH1 0x44 DUP2 ADD DUP4 SWAP1 MSTORE PUSH1 0x64 ADD PUSH2 0x5FF JUMP JUMPDEST PUSH1 0x1 PUSH1 0x1 PUSH1 0xA0 SHL SUB DUP5 AND PUSH0 SWAP1 DUP2 MSTORE PUSH1 0x20 DUP2 SWAP1 MSTORE PUSH1 0x40 SWAP1 KECCAK256 SWAP1 DUP3 SWAP1 SUB SWAP1 SSTORE JUMPDEST PUSH1 0x1 PUSH1 0x1 PUSH1 0xA0 SHL SUB DUP3 AND PUSH2 0x14CF JUMPI PUSH1 0x2 DUP1 SLOAD DUP3 SWAP1 SUB SWAP1 SSTORE PUSH2 0x14ED JUMP JUMPDEST PUSH1 0x1 PUSH1 0x1 PUSH1 0xA0 SHL SUB DUP3 AND PUSH0 SWAP1 DUP2 MSTORE PUSH1 0x20 DUP2 SWAP1 MSTORE PUSH1 0x40 SWAP1 KECCAK256 DUP1 SLOAD DUP3 ADD SWAP1 SSTORE JUMPDEST DUP2 PUSH1 0x1 PUSH1 0x1 PUSH1 0xA0 SHL SUB AND DUP4 PUSH1 0x1 PUSH1 0x1 PUSH1 0xA0 SHL SUB AND PUSH32 0xDDF252AD1BE2C89B69C2B068FC378DAA952BA7F163C4A11628F55A4DF523B3EF DUP4 PUSH1 0x40 MLOAD PUSH2 0x1532 SWAP2 DUP2 MSTORE PUSH1 0x20 ADD SWAP1 JUMP JUMPDEST PUSH1 0x40 MLOAD DUP1 SWAP2 SUB SWAP1 LOG3 POP POP POP JUMP JUMPDEST PUSH2 0x1549 DUP3 DUP3 PUSH2 0xA10 JUMP JUMPDEST PUSH2 0x9AD JUMPI PUSH1 0x40 MLOAD PUSH4 0xE2517D3F PUSH1 0xE0 SHL DUP2 MSTORE PUSH1 0x1 PUSH1 0x1 PUSH1 0xA0 SHL SUB DUP3 AND PUSH1 0x4 DUP3 ADD MSTORE PUSH1 0x24 DUP2 ADD DUP4 SWAP1 MSTORE PUSH1 0x44 ADD PUSH2 0x5FF JUMP JUMPDEST PUSH1 0x60 PUSH1 0xFF DUP4 EQ PUSH2 0x1592 JUMPI PUSH2 0x158B DUP4 PUSH2 0x17A1 JUMP JUMPDEST SWAP1 POP PUSH2 0x50B JUMP JUMPDEST DUP2 DUP1 SLOAD PUSH2 0x159E SWAP1 PUSH2 0x1A75 JUMP JUMPDEST DUP1 PUSH1 0x1F ADD PUSH1 0x20 DUP1 SWAP2 DIV MUL PUSH1 0x20 ADD PUSH1 0x40 MLOAD SWAP1 DUP2 ADD PUSH1 0x40 MSTORE DUP1 SWAP3 SWAP2 SWAP1 DUP2 DUP2 MSTORE PUSH1 0x20 ADD DUP3 DUP1 SLOAD PUSH2 0x15CA SWAP1 PUSH2 0x1A75 JUMP JUMPDEST DUP1 ISZERO PUSH2 0x1615 JUMPI DUP1 PUSH1 0x1F LT PUSH2 0x15EC JUMPI PUSH2 0x100 DUP1 DUP4 SLOAD DIV MUL DUP4 MSTORE SWAP2 PUSH1 0x20 ADD SWAP2 PUSH2 0x1615 JUMP JUMPDEST DUP3 ADD SWAP2 SWAP1 PUSH0 MSTORE PUSH1 0x20 PUSH0 KECCAK256 SWAP1 JUMPDEST DUP2 SLOAD DUP2 MSTORE SWAP1 PUSH1 0x1 ADD SWAP1 PUSH1 0x20 ADD DUP1 DUP4 GT PUSH2 0x15F8 JUMPI DUP3 SWAP1 SUB PUSH1 0x1F AND DUP3 ADD SWAP2 JUMPDEST POP POP POP POP POP SWAP1 POP PUSH2 0x50B JUMP JUMPDEST PUSH0 DUP1 DUP1 PUSH32 0x7FFFFFFFFFFFFFFFFFFFFFFFFFFFFFFF5D576E7357A4501DDFE92F46681B20A0 DUP5 GT ISZERO PUSH2 0x165A JUMPI POP PUSH0 SWAP2 POP PUSH1 0x3 SWAP1 POP DUP3 PUSH2 0x16DF JUMP JUMPDEST PUSH1 0x40 DUP1 MLOAD PUSH0 DUP1 DUP3 MSTORE PUSH1 0x20 DUP3 ADD DUP1 DUP5 MSTORE DUP11 SWAP1 MSTORE PUSH1 0xFF DUP10 AND SWAP3 DUP3 ADD SWAP3 SWAP1 SWAP3 MSTORE PUSH1 0x60 DUP2 ADD DUP8 SWAP1 MSTORE PUSH1 0x80 DUP2 ADD DUP7 SWAP1 MSTORE PUSH1 0x1 SWAP1 PUSH1 0xA0 ADD PUSH1 0x20 PUSH1 0x40 MLOAD PUSH1 0x20 DUP2 SUB SWAP1 DUP1 DUP5 SUB SWAP1 DUP6 GAS STATICCALL ISZERO DUP1 ISZERO PUSH2 0x16AB JUMPI RETURNDATASIZE PUSH0 DUP1 RETURNDATACOPY RETURNDATASIZE PUSH0 REVERT JUMPDEST POP POP PUSH1 0x40 MLOAD PUSH1 0x1F NOT ADD MLOAD SWAP2 POP POP PUSH1 0x1 PUSH1 0x1 PUSH1 0xA0 SHL SUB DUP2 AND PUSH2 0x16D6 JUMPI POP PUSH0 SWAP3 POP PUSH1 0x1 SWAP2 POP DUP3 SWAP1 POP PUSH2 0x16DF JUMP JUMPDEST SWAP3 POP PUSH0 SWAP2 POP DUP2 SWAP1 POP JUMPDEST SWAP5 POP SWAP5 POP SWAP5 SWAP2 POP POP JUMP JUMPDEST PUSH0 DUP3 PUSH1 0x3 DUP2 GT ISZERO PUSH2 0x16FC JUMPI PUSH2 0x16FC PUSH2 0x1BAA JUMP JUMPDEST SUB PUSH2 0x1705 JUMPI POP POP JUMP JUMPDEST PUSH1 0x1 DUP3 PUSH1 0x3 DUP2 GT ISZERO PUSH2 0x1719 JUMPI PUSH2 0x1719 PUSH2 0x1BAA JUMP JUMPDEST SUB PUSH2 0x1737 JUMPI PUSH1 0x40 MLOAD PUSH4 0xF645EEDF PUSH1 0xE0 SHL DUP2 MSTORE PUSH1 0x4 ADD PUSH1 0x40 MLOAD DUP1 SWAP2 SUB SWAP1 REVERT JUMPDEST PUSH1 0x2 DUP3 PUSH1 0x3 DUP2 GT ISZERO PUSH2 0x174B JUMPI PUSH2 0x174B PUSH2 0x1BAA JUMP JUMPDEST SUB PUSH2 0x176C JUMPI PUSH1 0x40 MLOAD PUSH4 0xFCE698F7 PUSH1 0xE0 SHL DUP2 MSTORE PUSH1 0x4 DUP2 ADD DUP3 SWAP1 MSTORE PUSH1 0x24 ADD PUSH2 0x5FF JUMP JUMPDEST PUSH1 0x3 DUP3 PUSH1 0x3 DUP2 GT ISZERO PUSH2 0x1780 JUMPI PUSH2 0x1780 PUSH2 0x1BAA JUMP JUMPDEST SUB PUSH2 0x9AD JUMPI PUSH1 0x40 MLOAD PUSH4 0x35E2F383 PUSH1 0xE2 SHL DUP2 MSTORE PUSH1 0x4 DUP2 ADD DUP3 SWAP1 MSTORE PUSH1 0x24 ADD PUSH2 0x5FF JUMP JUMPDEST PUSH1 0x60 PUSH0 PUSH2 0x17AD DUP4 PUSH2 0x17DE JUMP JUMPDEST PUSH1 0x40 DUP1 MLOAD PUSH1 0x20 DUP1 DUP3 MSTORE DUP2 DUP4 ADD SWAP1 SWAP3 MSTORE SWAP2 SWAP3 POP PUSH0 SWAP2 SWAP1 PUSH1 0x20 DUP3 ADD DUP2 DUP1 CALLDATASIZE DUP4 CALLDATACOPY POP POP POP SWAP2 DUP3 MSTORE POP PUSH1 0x20 DUP2 ADD SWAP3 SWAP1 SWAP3 MSTORE POP SWAP1 JUMP JUMPDEST PUSH0 PUSH1 0xFF DUP3 AND PUSH1 0x1F DUP2 GT ISZERO PUSH2 0x50B JUMPI PUSH1 0x40 MLOAD PUSH4 0x2CD44AC3 PUSH1 0xE2 SHL DUP2 MSTORE PUSH1 0x4 ADD PUSH1 0x40 MLOAD DUP1 SWAP2 SUB SWAP1 REVERT JUMPDEST PUSH0 PUSH1 0x20 DUP3 DUP5 SUB SLT ISZERO PUSH2 0x1815 JUMPI PUSH0 DUP1 REVERT JUMPDEST DUP2 CALLDATALOAD PUSH1 0x1 PUSH1 0x1 PUSH1 0xE0 SHL SUB NOT DUP2 AND DUP2 EQ PUSH2 0x182C JUMPI PUSH0 DUP1 REVERT JUMPDEST SWAP4 SWAP3 POP POP POP JUMP JUMPDEST PUSH0 DUP2 MLOAD DUP1 DUP5 MSTORE DUP1 PUSH1 0x20 DUP5 ADD PUSH1 0x20 DUP7 ADD MCOPY PUSH0 PUSH1 0x20 DUP3 DUP7 ADD ADD MSTORE PUSH1 0x20 PUSH1 0x1F NOT PUSH1 0x1F DUP4 ADD AND DUP6 ADD ADD SWAP2 POP POP SWAP3 SWAP2 POP POP JUMP JUMPDEST PUSH1 0x20 DUP2 MSTORE PUSH0 PUSH2 0x182C PUSH1 0x20 DUP4 ADD DUP5 PUSH2 0x1833 JUMP JUMPDEST DUP1 CALLDATALOAD PUSH1 0x1 PUSH1 0x1 PUSH1 0xA0 SHL SUB DUP2 AND DUP2 EQ PUSH2 0x1889 JUMPI PUSH0 DUP1 REVERT JUMPDEST SWAP2 SWAP1 POP JUMP JUMPDEST PUSH0 DUP1 PUSH1 0x40 DUP4 DUP6 SUB SLT ISZERO PUSH2 0x189F JUMPI PUSH0 DUP1 REVERT JUMPDEST PUSH2 0x18A8 DUP4 PUSH2 0x1873 JUMP JUMPDEST SWAP5 PUSH1 0x20 SWAP4 SWAP1 SWAP4 ADD CALLDATALOAD SWAP4 POP POP POP JUMP JUMPDEST PUSH0 DUP1 PUSH0 PUSH1 0x60 DUP5 DUP7 SUB SLT ISZERO PUSH2 0x18C8 JUMPI PUSH0 DUP1 REVERT JUMPDEST PUSH2 0x18D1 DUP5 PUSH2 0x1873 JUMP JUMPDEST SWAP3 POP PUSH2 0x18DF PUSH1 0x20 DUP6 ADD PUSH2 0x1873 JUMP JUMPDEST SWAP3 SWAP6 SWAP3 SWAP5 POP POP POP PUSH1 0x40 SWAP2 SWAP1 SWAP2 ADD CALLDATALOAD SWAP1 JUMP JUMPDEST PUSH0 PUSH1 0x20 DUP3 DUP5 SUB SLT ISZERO PUSH2 0x1900 JUMPI PUSH0 DUP1 REVERT JUMPDEST POP CALLDATALOAD SWAP2 SWAP1 POP JUMP JUMPDEST PUSH0 DUP1 PUSH1 0x40 DUP4 DUP6 SUB SLT ISZERO PUSH2 0x1918 JUMPI PUSH0 DUP1 REVERT JUMPDEST DUP3 CALLDATALOAD SWAP2 POP PUSH2 0x1928 PUSH1 0x20 DUP5 ADD PUSH2 0x1873 JUMP JUMPDEST SWAP1 POP SWAP3 POP SWAP3 SWAP1 POP JUMP JUMPDEST PUSH0 PUSH1 0x20 DUP3 DUP5 SUB SLT ISZERO PUSH2 0x1941 JUMPI PUSH0 DUP1 REVERT JUMPDEST PUSH2 0x182C DUP3 PUSH2 0x1873 JUMP JUMPDEST PUSH1 0xFF PUSH1 0xF8 SHL DUP9 AND DUP2 MSTORE PUSH1 0xE0 PUSH1 0x20 DUP3 ADD MSTORE PUSH0 PUSH2 0x1968 PUSH1 0xE0 DUP4 ADD DUP10 PUSH2 0x1833 JUMP JUMPDEST DUP3 DUP2 SUB PUSH1 0x40 DUP5 ADD MSTORE PUSH2 0x197A DUP2 DUP10 PUSH2 0x1833 JUMP JUMPDEST PUSH1 0x60 DUP5 ADD DUP9 SWAP1 MSTORE PUSH1 0x1 PUSH1 0x1 PUSH1 0xA0 SHL SUB DUP8 AND PUSH1 0x80 DUP6 ADD MSTORE PUSH1 0xA0 DUP5 ADD DUP7 SWAP1 MSTORE DUP4 DUP2 SUB PUSH1 0xC0 DUP6 ADD MSTORE DUP5 MLOAD DUP1 DUP3 MSTORE PUSH1 0x20 DUP1 DUP8 ADD SWAP4 POP SWAP1 SWAP2 ADD SWAP1 PUSH0 JUMPDEST DUP2 DUP2 LT ISZERO PUSH2 0x19CF JUMPI DUP4 MLOAD DUP4 MSTORE PUSH1 0x20 SWAP4 DUP5 ADD SWAP4 SWAP1 SWAP3 ADD SWAP2 PUSH1 0x1 ADD PUSH2 0x19B1 JUMP JUMPDEST POP SWAP1 SWAP12 SWAP11 POP POP POP POP POP POP POP POP POP POP POP JUMP JUMPDEST PUSH0 DUP1 PUSH0 DUP1 PUSH0 DUP1 PUSH0 PUSH1 0xE0 DUP9 DUP11 SUB SLT ISZERO PUSH2 0x19F6 JUMPI PUSH0 DUP1 REVERT JUMPDEST PUSH2 0x19FF DUP9 PUSH2 0x1873 JUMP JUMPDEST SWAP7 POP PUSH2 0x1A0D PUSH1 0x20 DUP10 ADD PUSH2 0x1873 JUMP JUMPDEST SWAP6 POP PUSH1 0x40 DUP9 ADD CALLDATALOAD SWAP5 POP PUSH1 0x60 DUP9 ADD CALLDATALOAD SWAP4 POP PUSH1 0x80 DUP9 ADD CALLDATALOAD PUSH1 0xFF DUP2 AND DUP2 EQ PUSH2 0x1A30 JUMPI PUSH0 DUP1 REVERT JUMPDEST SWAP7 SWAP10 SWAP6 SWAP9 POP SWAP4 SWAP7 SWAP3 SWAP6 SWAP5 PUSH1 0xA0 DUP5 ADD CALLDATALOAD SWAP5 POP PUSH1 0xC0 SWAP1 SWAP4 ADD CALLDATALOAD SWAP3 SWAP2 POP POP JUMP JUMPDEST PUSH0 DUP1 PUSH1 0x40 DUP4 DUP6 SUB SLT ISZERO PUSH2 0x1A5E JUMPI PUSH0 DUP1 REVERT JUMPDEST PUSH2 0x1A67 DUP4 PUSH2 0x1873 JUMP JUMPDEST SWAP2 POP PUSH2 0x1928 PUSH1 0x20 DUP5 ADD PUSH2 0x1873 JUMP JUMPDEST PUSH1 0x1 DUP2 DUP2 SHR SWAP1 DUP3 AND DUP1 PUSH2 0x1A89 JUMPI PUSH1 0x7F DUP3 AND SWAP2 POP JUMPDEST PUSH1 0x20 DUP3 LT DUP2 SUB PUSH2 0x1AA7 JUMPI PUSH4 0x4E487B71 PUSH1 0xE0 SHL PUSH0 MSTORE PUSH1 0x22 PUSH1 0x4 MSTORE PUSH1 0x24 PUSH0 REVERT JUMPDEST POP SWAP2 SWAP1 POP JUMP JUMPDEST PUSH1 0x20 DUP1 DUP3 MSTORE PUSH1 0x17 SWAP1 DUP3 ADD MSTORE PUSH32 0x546F6B656E7320617265207374696C6C2066726F7A656E000000000000000000 PUSH1 0x40 DUP3 ADD MSTORE PUSH1 0x60 ADD SWAP1 JUMP JUMPDEST PUSH1 0x20 DUP1 DUP3 MSTORE PUSH1 0x36 SWAP1 DUP3 ADD MSTORE PUSH32 0x43616C6C6572206973206E6F7420616E20696E766573746F7220286E6F20746F PUSH1 0x40 DUP3 ADD MSTORE PUSH22 0x6B656E73206F72207374616B656420746F6B656E7329 PUSH1 0x50 SHL PUSH1 0x60 DUP3 ADD MSTORE PUSH1 0x80 ADD SWAP1 JUMP JUMPDEST PUSH4 0x4E487B71 PUSH1 0xE0 SHL PUSH0 MSTORE PUSH1 0x11 PUSH1 0x4 MSTORE PUSH1 0x24 PUSH0 REVERT JUMPDEST DUP2 DUP2 SUB DUP2 DUP2 GT ISZERO PUSH2 0x50B JUMPI PUSH2 0x50B PUSH2 0x1B3A JUMP JUMPDEST DUP1 DUP3 ADD DUP1 DUP3 GT ISZERO PUSH2 0x50B JUMPI PUSH2 0x50B PUSH2 0x1B3A JUMP JUMPDEST DUP1 DUP3 MUL DUP2 ISZERO DUP3 DUP3 DIV DUP5 EQ OR PUSH2 0x50B JUMPI PUSH2 0x50B PUSH2 0x1B3A JUMP JUMPDEST PUSH0 DUP3 PUSH2 0x1BA5 JUMPI PUSH4 0x4E487B71 PUSH1 0xE0 SHL PUSH0 MSTORE PUSH1 0x12 PUSH1 0x4 MSTORE PUSH1 0x24 PUSH0 REVERT JUMPDEST POP DIV SWAP1 JUMP JUMPDEST PUSH4 0x4E487B71 PUSH1 0xE0 SHL PUSH0 MSTORE PUSH1 0x21 PUSH1 0x4 MSTORE PUSH1 0x24 PUSH0 REVERT INVALID LOG2 PUSH5 0x6970667358 0x22 SLT KECCAK256 0xE3 OR DUP14 BALANCE LOG3 0x24 0xE7 0x1E LOG0 MOD PUSH14 0x34BC35731FAC1837ABB03A9E4F01 0xC7 SWAP6 LOG0 0xF6 SWAP14 SIGNEXTEND GT PUSH5 0x736F6C6343 STOP ADDMOD BYTE STOP CALLER "
		},
		"gasEstimates": {
			"creation": {
				"codeDepositCost": "1431200",
				"executionCost": "infinite",
				"totalCost": "infinite"
			},
			"external": {
				"DEFAULT_ADMIN_ROLE()": "326",
				"DOMAIN_SEPARATOR()": "infinite",
				"allowance(address,address)": "infinite",
				"approve(address,uint256)": "24810",
				"balanceOf(address)": "2595",
				"burn(uint256)": "50961",
				"burnFrom(address,uint256)": "infinite",
				"calculateRewards(address)": "infinite",
				"cooldownPeriod()": "2363",
				"decimals()": "244",
				"eip712Domain()": "infinite",
				"freezeReleaseTime()": "2383",
				"frozenTokens()": "2361",
				"getRoleAdmin(bytes32)": "2553",
				"grantRole(bytes32,address)": "infinite",
				"hasRole(bytes32,address)": "2740",
				"isFreezePeriodOver()": "2336",
				"name()": "infinite",
				"nonces(address)": "2658",
				"owner()": "2403",
				"permit(address,address,uint256,uint256,uint8,bytes32,bytes32)": "infinite",
				"renounceRole(bytes32,address)": "29136",
				"revokeRole(bytes32,address)": "infinite",
				"rewardsPaid()": "2427",
				"stake(uint256)": "infinite",
				"stakingAPR()": "2382",
				"stakingData(address)": "4765",
				"stakingPool()": "2340",
				"supportsInterface(bytes4)": "470",
				"symbol()": "infinite",
				"totalStaked()": "2406",
				"totalSupply()": "2359",
				"transfer(address,uint256)": "infinite",
				"transferFrom(address,address,uint256)": "infinite",
				"unfreezeTokens()": "65880",
				"unstake(uint256)": "infinite"
			}
		},
		"methodIdentifiers": {
			"DEFAULT_ADMIN_ROLE()": "a217fddf",
			"DOMAIN_SEPARATOR()": "3644e515",
			"allowance(address,address)": "dd62ed3e",
			"approve(address,uint256)": "095ea7b3",
			"balanceOf(address)": "70a08231",
			"burn(uint256)": "42966c68",
			"burnFrom(address,uint256)": "79cc6790",
			"calculateRewards(address)": "64ab8675",
			"cooldownPeriod()": "04646a49",
			"decimals()": "313ce567",
			"eip712Domain()": "84b0196e",
			"freezeReleaseTime()": "51500c3a",
			"frozenTokens()": "508d962b",
			"getRoleAdmin(bytes32)": "248a9ca3",
			"grantRole(bytes32,address)": "2f2ff15d",
			"hasRole(bytes32,address)": "91d14854",
			"isFreezePeriodOver()": "a327a281",
			"name()": "06fdde03",
			"nonces(address)": "7ecebe00",
			"owner()": "8da5cb5b",
			"permit(address,address,uint256,uint256,uint8,bytes32,bytes32)": "d505accf",
			"renounceRole(bytes32,address)": "36568abe",
			"revokeRole(bytes32,address)": "d547741f",
			"rewardsPaid()": "69d8d6d2",
			"stake(uint256)": "a694fc3a",
			"stakingAPR()": "eb7203fe",
			"stakingData(address)": "eca51139",
			"stakingPool()": "0c56ae3b",
			"supportsInterface(bytes4)": "01ffc9a7",
			"symbol()": "95d89b41",
			"totalStaked()": "817b1cd2",
			"totalSupply()": "18160ddd",
			"transfer(address,uint256)": "a9059cbb",
			"transferFrom(address,address,uint256)": "23b872dd",
			"unfreezeTokens()": "ffba376c",
			"unstake(uint256)": "2e17de78"
		}
	},
	"abi": [
		{
			"inputs": [
				{
					"internalType": "address",
					"name": "defaultAdmin",
					"type": "address"
				}
			],
			"stateMutability": "nonpayable",
			"type": "constructor"
		},
		{
			"inputs": [],
			"name": "AccessControlBadConfirmation",
			"type": "error"
		},
		{
			"inputs": [
				{
					"internalType": "address",
					"name": "account",
					"type": "address"
				},
				{
					"internalType": "bytes32",
					"name": "neededRole",
					"type": "bytes32"
				}
			],
			"name": "AccessControlUnauthorizedAccount",
			"type": "error"
		},
		{
			"inputs": [],
			"name": "ECDSAInvalidSignature",
			"type": "error"
		},
		{
			"inputs": [
				{
					"internalType": "uint256",
					"name": "length",
					"type": "uint256"
				}
			],
			"name": "ECDSAInvalidSignatureLength",
			"type": "error"
		},
		{
			"inputs": [
				{
					"internalType": "bytes32",
					"name": "s",
					"type": "bytes32"
				}
			],
			"name": "ECDSAInvalidSignatureS",
			"type": "error"
		},
		{
			"inputs": [
				{
					"internalType": "address",
					"name": "spender",
					"type": "address"
				},
				{
					"internalType": "uint256",
					"name": "allowance",
					"type": "uint256"
				},
				{
					"internalType": "uint256",
					"name": "needed",
					"type": "uint256"
				}
			],
			"name": "ERC20InsufficientAllowance",
			"type": "error"
		},
		{
			"inputs": [
				{
					"internalType": "address",
					"name": "sender",
					"type": "address"
				},
				{
					"internalType": "uint256",
					"name": "balance",
					"type": "uint256"
				},
				{
					"internalType": "uint256",
					"name": "needed",
					"type": "uint256"
				}
			],
			"name": "ERC20InsufficientBalance",
			"type": "error"
		},
		{
			"inputs": [
				{
					"internalType": "address",
					"name": "approver",
					"type": "address"
				}
			],
			"name": "ERC20InvalidApprover",
			"type": "error"
		},
		{
			"inputs": [
				{
					"internalType": "address",
					"name": "receiver",
					"type": "address"
				}
			],
			"name": "ERC20InvalidReceiver",
			"type": "error"
		},
		{
			"inputs": [
				{
					"internalType": "address",
					"name": "sender",
					"type": "address"
				}
			],
			"name": "ERC20InvalidSender",
			"type": "error"
		},
		{
			"inputs": [
				{
					"internalType": "address",
					"name": "spender",
					"type": "address"
				}
			],
			"name": "ERC20InvalidSpender",
			"type": "error"
		},
		{
			"inputs": [
				{
					"internalType": "uint256",
					"name": "deadline",
					"type": "uint256"
				}
			],
			"name": "ERC2612ExpiredSignature",
			"type": "error"
		},
		{
			"inputs": [
				{
					"internalType": "address",
					"name": "signer",
					"type": "address"
				},
				{
					"internalType": "address",
					"name": "owner",
					"type": "address"
				}
			],
			"name": "ERC2612InvalidSigner",
			"type": "error"
		},
		{
			"inputs": [
				{
					"internalType": "address",
					"name": "account",
					"type": "address"
				},
				{
					"internalType": "uint256",
					"name": "currentNonce",
					"type": "uint256"
				}
			],
			"name": "InvalidAccountNonce",
			"type": "error"
		},
		{
			"inputs": [],
			"name": "InvalidShortString",
			"type": "error"
		},
		{
			"inputs": [
				{
					"internalType": "address",
					"name": "token",
					"type": "address"
				}
			],
			"name": "SafeERC20FailedOperation",
			"type": "error"
		},
		{
			"inputs": [
				{
					"internalType": "string",
					"name": "str",
					"type": "string"
				}
			],
			"name": "StringTooLong",
			"type": "error"
		},
		{
			"anonymous": false,
			"inputs": [
				{
					"indexed": true,
					"internalType": "address",
					"name": "owner",
					"type": "address"
				},
				{
					"indexed": true,
					"internalType": "address",
					"name": "spender",
					"type": "address"
				},
				{
					"indexed": false,
					"internalType": "uint256",
					"name": "value",
					"type": "uint256"
				}
			],
			"name": "Approval",
			"type": "event"
		},
		{
			"anonymous": false,
			"inputs": [],
			"name": "EIP712DomainChanged",
			"type": "event"
		},
		{
			"anonymous": false,
			"inputs": [
				{
					"indexed": true,
					"internalType": "bytes32",
					"name": "role",
					"type": "bytes32"
				},
				{
					"indexed": true,
					"internalType": "bytes32",
					"name": "previousAdminRole",
					"type": "bytes32"
				},
				{
					"indexed": true,
					"internalType": "bytes32",
					"name": "newAdminRole",
					"type": "bytes32"
				}
			],
			"name": "RoleAdminChanged",
			"type": "event"
		},
		{
			"anonymous": false,
			"inputs": [
				{
					"indexed": true,
					"internalType": "bytes32",
					"name": "role",
					"type": "bytes32"
				},
				{
					"indexed": true,
					"internalType": "address",
					"name": "account",
					"type": "address"
				},
				{
					"indexed": true,
					"internalType": "address",
					"name": "sender",
					"type": "address"
				}
			],
			"name": "RoleGranted",
			"type": "event"
		},
		{
			"anonymous": false,
			"inputs": [
				{
					"indexed": true,
					"internalType": "bytes32",
					"name": "role",
					"type": "bytes32"
				},
				{
					"indexed": true,
					"internalType": "address",
					"name": "account",
					"type": "address"
				},
				{
					"indexed": true,
					"internalType": "address",
					"name": "sender",
					"type": "address"
				}
			],
			"name": "RoleRevoked",
			"type": "event"
		},
		{
			"anonymous": false,
			"inputs": [
				{
					"indexed": false,
					"internalType": "uint256",
					"name": "amount",
					"type": "uint256"
				}
			],
			"name": "TokensFrozen",
			"type": "event"
		},
		{
			"anonymous": false,
			"inputs": [
				{
					"indexed": true,
					"internalType": "address",
					"name": "user",
					"type": "address"
				},
				{
					"indexed": false,
					"internalType": "uint256",
					"name": "amount",
					"type": "uint256"
				}
			],
			"name": "TokensStaked",
			"type": "event"
		},
		{
			"anonymous": false,
			"inputs": [
				{
					"indexed": false,
					"internalType": "uint256",
					"name": "amount",
					"type": "uint256"
				}
			],
			"name": "TokensUnfrozen",
			"type": "event"
		},
		{
			"anonymous": false,
			"inputs": [
				{
					"indexed": true,
					"internalType": "address",
					"name": "user",
					"type": "address"
				},
				{
					"indexed": false,
					"internalType": "uint256",
					"name": "amount",
					"type": "uint256"
				},
				{
					"indexed": false,
					"internalType": "uint256",
					"name": "rewards",
					"type": "uint256"
				}
			],
			"name": "TokensUnstaked",
			"type": "event"
		},
		{
			"anonymous": false,
			"inputs": [
				{
					"indexed": true,
					"internalType": "address",
					"name": "from",
					"type": "address"
				},
				{
					"indexed": true,
					"internalType": "address",
					"name": "to",
					"type": "address"
				},
				{
					"indexed": false,
					"internalType": "uint256",
					"name": "value",
					"type": "uint256"
				}
			],
			"name": "Transfer",
			"type": "event"
		},
		{
			"anonymous": false,
			"inputs": [
				{
					"indexed": true,
					"internalType": "address",
					"name": "from",
					"type": "address"
				},
				{
					"indexed": true,
					"internalType": "address",
					"name": "to",
					"type": "address"
				},
				{
					"indexed": false,
					"internalType": "uint256",
					"name": "amount",
					"type": "uint256"
				}
			],
			"name": "TransferBlocked",
			"type": "event"
		},
		{
			"inputs": [],
			"name": "DEFAULT_ADMIN_ROLE",
			"outputs": [
				{
					"internalType": "bytes32",
					"name": "",
					"type": "bytes32"
				}
			],
			"stateMutability": "view",
			"type": "function"
		},
		{
			"inputs": [],
			"name": "DOMAIN_SEPARATOR",
			"outputs": [
				{
					"internalType": "bytes32",
					"name": "",
					"type": "bytes32"
				}
			],
			"stateMutability": "view",
			"type": "function"
		},
		{
			"inputs": [
				{
					"internalType": "address",
					"name": "owner",
					"type": "address"
				},
				{
					"internalType": "address",
					"name": "spender",
					"type": "address"
				}
			],
			"name": "allowance",
			"outputs": [
				{
					"internalType": "uint256",
					"name": "",
					"type": "uint256"
				}
			],
			"stateMutability": "view",
			"type": "function"
		},
		{
			"inputs": [
				{
					"internalType": "address",
					"name": "spender",
					"type": "address"
				},
				{
					"internalType": "uint256",
					"name": "value",
					"type": "uint256"
				}
			],
			"name": "approve",
			"outputs": [
				{
					"internalType": "bool",
					"name": "",
					"type": "bool"
				}
			],
			"stateMutability": "nonpayable",
			"type": "function"
		},
		{
			"inputs": [
				{
					"internalType": "address",
					"name": "account",
					"type": "address"
				}
			],
			"name": "balanceOf",
			"outputs": [
				{
					"internalType": "uint256",
					"name": "",
					"type": "uint256"
				}
			],
			"stateMutability": "view",
			"type": "function"
		},
		{
			"inputs": [
				{
					"internalType": "uint256",
					"name": "value",
					"type": "uint256"
				}
			],
			"name": "burn",
			"outputs": [],
			"stateMutability": "nonpayable",
			"type": "function"
		},
		{
			"inputs": [
				{
					"internalType": "address",
					"name": "account",
					"type": "address"
				},
				{
					"internalType": "uint256",
					"name": "value",
					"type": "uint256"
				}
			],
			"name": "burnFrom",
			"outputs": [],
			"stateMutability": "nonpayable",
			"type": "function"
		},
		{
			"inputs": [
				{
					"internalType": "address",
					"name": "user",
					"type": "address"
				}
			],
			"name": "calculateRewards",
			"outputs": [
				{
					"internalType": "uint256",
					"name": "rewards",
					"type": "uint256"
				}
			],
			"stateMutability": "view",
			"type": "function"
		},
		{
			"inputs": [],
			"name": "cooldownPeriod",
			"outputs": [
				{
					"internalType": "uint256",
					"name": "",
					"type": "uint256"
				}
			],
			"stateMutability": "view",
			"type": "function"
		},
		{
			"inputs": [],
			"name": "decimals",
			"outputs": [
				{
					"internalType": "uint8",
					"name": "",
					"type": "uint8"
				}
			],
			"stateMutability": "view",
			"type": "function"
		},
		{
			"inputs": [],
			"name": "eip712Domain",
			"outputs": [
				{
					"internalType": "bytes1",
					"name": "fields",
					"type": "bytes1"
				},
				{
					"internalType": "string",
					"name": "name",
					"type": "string"
				},
				{
					"internalType": "string",
					"name": "version",
					"type": "string"
				},
				{
					"internalType": "uint256",
					"name": "chainId",
					"type": "uint256"
				},
				{
					"internalType": "address",
					"name": "verifyingContract",
					"type": "address"
				},
				{
					"internalType": "bytes32",
					"name": "salt",
					"type": "bytes32"
				},
				{
					"internalType": "uint256[]",
					"name": "extensions",
					"type": "uint256[]"
				}
			],
			"stateMutability": "view",
			"type": "function"
		},
		{
			"inputs": [],
			"name": "freezeReleaseTime",
			"outputs": [
				{
					"internalType": "uint256",
					"name": "",
					"type": "uint256"
				}
			],
			"stateMutability": "view",
			"type": "function"
		},
		{
			"inputs": [],
			"name": "frozenTokens",
			"outputs": [
				{
					"internalType": "uint256",
					"name": "",
					"type": "uint256"
				}
			],
			"stateMutability": "view",
			"type": "function"
		},
		{
			"inputs": [
				{
					"internalType": "bytes32",
					"name": "role",
					"type": "bytes32"
				}
			],
			"name": "getRoleAdmin",
			"outputs": [
				{
					"internalType": "bytes32",
					"name": "",
					"type": "bytes32"
				}
			],
			"stateMutability": "view",
			"type": "function"
		},
		{
			"inputs": [
				{
					"internalType": "bytes32",
					"name": "role",
					"type": "bytes32"
				},
				{
					"internalType": "address",
					"name": "account",
					"type": "address"
				}
			],
			"name": "grantRole",
			"outputs": [],
			"stateMutability": "nonpayable",
			"type": "function"
		},
		{
			"inputs": [
				{
					"internalType": "bytes32",
					"name": "role",
					"type": "bytes32"
				},
				{
					"internalType": "address",
					"name": "account",
					"type": "address"
				}
			],
			"name": "hasRole",
			"outputs": [
				{
					"internalType": "bool",
					"name": "",
					"type": "bool"
				}
			],
			"stateMutability": "view",
			"type": "function"
		},
		{
			"inputs": [],
			"name": "isFreezePeriodOver",
			"outputs": [
				{
					"internalType": "bool",
					"name": "",
					"type": "bool"
				}
			],
			"stateMutability": "view",
			"type": "function"
		},
		{
			"inputs": [],
			"name": "name",
			"outputs": [
				{
					"internalType": "string",
					"name": "",
					"type": "string"
				}
			],
			"stateMutability": "view",
			"type": "function"
		},
		{
			"inputs": [
				{
					"internalType": "address",
					"name": "owner",
					"type": "address"
				}
			],
			"name": "nonces",
			"outputs": [
				{
					"internalType": "uint256",
					"name": "",
					"type": "uint256"
				}
			],
			"stateMutability": "view",
			"type": "function"
		},
		{
			"inputs": [],
			"name": "owner",
			"outputs": [
				{
					"internalType": "address",
					"name": "",
					"type": "address"
				}
			],
			"stateMutability": "view",
			"type": "function"
		},
		{
			"inputs": [
				{
					"internalType": "address",
					"name": "owner",
					"type": "address"
				},
				{
					"internalType": "address",
					"name": "spender",
					"type": "address"
				},
				{
					"internalType": "uint256",
					"name": "value",
					"type": "uint256"
				},
				{
					"internalType": "uint256",
					"name": "deadline",
					"type": "uint256"
				},
				{
					"internalType": "uint8",
					"name": "v",
					"type": "uint8"
				},
				{
					"internalType": "bytes32",
					"name": "r",
					"type": "bytes32"
				},
				{
					"internalType": "bytes32",
					"name": "s",
					"type": "bytes32"
				}
			],
			"name": "permit",
			"outputs": [],
			"stateMutability": "nonpayable",
			"type": "function"
		},
		{
			"inputs": [
				{
					"internalType": "bytes32",
					"name": "role",
					"type": "bytes32"
				},
				{
					"internalType": "address",
					"name": "callerConfirmation",
					"type": "address"
				}
			],
			"name": "renounceRole",
			"outputs": [],
			"stateMutability": "nonpayable",
			"type": "function"
		},
		{
			"inputs": [
				{
					"internalType": "bytes32",
					"name": "role",
					"type": "bytes32"
				},
				{
					"internalType": "address",
					"name": "account",
					"type": "address"
				}
			],
			"name": "revokeRole",
			"outputs": [],
			"stateMutability": "nonpayable",
			"type": "function"
		},
		{
			"inputs": [],
			"name": "rewardsPaid",
			"outputs": [
				{
					"internalType": "uint256",
					"name": "",
					"type": "uint256"
				}
			],
			"stateMutability": "view",
			"type": "function"
		},
		{
			"inputs": [
				{
					"internalType": "uint256",
					"name": "amount",
					"type": "uint256"
				}
			],
			"name": "stake",
			"outputs": [],
			"stateMutability": "nonpayable",
			"type": "function"
		},
		{
			"inputs": [],
			"name": "stakingAPR",
			"outputs": [
				{
					"internalType": "uint256",
					"name": "",
					"type": "uint256"
				}
			],
			"stateMutability": "view",
			"type": "function"
		},
		{
			"inputs": [
				{
					"internalType": "address",
					"name": "user",
					"type": "address"
				}
			],
			"name": "stakingData",
			"outputs": [
				{
					"internalType": "uint256",
					"name": "balance",
					"type": "uint256"
				},
				{
					"internalType": "uint256",
					"name": "lastStakingTime",
					"type": "uint256"
				}
			],
			"stateMutability": "view",
			"type": "function"
		},
		{
			"inputs": [],
			"name": "stakingPool",
			"outputs": [
				{
					"internalType": "uint256",
					"name": "",
					"type": "uint256"
				}
			],
			"stateMutability": "view",
			"type": "function"
		},
		{
			"inputs": [
				{
					"internalType": "bytes4",
					"name": "interfaceId",
					"type": "bytes4"
				}
			],
			"name": "supportsInterface",
			"outputs": [
				{
					"internalType": "bool",
					"name": "",
					"type": "bool"
				}
			],
			"stateMutability": "view",
			"type": "function"
		},
		{
			"inputs": [],
			"name": "symbol",
			"outputs": [
				{
					"internalType": "string",
					"name": "",
					"type": "string"
				}
			],
			"stateMutability": "view",
			"type": "function"
		},
		{
			"inputs": [],
			"name": "totalStaked",
			"outputs": [
				{
					"internalType": "uint256",
					"name": "",
					"type": "uint256"
				}
			],
			"stateMutability": "view",
			"type": "function"
		},
		{
			"inputs": [],
			"name": "totalSupply",
			"outputs": [
				{
					"internalType": "uint256",
					"name": "",
					"type": "uint256"
				}
			],
			"stateMutability": "view",
			"type": "function"
		},
		{
			"inputs": [
				{
					"internalType": "address",
					"name": "recipient",
					"type": "address"
				},
				{
					"internalType": "uint256",
					"name": "amount",
					"type": "uint256"
				}
			],
			"name": "transfer",
			"outputs": [
				{
					"internalType": "bool",
					"name": "",
					"type": "bool"
				}
			],
			"stateMutability": "nonpayable",
			"type": "function"
		},
		{
			"inputs": [
				{
					"internalType": "address",
					"name": "sender",
					"type": "address"
				},
				{
					"internalType": "address",
					"name": "recipient",
					"type": "address"
				},
				{
					"internalType": "uint256",
					"name": "amount",
					"type": "uint256"
				}
			],
			"name": "transferFrom",
			"outputs": [
				{
					"internalType": "bool",
					"name": "",
					"type": "bool"
				}
			],
			"stateMutability": "nonpayable",
			"type": "function"
		},
		{
			"inputs": [],
			"name": "unfreezeTokens",
			"outputs": [],
			"stateMutability": "nonpayable",
			"type": "function"
		},
		{
			"inputs": [
				{
					"internalType": "uint256",
					"name": "amount",
					"type": "uint256"
				}
			],
			"name": "unstake",
			"outputs": [],
			"stateMutability": "nonpayable",
			"type": "function"
		}
	]
}