{
	"data": {
		"bytecode": {
			"linkReferences": {},
			"object": "610160604052601e600d55601e600e55603c601055601e6012555f601355348015610028575f80fd5b5060405161228a38038061228a83398101604081905261004791610516565b6040518060400160405280600a8152602001692330ba21b0ba21b7b4b760b11b81525080604051806040016040528060018152602001603160f81b8152506040518060400160405280600a8152602001692330ba21b0ba21b7b4b760b11b8152506040518060400160405280600381526020016211905560ea1b81525081600390816100d391906105da565b5060046100e082826105da565b506100f091508390506005610237565b610120526100ff816006610237565b61014052815160208084019190912060e052815190820120610100524660a05261018b60e05161010051604080517f8b73c3c69bb8fe3d512ecc4cf759cc79239f7b179b0ffacaa9a75d522b39400f60208201529081019290925260608201524660808201523060a08201525f9060c00160405160208183030381529060405280519060200120905090565b60805250503060c052505f6101a26012600a61078b565b6101b090633b9aca00610799565b90506101bc3382610269565b6101c65f836102a6565b505f6101d3600a836107b0565b600981905590506101e542603c6107cf565b600a556101f3333083610351565b5f606461020184601e610799565b61020b91906107b0565b600b819055905061021d333083610351565b60125461022a90426107cf565b6011555061083a92505050565b5f6020835110156102525761024b836103b3565b9050610263565b8161025d84826105da565b5060ff90505b92915050565b6001600160a01b0382166102975760405163ec442f0560e01b81525f60048201526024015b60405180910390fd5b6102a25f83836103f0565b5050565b5f8281526008602090815260408083206001600160a01b038516845290915281205460ff1661034a575f8381526008602090815260408083206001600160a01b03861684529091529020805460ff191660011790556103023390565b6001600160a01b0316826001600160a01b0316847f2f8788117e7eff1d82e926ec794901d17c78024a50270940304540a733656f0d60405160405180910390a4506001610263565b505f610263565b6001600160a01b03831661037a57604051634b637e8f60e11b81525f600482015260240161028e565b6001600160a01b0382166103a35760405163ec442f0560e01b81525f600482015260240161028e565b6103ae8383836103f0565b505050565b5f80829050601f815111156103dd578260405163305a27a960e01b815260040161028e91906107e2565b80516103e882610817565b179392505050565b6001600160a01b03831661041a578060025f82825461040f91906107cf565b9091555061048a9050565b6001600160a01b0383165f908152602081905260409020548181101561046c5760405163391434e360e21b81526001600160a01b0385166004820152602481018290526044810183905260640161028e565b6001600160a01b0384165f9081526020819052604090209082900390555b6001600160a01b0382166104a6576002805482900390556104c4565b6001600160a01b0382165f9081526020819052604090208054820190555b816001600160a01b0316836001600160a01b03167fddf252ad1be2c89b69c2b068fc378daa952ba7f163c4a11628f55a4df523b3ef8360405161050991815260200190565b60405180910390a3505050565b5f60208284031215610526575f80fd5b81516001600160a01b038116811461053c575f80fd5b9392505050565b634e487b7160e01b5f52604160045260245ffd5b600181811c9082168061056b57607f821691505b60208210810361058957634e487b7160e01b5f52602260045260245ffd5b50919050565b601f8211156103ae57805f5260205f20601f840160051c810160208510156105b45750805b601f840160051c820191505b818110156105d3575f81556001016105c0565b5050505050565b81516001600160401b038111156105f3576105f3610543565b610607816106018454610557565b8461058f565b6020601f821160018114610639575f83156106225750848201515b5f19600385901b1c1916600184901b1784556105d3565b5f84815260208120601f198516915b828110156106685787850151825560209485019460019092019101610648565b508482101561068557868401515f19600387901b60f8161c191681555b50505050600190811b01905550565b634e487b7160e01b5f52601160045260245ffd5b6001815b60018411156106e3578085048111156106c7576106c7610694565b60018416156106d557908102905b60019390931c9280026106ac565b935093915050565b5f826106f957506001610263565b8161070557505f610263565b816001811461071b576002811461072557610741565b6001915050610263565b60ff84111561073657610736610694565b50506001821b610263565b5060208310610133831016604e8410600b8410161715610764575081810a610263565b6107705f1984846106a8565b805f190482111561078357610783610694565b029392505050565b5f61053c60ff8416836106eb565b808202811582820484141761026357610263610694565b5f826107ca57634e487b7160e01b5f52601260045260245ffd5b500490565b8082018082111561026357610263610694565b602081525f82518060208401528060208501604085015e5f604082850101526040601f19601f83011684010191505092915050565b80516020808301519190811015610589575f1960209190910360031b1b16919050565b60805160a05160c05160e0516101005161012051610140516119ff61088b5f395f6110f401525f6110c701525f610f5c01525f610f3401525f610e8f01525f610eb901525f610ee301526119ff5ff3fe608060405234801561000f575f80fd5b506004361061024a575f3560e01c806364ab86751161014057806395d89b41116100bf578063cf26eca411610084578063cf26eca4146104b4578063d505accf146104bd578063d547741f146104d0578063dd62ed3e146104e3578063df3134571461051b578063ffba376c14610524575f80fd5b806395d89b4114610474578063a217fddf1461047c578063a327a28114610483578063a694fc3a1461048e578063a9059cbb146104a1575f80fd5b8063817b1cd211610105578063817b1cd21461041657806381ad8cd81461041f57806384b0196e1461042757806391d1485414610442578063937b983b14610455575f80fd5b806364ab8675146103ac57806369d8d6d2146103bf57806370a08231146103c857806379cc6790146103f05780637ecebe0014610403575f80fd5b80632e17de78116101cc57806342966c681161019157806342966c6814610375578063508d962b1461038857806351500c3a1461039157806358ac0e801461039a57806360577981146103a3575f80fd5b80632e17de78146103235780632f2ff15d14610338578063313ce5671461034b5780633644e5151461035a57806336568abe14610362575f80fd5b80630c56ae3b116102125780630c56ae3b146102be5780631460fa87146102c757806318160ddd146102e657806323b872dd146102ee578063248a9ca314610301575f80fd5b806301ffc9a71461024e57806304646a491461027657806306fdde031461028d578063085cde2d146102a2578063095ea7b3146102ab575b5f80fd5b61026161025c36600461163d565b61052c565b60405190151581526020015b60405180910390f35b61027f60105481565b60405190815260200161026d565b610295610562565b60405161026d9190611692565b61027f60125481565b6102616102b93660046116bf565b6105f2565b61027f600b5481565b61027f6102d53660046116e7565b60146020525f908152604090205481565b60025461027f565b6102616102fc366004611700565b610609565b61027f61030f36600461173a565b5f9081526008602052604090206001015490565b61033661033136600461173a565b610660565b005b610336610346366004611751565b6107d3565b6040516012815260200161026d565b61027f6107fd565b610336610370366004611751565b61080b565b61033661038336600461173a565b610843565b61027f60095481565b61027f600a5481565b61027f600d5481565b61027f600e5481565b61027f6103ba3660046116e7565b610850565b61027f600f5481565b61027f6103d63660046116e7565b6001600160a01b03165f9081526020819052604090205490565b6103366103fe3660046116bf565b6108c2565b61027f6104113660046116e7565b6108db565b61027f600c5481565b6103366108f8565b61042f610961565b60405161026d979695949392919061177b565b610261610450366004611751565b6109a3565b61027f6104633660046116e7565b60156020525f908152604090205481565b6102956109cd565b61027f5f81565b600a54421015610261565b61033661049c36600461173a565b6109dc565b6102616104af3660046116bf565b610ae3565b61027f60115481565b6103366104cb366004611811565b610b2f565b6103366104de366004611751565b610c65565b61027f6104f136600461187e565b6001600160a01b039182165f90815260016020908152604080832093909416825291909152205490565b61027f60135481565b610336610c89565b5f6001600160e01b03198216637965db0b60e01b148061055c57506301ffc9a760e01b6001600160e01b03198316145b92915050565b606060038054610571906118a6565b80601f016020809104026020016040519081016040528092919081815260200182805461059d906118a6565b80156105e85780601f106105bf576101008083540402835291602001916105e8565b820191905f5260205f20905b8154815290600101906020018083116105cb57829003601f168201915b5050505050905090565b5f336105ff818585610d5b565b5060019392505050565b600954305f9081526020819052604081205490911161064d57600a5442101561064d5760405162461bcd60e51b8152600401610644906118de565b60405180910390fd5b610658848484610d68565b949350505050565b335f908152601460205260409020548111156106be5760405162461bcd60e51b815260206004820152601b60248201527f496e73756666696369656e74207374616b65642062616c616e636500000000006044820152606401610644565b601054335f908152601560205260409020546106da9190611941565b4210156107295760405162461bcd60e51b815260206004820152601a60248201527f436f6f6c646f776e20706572696f64206e6f74207061737365640000000000006044820152606401610644565b6107316108f8565b5f61073b33610850565b335f9081526014602052604081208054929350849290919061075e908490611954565b9250508190555081600c5f8282546107769190611954565b9250508190555080600b5f82825461078e9190611954565b9250508190555080600f5f8282546107a69190611941565b909155506107c0905030336107bb8486611941565b610d8b565b5050335f90815260156020526040812055565b5f828152600860205260409020600101546107ed81610de8565b6107f78383610df2565b50505050565b5f610806610e83565b905090565b6001600160a01b03811633146108345760405163334bd91960e11b815260040160405180910390fd5b61083e8282610fac565b505050565b61084d3382611017565b50565b6001600160a01b0381165f908152601460209081526040808320546015909252822054829061087f9042611954565b90505f6064600e54846108929190611967565b61089c919061197e565b90505f6301e133806108ae8484611967565b6108b8919061197e565b9695505050505050565b6108cd82338361104b565b6108d78282611017565b5050565b6001600160a01b0381165f9081526007602052604081205461055c565b601154421061095f57600b6013541015610943576064600e54606e61091d9190611967565b610927919061197e565b600e5560138054905f6109398361199d565b919050555061094e565b600d54600e555f6013555b60125461095b9042611941565b6011555b565b5f6060805f805f60606109726110c0565b61097a6110ed565b604080515f80825260208201909252600f60f81b9b939a50919850469750309650945092509050565b5f9182526008602090815260408084206001600160a01b0393909316845291905290205460ff1690565b606060048054610571906118a6565b5f8111610a2b5760405162461bcd60e51b815260206004820152601d60248201527f416d6f756e74206d7573742062652067726561746572207468616e20300000006044820152606401610644565b335f90815260208190526040902054811115610a895760405162461bcd60e51b815260206004820152601d60248201527f496e73756666696369656e742062616c616e636520746f207374616b650000006044820152606401610644565b610a94333083610d8b565b335f9081526014602052604081208054839290610ab2908490611941565b9250508190555080600c5f828254610aca9190611941565b9091555050335f90815260156020526040902042905550565b600954305f90815260208190526040812054909111610b1e57600a54421015610b1e5760405162461bcd60e51b8152600401610644906118de565b610b28838361111a565b9392505050565b83421115610b535760405163313c898160e11b815260048101859052602401610644565b5f7f6e71edae12b1b97f4d1f60370fef10105fa2faae0126114a169c64845d6126c9888888610b9e8c6001600160a01b03165f90815260076020526040902080546001810190915590565b6040805160208101969096526001600160a01b0394851690860152929091166060840152608083015260a082015260c0810186905260e0016040516020818303038152906040528051906020012090505f610bf882611127565b90505f610c0782878787611153565b9050896001600160a01b0316816001600160a01b031614610c4e576040516325c0072360e11b81526001600160a01b0380831660048301528b166024820152604401610644565b610c598a8a8a610d5b565b50505050505050505050565b5f82815260086020526040902060010154610c7f81610de8565b6107f78383610fac565b610c935f336109a3565b610cea5760405162461bcd60e51b815260206004820152602260248201527f4f6e6c79207468652061646d696e2063616e20756e667265657a6520746f6b656044820152616e7360f01b6064820152608401610644565b600a54421015610d485760405162461bcd60e51b815260206004820152602360248201527f54686520667265657a6520706572696f6420686173206e6f742079657420656e60448201526219195960ea1b6064820152608401610644565b600980545f90915561084d303383610d8b565b61083e838383600161117f565b5f33610d7585828561104b565b610d80858585610d8b565b506001949350505050565b6001600160a01b038316610db457604051634b637e8f60e11b81525f6004820152602401610644565b6001600160a01b038216610ddd5760405163ec442f0560e01b81525f6004820152602401610644565b61083e838383611251565b61084d8133611377565b5f610dfd83836109a3565b610e7c575f8381526008602090815260408083206001600160a01b03861684529091529020805460ff19166001179055610e343390565b6001600160a01b0316826001600160a01b0316847f2f8788117e7eff1d82e926ec794901d17c78024a50270940304540a733656f0d60405160405180910390a450600161055c565b505f61055c565b5f306001600160a01b037f000000000000000000000000000000000000000000000000000000000000000016148015610edb57507f000000000000000000000000000000000000000000000000000000000000000046145b15610f0557507f000000000000000000000000000000000000000000000000000000000000000090565b610806604080517f8b73c3c69bb8fe3d512ecc4cf759cc79239f7b179b0ffacaa9a75d522b39400f60208201527f0000000000000000000000000000000000000000000000000000000000000000918101919091527f000000000000000000000000000000000000000000000000000000000000000060608201524660808201523060a08201525f9060c00160405160208183030381529060405280519060200120905090565b5f610fb783836109a3565b15610e7c575f8381526008602090815260408083206001600160a01b0386168085529252808320805460ff1916905551339286917ff6391f5c32d9c69d2a47ea670b442974b53935d1edc7fd64eb21e047a839171b9190a450600161055c565b6001600160a01b03821661104057604051634b637e8f60e11b81525f6004820152602401610644565b6108d7825f83611251565b6001600160a01b038381165f908152600160209081526040808320938616835292905220545f1981146107f757818110156110b257604051637dc7a0d960e11b81526001600160a01b03841660048201526024810182905260448101839052606401610644565b6107f784848484035f61117f565b60606108067f000000000000000000000000000000000000000000000000000000000000000060056113b0565b60606108067f000000000000000000000000000000000000000000000000000000000000000060066113b0565b5f336105ff818585610d8b565b5f61055c611133610e83565b8360405161190160f01b8152600281019290925260228201526042902090565b5f805f8061116388888888611459565b9250925092506111738282611521565b50909695505050505050565b6001600160a01b0384166111a85760405163e602df0560e01b81525f6004820152602401610644565b6001600160a01b0383166111d157604051634a1406b160e11b81525f6004820152602401610644565b6001600160a01b038085165f90815260016020908152604080832093871683529290522082905580156107f757826001600160a01b0316846001600160a01b03167f8c5be1e5ebec7d5bd14f71427d1e84f3dd0314c0f7b2291e5b200ac8c7c3b9258460405161124391815260200190565b60405180910390a350505050565b6001600160a01b03831661127b578060025f8282546112709190611941565b909155506112eb9050565b6001600160a01b0383165f90815260208190526040902054818110156112cd5760405163391434e360e21b81526001600160a01b03851660048201526024810182905260448101839052606401610644565b6001600160a01b0384165f9081526020819052604090209082900390555b6001600160a01b03821661130757600280548290039055611325565b6001600160a01b0382165f9081526020819052604090208054820190555b816001600160a01b0316836001600160a01b03167fddf252ad1be2c89b69c2b068fc378daa952ba7f163c4a11628f55a4df523b3ef8360405161136a91815260200190565b60405180910390a3505050565b61138182826109a3565b6108d75760405163e2517d3f60e01b81526001600160a01b038216600482015260248101839052604401610644565b606060ff83146113ca576113c3836115d9565b905061055c565b8180546113d6906118a6565b80601f0160208091040260200160405190810160405280929190818152602001828054611402906118a6565b801561144d5780601f106114245761010080835404028352916020019161144d565b820191905f5260205f20905b81548152906001019060200180831161143057829003601f168201915b5050505050905061055c565b5f80807f7fffffffffffffffffffffffffffffff5d576e7357a4501ddfe92f46681b20a084111561149257505f91506003905082611517565b604080515f808252602082018084528a905260ff891692820192909252606081018790526080810186905260019060a0016020604051602081039080840390855afa1580156114e3573d5f803e3d5ffd5b5050604051601f1901519150506001600160a01b03811661150e57505f925060019150829050611517565b92505f91508190505b9450945094915050565b5f826003811115611534576115346119b5565b0361153d575050565b6001826003811115611551576115516119b5565b0361156f5760405163f645eedf60e01b815260040160405180910390fd5b6002826003811115611583576115836119b5565b036115a45760405163fce698f760e01b815260048101829052602401610644565b60038260038111156115b8576115b86119b5565b036108d7576040516335e2f38360e21b815260048101829052602401610644565b60605f6115e583611616565b6040805160208082528183019092529192505f91906020820181803683375050509182525060208101929092525090565b5f60ff8216601f81111561055c57604051632cd44ac360e21b815260040160405180910390fd5b5f6020828403121561164d575f80fd5b81356001600160e01b031981168114610b28575f80fd5b5f81518084528060208401602086015e5f602082860101526020601f19601f83011685010191505092915050565b602081525f610b286020830184611664565b80356001600160a01b03811681146116ba575f80fd5b919050565b5f80604083850312156116d0575f80fd5b6116d9836116a4565b946020939093013593505050565b5f602082840312156116f7575f80fd5b610b28826116a4565b5f805f60608486031215611712575f80fd5b61171b846116a4565b9250611729602085016116a4565b929592945050506040919091013590565b5f6020828403121561174a575f80fd5b5035919050565b5f8060408385031215611762575f80fd5b82359150611772602084016116a4565b90509250929050565b60ff60f81b8816815260e060208201525f61179960e0830189611664565b82810360408401526117ab8189611664565b606084018890526001600160a01b038716608085015260a0840186905283810360c0850152845180825260208087019350909101905f5b818110156118005783518352602093840193909201916001016117e2565b50909b9a5050505050505050505050565b5f805f805f805f60e0888a031215611827575f80fd5b611830886116a4565b965061183e602089016116a4565b95506040880135945060608801359350608088013560ff81168114611861575f80fd5b9699959850939692959460a0840135945060c09093013592915050565b5f806040838503121561188f575f80fd5b611898836116a4565b9150611772602084016116a4565b600181811c908216806118ba57607f821691505b6020821081036118d857634e487b7160e01b5f52602260045260245ffd5b50919050565b6020808252602f908201527f546f6b656e73206172652066726f7a656e20616e642063616e6e6f742062652060408201526e1d1c985b9cd9995c9c9959081e595d608a1b606082015260800190565b634e487b7160e01b5f52601160045260245ffd5b8082018082111561055c5761055c61192d565b8181038181111561055c5761055c61192d565b808202811582820484141761055c5761055c61192d565b5f8261199857634e487b7160e01b5f52601260045260245ffd5b500490565b5f600182016119ae576119ae61192d565b5060010190565b634e487b7160e01b5f52602160045260245ffdfea2646970667358221220ef1d8c3bc4b44c58393b0973b13c1b62cc0ba4092a4f1fdcea527256f278d6c164736f6c634300081a0033",
			"opcodes": "PUSH2 0x160 PUSH1 0x40 MSTORE PUSH1 0x1E PUSH1 0xD SSTORE PUSH1 0x1E PUSH1 0xE SSTORE PUSH1 0x3C PUSH1 0x10 SSTORE PUSH1 0x1E PUSH1 0x12 SSTORE PUSH0 PUSH1 0x13 SSTORE CALLVALUE DUP1 ISZERO PUSH2 0x28 JUMPI PUSH0 DUP1 REVERT JUMPDEST POP PUSH1 0x40 MLOAD PUSH2 0x228A CODESIZE SUB DUP1 PUSH2 0x228A DUP4 CODECOPY DUP2 ADD PUSH1 0x40 DUP2 SWAP1 MSTORE PUSH2 0x47 SWAP2 PUSH2 0x516 JUMP JUMPDEST PUSH1 0x40 MLOAD DUP1 PUSH1 0x40 ADD PUSH1 0x40 MSTORE DUP1 PUSH1 0xA DUP2 MSTORE PUSH1 0x20 ADD PUSH10 0x2330BA21B0BA21B7B4B7 PUSH1 0xB1 SHL DUP2 MSTORE POP DUP1 PUSH1 0x40 MLOAD DUP1 PUSH1 0x40 ADD PUSH1 0x40 MSTORE DUP1 PUSH1 0x1 DUP2 MSTORE PUSH1 0x20 ADD PUSH1 0x31 PUSH1 0xF8 SHL DUP2 MSTORE POP PUSH1 0x40 MLOAD DUP1 PUSH1 0x40 ADD PUSH1 0x40 MSTORE DUP1 PUSH1 0xA DUP2 MSTORE PUSH1 0x20 ADD PUSH10 0x2330BA21B0BA21B7B4B7 PUSH1 0xB1 SHL DUP2 MSTORE POP PUSH1 0x40 MLOAD DUP1 PUSH1 0x40 ADD PUSH1 0x40 MSTORE DUP1 PUSH1 0x3 DUP2 MSTORE PUSH1 0x20 ADD PUSH3 0x119055 PUSH1 0xEA SHL DUP2 MSTORE POP DUP2 PUSH1 0x3 SWAP1 DUP2 PUSH2 0xD3 SWAP2 SWAP1 PUSH2 0x5DA JUMP JUMPDEST POP PUSH1 0x4 PUSH2 0xE0 DUP3 DUP3 PUSH2 0x5DA JUMP JUMPDEST POP PUSH2 0xF0 SWAP2 POP DUP4 SWAP1 POP PUSH1 0x5 PUSH2 0x237 JUMP JUMPDEST PUSH2 0x120 MSTORE PUSH2 0xFF DUP2 PUSH1 0x6 PUSH2 0x237 JUMP JUMPDEST PUSH2 0x140 MSTORE DUP2 MLOAD PUSH1 0x20 DUP1 DUP5 ADD SWAP2 SWAP1 SWAP2 KECCAK256 PUSH1 0xE0 MSTORE DUP2 MLOAD SWAP1 DUP3 ADD KECCAK256 PUSH2 0x100 MSTORE CHAINID PUSH1 0xA0 MSTORE PUSH2 0x18B PUSH1 0xE0 MLOAD PUSH2 0x100 MLOAD PUSH1 0x40 DUP1 MLOAD PUSH32 0x8B73C3C69BB8FE3D512ECC4CF759CC79239F7B179B0FFACAA9A75D522B39400F PUSH1 0x20 DUP3 ADD MSTORE SWAP1 DUP2 ADD SWAP3 SWAP1 SWAP3 MSTORE PUSH1 0x60 DUP3 ADD MSTORE CHAINID PUSH1 0x80 DUP3 ADD MSTORE ADDRESS PUSH1 0xA0 DUP3 ADD MSTORE PUSH0 SWAP1 PUSH1 0xC0 ADD PUSH1 0x40 MLOAD PUSH1 0x20 DUP2 DUP4 SUB SUB DUP2 MSTORE SWAP1 PUSH1 0x40 MSTORE DUP1 MLOAD SWAP1 PUSH1 0x20 ADD KECCAK256 SWAP1 POP SWAP1 JUMP JUMPDEST PUSH1 0x80 MSTORE POP POP ADDRESS PUSH1 0xC0 MSTORE POP PUSH0 PUSH2 0x1A2 PUSH1 0x12 PUSH1 0xA PUSH2 0x78B JUMP JUMPDEST PUSH2 0x1B0 SWAP1 PUSH4 0x3B9ACA00 PUSH2 0x799 JUMP JUMPDEST SWAP1 POP PUSH2 0x1BC CALLER DUP3 PUSH2 0x269 JUMP JUMPDEST PUSH2 0x1C6 PUSH0 DUP4 PUSH2 0x2A6 JUMP JUMPDEST POP PUSH0 PUSH2 0x1D3 PUSH1 0xA DUP4 PUSH2 0x7B0 JUMP JUMPDEST PUSH1 0x9 DUP2 SWAP1 SSTORE SWAP1 POP PUSH2 0x1E5 TIMESTAMP PUSH1 0x3C PUSH2 0x7CF JUMP JUMPDEST PUSH1 0xA SSTORE PUSH2 0x1F3 CALLER ADDRESS DUP4 PUSH2 0x351 JUMP JUMPDEST PUSH0 PUSH1 0x64 PUSH2 0x201 DUP5 PUSH1 0x1E PUSH2 0x799 JUMP JUMPDEST PUSH2 0x20B SWAP2 SWAP1 PUSH2 0x7B0 JUMP JUMPDEST PUSH1 0xB DUP2 SWAP1 SSTORE SWAP1 POP PUSH2 0x21D CALLER ADDRESS DUP4 PUSH2 0x351 JUMP JUMPDEST PUSH1 0x12 SLOAD PUSH2 0x22A SWAP1 TIMESTAMP PUSH2 0x7CF JUMP JUMPDEST PUSH1 0x11 SSTORE POP PUSH2 0x83A SWAP3 POP POP POP JUMP JUMPDEST PUSH0 PUSH1 0x20 DUP4 MLOAD LT ISZERO PUSH2 0x252 JUMPI PUSH2 0x24B DUP4 PUSH2 0x3B3 JUMP JUMPDEST SWAP1 POP PUSH2 0x263 JUMP JUMPDEST DUP2 PUSH2 0x25D DUP5 DUP3 PUSH2 0x5DA JUMP JUMPDEST POP PUSH1 0xFF SWAP1 POP JUMPDEST SWAP3 SWAP2 POP POP JUMP JUMPDEST PUSH1 0x1 PUSH1 0x1 PUSH1 0xA0 SHL SUB DUP3 AND PUSH2 0x297 JUMPI PUSH1 0x40 MLOAD PUSH4 0xEC442F05 PUSH1 0xE0 SHL DUP2 MSTORE PUSH0 PUSH1 0x4 DUP3 ADD MSTORE PUSH1 0x24 ADD JUMPDEST PUSH1 0x40 MLOAD DUP1 SWAP2 SUB SWAP1 REVERT JUMPDEST PUSH2 0x2A2 PUSH0 DUP4 DUP4 PUSH2 0x3F0 JUMP JUMPDEST POP POP JUMP JUMPDEST PUSH0 DUP3 DUP2 MSTORE PUSH1 0x8 PUSH1 0x20 SWAP1 DUP2 MSTORE PUSH1 0x40 DUP1 DUP4 KECCAK256 PUSH1 0x1 PUSH1 0x1 PUSH1 0xA0 SHL SUB DUP6 AND DUP5 MSTORE SWAP1 SWAP2 MSTORE DUP2 KECCAK256 SLOAD PUSH1 0xFF AND PUSH2 0x34A JUMPI PUSH0 DUP4 DUP2 MSTORE PUSH1 0x8 PUSH1 0x20 SWAP1 DUP2 MSTORE PUSH1 0x40 DUP1 DUP4 KECCAK256 PUSH1 0x1 PUSH1 0x1 PUSH1 0xA0 SHL SUB DUP7 AND DUP5 MSTORE SWAP1 SWAP2 MSTORE SWAP1 KECCAK256 DUP1 SLOAD PUSH1 0xFF NOT AND PUSH1 0x1 OR SWAP1 SSTORE PUSH2 0x302 CALLER SWAP1 JUMP JUMPDEST PUSH1 0x1 PUSH1 0x1 PUSH1 0xA0 SHL SUB AND DUP3 PUSH1 0x1 PUSH1 0x1 PUSH1 0xA0 SHL SUB AND DUP5 PUSH32 0x2F8788117E7EFF1D82E926EC794901D17C78024A50270940304540A733656F0D PUSH1 0x40 MLOAD PUSH1 0x40 MLOAD DUP1 SWAP2 SUB SWAP1 LOG4 POP PUSH1 0x1 PUSH2 0x263 JUMP JUMPDEST POP PUSH0 PUSH2 0x263 JUMP JUMPDEST PUSH1 0x1 PUSH1 0x1 PUSH1 0xA0 SHL SUB DUP4 AND PUSH2 0x37A JUMPI PUSH1 0x40 MLOAD PUSH4 0x4B637E8F PUSH1 0xE1 SHL DUP2 MSTORE PUSH0 PUSH1 0x4 DUP3 ADD MSTORE PUSH1 0x24 ADD PUSH2 0x28E JUMP JUMPDEST PUSH1 0x1 PUSH1 0x1 PUSH1 0xA0 SHL SUB DUP3 AND PUSH2 0x3A3 JUMPI PUSH1 0x40 MLOAD PUSH4 0xEC442F05 PUSH1 0xE0 SHL DUP2 MSTORE PUSH0 PUSH1 0x4 DUP3 ADD MSTORE PUSH1 0x24 ADD PUSH2 0x28E JUMP JUMPDEST PUSH2 0x3AE DUP4 DUP4 DUP4 PUSH2 0x3F0 JUMP JUMPDEST POP POP POP JUMP JUMPDEST PUSH0 DUP1 DUP3 SWAP1 POP PUSH1 0x1F DUP2 MLOAD GT ISZERO PUSH2 0x3DD JUMPI DUP3 PUSH1 0x40 MLOAD PUSH4 0x305A27A9 PUSH1 0xE0 SHL DUP2 MSTORE PUSH1 0x4 ADD PUSH2 0x28E SWAP2 SWAP1 PUSH2 0x7E2 JUMP JUMPDEST DUP1 MLOAD PUSH2 0x3E8 DUP3 PUSH2 0x817 JUMP JUMPDEST OR SWAP4 SWAP3 POP POP POP JUMP JUMPDEST PUSH1 0x1 PUSH1 0x1 PUSH1 0xA0 SHL SUB DUP4 AND PUSH2 0x41A JUMPI DUP1 PUSH1 0x2 PUSH0 DUP3 DUP3 SLOAD PUSH2 0x40F SWAP2 SWAP1 PUSH2 0x7CF JUMP JUMPDEST SWAP1 SWAP2 SSTORE POP PUSH2 0x48A SWAP1 POP JUMP JUMPDEST PUSH1 0x1 PUSH1 0x1 PUSH1 0xA0 SHL SUB DUP4 AND PUSH0 SWAP1 DUP2 MSTORE PUSH1 0x20 DUP2 SWAP1 MSTORE PUSH1 0x40 SWAP1 KECCAK256 SLOAD DUP2 DUP2 LT ISZERO PUSH2 0x46C JUMPI PUSH1 0x40 MLOAD PUSH4 0x391434E3 PUSH1 0xE2 SHL DUP2 MSTORE PUSH1 0x1 PUSH1 0x1 PUSH1 0xA0 SHL SUB DUP6 AND PUSH1 0x4 DUP3 ADD MSTORE PUSH1 0x24 DUP2 ADD DUP3 SWAP1 MSTORE PUSH1 0x44 DUP2 ADD DUP4 SWAP1 MSTORE PUSH1 0x64 ADD PUSH2 0x28E JUMP JUMPDEST PUSH1 0x1 PUSH1 0x1 PUSH1 0xA0 SHL SUB DUP5 AND PUSH0 SWAP1 DUP2 MSTORE PUSH1 0x20 DUP2 SWAP1 MSTORE PUSH1 0x40 SWAP1 KECCAK256 SWAP1 DUP3 SWAP1 SUB SWAP1 SSTORE JUMPDEST PUSH1 0x1 PUSH1 0x1 PUSH1 0xA0 SHL SUB DUP3 AND PUSH2 0x4A6 JUMPI PUSH1 0x2 DUP1 SLOAD DUP3 SWAP1 SUB SWAP1 SSTORE PUSH2 0x4C4 JUMP JUMPDEST PUSH1 0x1 PUSH1 0x1 PUSH1 0xA0 SHL SUB DUP3 AND PUSH0 SWAP1 DUP2 MSTORE PUSH1 0x20 DUP2 SWAP1 MSTORE PUSH1 0x40 SWAP1 KECCAK256 DUP1 SLOAD DUP3 ADD SWAP1 SSTORE JUMPDEST DUP2 PUSH1 0x1 PUSH1 0x1 PUSH1 0xA0 SHL SUB AND DUP4 PUSH1 0x1 PUSH1 0x1 PUSH1 0xA0 SHL SUB AND PUSH32 0xDDF252AD1BE2C89B69C2B068FC378DAA952BA7F163C4A11628F55A4DF523B3EF DUP4 PUSH1 0x40 MLOAD PUSH2 0x509 SWAP2 DUP2 MSTORE PUSH1 0x20 ADD SWAP1 JUMP JUMPDEST PUSH1 0x40 MLOAD DUP1 SWAP2 SUB SWAP1 LOG3 POP POP POP JUMP JUMPDEST PUSH0 PUSH1 0x20 DUP3 DUP5 SUB SLT ISZERO PUSH2 0x526 JUMPI PUSH0 DUP1 REVERT JUMPDEST DUP2 MLOAD PUSH1 0x1 PUSH1 0x1 PUSH1 0xA0 SHL SUB DUP2 AND DUP2 EQ PUSH2 0x53C JUMPI PUSH0 DUP1 REVERT JUMPDEST SWAP4 SWAP3 POP POP POP JUMP JUMPDEST PUSH4 0x4E487B71 PUSH1 0xE0 SHL PUSH0 MSTORE PUSH1 0x41 PUSH1 0x4 MSTORE PUSH1 0x24 PUSH0 REVERT JUMPDEST PUSH1 0x1 DUP2 DUP2 SHR SWAP1 DUP3 AND DUP1 PUSH2 0x56B JUMPI PUSH1 0x7F DUP3 AND SWAP2 POP JUMPDEST PUSH1 0x20 DUP3 LT DUP2 SUB PUSH2 0x589 JUMPI PUSH4 0x4E487B71 PUSH1 0xE0 SHL PUSH0 MSTORE PUSH1 0x22 PUSH1 0x4 MSTORE PUSH1 0x24 PUSH0 REVERT JUMPDEST POP SWAP2 SWAP1 POP JUMP JUMPDEST PUSH1 0x1F DUP3 GT ISZERO PUSH2 0x3AE JUMPI DUP1 PUSH0 MSTORE PUSH1 0x20 PUSH0 KECCAK256 PUSH1 0x1F DUP5 ADD PUSH1 0x5 SHR DUP2 ADD PUSH1 0x20 DUP6 LT ISZERO PUSH2 0x5B4 JUMPI POP DUP1 JUMPDEST PUSH1 0x1F DUP5 ADD PUSH1 0x5 SHR DUP3 ADD SWAP2 POP JUMPDEST DUP2 DUP2 LT ISZERO PUSH2 0x5D3 JUMPI PUSH0 DUP2 SSTORE PUSH1 0x1 ADD PUSH2 0x5C0 JUMP JUMPDEST POP POP POP POP POP JUMP JUMPDEST DUP2 MLOAD PUSH1 0x1 PUSH1 0x1 PUSH1 0x40 SHL SUB DUP2 GT ISZERO PUSH2 0x5F3 JUMPI PUSH2 0x5F3 PUSH2 0x543 JUMP JUMPDEST PUSH2 0x607 DUP2 PUSH2 0x601 DUP5 SLOAD PUSH2 0x557 JUMP JUMPDEST DUP5 PUSH2 0x58F JUMP JUMPDEST PUSH1 0x20 PUSH1 0x1F DUP3 GT PUSH1 0x1 DUP2 EQ PUSH2 0x639 JUMPI PUSH0 DUP4 ISZERO PUSH2 0x622 JUMPI POP DUP5 DUP3 ADD MLOAD JUMPDEST PUSH0 NOT PUSH1 0x3 DUP6 SWAP1 SHL SHR NOT AND PUSH1 0x1 DUP5 SWAP1 SHL OR DUP5 SSTORE PUSH2 0x5D3 JUMP JUMPDEST PUSH0 DUP5 DUP2 MSTORE PUSH1 0x20 DUP2 KECCAK256 PUSH1 0x1F NOT DUP6 AND SWAP2 JUMPDEST DUP3 DUP2 LT ISZERO PUSH2 0x668 JUMPI DUP8 DUP6 ADD MLOAD DUP3 SSTORE PUSH1 0x20 SWAP5 DUP6 ADD SWAP5 PUSH1 0x1 SWAP1 SWAP3 ADD SWAP2 ADD PUSH2 0x648 JUMP JUMPDEST POP DUP5 DUP3 LT ISZERO PUSH2 0x685 JUMPI DUP7 DUP5 ADD MLOAD PUSH0 NOT PUSH1 0x3 DUP8 SWAP1 SHL PUSH1 0xF8 AND SHR NOT AND DUP2 SSTORE JUMPDEST POP POP POP POP PUSH1 0x1 SWAP1 DUP2 SHL ADD SWAP1 SSTORE POP JUMP JUMPDEST PUSH4 0x4E487B71 PUSH1 0xE0 SHL PUSH0 MSTORE PUSH1 0x11 PUSH1 0x4 MSTORE PUSH1 0x24 PUSH0 REVERT JUMPDEST PUSH1 0x1 DUP2 JUMPDEST PUSH1 0x1 DUP5 GT ISZERO PUSH2 0x6E3 JUMPI DUP1 DUP6 DIV DUP2 GT ISZERO PUSH2 0x6C7 JUMPI PUSH2 0x6C7 PUSH2 0x694 JUMP JUMPDEST PUSH1 0x1 DUP5 AND ISZERO PUSH2 0x6D5 JUMPI SWAP1 DUP2 MUL SWAP1 JUMPDEST PUSH1 0x1 SWAP4 SWAP1 SWAP4 SHR SWAP3 DUP1 MUL PUSH2 0x6AC JUMP JUMPDEST SWAP4 POP SWAP4 SWAP2 POP POP JUMP JUMPDEST PUSH0 DUP3 PUSH2 0x6F9 JUMPI POP PUSH1 0x1 PUSH2 0x263 JUMP JUMPDEST DUP2 PUSH2 0x705 JUMPI POP PUSH0 PUSH2 0x263 JUMP JUMPDEST DUP2 PUSH1 0x1 DUP2 EQ PUSH2 0x71B JUMPI PUSH1 0x2 DUP2 EQ PUSH2 0x725 JUMPI PUSH2 0x741 JUMP JUMPDEST PUSH1 0x1 SWAP2 POP POP PUSH2 0x263 JUMP JUMPDEST PUSH1 0xFF DUP5 GT ISZERO PUSH2 0x736 JUMPI PUSH2 0x736 PUSH2 0x694 JUMP JUMPDEST POP POP PUSH1 0x1 DUP3 SHL PUSH2 0x263 JUMP JUMPDEST POP PUSH1 0x20 DUP4 LT PUSH2 0x133 DUP4 LT AND PUSH1 0x4E DUP5 LT PUSH1 0xB DUP5 LT AND OR ISZERO PUSH2 0x764 JUMPI POP DUP2 DUP2 EXP PUSH2 0x263 JUMP JUMPDEST PUSH2 0x770 PUSH0 NOT DUP5 DUP5 PUSH2 0x6A8 JUMP JUMPDEST DUP1 PUSH0 NOT DIV DUP3 GT ISZERO PUSH2 0x783 JUMPI PUSH2 0x783 PUSH2 0x694 JUMP JUMPDEST MUL SWAP4 SWAP3 POP POP POP JUMP JUMPDEST PUSH0 PUSH2 0x53C PUSH1 0xFF DUP5 AND DUP4 PUSH2 0x6EB JUMP JUMPDEST DUP1 DUP3 MUL DUP2 ISZERO DUP3 DUP3 DIV DUP5 EQ OR PUSH2 0x263 JUMPI PUSH2 0x263 PUSH2 0x694 JUMP JUMPDEST PUSH0 DUP3 PUSH2 0x7CA JUMPI PUSH4 0x4E487B71 PUSH1 0xE0 SHL PUSH0 MSTORE PUSH1 0x12 PUSH1 0x4 MSTORE PUSH1 0x24 PUSH0 REVERT JUMPDEST POP DIV SWAP1 JUMP JUMPDEST DUP1 DUP3 ADD DUP1 DUP3 GT ISZERO PUSH2 0x263 JUMPI PUSH2 0x263 PUSH2 0x694 JUMP JUMPDEST PUSH1 0x20 DUP2 MSTORE PUSH0 DUP3 MLOAD DUP1 PUSH1 0x20 DUP5 ADD MSTORE DUP1 PUSH1 0x20 DUP6 ADD PUSH1 0x40 DUP6 ADD MCOPY PUSH0 PUSH1 0x40 DUP3 DUP6 ADD ADD MSTORE PUSH1 0x40 PUSH1 0x1F NOT PUSH1 0x1F DUP4 ADD AND DUP5 ADD ADD SWAP2 POP POP SWAP3 SWAP2 POP POP JUMP JUMPDEST DUP1 MLOAD PUSH1 0x20 DUP1 DUP4 ADD MLOAD SWAP2 SWAP1 DUP2 LT ISZERO PUSH2 0x589 JUMPI PUSH0 NOT PUSH1 0x20 SWAP2 SWAP1 SWAP2 SUB PUSH1 0x3 SHL SHL AND SWAP2 SWAP1 POP JUMP JUMPDEST PUSH1 0x80 MLOAD PUSH1 0xA0 MLOAD PUSH1 0xC0 MLOAD PUSH1 0xE0 MLOAD PUSH2 0x100 MLOAD PUSH2 0x120 MLOAD PUSH2 0x140 MLOAD PUSH2 0x19FF PUSH2 0x88B PUSH0 CODECOPY PUSH0 PUSH2 0x10F4 ADD MSTORE PUSH0 PUSH2 0x10C7 ADD MSTORE PUSH0 PUSH2 0xF5C ADD MSTORE PUSH0 PUSH2 0xF34 ADD MSTORE PUSH0 PUSH2 0xE8F ADD MSTORE PUSH0 PUSH2 0xEB9 ADD MSTORE PUSH0 PUSH2 0xEE3 ADD MSTORE PUSH2 0x19FF PUSH0 RETURN INVALID PUSH1 0x80 PUSH1 0x40 MSTORE CALLVALUE DUP1 ISZERO PUSH2 0xF JUMPI PUSH0 DUP1 REVERT JUMPDEST POP PUSH1 0x4 CALLDATASIZE LT PUSH2 0x24A JUMPI PUSH0 CALLDATALOAD PUSH1 0xE0 SHR DUP1 PUSH4 0x64AB8675 GT PUSH2 0x140 JUMPI DUP1 PUSH4 0x95D89B41 GT PUSH2 0xBF JUMPI DUP1 PUSH4 0xCF26ECA4 GT PUSH2 0x84 JUMPI DUP1 PUSH4 0xCF26ECA4 EQ PUSH2 0x4B4 JUMPI DUP1 PUSH4 0xD505ACCF EQ PUSH2 0x4BD JUMPI DUP1 PUSH4 0xD547741F EQ PUSH2 0x4D0 JUMPI DUP1 PUSH4 0xDD62ED3E EQ PUSH2 0x4E3 JUMPI DUP1 PUSH4 0xDF313457 EQ PUSH2 0x51B JUMPI DUP1 PUSH4 0xFFBA376C EQ PUSH2 0x524 JUMPI PUSH0 DUP1 REVERT JUMPDEST DUP1 PUSH4 0x95D89B41 EQ PUSH2 0x474 JUMPI DUP1 PUSH4 0xA217FDDF EQ PUSH2 0x47C JUMPI DUP1 PUSH4 0xA327A281 EQ PUSH2 0x483 JUMPI DUP1 PUSH4 0xA694FC3A EQ PUSH2 0x48E JUMPI DUP1 PUSH4 0xA9059CBB EQ PUSH2 0x4A1 JUMPI PUSH0 DUP1 REVERT JUMPDEST DUP1 PUSH4 0x817B1CD2 GT PUSH2 0x105 JUMPI DUP1 PUSH4 0x817B1CD2 EQ PUSH2 0x416 JUMPI DUP1 PUSH4 0x81AD8CD8 EQ PUSH2 0x41F JUMPI DUP1 PUSH4 0x84B0196E EQ PUSH2 0x427 JUMPI DUP1 PUSH4 0x91D14854 EQ PUSH2 0x442 JUMPI DUP1 PUSH4 0x937B983B EQ PUSH2 0x455 JUMPI PUSH0 DUP1 REVERT JUMPDEST DUP1 PUSH4 0x64AB8675 EQ PUSH2 0x3AC JUMPI DUP1 PUSH4 0x69D8D6D2 EQ PUSH2 0x3BF JUMPI DUP1 PUSH4 0x70A08231 EQ PUSH2 0x3C8 JUMPI DUP1 PUSH4 0x79CC6790 EQ PUSH2 0x3F0 JUMPI DUP1 PUSH4 0x7ECEBE00 EQ PUSH2 0x403 JUMPI PUSH0 DUP1 REVERT JUMPDEST DUP1 PUSH4 0x2E17DE78 GT PUSH2 0x1CC JUMPI DUP1 PUSH4 0x42966C68 GT PUSH2 0x191 JUMPI DUP1 PUSH4 0x42966C68 EQ PUSH2 0x375 JUMPI DUP1 PUSH4 0x508D962B EQ PUSH2 0x388 JUMPI DUP1 PUSH4 0x51500C3A EQ PUSH2 0x391 JUMPI DUP1 PUSH4 0x58AC0E80 EQ PUSH2 0x39A JUMPI DUP1 PUSH4 0x60577981 EQ PUSH2 0x3A3 JUMPI PUSH0 DUP1 REVERT JUMPDEST DUP1 PUSH4 0x2E17DE78 EQ PUSH2 0x323 JUMPI DUP1 PUSH4 0x2F2FF15D EQ PUSH2 0x338 JUMPI DUP1 PUSH4 0x313CE567 EQ PUSH2 0x34B JUMPI DUP1 PUSH4 0x3644E515 EQ PUSH2 0x35A JUMPI DUP1 PUSH4 0x36568ABE EQ PUSH2 0x362 JUMPI PUSH0 DUP1 REVERT JUMPDEST DUP1 PUSH4 0xC56AE3B GT PUSH2 0x212 JUMPI DUP1 PUSH4 0xC56AE3B EQ PUSH2 0x2BE JUMPI DUP1 PUSH4 0x1460FA87 EQ PUSH2 0x2C7 JUMPI DUP1 PUSH4 0x18160DDD EQ PUSH2 0x2E6 JUMPI DUP1 PUSH4 0x23B872DD EQ PUSH2 0x2EE JUMPI DUP1 PUSH4 0x248A9CA3 EQ PUSH2 0x301 JUMPI PUSH0 DUP1 REVERT JUMPDEST DUP1 PUSH4 0x1FFC9A7 EQ PUSH2 0x24E JUMPI DUP1 PUSH4 0x4646A49 EQ PUSH2 0x276 JUMPI DUP1 PUSH4 0x6FDDE03 EQ PUSH2 0x28D JUMPI DUP1 PUSH4 0x85CDE2D EQ PUSH2 0x2A2 JUMPI DUP1 PUSH4 0x95EA7B3 EQ PUSH2 0x2AB JUMPI JUMPDEST PUSH0 DUP1 REVERT JUMPDEST PUSH2 0x261 PUSH2 0x25C CALLDATASIZE PUSH1 0x4 PUSH2 0x163D JUMP JUMPDEST PUSH2 0x52C JUMP JUMPDEST PUSH1 0x40 MLOAD SWAP1 ISZERO ISZERO DUP2 MSTORE PUSH1 0x20 ADD JUMPDEST PUSH1 0x40 MLOAD DUP1 SWAP2 SUB SWAP1 RETURN JUMPDEST PUSH2 0x27F PUSH1 0x10 SLOAD DUP2 JUMP JUMPDEST PUSH1 0x40 MLOAD SWAP1 DUP2 MSTORE PUSH1 0x20 ADD PUSH2 0x26D JUMP JUMPDEST PUSH2 0x295 PUSH2 0x562 JUMP JUMPDEST PUSH1 0x40 MLOAD PUSH2 0x26D SWAP2 SWAP1 PUSH2 0x1692 JUMP JUMPDEST PUSH2 0x27F PUSH1 0x12 SLOAD DUP2 JUMP JUMPDEST PUSH2 0x261 PUSH2 0x2B9 CALLDATASIZE PUSH1 0x4 PUSH2 0x16BF JUMP JUMPDEST PUSH2 0x5F2 JUMP JUMPDEST PUSH2 0x27F PUSH1 0xB SLOAD DUP2 JUMP JUMPDEST PUSH2 0x27F PUSH2 0x2D5 CALLDATASIZE PUSH1 0x4 PUSH2 0x16E7 JUMP JUMPDEST PUSH1 0x14 PUSH1 0x20 MSTORE PUSH0 SWAP1 DUP2 MSTORE PUSH1 0x40 SWAP1 KECCAK256 SLOAD DUP2 JUMP JUMPDEST PUSH1 0x2 SLOAD PUSH2 0x27F JUMP JUMPDEST PUSH2 0x261 PUSH2 0x2FC CALLDATASIZE PUSH1 0x4 PUSH2 0x1700 JUMP JUMPDEST PUSH2 0x609 JUMP JUMPDEST PUSH2 0x27F PUSH2 0x30F CALLDATASIZE PUSH1 0x4 PUSH2 0x173A JUMP JUMPDEST PUSH0 SWAP1 DUP2 MSTORE PUSH1 0x8 PUSH1 0x20 MSTORE PUSH1 0x40 SWAP1 KECCAK256 PUSH1 0x1 ADD SLOAD SWAP1 JUMP JUMPDEST PUSH2 0x336 PUSH2 0x331 CALLDATASIZE PUSH1 0x4 PUSH2 0x173A JUMP JUMPDEST PUSH2 0x660 JUMP JUMPDEST STOP JUMPDEST PUSH2 0x336 PUSH2 0x346 CALLDATASIZE PUSH1 0x4 PUSH2 0x1751 JUMP JUMPDEST PUSH2 0x7D3 JUMP JUMPDEST PUSH1 0x40 MLOAD PUSH1 0x12 DUP2 MSTORE PUSH1 0x20 ADD PUSH2 0x26D JUMP JUMPDEST PUSH2 0x27F PUSH2 0x7FD JUMP JUMPDEST PUSH2 0x336 PUSH2 0x370 CALLDATASIZE PUSH1 0x4 PUSH2 0x1751 JUMP JUMPDEST PUSH2 0x80B JUMP JUMPDEST PUSH2 0x336 PUSH2 0x383 CALLDATASIZE PUSH1 0x4 PUSH2 0x173A JUMP JUMPDEST PUSH2 0x843 JUMP JUMPDEST PUSH2 0x27F PUSH1 0x9 SLOAD DUP2 JUMP JUMPDEST PUSH2 0x27F PUSH1 0xA SLOAD DUP2 JUMP JUMPDEST PUSH2 0x27F PUSH1 0xD SLOAD DUP2 JUMP JUMPDEST PUSH2 0x27F PUSH1 0xE SLOAD DUP2 JUMP JUMPDEST PUSH2 0x27F PUSH2 0x3BA CALLDATASIZE PUSH1 0x4 PUSH2 0x16E7 JUMP JUMPDEST PUSH2 0x850 JUMP JUMPDEST PUSH2 0x27F PUSH1 0xF SLOAD DUP2 JUMP JUMPDEST PUSH2 0x27F PUSH2 0x3D6 CALLDATASIZE PUSH1 0x4 PUSH2 0x16E7 JUMP JUMPDEST PUSH1 0x1 PUSH1 0x1 PUSH1 0xA0 SHL SUB AND PUSH0 SWAP1 DUP2 MSTORE PUSH1 0x20 DUP2 SWAP1 MSTORE PUSH1 0x40 SWAP1 KECCAK256 SLOAD SWAP1 JUMP JUMPDEST PUSH2 0x336 PUSH2 0x3FE CALLDATASIZE PUSH1 0x4 PUSH2 0x16BF JUMP JUMPDEST PUSH2 0x8C2 JUMP JUMPDEST PUSH2 0x27F PUSH2 0x411 CALLDATASIZE PUSH1 0x4 PUSH2 0x16E7 JUMP JUMPDEST PUSH2 0x8DB JUMP JUMPDEST PUSH2 0x27F PUSH1 0xC SLOAD DUP2 JUMP JUMPDEST PUSH2 0x336 PUSH2 0x8F8 JUMP JUMPDEST PUSH2 0x42F PUSH2 0x961 JUMP JUMPDEST PUSH1 0x40 MLOAD PUSH2 0x26D SWAP8 SWAP7 SWAP6 SWAP5 SWAP4 SWAP3 SWAP2 SWAP1 PUSH2 0x177B JUMP JUMPDEST PUSH2 0x261 PUSH2 0x450 CALLDATASIZE PUSH1 0x4 PUSH2 0x1751 JUMP JUMPDEST PUSH2 0x9A3 JUMP JUMPDEST PUSH2 0x27F PUSH2 0x463 CALLDATASIZE PUSH1 0x4 PUSH2 0x16E7 JUMP JUMPDEST PUSH1 0x15 PUSH1 0x20 MSTORE PUSH0 SWAP1 DUP2 MSTORE PUSH1 0x40 SWAP1 KECCAK256 SLOAD DUP2 JUMP JUMPDEST PUSH2 0x295 PUSH2 0x9CD JUMP JUMPDEST PUSH2 0x27F PUSH0 DUP2 JUMP JUMPDEST PUSH1 0xA SLOAD TIMESTAMP LT ISZERO PUSH2 0x261 JUMP JUMPDEST PUSH2 0x336 PUSH2 0x49C CALLDATASIZE PUSH1 0x4 PUSH2 0x173A JUMP JUMPDEST PUSH2 0x9DC JUMP JUMPDEST PUSH2 0x261 PUSH2 0x4AF CALLDATASIZE PUSH1 0x4 PUSH2 0x16BF JUMP JUMPDEST PUSH2 0xAE3 JUMP JUMPDEST PUSH2 0x27F PUSH1 0x11 SLOAD DUP2 JUMP JUMPDEST PUSH2 0x336 PUSH2 0x4CB CALLDATASIZE PUSH1 0x4 PUSH2 0x1811 JUMP JUMPDEST PUSH2 0xB2F JUMP JUMPDEST PUSH2 0x336 PUSH2 0x4DE CALLDATASIZE PUSH1 0x4 PUSH2 0x1751 JUMP JUMPDEST PUSH2 0xC65 JUMP JUMPDEST PUSH2 0x27F PUSH2 0x4F1 CALLDATASIZE PUSH1 0x4 PUSH2 0x187E JUMP JUMPDEST PUSH1 0x1 PUSH1 0x1 PUSH1 0xA0 SHL SUB SWAP2 DUP3 AND PUSH0 SWAP1 DUP2 MSTORE PUSH1 0x1 PUSH1 0x20 SWAP1 DUP2 MSTORE PUSH1 0x40 DUP1 DUP4 KECCAK256 SWAP4 SWAP1 SWAP5 AND DUP3 MSTORE SWAP2 SWAP1 SWAP2 MSTORE KECCAK256 SLOAD SWAP1 JUMP JUMPDEST PUSH2 0x27F PUSH1 0x13 SLOAD DUP2 JUMP JUMPDEST PUSH2 0x336 PUSH2 0xC89 JUMP JUMPDEST PUSH0 PUSH1 0x1 PUSH1 0x1 PUSH1 0xE0 SHL SUB NOT DUP3 AND PUSH4 0x7965DB0B PUSH1 0xE0 SHL EQ DUP1 PUSH2 0x55C JUMPI POP PUSH4 0x1FFC9A7 PUSH1 0xE0 SHL PUSH1 0x1 PUSH1 0x1 PUSH1 0xE0 SHL SUB NOT DUP4 AND EQ JUMPDEST SWAP3 SWAP2 POP POP JUMP JUMPDEST PUSH1 0x60 PUSH1 0x3 DUP1 SLOAD PUSH2 0x571 SWAP1 PUSH2 0x18A6 JUMP JUMPDEST DUP1 PUSH1 0x1F ADD PUSH1 0x20 DUP1 SWAP2 DIV MUL PUSH1 0x20 ADD PUSH1 0x40 MLOAD SWAP1 DUP2 ADD PUSH1 0x40 MSTORE DUP1 SWAP3 SWAP2 SWAP1 DUP2 DUP2 MSTORE PUSH1 0x20 ADD DUP3 DUP1 SLOAD PUSH2 0x59D SWAP1 PUSH2 0x18A6 JUMP JUMPDEST DUP1 ISZERO PUSH2 0x5E8 JUMPI DUP1 PUSH1 0x1F LT PUSH2 0x5BF JUMPI PUSH2 0x100 DUP1 DUP4 SLOAD DIV MUL DUP4 MSTORE SWAP2 PUSH1 0x20 ADD SWAP2 PUSH2 0x5E8 JUMP JUMPDEST DUP3 ADD SWAP2 SWAP1 PUSH0 MSTORE PUSH1 0x20 PUSH0 KECCAK256 SWAP1 JUMPDEST DUP2 SLOAD DUP2 MSTORE SWAP1 PUSH1 0x1 ADD SWAP1 PUSH1 0x20 ADD DUP1 DUP4 GT PUSH2 0x5CB JUMPI DUP3 SWAP1 SUB PUSH1 0x1F AND DUP3 ADD SWAP2 JUMPDEST POP POP POP POP POP SWAP1 POP SWAP1 JUMP JUMPDEST PUSH0 CALLER PUSH2 0x5FF DUP2 DUP6 DUP6 PUSH2 0xD5B JUMP JUMPDEST POP PUSH1 0x1 SWAP4 SWAP3 POP POP POP JUMP JUMPDEST PUSH1 0x9 SLOAD ADDRESS PUSH0 SWAP1 DUP2 MSTORE PUSH1 0x20 DUP2 SWAP1 MSTORE PUSH1 0x40 DUP2 KECCAK256 SLOAD SWAP1 SWAP2 GT PUSH2 0x64D JUMPI PUSH1 0xA SLOAD TIMESTAMP LT ISZERO PUSH2 0x64D JUMPI PUSH1 0x40 MLOAD PUSH3 0x461BCD PUSH1 0xE5 SHL DUP2 MSTORE PUSH1 0x4 ADD PUSH2 0x644 SWAP1 PUSH2 0x18DE JUMP JUMPDEST PUSH1 0x40 MLOAD DUP1 SWAP2 SUB SWAP1 REVERT JUMPDEST PUSH2 0x658 DUP5 DUP5 DUP5 PUSH2 0xD68 JUMP JUMPDEST SWAP5 SWAP4 POP POP POP POP JUMP JUMPDEST CALLER PUSH0 SWAP1 DUP2 MSTORE PUSH1 0x14 PUSH1 0x20 MSTORE PUSH1 0x40 SWAP1 KECCAK256 SLOAD DUP2 GT ISZERO PUSH2 0x6BE JUMPI PUSH1 0x40 MLOAD PUSH3 0x461BCD PUSH1 0xE5 SHL DUP2 MSTORE PUSH1 0x20 PUSH1 0x4 DUP3 ADD MSTORE PUSH1 0x1B PUSH1 0x24 DUP3 ADD MSTORE PUSH32 0x496E73756666696369656E74207374616B65642062616C616E63650000000000 PUSH1 0x44 DUP3 ADD MSTORE PUSH1 0x64 ADD PUSH2 0x644 JUMP JUMPDEST PUSH1 0x10 SLOAD CALLER PUSH0 SWAP1 DUP2 MSTORE PUSH1 0x15 PUSH1 0x20 MSTORE PUSH1 0x40 SWAP1 KECCAK256 SLOAD PUSH2 0x6DA SWAP2 SWAP1 PUSH2 0x1941 JUMP JUMPDEST TIMESTAMP LT ISZERO PUSH2 0x729 JUMPI PUSH1 0x40 MLOAD PUSH3 0x461BCD PUSH1 0xE5 SHL DUP2 MSTORE PUSH1 0x20 PUSH1 0x4 DUP3 ADD MSTORE PUSH1 0x1A PUSH1 0x24 DUP3 ADD MSTORE PUSH32 0x436F6F6C646F776E20706572696F64206E6F7420706173736564000000000000 PUSH1 0x44 DUP3 ADD MSTORE PUSH1 0x64 ADD PUSH2 0x644 JUMP JUMPDEST PUSH2 0x731 PUSH2 0x8F8 JUMP JUMPDEST PUSH0 PUSH2 0x73B CALLER PUSH2 0x850 JUMP JUMPDEST CALLER PUSH0 SWAP1 DUP2 MSTORE PUSH1 0x14 PUSH1 0x20 MSTORE PUSH1 0x40 DUP2 KECCAK256 DUP1 SLOAD SWAP3 SWAP4 POP DUP5 SWAP3 SWAP1 SWAP2 SWAP1 PUSH2 0x75E SWAP1 DUP5 SWAP1 PUSH2 0x1954 JUMP JUMPDEST SWAP3 POP POP DUP2 SWAP1 SSTORE POP DUP2 PUSH1 0xC PUSH0 DUP3 DUP3 SLOAD PUSH2 0x776 SWAP2 SWAP1 PUSH2 0x1954 JUMP JUMPDEST SWAP3 POP POP DUP2 SWAP1 SSTORE POP DUP1 PUSH1 0xB PUSH0 DUP3 DUP3 SLOAD PUSH2 0x78E SWAP2 SWAP1 PUSH2 0x1954 JUMP JUMPDEST SWAP3 POP POP DUP2 SWAP1 SSTORE POP DUP1 PUSH1 0xF PUSH0 DUP3 DUP3 SLOAD PUSH2 0x7A6 SWAP2 SWAP1 PUSH2 0x1941 JUMP JUMPDEST SWAP1 SWAP2 SSTORE POP PUSH2 0x7C0 SWAP1 POP ADDRESS CALLER PUSH2 0x7BB DUP5 DUP7 PUSH2 0x1941 JUMP JUMPDEST PUSH2 0xD8B JUMP JUMPDEST POP POP CALLER PUSH0 SWAP1 DUP2 MSTORE PUSH1 0x15 PUSH1 0x20 MSTORE PUSH1 0x40 DUP2 KECCAK256 SSTORE JUMP JUMPDEST PUSH0 DUP3 DUP2 MSTORE PUSH1 0x8 PUSH1 0x20 MSTORE PUSH1 0x40 SWAP1 KECCAK256 PUSH1 0x1 ADD SLOAD PUSH2 0x7ED DUP2 PUSH2 0xDE8 JUMP JUMPDEST PUSH2 0x7F7 DUP4 DUP4 PUSH2 0xDF2 JUMP JUMPDEST POP POP POP POP JUMP JUMPDEST PUSH0 PUSH2 0x806 PUSH2 0xE83 JUMP JUMPDEST SWAP1 POP SWAP1 JUMP JUMPDEST PUSH1 0x1 PUSH1 0x1 PUSH1 0xA0 SHL SUB DUP2 AND CALLER EQ PUSH2 0x834 JUMPI PUSH1 0x40 MLOAD PUSH4 0x334BD919 PUSH1 0xE1 SHL DUP2 MSTORE PUSH1 0x4 ADD PUSH1 0x40 MLOAD DUP1 SWAP2 SUB SWAP1 REVERT JUMPDEST PUSH2 0x83E DUP3 DUP3 PUSH2 0xFAC JUMP JUMPDEST POP POP POP JUMP JUMPDEST PUSH2 0x84D CALLER DUP3 PUSH2 0x1017 JUMP JUMPDEST POP JUMP JUMPDEST PUSH1 0x1 PUSH1 0x1 PUSH1 0xA0 SHL SUB DUP2 AND PUSH0 SWAP1 DUP2 MSTORE PUSH1 0x14 PUSH1 0x20 SWAP1 DUP2 MSTORE PUSH1 0x40 DUP1 DUP4 KECCAK256 SLOAD PUSH1 0x15 SWAP1 SWAP3 MSTORE DUP3 KECCAK256 SLOAD DUP3 SWAP1 PUSH2 0x87F SWAP1 TIMESTAMP PUSH2 0x1954 JUMP JUMPDEST SWAP1 POP PUSH0 PUSH1 0x64 PUSH1 0xE SLOAD DUP5 PUSH2 0x892 SWAP2 SWAP1 PUSH2 0x1967 JUMP JUMPDEST PUSH2 0x89C SWAP2 SWAP1 PUSH2 0x197E JUMP JUMPDEST SWAP1 POP PUSH0 PUSH4 0x1E13380 PUSH2 0x8AE DUP5 DUP5 PUSH2 0x1967 JUMP JUMPDEST PUSH2 0x8B8 SWAP2 SWAP1 PUSH2 0x197E JUMP JUMPDEST SWAP7 SWAP6 POP POP POP POP POP POP JUMP JUMPDEST PUSH2 0x8CD DUP3 CALLER DUP4 PUSH2 0x104B JUMP JUMPDEST PUSH2 0x8D7 DUP3 DUP3 PUSH2 0x1017 JUMP JUMPDEST POP POP JUMP JUMPDEST PUSH1 0x1 PUSH1 0x1 PUSH1 0xA0 SHL SUB DUP2 AND PUSH0 SWAP1 DUP2 MSTORE PUSH1 0x7 PUSH1 0x20 MSTORE PUSH1 0x40 DUP2 KECCAK256 SLOAD PUSH2 0x55C JUMP JUMPDEST PUSH1 0x11 SLOAD TIMESTAMP LT PUSH2 0x95F JUMPI PUSH1 0xB PUSH1 0x13 SLOAD LT ISZERO PUSH2 0x943 JUMPI PUSH1 0x64 PUSH1 0xE SLOAD PUSH1 0x6E PUSH2 0x91D SWAP2 SWAP1 PUSH2 0x1967 JUMP JUMPDEST PUSH2 0x927 SWAP2 SWAP1 PUSH2 0x197E JUMP JUMPDEST PUSH1 0xE SSTORE PUSH1 0x13 DUP1 SLOAD SWAP1 PUSH0 PUSH2 0x939 DUP4 PUSH2 0x199D JUMP JUMPDEST SWAP2 SWAP1 POP SSTORE POP PUSH2 0x94E JUMP JUMPDEST PUSH1 0xD SLOAD PUSH1 0xE SSTORE PUSH0 PUSH1 0x13 SSTORE JUMPDEST PUSH1 0x12 SLOAD PUSH2 0x95B SWAP1 TIMESTAMP PUSH2 0x1941 JUMP JUMPDEST PUSH1 0x11 SSTORE JUMPDEST JUMP JUMPDEST PUSH0 PUSH1 0x60 DUP1 PUSH0 DUP1 PUSH0 PUSH1 0x60 PUSH2 0x972 PUSH2 0x10C0 JUMP JUMPDEST PUSH2 0x97A PUSH2 0x10ED JUMP JUMPDEST PUSH1 0x40 DUP1 MLOAD PUSH0 DUP1 DUP3 MSTORE PUSH1 0x20 DUP3 ADD SWAP1 SWAP3 MSTORE PUSH1 0xF PUSH1 0xF8 SHL SWAP12 SWAP4 SWAP11 POP SWAP2 SWAP9 POP CHAINID SWAP8 POP ADDRESS SWAP7 POP SWAP5 POP SWAP3 POP SWAP1 POP JUMP JUMPDEST PUSH0 SWAP2 DUP3 MSTORE PUSH1 0x8 PUSH1 0x20 SWAP1 DUP2 MSTORE PUSH1 0x40 DUP1 DUP5 KECCAK256 PUSH1 0x1 PUSH1 0x1 PUSH1 0xA0 SHL SUB SWAP4 SWAP1 SWAP4 AND DUP5 MSTORE SWAP2 SWAP1 MSTORE SWAP1 KECCAK256 SLOAD PUSH1 0xFF AND SWAP1 JUMP JUMPDEST PUSH1 0x60 PUSH1 0x4 DUP1 SLOAD PUSH2 0x571 SWAP1 PUSH2 0x18A6 JUMP JUMPDEST PUSH0 DUP2 GT PUSH2 0xA2B JUMPI PUSH1 0x40 MLOAD PUSH3 0x461BCD PUSH1 0xE5 SHL DUP2 MSTORE PUSH1 0x20 PUSH1 0x4 DUP3 ADD MSTORE PUSH1 0x1D PUSH1 0x24 DUP3 ADD MSTORE PUSH32 0x416D6F756E74206D7573742062652067726561746572207468616E2030000000 PUSH1 0x44 DUP3 ADD MSTORE PUSH1 0x64 ADD PUSH2 0x644 JUMP JUMPDEST CALLER PUSH0 SWAP1 DUP2 MSTORE PUSH1 0x20 DUP2 SWAP1 MSTORE PUSH1 0x40 SWAP1 KECCAK256 SLOAD DUP2 GT ISZERO PUSH2 0xA89 JUMPI PUSH1 0x40 MLOAD PUSH3 0x461BCD PUSH1 0xE5 SHL DUP2 MSTORE PUSH1 0x20 PUSH1 0x4 DUP3 ADD MSTORE PUSH1 0x1D PUSH1 0x24 DUP3 ADD MSTORE PUSH32 0x496E73756666696369656E742062616C616E636520746F207374616B65000000 PUSH1 0x44 DUP3 ADD MSTORE PUSH1 0x64 ADD PUSH2 0x644 JUMP JUMPDEST PUSH2 0xA94 CALLER ADDRESS DUP4 PUSH2 0xD8B JUMP JUMPDEST CALLER PUSH0 SWAP1 DUP2 MSTORE PUSH1 0x14 PUSH1 0x20 MSTORE PUSH1 0x40 DUP2 KECCAK256 DUP1 SLOAD DUP4 SWAP3 SWAP1 PUSH2 0xAB2 SWAP1 DUP5 SWAP1 PUSH2 0x1941 JUMP JUMPDEST SWAP3 POP POP DUP2 SWAP1 SSTORE POP DUP1 PUSH1 0xC PUSH0 DUP3 DUP3 SLOAD PUSH2 0xACA SWAP2 SWAP1 PUSH2 0x1941 JUMP JUMPDEST SWAP1 SWAP2 SSTORE POP POP CALLER PUSH0 SWAP1 DUP2 MSTORE PUSH1 0x15 PUSH1 0x20 MSTORE PUSH1 0x40 SWAP1 KECCAK256 TIMESTAMP SWAP1 SSTORE POP JUMP JUMPDEST PUSH1 0x9 SLOAD ADDRESS PUSH0 SWAP1 DUP2 MSTORE PUSH1 0x20 DUP2 SWAP1 MSTORE PUSH1 0x40 DUP2 KECCAK256 SLOAD SWAP1 SWAP2 GT PUSH2 0xB1E JUMPI PUSH1 0xA SLOAD TIMESTAMP LT ISZERO PUSH2 0xB1E JUMPI PUSH1 0x40 MLOAD PUSH3 0x461BCD PUSH1 0xE5 SHL DUP2 MSTORE PUSH1 0x4 ADD PUSH2 0x644 SWAP1 PUSH2 0x18DE JUMP JUMPDEST PUSH2 0xB28 DUP4 DUP4 PUSH2 0x111A JUMP JUMPDEST SWAP4 SWAP3 POP POP POP JUMP JUMPDEST DUP4 TIMESTAMP GT ISZERO PUSH2 0xB53 JUMPI PUSH1 0x40 MLOAD PUSH4 0x313C8981 PUSH1 0xE1 SHL DUP2 MSTORE PUSH1 0x4 DUP2 ADD DUP6 SWAP1 MSTORE PUSH1 0x24 ADD PUSH2 0x644 JUMP JUMPDEST PUSH0 PUSH32 0x6E71EDAE12B1B97F4D1F60370FEF10105FA2FAAE0126114A169C64845D6126C9 DUP9 DUP9 DUP9 PUSH2 0xB9E DUP13 PUSH1 0x1 PUSH1 0x1 PUSH1 0xA0 SHL SUB AND PUSH0 SWAP1 DUP2 MSTORE PUSH1 0x7 PUSH1 0x20 MSTORE PUSH1 0x40 SWAP1 KECCAK256 DUP1 SLOAD PUSH1 0x1 DUP2 ADD SWAP1 SWAP2 SSTORE SWAP1 JUMP JUMPDEST PUSH1 0x40 DUP1 MLOAD PUSH1 0x20 DUP2 ADD SWAP7 SWAP1 SWAP7 MSTORE PUSH1 0x1 PUSH1 0x1 PUSH1 0xA0 SHL SUB SWAP5 DUP6 AND SWAP1 DUP7 ADD MSTORE SWAP3 SWAP1 SWAP2 AND PUSH1 0x60 DUP5 ADD MSTORE PUSH1 0x80 DUP4 ADD MSTORE PUSH1 0xA0 DUP3 ADD MSTORE PUSH1 0xC0 DUP2 ADD DUP7 SWAP1 MSTORE PUSH1 0xE0 ADD PUSH1 0x40 MLOAD PUSH1 0x20 DUP2 DUP4 SUB SUB DUP2 MSTORE SWAP1 PUSH1 0x40 MSTORE DUP1 MLOAD SWAP1 PUSH1 0x20 ADD KECCAK256 SWAP1 POP PUSH0 PUSH2 0xBF8 DUP3 PUSH2 0x1127 JUMP JUMPDEST SWAP1 POP PUSH0 PUSH2 0xC07 DUP3 DUP8 DUP8 DUP8 PUSH2 0x1153 JUMP JUMPDEST SWAP1 POP DUP10 PUSH1 0x1 PUSH1 0x1 PUSH1 0xA0 SHL SUB AND DUP2 PUSH1 0x1 PUSH1 0x1 PUSH1 0xA0 SHL SUB AND EQ PUSH2 0xC4E JUMPI PUSH1 0x40 MLOAD PUSH4 0x25C00723 PUSH1 0xE1 SHL DUP2 MSTORE PUSH1 0x1 PUSH1 0x1 PUSH1 0xA0 SHL SUB DUP1 DUP4 AND PUSH1 0x4 DUP4 ADD MSTORE DUP12 AND PUSH1 0x24 DUP3 ADD MSTORE PUSH1 0x44 ADD PUSH2 0x644 JUMP JUMPDEST PUSH2 0xC59 DUP11 DUP11 DUP11 PUSH2 0xD5B JUMP JUMPDEST POP POP POP POP POP POP POP POP POP POP JUMP JUMPDEST PUSH0 DUP3 DUP2 MSTORE PUSH1 0x8 PUSH1 0x20 MSTORE PUSH1 0x40 SWAP1 KECCAK256 PUSH1 0x1 ADD SLOAD PUSH2 0xC7F DUP2 PUSH2 0xDE8 JUMP JUMPDEST PUSH2 0x7F7 DUP4 DUP4 PUSH2 0xFAC JUMP JUMPDEST PUSH2 0xC93 PUSH0 CALLER PUSH2 0x9A3 JUMP JUMPDEST PUSH2 0xCEA JUMPI PUSH1 0x40 MLOAD PUSH3 0x461BCD PUSH1 0xE5 SHL DUP2 MSTORE PUSH1 0x20 PUSH1 0x4 DUP3 ADD MSTORE PUSH1 0x22 PUSH1 0x24 DUP3 ADD MSTORE PUSH32 0x4F6E6C79207468652061646D696E2063616E20756E667265657A6520746F6B65 PUSH1 0x44 DUP3 ADD MSTORE PUSH2 0x6E73 PUSH1 0xF0 SHL PUSH1 0x64 DUP3 ADD MSTORE PUSH1 0x84 ADD PUSH2 0x644 JUMP JUMPDEST PUSH1 0xA SLOAD TIMESTAMP LT ISZERO PUSH2 0xD48 JUMPI PUSH1 0x40 MLOAD PUSH3 0x461BCD PUSH1 0xE5 SHL DUP2 MSTORE PUSH1 0x20 PUSH1 0x4 DUP3 ADD MSTORE PUSH1 0x23 PUSH1 0x24 DUP3 ADD MSTORE PUSH32 0x54686520667265657A6520706572696F6420686173206E6F742079657420656E PUSH1 0x44 DUP3 ADD MSTORE PUSH3 0x191959 PUSH1 0xEA SHL PUSH1 0x64 DUP3 ADD MSTORE PUSH1 0x84 ADD PUSH2 0x644 JUMP JUMPDEST PUSH1 0x9 DUP1 SLOAD PUSH0 SWAP1 SWAP2 SSTORE PUSH2 0x84D ADDRESS CALLER DUP4 PUSH2 0xD8B JUMP JUMPDEST PUSH2 0x83E DUP4 DUP4 DUP4 PUSH1 0x1 PUSH2 0x117F JUMP JUMPDEST PUSH0 CALLER PUSH2 0xD75 DUP6 DUP3 DUP6 PUSH2 0x104B JUMP JUMPDEST PUSH2 0xD80 DUP6 DUP6 DUP6 PUSH2 0xD8B JUMP JUMPDEST POP PUSH1 0x1 SWAP5 SWAP4 POP POP POP POP JUMP JUMPDEST PUSH1 0x1 PUSH1 0x1 PUSH1 0xA0 SHL SUB DUP4 AND PUSH2 0xDB4 JUMPI PUSH1 0x40 MLOAD PUSH4 0x4B637E8F PUSH1 0xE1 SHL DUP2 MSTORE PUSH0 PUSH1 0x4 DUP3 ADD MSTORE PUSH1 0x24 ADD PUSH2 0x644 JUMP JUMPDEST PUSH1 0x1 PUSH1 0x1 PUSH1 0xA0 SHL SUB DUP3 AND PUSH2 0xDDD JUMPI PUSH1 0x40 MLOAD PUSH4 0xEC442F05 PUSH1 0xE0 SHL DUP2 MSTORE PUSH0 PUSH1 0x4 DUP3 ADD MSTORE PUSH1 0x24 ADD PUSH2 0x644 JUMP JUMPDEST PUSH2 0x83E DUP4 DUP4 DUP4 PUSH2 0x1251 JUMP JUMPDEST PUSH2 0x84D DUP2 CALLER PUSH2 0x1377 JUMP JUMPDEST PUSH0 PUSH2 0xDFD DUP4 DUP4 PUSH2 0x9A3 JUMP JUMPDEST PUSH2 0xE7C JUMPI PUSH0 DUP4 DUP2 MSTORE PUSH1 0x8 PUSH1 0x20 SWAP1 DUP2 MSTORE PUSH1 0x40 DUP1 DUP4 KECCAK256 PUSH1 0x1 PUSH1 0x1 PUSH1 0xA0 SHL SUB DUP7 AND DUP5 MSTORE SWAP1 SWAP2 MSTORE SWAP1 KECCAK256 DUP1 SLOAD PUSH1 0xFF NOT AND PUSH1 0x1 OR SWAP1 SSTORE PUSH2 0xE34 CALLER SWAP1 JUMP JUMPDEST PUSH1 0x1 PUSH1 0x1 PUSH1 0xA0 SHL SUB AND DUP3 PUSH1 0x1 PUSH1 0x1 PUSH1 0xA0 SHL SUB AND DUP5 PUSH32 0x2F8788117E7EFF1D82E926EC794901D17C78024A50270940304540A733656F0D PUSH1 0x40 MLOAD PUSH1 0x40 MLOAD DUP1 SWAP2 SUB SWAP1 LOG4 POP PUSH1 0x1 PUSH2 0x55C JUMP JUMPDEST POP PUSH0 PUSH2 0x55C JUMP JUMPDEST PUSH0 ADDRESS PUSH1 0x1 PUSH1 0x1 PUSH1 0xA0 SHL SUB PUSH32 0x0 AND EQ DUP1 ISZERO PUSH2 0xEDB JUMPI POP PUSH32 0x0 CHAINID EQ JUMPDEST ISZERO PUSH2 0xF05 JUMPI POP PUSH32 0x0 SWAP1 JUMP JUMPDEST PUSH2 0x806 PUSH1 0x40 DUP1 MLOAD PUSH32 0x8B73C3C69BB8FE3D512ECC4CF759CC79239F7B179B0FFACAA9A75D522B39400F PUSH1 0x20 DUP3 ADD MSTORE PUSH32 0x0 SWAP2 DUP2 ADD SWAP2 SWAP1 SWAP2 MSTORE PUSH32 0x0 PUSH1 0x60 DUP3 ADD MSTORE CHAINID PUSH1 0x80 DUP3 ADD MSTORE ADDRESS PUSH1 0xA0 DUP3 ADD MSTORE PUSH0 SWAP1 PUSH1 0xC0 ADD PUSH1 0x40 MLOAD PUSH1 0x20 DUP2 DUP4 SUB SUB DUP2 MSTORE SWAP1 PUSH1 0x40 MSTORE DUP1 MLOAD SWAP1 PUSH1 0x20 ADD KECCAK256 SWAP1 POP SWAP1 JUMP JUMPDEST PUSH0 PUSH2 0xFB7 DUP4 DUP4 PUSH2 0x9A3 JUMP JUMPDEST ISZERO PUSH2 0xE7C JUMPI PUSH0 DUP4 DUP2 MSTORE PUSH1 0x8 PUSH1 0x20 SWAP1 DUP2 MSTORE PUSH1 0x40 DUP1 DUP4 KECCAK256 PUSH1 0x1 PUSH1 0x1 PUSH1 0xA0 SHL SUB DUP7 AND DUP1 DUP6 MSTORE SWAP3 MSTORE DUP1 DUP4 KECCAK256 DUP1 SLOAD PUSH1 0xFF NOT AND SWAP1 SSTORE MLOAD CALLER SWAP3 DUP7 SWAP2 PUSH32 0xF6391F5C32D9C69D2A47EA670B442974B53935D1EDC7FD64EB21E047A839171B SWAP2 SWAP1 LOG4 POP PUSH1 0x1 PUSH2 0x55C JUMP JUMPDEST PUSH1 0x1 PUSH1 0x1 PUSH1 0xA0 SHL SUB DUP3 AND PUSH2 0x1040 JUMPI PUSH1 0x40 MLOAD PUSH4 0x4B637E8F PUSH1 0xE1 SHL DUP2 MSTORE PUSH0 PUSH1 0x4 DUP3 ADD MSTORE PUSH1 0x24 ADD PUSH2 0x644 JUMP JUMPDEST PUSH2 0x8D7 DUP3 PUSH0 DUP4 PUSH2 0x1251 JUMP JUMPDEST PUSH1 0x1 PUSH1 0x1 PUSH1 0xA0 SHL SUB DUP4 DUP2 AND PUSH0 SWAP1 DUP2 MSTORE PUSH1 0x1 PUSH1 0x20 SWAP1 DUP2 MSTORE PUSH1 0x40 DUP1 DUP4 KECCAK256 SWAP4 DUP7 AND DUP4 MSTORE SWAP3 SWAP1 MSTORE KECCAK256 SLOAD PUSH0 NOT DUP2 EQ PUSH2 0x7F7 JUMPI DUP2 DUP2 LT ISZERO PUSH2 0x10B2 JUMPI PUSH1 0x40 MLOAD PUSH4 0x7DC7A0D9 PUSH1 0xE1 SHL DUP2 MSTORE PUSH1 0x1 PUSH1 0x1 PUSH1 0xA0 SHL SUB DUP5 AND PUSH1 0x4 DUP3 ADD MSTORE PUSH1 0x24 DUP2 ADD DUP3 SWAP1 MSTORE PUSH1 0x44 DUP2 ADD DUP4 SWAP1 MSTORE PUSH1 0x64 ADD PUSH2 0x644 JUMP JUMPDEST PUSH2 0x7F7 DUP5 DUP5 DUP5 DUP5 SUB PUSH0 PUSH2 0x117F JUMP JUMPDEST PUSH1 0x60 PUSH2 0x806 PUSH32 0x0 PUSH1 0x5 PUSH2 0x13B0 JUMP JUMPDEST PUSH1 0x60 PUSH2 0x806 PUSH32 0x0 PUSH1 0x6 PUSH2 0x13B0 JUMP JUMPDEST PUSH0 CALLER PUSH2 0x5FF DUP2 DUP6 DUP6 PUSH2 0xD8B JUMP JUMPDEST PUSH0 PUSH2 0x55C PUSH2 0x1133 PUSH2 0xE83 JUMP JUMPDEST DUP4 PUSH1 0x40 MLOAD PUSH2 0x1901 PUSH1 0xF0 SHL DUP2 MSTORE PUSH1 0x2 DUP2 ADD SWAP3 SWAP1 SWAP3 MSTORE PUSH1 0x22 DUP3 ADD MSTORE PUSH1 0x42 SWAP1 KECCAK256 SWAP1 JUMP JUMPDEST PUSH0 DUP1 PUSH0 DUP1 PUSH2 0x1163 DUP9 DUP9 DUP9 DUP9 PUSH2 0x1459 JUMP JUMPDEST SWAP3 POP SWAP3 POP SWAP3 POP PUSH2 0x1173 DUP3 DUP3 PUSH2 0x1521 JUMP JUMPDEST POP SWAP1 SWAP7 SWAP6 POP POP POP POP POP POP JUMP JUMPDEST PUSH1 0x1 PUSH1 0x1 PUSH1 0xA0 SHL SUB DUP5 AND PUSH2 0x11A8 JUMPI PUSH1 0x40 MLOAD PUSH4 0xE602DF05 PUSH1 0xE0 SHL DUP2 MSTORE PUSH0 PUSH1 0x4 DUP3 ADD MSTORE PUSH1 0x24 ADD PUSH2 0x644 JUMP JUMPDEST PUSH1 0x1 PUSH1 0x1 PUSH1 0xA0 SHL SUB DUP4 AND PUSH2 0x11D1 JUMPI PUSH1 0x40 MLOAD PUSH4 0x4A1406B1 PUSH1 0xE1 SHL DUP2 MSTORE PUSH0 PUSH1 0x4 DUP3 ADD MSTORE PUSH1 0x24 ADD PUSH2 0x644 JUMP JUMPDEST PUSH1 0x1 PUSH1 0x1 PUSH1 0xA0 SHL SUB DUP1 DUP6 AND PUSH0 SWAP1 DUP2 MSTORE PUSH1 0x1 PUSH1 0x20 SWAP1 DUP2 MSTORE PUSH1 0x40 DUP1 DUP4 KECCAK256 SWAP4 DUP8 AND DUP4 MSTORE SWAP3 SWAP1 MSTORE KECCAK256 DUP3 SWAP1 SSTORE DUP1 ISZERO PUSH2 0x7F7 JUMPI DUP3 PUSH1 0x1 PUSH1 0x1 PUSH1 0xA0 SHL SUB AND DUP5 PUSH1 0x1 PUSH1 0x1 PUSH1 0xA0 SHL SUB AND PUSH32 0x8C5BE1E5EBEC7D5BD14F71427D1E84F3DD0314C0F7B2291E5B200AC8C7C3B925 DUP5 PUSH1 0x40 MLOAD PUSH2 0x1243 SWAP2 DUP2 MSTORE PUSH1 0x20 ADD SWAP1 JUMP JUMPDEST PUSH1 0x40 MLOAD DUP1 SWAP2 SUB SWAP1 LOG3 POP POP POP POP JUMP JUMPDEST PUSH1 0x1 PUSH1 0x1 PUSH1 0xA0 SHL SUB DUP4 AND PUSH2 0x127B JUMPI DUP1 PUSH1 0x2 PUSH0 DUP3 DUP3 SLOAD PUSH2 0x1270 SWAP2 SWAP1 PUSH2 0x1941 JUMP JUMPDEST SWAP1 SWAP2 SSTORE POP PUSH2 0x12EB SWAP1 POP JUMP JUMPDEST PUSH1 0x1 PUSH1 0x1 PUSH1 0xA0 SHL SUB DUP4 AND PUSH0 SWAP1 DUP2 MSTORE PUSH1 0x20 DUP2 SWAP1 MSTORE PUSH1 0x40 SWAP1 KECCAK256 SLOAD DUP2 DUP2 LT ISZERO PUSH2 0x12CD JUMPI PUSH1 0x40 MLOAD PUSH4 0x391434E3 PUSH1 0xE2 SHL DUP2 MSTORE PUSH1 0x1 PUSH1 0x1 PUSH1 0xA0 SHL SUB DUP6 AND PUSH1 0x4 DUP3 ADD MSTORE PUSH1 0x24 DUP2 ADD DUP3 SWAP1 MSTORE PUSH1 0x44 DUP2 ADD DUP4 SWAP1 MSTORE PUSH1 0x64 ADD PUSH2 0x644 JUMP JUMPDEST PUSH1 0x1 PUSH1 0x1 PUSH1 0xA0 SHL SUB DUP5 AND PUSH0 SWAP1 DUP2 MSTORE PUSH1 0x20 DUP2 SWAP1 MSTORE PUSH1 0x40 SWAP1 KECCAK256 SWAP1 DUP3 SWAP1 SUB SWAP1 SSTORE JUMPDEST PUSH1 0x1 PUSH1 0x1 PUSH1 0xA0 SHL SUB DUP3 AND PUSH2 0x1307 JUMPI PUSH1 0x2 DUP1 SLOAD DUP3 SWAP1 SUB SWAP1 SSTORE PUSH2 0x1325 JUMP JUMPDEST PUSH1 0x1 PUSH1 0x1 PUSH1 0xA0 SHL SUB DUP3 AND PUSH0 SWAP1 DUP2 MSTORE PUSH1 0x20 DUP2 SWAP1 MSTORE PUSH1 0x40 SWAP1 KECCAK256 DUP1 SLOAD DUP3 ADD SWAP1 SSTORE JUMPDEST DUP2 PUSH1 0x1 PUSH1 0x1 PUSH1 0xA0 SHL SUB AND DUP4 PUSH1 0x1 PUSH1 0x1 PUSH1 0xA0 SHL SUB AND PUSH32 0xDDF252AD1BE2C89B69C2B068FC378DAA952BA7F163C4A11628F55A4DF523B3EF DUP4 PUSH1 0x40 MLOAD PUSH2 0x136A SWAP2 DUP2 MSTORE PUSH1 0x20 ADD SWAP1 JUMP JUMPDEST PUSH1 0x40 MLOAD DUP1 SWAP2 SUB SWAP1 LOG3 POP POP POP JUMP JUMPDEST PUSH2 0x1381 DUP3 DUP3 PUSH2 0x9A3 JUMP JUMPDEST PUSH2 0x8D7 JUMPI PUSH1 0x40 MLOAD PUSH4 0xE2517D3F PUSH1 0xE0 SHL DUP2 MSTORE PUSH1 0x1 PUSH1 0x1 PUSH1 0xA0 SHL SUB DUP3 AND PUSH1 0x4 DUP3 ADD MSTORE PUSH1 0x24 DUP2 ADD DUP4 SWAP1 MSTORE PUSH1 0x44 ADD PUSH2 0x644 JUMP JUMPDEST PUSH1 0x60 PUSH1 0xFF DUP4 EQ PUSH2 0x13CA JUMPI PUSH2 0x13C3 DUP4 PUSH2 0x15D9 JUMP JUMPDEST SWAP1 POP PUSH2 0x55C JUMP JUMPDEST DUP2 DUP1 SLOAD PUSH2 0x13D6 SWAP1 PUSH2 0x18A6 JUMP JUMPDEST DUP1 PUSH1 0x1F ADD PUSH1 0x20 DUP1 SWAP2 DIV MUL PUSH1 0x20 ADD PUSH1 0x40 MLOAD SWAP1 DUP2 ADD PUSH1 0x40 MSTORE DUP1 SWAP3 SWAP2 SWAP1 DUP2 DUP2 MSTORE PUSH1 0x20 ADD DUP3 DUP1 SLOAD PUSH2 0x1402 SWAP1 PUSH2 0x18A6 JUMP JUMPDEST DUP1 ISZERO PUSH2 0x144D JUMPI DUP1 PUSH1 0x1F LT PUSH2 0x1424 JUMPI PUSH2 0x100 DUP1 DUP4 SLOAD DIV MUL DUP4 MSTORE SWAP2 PUSH1 0x20 ADD SWAP2 PUSH2 0x144D JUMP JUMPDEST DUP3 ADD SWAP2 SWAP1 PUSH0 MSTORE PUSH1 0x20 PUSH0 KECCAK256 SWAP1 JUMPDEST DUP2 SLOAD DUP2 MSTORE SWAP1 PUSH1 0x1 ADD SWAP1 PUSH1 0x20 ADD DUP1 DUP4 GT PUSH2 0x1430 JUMPI DUP3 SWAP1 SUB PUSH1 0x1F AND DUP3 ADD SWAP2 JUMPDEST POP POP POP POP POP SWAP1 POP PUSH2 0x55C JUMP JUMPDEST PUSH0 DUP1 DUP1 PUSH32 0x7FFFFFFFFFFFFFFFFFFFFFFFFFFFFFFF5D576E7357A4501DDFE92F46681B20A0 DUP5 GT ISZERO PUSH2 0x1492 JUMPI POP PUSH0 SWAP2 POP PUSH1 0x3 SWAP1 POP DUP3 PUSH2 0x1517 JUMP JUMPDEST PUSH1 0x40 DUP1 MLOAD PUSH0 DUP1 DUP3 MSTORE PUSH1 0x20 DUP3 ADD DUP1 DUP5 MSTORE DUP11 SWAP1 MSTORE PUSH1 0xFF DUP10 AND SWAP3 DUP3 ADD SWAP3 SWAP1 SWAP3 MSTORE PUSH1 0x60 DUP2 ADD DUP8 SWAP1 MSTORE PUSH1 0x80 DUP2 ADD DUP7 SWAP1 MSTORE PUSH1 0x1 SWAP1 PUSH1 0xA0 ADD PUSH1 0x20 PUSH1 0x40 MLOAD PUSH1 0x20 DUP2 SUB SWAP1 DUP1 DUP5 SUB SWAP1 DUP6 GAS STATICCALL ISZERO DUP1 ISZERO PUSH2 0x14E3 JUMPI RETURNDATASIZE PUSH0 DUP1 RETURNDATACOPY RETURNDATASIZE PUSH0 REVERT JUMPDEST POP POP PUSH1 0x40 MLOAD PUSH1 0x1F NOT ADD MLOAD SWAP2 POP POP PUSH1 0x1 PUSH1 0x1 PUSH1 0xA0 SHL SUB DUP2 AND PUSH2 0x150E JUMPI POP PUSH0 SWAP3 POP PUSH1 0x1 SWAP2 POP DUP3 SWAP1 POP PUSH2 0x1517 JUMP JUMPDEST SWAP3 POP PUSH0 SWAP2 POP DUP2 SWAP1 POP JUMPDEST SWAP5 POP SWAP5 POP SWAP5 SWAP2 POP POP JUMP JUMPDEST PUSH0 DUP3 PUSH1 0x3 DUP2 GT ISZERO PUSH2 0x1534 JUMPI PUSH2 0x1534 PUSH2 0x19B5 JUMP JUMPDEST SUB PUSH2 0x153D JUMPI POP POP JUMP JUMPDEST PUSH1 0x1 DUP3 PUSH1 0x3 DUP2 GT ISZERO PUSH2 0x1551 JUMPI PUSH2 0x1551 PUSH2 0x19B5 JUMP JUMPDEST SUB PUSH2 0x156F JUMPI PUSH1 0x40 MLOAD PUSH4 0xF645EEDF PUSH1 0xE0 SHL DUP2 MSTORE PUSH1 0x4 ADD PUSH1 0x40 MLOAD DUP1 SWAP2 SUB SWAP1 REVERT JUMPDEST PUSH1 0x2 DUP3 PUSH1 0x3 DUP2 GT ISZERO PUSH2 0x1583 JUMPI PUSH2 0x1583 PUSH2 0x19B5 JUMP JUMPDEST SUB PUSH2 0x15A4 JUMPI PUSH1 0x40 MLOAD PUSH4 0xFCE698F7 PUSH1 0xE0 SHL DUP2 MSTORE PUSH1 0x4 DUP2 ADD DUP3 SWAP1 MSTORE PUSH1 0x24 ADD PUSH2 0x644 JUMP JUMPDEST PUSH1 0x3 DUP3 PUSH1 0x3 DUP2 GT ISZERO PUSH2 0x15B8 JUMPI PUSH2 0x15B8 PUSH2 0x19B5 JUMP JUMPDEST SUB PUSH2 0x8D7 JUMPI PUSH1 0x40 MLOAD PUSH4 0x35E2F383 PUSH1 0xE2 SHL DUP2 MSTORE PUSH1 0x4 DUP2 ADD DUP3 SWAP1 MSTORE PUSH1 0x24 ADD PUSH2 0x644 JUMP JUMPDEST PUSH1 0x60 PUSH0 PUSH2 0x15E5 DUP4 PUSH2 0x1616 JUMP JUMPDEST PUSH1 0x40 DUP1 MLOAD PUSH1 0x20 DUP1 DUP3 MSTORE DUP2 DUP4 ADD SWAP1 SWAP3 MSTORE SWAP2 SWAP3 POP PUSH0 SWAP2 SWAP1 PUSH1 0x20 DUP3 ADD DUP2 DUP1 CALLDATASIZE DUP4 CALLDATACOPY POP POP POP SWAP2 DUP3 MSTORE POP PUSH1 0x20 DUP2 ADD SWAP3 SWAP1 SWAP3 MSTORE POP SWAP1 JUMP JUMPDEST PUSH0 PUSH1 0xFF DUP3 AND PUSH1 0x1F DUP2 GT ISZERO PUSH2 0x55C JUMPI PUSH1 0x40 MLOAD PUSH4 0x2CD44AC3 PUSH1 0xE2 SHL DUP2 MSTORE PUSH1 0x4 ADD PUSH1 0x40 MLOAD DUP1 SWAP2 SUB SWAP1 REVERT JUMPDEST PUSH0 PUSH1 0x20 DUP3 DUP5 SUB SLT ISZERO PUSH2 0x164D JUMPI PUSH0 DUP1 REVERT JUMPDEST DUP2 CALLDATALOAD PUSH1 0x1 PUSH1 0x1 PUSH1 0xE0 SHL SUB NOT DUP2 AND DUP2 EQ PUSH2 0xB28 JUMPI PUSH0 DUP1 REVERT JUMPDEST PUSH0 DUP2 MLOAD DUP1 DUP5 MSTORE DUP1 PUSH1 0x20 DUP5 ADD PUSH1 0x20 DUP7 ADD MCOPY PUSH0 PUSH1 0x20 DUP3 DUP7 ADD ADD MSTORE PUSH1 0x20 PUSH1 0x1F NOT PUSH1 0x1F DUP4 ADD AND DUP6 ADD ADD SWAP2 POP POP SWAP3 SWAP2 POP POP JUMP JUMPDEST PUSH1 0x20 DUP2 MSTORE PUSH0 PUSH2 0xB28 PUSH1 0x20 DUP4 ADD DUP5 PUSH2 0x1664 JUMP JUMPDEST DUP1 CALLDATALOAD PUSH1 0x1 PUSH1 0x1 PUSH1 0xA0 SHL SUB DUP2 AND DUP2 EQ PUSH2 0x16BA JUMPI PUSH0 DUP1 REVERT JUMPDEST SWAP2 SWAP1 POP JUMP JUMPDEST PUSH0 DUP1 PUSH1 0x40 DUP4 DUP6 SUB SLT ISZERO PUSH2 0x16D0 JUMPI PUSH0 DUP1 REVERT JUMPDEST PUSH2 0x16D9 DUP4 PUSH2 0x16A4 JUMP JUMPDEST SWAP5 PUSH1 0x20 SWAP4 SWAP1 SWAP4 ADD CALLDATALOAD SWAP4 POP POP POP JUMP JUMPDEST PUSH0 PUSH1 0x20 DUP3 DUP5 SUB SLT ISZERO PUSH2 0x16F7 JUMPI PUSH0 DUP1 REVERT JUMPDEST PUSH2 0xB28 DUP3 PUSH2 0x16A4 JUMP JUMPDEST PUSH0 DUP1 PUSH0 PUSH1 0x60 DUP5 DUP7 SUB SLT ISZERO PUSH2 0x1712 JUMPI PUSH0 DUP1 REVERT JUMPDEST PUSH2 0x171B DUP5 PUSH2 0x16A4 JUMP JUMPDEST SWAP3 POP PUSH2 0x1729 PUSH1 0x20 DUP6 ADD PUSH2 0x16A4 JUMP JUMPDEST SWAP3 SWAP6 SWAP3 SWAP5 POP POP POP PUSH1 0x40 SWAP2 SWAP1 SWAP2 ADD CALLDATALOAD SWAP1 JUMP JUMPDEST PUSH0 PUSH1 0x20 DUP3 DUP5 SUB SLT ISZERO PUSH2 0x174A JUMPI PUSH0 DUP1 REVERT JUMPDEST POP CALLDATALOAD SWAP2 SWAP1 POP JUMP JUMPDEST PUSH0 DUP1 PUSH1 0x40 DUP4 DUP6 SUB SLT ISZERO PUSH2 0x1762 JUMPI PUSH0 DUP1 REVERT JUMPDEST DUP3 CALLDATALOAD SWAP2 POP PUSH2 0x1772 PUSH1 0x20 DUP5 ADD PUSH2 0x16A4 JUMP JUMPDEST SWAP1 POP SWAP3 POP SWAP3 SWAP1 POP JUMP JUMPDEST PUSH1 0xFF PUSH1 0xF8 SHL DUP9 AND DUP2 MSTORE PUSH1 0xE0 PUSH1 0x20 DUP3 ADD MSTORE PUSH0 PUSH2 0x1799 PUSH1 0xE0 DUP4 ADD DUP10 PUSH2 0x1664 JUMP JUMPDEST DUP3 DUP2 SUB PUSH1 0x40 DUP5 ADD MSTORE PUSH2 0x17AB DUP2 DUP10 PUSH2 0x1664 JUMP JUMPDEST PUSH1 0x60 DUP5 ADD DUP9 SWAP1 MSTORE PUSH1 0x1 PUSH1 0x1 PUSH1 0xA0 SHL SUB DUP8 AND PUSH1 0x80 DUP6 ADD MSTORE PUSH1 0xA0 DUP5 ADD DUP7 SWAP1 MSTORE DUP4 DUP2 SUB PUSH1 0xC0 DUP6 ADD MSTORE DUP5 MLOAD DUP1 DUP3 MSTORE PUSH1 0x20 DUP1 DUP8 ADD SWAP4 POP SWAP1 SWAP2 ADD SWAP1 PUSH0 JUMPDEST DUP2 DUP2 LT ISZERO PUSH2 0x1800 JUMPI DUP4 MLOAD DUP4 MSTORE PUSH1 0x20 SWAP4 DUP5 ADD SWAP4 SWAP1 SWAP3 ADD SWAP2 PUSH1 0x1 ADD PUSH2 0x17E2 JUMP JUMPDEST POP SWAP1 SWAP12 SWAP11 POP POP POP POP POP POP POP POP POP POP POP JUMP JUMPDEST PUSH0 DUP1 PUSH0 DUP1 PUSH0 DUP1 PUSH0 PUSH1 0xE0 DUP9 DUP11 SUB SLT ISZERO PUSH2 0x1827 JUMPI PUSH0 DUP1 REVERT JUMPDEST PUSH2 0x1830 DUP9 PUSH2 0x16A4 JUMP JUMPDEST SWAP7 POP PUSH2 0x183E PUSH1 0x20 DUP10 ADD PUSH2 0x16A4 JUMP JUMPDEST SWAP6 POP PUSH1 0x40 DUP9 ADD CALLDATALOAD SWAP5 POP PUSH1 0x60 DUP9 ADD CALLDATALOAD SWAP4 POP PUSH1 0x80 DUP9 ADD CALLDATALOAD PUSH1 0xFF DUP2 AND DUP2 EQ PUSH2 0x1861 JUMPI PUSH0 DUP1 REVERT JUMPDEST SWAP7 SWAP10 SWAP6 SWAP9 POP SWAP4 SWAP7 SWAP3 SWAP6 SWAP5 PUSH1 0xA0 DUP5 ADD CALLDATALOAD SWAP5 POP PUSH1 0xC0 SWAP1 SWAP4 ADD CALLDATALOAD SWAP3 SWAP2 POP POP JUMP JUMPDEST PUSH0 DUP1 PUSH1 0x40 DUP4 DUP6 SUB SLT ISZERO PUSH2 0x188F JUMPI PUSH0 DUP1 REVERT JUMPDEST PUSH2 0x1898 DUP4 PUSH2 0x16A4 JUMP JUMPDEST SWAP2 POP PUSH2 0x1772 PUSH1 0x20 DUP5 ADD PUSH2 0x16A4 JUMP JUMPDEST PUSH1 0x1 DUP2 DUP2 SHR SWAP1 DUP3 AND DUP1 PUSH2 0x18BA JUMPI PUSH1 0x7F DUP3 AND SWAP2 POP JUMPDEST PUSH1 0x20 DUP3 LT DUP2 SUB PUSH2 0x18D8 JUMPI PUSH4 0x4E487B71 PUSH1 0xE0 SHL PUSH0 MSTORE PUSH1 0x22 PUSH1 0x4 MSTORE PUSH1 0x24 PUSH0 REVERT JUMPDEST POP SWAP2 SWAP1 POP JUMP JUMPDEST PUSH1 0x20 DUP1 DUP3 MSTORE PUSH1 0x2F SWAP1 DUP3 ADD MSTORE PUSH32 0x546F6B656E73206172652066726F7A656E20616E642063616E6E6F7420626520 PUSH1 0x40 DUP3 ADD MSTORE PUSH15 0x1D1C985B9CD9995C9C9959081E595D PUSH1 0x8A SHL PUSH1 0x60 DUP3 ADD MSTORE PUSH1 0x80 ADD SWAP1 JUMP JUMPDEST PUSH4 0x4E487B71 PUSH1 0xE0 SHL PUSH0 MSTORE PUSH1 0x11 PUSH1 0x4 MSTORE PUSH1 0x24 PUSH0 REVERT JUMPDEST DUP1 DUP3 ADD DUP1 DUP3 GT ISZERO PUSH2 0x55C JUMPI PUSH2 0x55C PUSH2 0x192D JUMP JUMPDEST DUP2 DUP2 SUB DUP2 DUP2 GT ISZERO PUSH2 0x55C JUMPI PUSH2 0x55C PUSH2 0x192D JUMP JUMPDEST DUP1 DUP3 MUL DUP2 ISZERO DUP3 DUP3 DIV DUP5 EQ OR PUSH2 0x55C JUMPI PUSH2 0x55C PUSH2 0x192D JUMP JUMPDEST PUSH0 DUP3 PUSH2 0x1998 JUMPI PUSH4 0x4E487B71 PUSH1 0xE0 SHL PUSH0 MSTORE PUSH1 0x12 PUSH1 0x4 MSTORE PUSH1 0x24 PUSH0 REVERT JUMPDEST POP DIV SWAP1 JUMP JUMPDEST PUSH0 PUSH1 0x1 DUP3 ADD PUSH2 0x19AE JUMPI PUSH2 0x19AE PUSH2 0x192D JUMP JUMPDEST POP PUSH1 0x1 ADD SWAP1 JUMP JUMPDEST PUSH4 0x4E487B71 PUSH1 0xE0 SHL PUSH0 MSTORE PUSH1 0x21 PUSH1 0x4 MSTORE PUSH1 0x24 PUSH0 REVERT INVALID LOG2 PUSH5 0x6970667358 0x22 SLT KECCAK256 0xEF SAR DUP13 EXTCODESIZE 0xC4 0xB4 0x4C PC CODECOPY EXTCODESIZE MULMOD PUSH20 0xB13C1B62CC0BA4092A4F1FDCEA527256F278D6C1 PUSH5 0x736F6C6343 STOP ADDMOD BYTE STOP CALLER "
		},
		"gasEstimates": {
			"creation": {
				"codeDepositCost": "1331000",
				"executionCost": "infinite",
				"totalCost": "infinite"
			},
			"external": {
				"DEFAULT_ADMIN_ROLE()": "260",
				"DOMAIN_SEPARATOR()": "infinite",
				"allowance(address,address)": "infinite",
				"approve(address,uint256)": "24832",
				"balanceOf(address)": "2627",
				"baseAPR()": "2405",
				"burn(uint256)": "50961",
				"burnFrom(address,uint256)": "infinite",
				"calculateRewards(address)": "infinite",
				"cooldownPeriod()": "2363",
				"currentAPR()": "2427",
				"decimals()": "266",
				"eip712Domain()": "infinite",
				"freezeReleaseTime()": "2383",
				"frozenTokens()": "2361",
				"getRoleAdmin(bytes32)": "2575",
				"grantRole(bytes32,address)": "infinite",
				"hasRole(bytes32,address)": "2762",
				"isFreezePeriodOver()": "2383",
				"multiplierCount()": "2426",
				"multiplierDuration()": "2407",
				"multiplierResetTime()": "2338",
				"name()": "infinite",
				"nonces(address)": "2702",
				"permit(address,address,uint256,uint256,uint8,bytes32,bytes32)": "infinite",
				"renounceRole(bytes32,address)": "29158",
				"revokeRole(bytes32,address)": "infinite",
				"rewardsPaid()": "2362",
				"stake(uint256)": "infinite",
				"stakedBalances(address)": "2584",
				"stakingPool()": "2340",
				"stakingTimestamps(address)": "2649",
				"supportsInterface(bytes4)": "470",
				"symbol()": "infinite",
				"totalStaked()": "2339",
				"totalSupply()": "2381",
				"transfer(address,uint256)": "57799",
				"transferFrom(address,address,uint256)": "infinite",
				"unfreezeTokens()": "62664",
				"unstake(uint256)": "infinite",
				"updateAPR()": "57950"
			}
		},
		"methodIdentifiers": {
			"DEFAULT_ADMIN_ROLE()": "a217fddf",
			"DOMAIN_SEPARATOR()": "3644e515",
			"allowance(address,address)": "dd62ed3e",
			"approve(address,uint256)": "095ea7b3",
			"balanceOf(address)": "70a08231",
			"baseAPR()": "58ac0e80",
			"burn(uint256)": "42966c68",
			"burnFrom(address,uint256)": "79cc6790",
			"calculateRewards(address)": "64ab8675",
			"cooldownPeriod()": "04646a49",
			"currentAPR()": "60577981",
			"decimals()": "313ce567",
			"eip712Domain()": "84b0196e",
			"freezeReleaseTime()": "51500c3a",
			"frozenTokens()": "508d962b",
			"getRoleAdmin(bytes32)": "248a9ca3",
			"grantRole(bytes32,address)": "2f2ff15d",
			"hasRole(bytes32,address)": "91d14854",
			"isFreezePeriodOver()": "a327a281",
			"multiplierCount()": "df313457",
			"multiplierDuration()": "085cde2d",
			"multiplierResetTime()": "cf26eca4",
			"name()": "06fdde03",
			"nonces(address)": "7ecebe00",
			"permit(address,address,uint256,uint256,uint8,bytes32,bytes32)": "d505accf",
			"renounceRole(bytes32,address)": "36568abe",
			"revokeRole(bytes32,address)": "d547741f",
			"rewardsPaid()": "69d8d6d2",
			"stake(uint256)": "a694fc3a",
			"stakedBalances(address)": "1460fa87",
			"stakingPool()": "0c56ae3b",
			"stakingTimestamps(address)": "937b983b",
			"supportsInterface(bytes4)": "01ffc9a7",
			"symbol()": "95d89b41",
			"totalStaked()": "817b1cd2",
			"totalSupply()": "18160ddd",
			"transfer(address,uint256)": "a9059cbb",
			"transferFrom(address,address,uint256)": "23b872dd",
			"unfreezeTokens()": "ffba376c",
			"unstake(uint256)": "2e17de78",
			"updateAPR()": "81ad8cd8"
		}
	},
	"abi": [
		{
			"inputs": [
				{
					"internalType": "address",
					"name": "defaultAdmin",
					"type": "address"
				}
			],
			"stateMutability": "nonpayable",
			"type": "constructor"
		},
		{
			"inputs": [],
			"name": "AccessControlBadConfirmation",
			"type": "error"
		},
		{
			"inputs": [
				{
					"internalType": "address",
					"name": "account",
					"type": "address"
				},
				{
					"internalType": "bytes32",
					"name": "neededRole",
					"type": "bytes32"
				}
			],
			"name": "AccessControlUnauthorizedAccount",
			"type": "error"
		},
		{
			"inputs": [],
			"name": "ECDSAInvalidSignature",
			"type": "error"
		},
		{
			"inputs": [
				{
					"internalType": "uint256",
					"name": "length",
					"type": "uint256"
				}
			],
			"name": "ECDSAInvalidSignatureLength",
			"type": "error"
		},
		{
			"inputs": [
				{
					"internalType": "bytes32",
					"name": "s",
					"type": "bytes32"
				}
			],
			"name": "ECDSAInvalidSignatureS",
			"type": "error"
		},
		{
			"inputs": [
				{
					"internalType": "address",
					"name": "spender",
					"type": "address"
				},
				{
					"internalType": "uint256",
					"name": "allowance",
					"type": "uint256"
				},
				{
					"internalType": "uint256",
					"name": "needed",
					"type": "uint256"
				}
			],
			"name": "ERC20InsufficientAllowance",
			"type": "error"
		},
		{
			"inputs": [
				{
					"internalType": "address",
					"name": "sender",
					"type": "address"
				},
				{
					"internalType": "uint256",
					"name": "balance",
					"type": "uint256"
				},
				{
					"internalType": "uint256",
					"name": "needed",
					"type": "uint256"
				}
			],
			"name": "ERC20InsufficientBalance",
			"type": "error"
		},
		{
			"inputs": [
				{
					"internalType": "address",
					"name": "approver",
					"type": "address"
				}
			],
			"name": "ERC20InvalidApprover",
			"type": "error"
		},
		{
			"inputs": [
				{
					"internalType": "address",
					"name": "receiver",
					"type": "address"
				}
			],
			"name": "ERC20InvalidReceiver",
			"type": "error"
		},
		{
			"inputs": [
				{
					"internalType": "address",
					"name": "sender",
					"type": "address"
				}
			],
			"name": "ERC20InvalidSender",
			"type": "error"
		},
		{
			"inputs": [
				{
					"internalType": "address",
					"name": "spender",
					"type": "address"
				}
			],
			"name": "ERC20InvalidSpender",
			"type": "error"
		},
		{
			"inputs": [
				{
					"internalType": "uint256",
					"name": "deadline",
					"type": "uint256"
				}
			],
			"name": "ERC2612ExpiredSignature",
			"type": "error"
		},
		{
			"inputs": [
				{
					"internalType": "address",
					"name": "signer",
					"type": "address"
				},
				{
					"internalType": "address",
					"name": "owner",
					"type": "address"
				}
			],
			"name": "ERC2612InvalidSigner",
			"type": "error"
		},
		{
			"inputs": [
				{
					"internalType": "address",
					"name": "account",
					"type": "address"
				},
				{
					"internalType": "uint256",
					"name": "currentNonce",
					"type": "uint256"
				}
			],
			"name": "InvalidAccountNonce",
			"type": "error"
		},
		{
			"inputs": [],
			"name": "InvalidShortString",
			"type": "error"
		},
		{
			"inputs": [
				{
					"internalType": "string",
					"name": "str",
					"type": "string"
				}
			],
			"name": "StringTooLong",
			"type": "error"
		},
		{
			"anonymous": false,
			"inputs": [
				{
					"indexed": true,
					"internalType": "address",
					"name": "owner",
					"type": "address"
				},
				{
					"indexed": true,
					"internalType": "address",
					"name": "spender",
					"type": "address"
				},
				{
					"indexed": false,
					"internalType": "uint256",
					"name": "value",
					"type": "uint256"
				}
			],
			"name": "Approval",
			"type": "event"
		},
		{
			"anonymous": false,
			"inputs": [],
			"name": "EIP712DomainChanged",
			"type": "event"
		},
		{
			"anonymous": false,
			"inputs": [
				{
					"indexed": true,
					"internalType": "bytes32",
					"name": "role",
					"type": "bytes32"
				},
				{
					"indexed": true,
					"internalType": "bytes32",
					"name": "previousAdminRole",
					"type": "bytes32"
				},
				{
					"indexed": true,
					"internalType": "bytes32",
					"name": "newAdminRole",
					"type": "bytes32"
				}
			],
			"name": "RoleAdminChanged",
			"type": "event"
		},
		{
			"anonymous": false,
			"inputs": [
				{
					"indexed": true,
					"internalType": "bytes32",
					"name": "role",
					"type": "bytes32"
				},
				{
					"indexed": true,
					"internalType": "address",
					"name": "account",
					"type": "address"
				},
				{
					"indexed": true,
					"internalType": "address",
					"name": "sender",
					"type": "address"
				}
			],
			"name": "RoleGranted",
			"type": "event"
		},
		{
			"anonymous": false,
			"inputs": [
				{
					"indexed": true,
					"internalType": "bytes32",
					"name": "role",
					"type": "bytes32"
				},
				{
					"indexed": true,
					"internalType": "address",
					"name": "account",
					"type": "address"
				},
				{
					"indexed": true,
					"internalType": "address",
					"name": "sender",
					"type": "address"
				}
			],
			"name": "RoleRevoked",
			"type": "event"
		},
		{
			"anonymous": false,
			"inputs": [
				{
					"indexed": true,
					"internalType": "address",
					"name": "from",
					"type": "address"
				},
				{
					"indexed": true,
					"internalType": "address",
					"name": "to",
					"type": "address"
				},
				{
					"indexed": false,
					"internalType": "uint256",
					"name": "value",
					"type": "uint256"
				}
			],
			"name": "Transfer",
			"type": "event"
		},
		{
			"inputs": [],
			"name": "DEFAULT_ADMIN_ROLE",
			"outputs": [
				{
					"internalType": "bytes32",
					"name": "",
					"type": "bytes32"
				}
			],
			"stateMutability": "view",
			"type": "function"
		},
		{
			"inputs": [],
			"name": "DOMAIN_SEPARATOR",
			"outputs": [
				{
					"internalType": "bytes32",
					"name": "",
					"type": "bytes32"
				}
			],
			"stateMutability": "view",
			"type": "function"
		},
		{
			"inputs": [
				{
					"internalType": "address",
					"name": "owner",
					"type": "address"
				},
				{
					"internalType": "address",
					"name": "spender",
					"type": "address"
				}
			],
			"name": "allowance",
			"outputs": [
				{
					"internalType": "uint256",
					"name": "",
					"type": "uint256"
				}
			],
			"stateMutability": "view",
			"type": "function"
		},
		{
			"inputs": [
				{
					"internalType": "address",
					"name": "spender",
					"type": "address"
				},
				{
					"internalType": "uint256",
					"name": "value",
					"type": "uint256"
				}
			],
			"name": "approve",
			"outputs": [
				{
					"internalType": "bool",
					"name": "",
					"type": "bool"
				}
			],
			"stateMutability": "nonpayable",
			"type": "function"
		},
		{
			"inputs": [
				{
					"internalType": "address",
					"name": "account",
					"type": "address"
				}
			],
			"name": "balanceOf",
			"outputs": [
				{
					"internalType": "uint256",
					"name": "",
					"type": "uint256"
				}
			],
			"stateMutability": "view",
			"type": "function"
		},
		{
			"inputs": [],
			"name": "baseAPR",
			"outputs": [
				{
					"internalType": "uint256",
					"name": "",
					"type": "uint256"
				}
			],
			"stateMutability": "view",
			"type": "function"
		},
		{
			"inputs": [
				{
					"internalType": "uint256",
					"name": "value",
					"type": "uint256"
				}
			],
			"name": "burn",
			"outputs": [],
			"stateMutability": "nonpayable",
			"type": "function"
		},
		{
			"inputs": [
				{
					"internalType": "address",
					"name": "account",
					"type": "address"
				},
				{
					"internalType": "uint256",
					"name": "value",
					"type": "uint256"
				}
			],
			"name": "burnFrom",
			"outputs": [],
			"stateMutability": "nonpayable",
			"type": "function"
		},
		{
			"inputs": [
				{
					"internalType": "address",
					"name": "user",
					"type": "address"
				}
			],
			"name": "calculateRewards",
			"outputs": [
				{
					"internalType": "uint256",
					"name": "",
					"type": "uint256"
				}
			],
			"stateMutability": "view",
			"type": "function"
		},
		{
			"inputs": [],
			"name": "cooldownPeriod",
			"outputs": [
				{
					"internalType": "uint256",
					"name": "",
					"type": "uint256"
				}
			],
			"stateMutability": "view",
			"type": "function"
		},
		{
			"inputs": [],
			"name": "currentAPR",
			"outputs": [
				{
					"internalType": "uint256",
					"name": "",
					"type": "uint256"
				}
			],
			"stateMutability": "view",
			"type": "function"
		},
		{
			"inputs": [],
			"name": "decimals",
			"outputs": [
				{
					"internalType": "uint8",
					"name": "",
					"type": "uint8"
				}
			],
			"stateMutability": "view",
			"type": "function"
		},
		{
			"inputs": [],
			"name": "eip712Domain",
			"outputs": [
				{
					"internalType": "bytes1",
					"name": "fields",
					"type": "bytes1"
				},
				{
					"internalType": "string",
					"name": "name",
					"type": "string"
				},
				{
					"internalType": "string",
					"name": "version",
					"type": "string"
				},
				{
					"internalType": "uint256",
					"name": "chainId",
					"type": "uint256"
				},
				{
					"internalType": "address",
					"name": "verifyingContract",
					"type": "address"
				},
				{
					"internalType": "bytes32",
					"name": "salt",
					"type": "bytes32"
				},
				{
					"internalType": "uint256[]",
					"name": "extensions",
					"type": "uint256[]"
				}
			],
			"stateMutability": "view",
			"type": "function"
		},
		{
			"inputs": [],
			"name": "freezeReleaseTime",
			"outputs": [
				{
					"internalType": "uint256",
					"name": "",
					"type": "uint256"
				}
			],
			"stateMutability": "view",
			"type": "function"
		},
		{
			"inputs": [],
			"name": "frozenTokens",
			"outputs": [
				{
					"internalType": "uint256",
					"name": "",
					"type": "uint256"
				}
			],
			"stateMutability": "view",
			"type": "function"
		},
		{
			"inputs": [
				{
					"internalType": "bytes32",
					"name": "role",
					"type": "bytes32"
				}
			],
			"name": "getRoleAdmin",
			"outputs": [
				{
					"internalType": "bytes32",
					"name": "",
					"type": "bytes32"
				}
			],
			"stateMutability": "view",
			"type": "function"
		},
		{
			"inputs": [
				{
					"internalType": "bytes32",
					"name": "role",
					"type": "bytes32"
				},
				{
					"internalType": "address",
					"name": "account",
					"type": "address"
				}
			],
			"name": "grantRole",
			"outputs": [],
			"stateMutability": "nonpayable",
			"type": "function"
		},
		{
			"inputs": [
				{
					"internalType": "bytes32",
					"name": "role",
					"type": "bytes32"
				},
				{
					"internalType": "address",
					"name": "account",
					"type": "address"
				}
			],
			"name": "hasRole",
			"outputs": [
				{
					"internalType": "bool",
					"name": "",
					"type": "bool"
				}
			],
			"stateMutability": "view",
			"type": "function"
		},
		{
			"inputs": [],
			"name": "isFreezePeriodOver",
			"outputs": [
				{
					"internalType": "bool",
					"name": "",
					"type": "bool"
				}
			],
			"stateMutability": "view",
			"type": "function"
		},
		{
			"inputs": [],
			"name": "multiplierCount",
			"outputs": [
				{
					"internalType": "uint256",
					"name": "",
					"type": "uint256"
				}
			],
			"stateMutability": "view",
			"type": "function"
		},
		{
			"inputs": [],
			"name": "multiplierDuration",
			"outputs": [
				{
					"internalType": "uint256",
					"name": "",
					"type": "uint256"
				}
			],
			"stateMutability": "view",
			"type": "function"
		},
		{
			"inputs": [],
			"name": "multiplierResetTime",
			"outputs": [
				{
					"internalType": "uint256",
					"name": "",
					"type": "uint256"
				}
			],
			"stateMutability": "view",
			"type": "function"
		},
		{
			"inputs": [],
			"name": "name",
			"outputs": [
				{
					"internalType": "string",
					"name": "",
					"type": "string"
				}
			],
			"stateMutability": "view",
			"type": "function"
		},
		{
			"inputs": [
				{
					"internalType": "address",
					"name": "owner",
					"type": "address"
				}
			],
			"name": "nonces",
			"outputs": [
				{
					"internalType": "uint256",
					"name": "",
					"type": "uint256"
				}
			],
			"stateMutability": "view",
			"type": "function"
		},
		{
			"inputs": [
				{
					"internalType": "address",
					"name": "owner",
					"type": "address"
				},
				{
					"internalType": "address",
					"name": "spender",
					"type": "address"
				},
				{
					"internalType": "uint256",
					"name": "value",
					"type": "uint256"
				},
				{
					"internalType": "uint256",
					"name": "deadline",
					"type": "uint256"
				},
				{
					"internalType": "uint8",
					"name": "v",
					"type": "uint8"
				},
				{
					"internalType": "bytes32",
					"name": "r",
					"type": "bytes32"
				},
				{
					"internalType": "bytes32",
					"name": "s",
					"type": "bytes32"
				}
			],
			"name": "permit",
			"outputs": [],
			"stateMutability": "nonpayable",
			"type": "function"
		},
		{
			"inputs": [
				{
					"internalType": "bytes32",
					"name": "role",
					"type": "bytes32"
				},
				{
					"internalType": "address",
					"name": "callerConfirmation",
					"type": "address"
				}
			],
			"name": "renounceRole",
			"outputs": [],
			"stateMutability": "nonpayable",
			"type": "function"
		},
		{
			"inputs": [
				{
					"internalType": "bytes32",
					"name": "role",
					"type": "bytes32"
				},
				{
					"internalType": "address",
					"name": "account",
					"type": "address"
				}
			],
			"name": "revokeRole",
			"outputs": [],
			"stateMutability": "nonpayable",
			"type": "function"
		},
		{
			"inputs": [],
			"name": "rewardsPaid",
			"outputs": [
				{
					"internalType": "uint256",
					"name": "",
					"type": "uint256"
				}
			],
			"stateMutability": "view",
			"type": "function"
		},
		{
			"inputs": [
				{
					"internalType": "uint256",
					"name": "amount",
					"type": "uint256"
				}
			],
			"name": "stake",
			"outputs": [],
			"stateMutability": "nonpayable",
			"type": "function"
		},
		{
			"inputs": [
				{
					"internalType": "address",
					"name": "",
					"type": "address"
				}
			],
			"name": "stakedBalances",
			"outputs": [
				{
					"internalType": "uint256",
					"name": "",
					"type": "uint256"
				}
			],
			"stateMutability": "view",
			"type": "function"
		},
		{
			"inputs": [],
			"name": "stakingPool",
			"outputs": [
				{
					"internalType": "uint256",
					"name": "",
					"type": "uint256"
				}
			],
			"stateMutability": "view",
			"type": "function"
		},
		{
			"inputs": [
				{
					"internalType": "address",
					"name": "",
					"type": "address"
				}
			],
			"name": "stakingTimestamps",
			"outputs": [
				{
					"internalType": "uint256",
					"name": "",
					"type": "uint256"
				}
			],
			"stateMutability": "view",
			"type": "function"
		},
		{
			"inputs": [
				{
					"internalType": "bytes4",
					"name": "interfaceId",
					"type": "bytes4"
				}
			],
			"name": "supportsInterface",
			"outputs": [
				{
					"internalType": "bool",
					"name": "",
					"type": "bool"
				}
			],
			"stateMutability": "view",
			"type": "function"
		},
		{
			"inputs": [],
			"name": "symbol",
			"outputs": [
				{
					"internalType": "string",
					"name": "",
					"type": "string"
				}
			],
			"stateMutability": "view",
			"type": "function"
		},
		{
			"inputs": [],
			"name": "totalStaked",
			"outputs": [
				{
					"internalType": "uint256",
					"name": "",
					"type": "uint256"
				}
			],
			"stateMutability": "view",
			"type": "function"
		},
		{
			"inputs": [],
			"name": "totalSupply",
			"outputs": [
				{
					"internalType": "uint256",
					"name": "",
					"type": "uint256"
				}
			],
			"stateMutability": "view",
			"type": "function"
		},
		{
			"inputs": [
				{
					"internalType": "address",
					"name": "recipient",
					"type": "address"
				},
				{
					"internalType": "uint256",
					"name": "amount",
					"type": "uint256"
				}
			],
			"name": "transfer",
			"outputs": [
				{
					"internalType": "bool",
					"name": "",
					"type": "bool"
				}
			],
			"stateMutability": "nonpayable",
			"type": "function"
		},
		{
			"inputs": [
				{
					"internalType": "address",
					"name": "sender",
					"type": "address"
				},
				{
					"internalType": "address",
					"name": "recipient",
					"type": "address"
				},
				{
					"internalType": "uint256",
					"name": "amount",
					"type": "uint256"
				}
			],
			"name": "transferFrom",
			"outputs": [
				{
					"internalType": "bool",
					"name": "",
					"type": "bool"
				}
			],
			"stateMutability": "nonpayable",
			"type": "function"
		},
		{
			"inputs": [],
			"name": "unfreezeTokens",
			"outputs": [],
			"stateMutability": "nonpayable",
			"type": "function"
		},
		{
			"inputs": [
				{
					"internalType": "uint256",
					"name": "amount",
					"type": "uint256"
				}
			],
			"name": "unstake",
			"outputs": [],
			"stateMutability": "nonpayable",
			"type": "function"
		},
		{
			"inputs": [],
			"name": "updateAPR",
			"outputs": [],
			"stateMutability": "nonpayable",
			"type": "function"
		}
	]
}